:100000000C941A060C9437060C9437060C94370699
:100010000C9437060C9437060C9437060C9437066C
:100020000C9437060C9437060C944C2B0C94202C13
:100030000C9497250C9437060C9437060C943706CD
:100040000C9437060C9437060C9437060C9437063C
:100050000C9437060C941E260C9437060C94370625
:100060000C9437060C9437060C9437060C9437061C
:100070000C9437060C9437060C9437060C9437060C
:100080000C9437060C9437060C9437060C943706FC
:100090000C9437060C9437060C9437060C943706EC
:1000A0000C9437060C9437060C94370614001A008B
:1000B000080015001700000000001C0018000C00CC
:1000C0001200130004001600070009000A000000D7
:1000D00000000B000D000E000F0033001D001B0080
:1000E0000600190005002B002A0011001000360040
:1000F00037003800167CC152C252E300E100E00034
:1001000021522C0022522D00340028001E021F0212
:100110002002210222020000000023022402250204
:100120002D002E002F002602270230002D00000097
:1001300000005000510052004F0034002F022502F1
:100140002E0230022D0235024C003900210A3602FF
:1001500037023100005201000100E300E100E0003D
:100160000100E10001002D02340228023A0023526E
:10017000000000000000000000002502240025000F
:1001800026002E002F00260227023000000000006B
:1001900000002E0221002200230027002F02000071
:1001A000000030020000A9002A002D001E001F00E0
:1001B0002000380000520100010000000000AA00E9
:1001C000AE002C000100360037001E7C007C0100D0
:1001D000000000000000000000000000000000001F
:1001E000000000000000000000000000000000000F
:1001F00000000000000000000000000000000000FF
:1002000000000000000000000000000000000000EE
:10021000000000000052000000000000000000008C
:1002200000000000000000000000000044454255AE
:10023000473A2064697361626C65642E0A00444524
:100240004255473A20656E61626C65642E0A006C07
:1002500065645F7461736B3A20253032580A004F31
:100260006E6573686F743A206163746976653A20CD
:1002700025640A000A002530313662003A20002544
:10028000303258000A722F63203031323334353621
:100290003738394142434445460A00556E69636F19
:1002A000646520696E707574206D6F646520736578
:1002B0007420746F3A2025750A00556E69636F6467
:1002C0006520696E707574206D6F646520696E6954
:1002D0007420746F3A2025750A00313A0964656C00
:1002E0006179282A31306D73293A2025750A323A0E
:1002F00009696E74657276616C286D73293A2025E0
:10030000750A333A096D61785F73706565643A20E8
:1003100025750A343A0974696D655F746F5F6D61A4
:10032000783A2025750A353A09776865656C5F6DFE
:1003300061785F73706565643A2025750A363A09FD
:10034000776865656C5F74696D655F746F5F6D611B
:10035000783A2025750A00703A097072696E742027
:1003600076616C7565730A643A0973657420646517
:100370006661756C74730A75703A092B310A646E84
:100380003A092D310A6C743A092B31300A72743AE9
:10039000092D31300A4553432F713A09717569743B
:1003A0000A0A7370656564203D2064656C74612081
:1003B0002A206D61785F7370656564202A20287239
:1003C0006570656174202F2074696D655F746F5F5F
:1003D0006D6178290A77686572652064656C74615F
:1003E0003A20637572736F723D25642C20776865BF
:1003F000656C3D25640A53656520687474703A2FF6
:100400002F656E2E77696B6970656469612E6F72F6
:10041000672F77696B692F4D6F7573655F6B6579B2
:10042000730A004D3E20004D25753A25733E20008D
:100430003F0A003D2025750A003F0A006465666199
:10044000756C74730A0025750A003F0A000A092DAD
:100450002056616C756573202D0A00710A000A0927
:100460002D204D6F7573656B6579202D0A003F0057
:10047000433E20004C25640A000A092D2053746174
:10048000747573202D0A686F73745F6B6579626F82
:100490006172645F6C65647328293A202530325894
:1004A0000A6B6579626F6172645F70726F746F63FB
:1004B0006F6C3A20253032580A6B6579626F617231
:1004C000645F69646C653A20253032580A6B65793F
:1004D0006D61705F636F6E6669672E6E6B726F3AE7
:1004E00020253032580A74696D65725F72656164E7
:1004F000333228293A202530386C580A00257300F9
:100500000A092D20436F6E736F6C65202D0A4553C9
:10051000432F713A09717569740A6D3A096D6F75E7
:1005200073656B65790A000A092D204D616769635F
:10053000202D0A443A094465627567204D6573733E
:1005400061676520546F67676C650A583A094D61A9
:1005500074726978204465627567204D6F64652008
:10056000546F67676C65202D2053686F77206B652B
:10057000797072657373657320696E206D61747232
:10058000697820677269640A4B3A094B6579626F32
:1005900061726420446562756720546F67676C659B
:1005A000202D2053686F77206B65797072657373A7
:1005B000207265706F72740A4D3A094465627567FE
:1005C000204D6F75736520546F67676C650A563AE6
:1005D0000956657273696F6E0A533A0953746174F0
:1005E00075730A433A0941637469766174652043FF
:1005F0006F6E736F6C65204D6F64650A46312D46D2
:1006000031303A0953776974636820746F204C6104
:1006100079657220302D392028463130203D204C1C
:1006200030290A302D393A09537769746368207488
:100630006F204C6179657220302D390A475241563E
:10064000453A0953776974636820746F204C617967
:10065000657220302028616C7465726E6174652942
:100660000A423A094A756D7020746F20426F6F74A8
:100670006C6F616465720A4553433A094A756D703F
:1006800020746F20426F6F746C6F616465722028F4
:10069000616C7465726E617465290A453A0950721D
:1006A000696E7420454550524F4D205365747469EE
:1006B0006E67730A4241434B53504143453A0943E5
:1006C0006C65617220454550524F4D0A4E3A094EB5
:1006D0004B524F20546F67676C650A006B65796DEC
:1006E00061705F636F6E6669672E7261773A20256D
:1006F0003032580A2E737761705F636F6E74726F59
:100700006C5F636170736C6F636B3A2025750A2EA2
:10071000636170736C6F636B5F746F5F636F6E7434
:10072000726F6C3A2025750A2E737761705F6C6367
:10073000746C5F6C6775693A2025750A2E73776152
:10074000705F7263746C5F726775693A2025750A11
:100750002E737761705F6C616C745F6C6775693A5A
:100760002025750A2E737761705F72616C745F72F9
:100770006775693A2025750A2E6E6F5F6775693A4D
:100780002025750A2E737761705F67726176655FE9
:100790006573633A2025750A2E737761705F626115
:1007A000636B736C6173685F6261636B73706163C9
:1007B000653A2025750A2E6E6B726F3A2025750AF0
:1007C0002E737761705F6573636170655F636170DD
:1007D000736C6F636B3A2025750A006465627567F8
:1007E0005F636F6E6669672E7261773A20253032DB
:1007F000580A2E656E61626C653A2025750A2E6D69
:1008000061747269783A2025750A2E6B6579626F7A
:100810006172643A2025750A2E6D6F7573653A20F2
:1008200025750A006565636F6E6669673A0A6465D7
:100830006661756C745F6C617965723A2025750A22
:10084000003F004E4B524F3A206F66660A004E4BF7
:10085000524F3A206F6E0A000A6D6F7573653A2029
:100860006F66660A000A6D6F7573653A206F6E0ACF
:10087000000A6B6579626F6172643A206F66660A7E
:10088000000A6B6579626F6172643A206F6E0A00CC
:100890000A6D61747269783A206F66660A000A6DA3
:1008A00061747269783A206F6E0A000A6465627535
:1008B000673A206F66660A000A64656275673A20C7
:1008C0006F6E0A000A0A4A756D70696E6720746F50
:1008D00020626F6F746C6F616465722E2E2E200023
:1008E000433E2000436C656172696E672045455048
:1008F000524F4D0A00290A002575002F002575006A
:100900005D28002564002000256400200025640087
:1009100020002564007C0025303258006D6F75730F
:10092000656B6579205B62746E7C78207920762017
:10093000685D287265702F61636C293A205B000046
:10094000000000000000002A2B280000000000002A
:100950000000000000000000000029000000002C42
:100960001E3420212224342627252E362D373827E1
:100970001E1F202122232425263333362E37381FED
:100980000405060708090A0B0C0D0E0F10111213AF
:100990001415161718191A1B1C1D2F3130232D354D
:1009A0000405060708090A0B0C0D0E0F101112138F
:1009B0001415161718191A1B1C1D2F3130354C0031
:1009C0000000000000000000000000000000000027
:1009D0000000000000000000000000000000000017
:1009E0000000007E0F00D4FFFFFFC7000000780A60
:1009F000002530325820006E6B726F5F7265706F29
:100A000072743A2025303258207C20000A002530AC
:100A1000325820006B6579626F6172645F72657035
:100A20006F72743A2025303258207C200064656C47
:100A30005F6B65795F6269743A2063616E27742029
:100A400064656C3A20253032580A006164645F6B3B
:100A500065795F6269743A2063616E27742061640E
:100A6000643A20253032580A0073757370656E64DD
:100A7000696E67206B6579626F6172640D0A005B55
:100A8000575D005B535D005B525D005B445D005B46
:100A9000435D000E03410074007200650075007331
:100AA00000000016034B006500790062006F0061D2
:100AB000007200640069006F00000004030904096B
:100AC000025400030100A0FA09040000010301011F
:100AD00000092111010001224400070581030800DB
:100AE00001090401000103000000092111010001B6
:100AF00022B6000705820320000109040200010359
:100B000000000009211101000122150007058303DF
:100B10002000011201000200000008091203230155
:100B200000010200010631FF0974A10109751500D9
:100B300026FF00952075088102C005010902A10168
:100B400085020901A10005091901290815002501DF
:100B50009508750181020501093009311581257F4C
:100B600095027508810609381581257F950175085C
:100B70008106050C0A38021581257F9501750881CB
:100B800006C0C005010980A101850319012AB7002B
:100B9000150126B700950175108100C0050C0901EB
:100BA000A101850419012AA002150126A0029501C0
:100BB00075108100C005010906A101850605071908
:100BC000E029E7150025019508750181020507193F
:100BD0000029EF1500250195F0750181020508191E
:100BE000012905950575019102950175039101C0D3
:100BF00005010906A101050719E029E715002501EE
:100C00009508750181029501750881010507190094
:100C100029FF150026FF00950675088100050819B3
:100C200001290515002501950575019102950175AC
:100C3000039101C011241FBECFEFDAE0DEBFCDBFAC
:100C400012E0A0E0B1E0EEE4FEE502C005900D92F6
:100C5000A83DB107D9F723E0A8EDB2E001C01D928D
:100C6000A73FB207E1F70E94FE170C949F2E0C9449
:100C70000000FF93EF93E091D802F091D9023097F2
:100C800009F00995EF91FF910895FC01859180305D
:100C900011F0EFDFFBCF0895FF27E0E230E247FFDE
:100CA0000CC0419597FF09C0EDE260957095809565
:100CB0009095611D711D811D911D27FF02C0219519
:100CC00030E350E2AA27660F771F881F991FAA1FDB
:100CD000A41710F0A41B63955A95A9F7AA3008F041
:100CE000A95FA05DAF93F39561157105810591052D
:100CF00041F7ED3211F4EF93F395F21718F43F93A7
:100D0000F395FBCF8F91B5DFFA95E1F70895E9915F
:100D1000F9918591803021F0853219F0AADFF9CF61
:100D2000089520E0E89455915532C1F3503311F401
:100D3000689455915A3348F4505390F3220F022E81
:100D4000220F220F200D250FF4CF0EF4219589914B
:100D50009991533619F3533729F1533559F1BC01A1
:100D600088279927E8945C3621F4899199916894B1
:100D70005591543639F446EF7EF077FF0DC08FEF72
:100D80009FEF0AC055374AE039F0583540E121F06D
:100D9000523642E009F00895FF93EF937DDFEF9123
:100DA000FF91B7CFFF93EF93FC0181918030B9F3AE
:100DB00060DFFBCFFF93EF9368DFF1CFDF93CF933B
:100DC000CDB7DEB72596A3DFCF91DF9108958430AC
:100DD000B8F46430A8F44C3098F450E09CE0699F7B
:100DE000400D511D1124FA0190E3899FE00DF11D82
:100DF0001124EE0FFF1FE455FF4F85919491089544
:100E000081E090E008950E94E70608959C013A95DC
:100E100021153F4150F5FC01EE27F170BC0166271A
:100E20007270AC01442754709C012227387094FFE3
:100E30000EC080E1EF2B09F480E0672B09F080629F
:100E4000452B09F08064232B89F08068089581E0A8
:100E5000EF2B09F480E0672B09F08260452B09F045
:100E60008460232B19F08860089580E00895CF9363
:100E7000DF93EB010E940607FE010995DF91CF91F8
:100E80000895CF93DF93EC01805E9109089720F0DD
:100E900062EB7CE0209711F465E77AE0CE010E94D6
:100EA00037078C2F0E946709DF91CF910895CF9368
:100EB000DF93EC010E94FA09CE01805E9109089748
:100EC00020F069EB7CE0209711F46CE77AE0CE012A
:100ED0000E943707DF91CF9108950F931F93CF930F
:100EE000DF938C01EB010E944107209741F4C80178
:100EF0000E945707DF91CF911F910F9108958FE9BD
:100F00009FE00197F1F700C000002197EECF70E05D
:100F100060E08933910511F460E570E00E946D078F
:100F2000089581E008950E949107089581E0089551
:100F30000E94910708950E949807089508950E94BD
:100F40009E070895A6E0B0E0E8EAF7E00C94FB2DD8
:100F500049835A839E833091DF0289819A813111BE
:100F60001AC03E81332399F0222389F00E94250E76
:100F7000182F682F89819A810E94010E69817A81D8
:100F8000812F0E9450152696E3E00C94172E0E94A4
:100F9000130E182FF3CF0E94250E69817A81F1CFAD
:100FA000FC01262F4081518162817381848195816A
:100FB0000E94A2070895CF93DF93EC0161E00E94A5
:100FC000D007BE010E949307DF91CF910895CF9380
:100FD000DF93EC0160E00E94D007BE010E949F07F2
:100FE000DF91CF91089521E030E0A90102C0440FC4
:100FF000551F8A95E2F7CA010E94230D0895CF93E9
:10100000C82F81E090E00C2E02C0880F991F0A942F
:10101000E2F70E94A7128C2F0E94F307CF91089548
:1010200081E008950E9410080895CF93C82F0E9470
:10103000D60C8C2F0E9412082FEF84E39CE02150E5
:1010400080409040E1F700C00000CF91089581E01A
:101050000E9415080E944226089580E00E9415080B
:101060000E94532608950F931F93CF93DF938C0113
:1010700061E00E94D007EC01B8010E949B0781113A
:1010800006C080E0DF91CF911F910F910895B801C4
:10109000CE010E9428188823A1F3B801CE010E9436
:1010A0006922882371F3B801CE010E94581D88235C
:1010B00041F3B801CE010E942E1D882311F3B8011F
:1010C000CE010E9452168823E1F2F801858188231F
:1010D00069F0C330FCE7DF07A1F160F4C130ECE751
:1010E000DE0789F1C0F4C115DC4791F0C8010E9408
:1010F0009607C8CFCB35ECE7DE0759F1CC35FCE7D6
:10110000DF0721F1CA35DC4789F70E948212EECF52
:101110000E942708B6CF9091A403892F8E7F90FF5D
:1011200081608093A40380FF09C08EE392E09F93C7
:101130008F930E94DE060F900F90A3CF8CE292E077
:10114000F6CF0E948A120E942D089BCF0E9478122F
:10115000CDCF0E948612CACF0E9473250E94F1084B
:1011600008950E94F5080E9478250895829590E0E0
:101170009C01220F331F220F331F2C7C95958795DE
:10118000959587958373282B30E0C901880F991FA7
:101190008A7A359527952575822B0895CF93DF930D
:1011A000D92F0E94B608C82F8D2F0E94B6089C2FF9
:1011B000DF91CF91089581E008950895CF93DF9353
:1011C000D82F0E94DB08C82F882319F08D2F0E948A
:1011D000DD088C2FDF91CF91089508950E94DE08DD
:1011E000089580E00E94EE0808950E94B2220E94B5
:1011F000EE080895CF930E94B222C82F8091DA02A0
:101200008C1701F1C093DA020E9403266093DB027F
:101210007093DC028093DD029093DE028091A40340
:101220008570853061F41F92CF938FE492E09F9395
:101230008F930E94DE060F900F900F900F908C2FCF
:101240000E94EE08CF910895ADE0B0E0EAE2F9E047
:101250000C94FC2D488759876A877B878C879D87EC
:1012600091110E9475111F8286E0FE013896DE0101
:10127000119601900D928A95E1F78D8181110DC033
:1012800029813A814B815C816D817E818F810E94B1
:10129000BC102D96E2E00C94182ECE0101960E940F
:1012A000DB078111EDCFF5CFFC012481213021F442
:1012B000808191810E94570E0895662329F00E9433
:1012C000B91E0E948C1F08950E94131FFACFCF935E
:1012D000C82F8823C9F08238C9F40E94BF2281FD3B
:1012E00013C089E30E948A240E9409122FEF87EE1F
:1012F00093E0215080409040E1F700C0000089E376
:101300000E94A4240E940912CF9108958338A1F469
:101310000E94BF2280FDF8CF83E50E948A240E94AC
:1013200009122FEF81EE94E0215080409040E1F7C8
:1013300000C0000083E5E4CF8438A1F40E94BF22FE
:1013400082FDE2CF87E40E948A240E9409122FEFD7
:1013500081EE94E0215080409040E1F700C0000011
:1013600087E4CECF8CEF8C0F813A98F48C2F0E94BB
:10137000CE1C8111C9CF8C2F0E94DC23882329F039
:101380008C2F0E94A4240E9409128C2F0E948A2470
:10139000B9CF80E28C0F883048F4C77081E001C07B
:1013A000880FCA95EAF70E945511ACCFEBE5EC0F18
:1013B000E33040F4F0E0E05BFE4F808190E00E947B
:1013C0007023A2CFE8E5EC0FEB3150F4F0E0EE0F24
:1013D000FF1FE65EFE4F808191810E94952394CF8E
:1013E00083E38C0F833108F08FCF61E08C2F0E9454
:1013F0005D098ACF882309F456C0823879F40E94A7
:10140000BF2281FF50C089E30E948A240E940912F2
:1014100089E30E94A4240E9409120895833859F494
:101420000E94BF2280FF3FC083E50E948A240E9461
:10143000091283E5EECF843859F40E94BF2282FF5F
:1014400032C087E40E948A240E94091287E4E1CF17
:101450009CEF980F913AE8F290E2980F983050F490
:10146000877091E001C0990F8A95EAF7892F0E9451
:101470005B11D1CF9BE5980F933028F490E080E08A
:101480000E947023089598E5980F9B3128F490E00E
:1014900080E00E949523089593E3980F933118F408
:1014A00060E00E945D0908951F93CF93DF93182F8A
:1014B000EB010E946709209739F4812F0E94FA09F5
:1014C000DF91CF911F9108958FE99FE00197F1F788
:1014D00000C000002197EFCF70E060E0893311F485
:1014E00060E570E00E94540A0895882321F00E946C
:1014F00055110E9409120895882321F00E945B1162
:101500000E9409120895B0E0A0E0E9E8FAE00C9426
:10151000F52D6C01D62FC72FFC0115810681029590
:101520000F700E944B11E82E8823F9F0E12E112351
:10153000E1F08C2F807F803461F080E28D0F883065
:1015400008F18C2F807E803221F4D230D8F0002335
:10155000C9F08091D20382FF15C082E00E94391247
:101560000E944B1191E0E82EE926BC2EB2949FE038
:10157000B922FBE0FB15B8F1EB2DF0E0EF55F14D92
:101580000C94E62DE12CF1CF0C2F0F70C07F11F0E1
:101590000295007F112399F0002359F080E28D0F0E
:1015A000883010F0D11107C0802F0E9455110E9481
:1015B00009128D2F5AC0802F0E946811F8CF8D2FED
:1015C0000E94FA09002379F080E28D0F883010F034
:1015D000D11104C0802F0E945B1103C0802F0E9494
:1015E0006E110E940912EB2DE850FF0B349720F486
:1015F0000E94B2220E94EE08EE2089F00E9447115C
:1016000080FD0DC0F60115820E9441110E945F0D00
:10161000C6010E948F0C0E9441110E946F0DCDB730
:10162000DEB7E9E00C94112E2C2F2F70F22EC07F24
:10163000C03219F0F29480EFF822DD2341F0D1306E
:10164000D1F1112309F444C00023F1F0B2CF80910D
:10165000D20382FD15C0112359F0FF2029F08F2DF0
:101660000E9455110E94091280E00E946709BBCFB9
:1016700080E00E94FA09FF2009F4B5CF8F2DABCF8F
:10168000112369F0011104C08F2D0E94750AABCFA0
:10169000013009F0A8CF8F2D0E948C11A4CF011129
:1016A000A2CF8F2D0E947C0A8F2D0E9498118F2D22
:1016B0000E947C1198CF112321F0063008F093CFBF
:1016C000E3CF053008F08FCF8F2D0E947C0A8BCF9F
:1016D0000023D1F3D93349F43FEF87EE93E0315043
:1016E00080409040E1F700C000008D2F0E94FA0971
:1016F0007ACF8C2F86958695837069F0813009F0BA
:1017000072CF8D2F9C2F9370111102C080E090E05A
:101710000E94952368CF8D2F9C2F9370111102C0CA
:1017200080E090E00E9470235ECF612F8D2F0E9499
:101730005D0959CF8C2F8370A1F5111154CF4D2F16
:10174000429546954770440F440F2D2F2F7030E07F
:10175000042E02C0220F331F0A94E2F790E080E0CB
:10176000D4FF09C08FE090E002C0880F991F4A950E
:10177000E2F780959095C695C695C370822B932B02
:10178000C23049F058F4C13019F00E942F0D2BCF10
:101790000E94260D28CF0E94380D25CF0E94230DD0
:1017A00022CF8695112311F08C2F8170882309F4A4
:1017B0001ACF4D2F429546954770440F440F2D2F59
:1017C0002F7030E0042E02C0220F331F0A94E2F77C
:1017D00090E080E0D4FF09C08FE090E002C0880F65
:1017E000991F4A95E2F780959095C695C695C37066
:1017F000822B932BC23049F058F4C13019F00E946B
:101800009A0DF1CE0E94910DEECE0E94A30DEBCE6B
:101810000E94470DE8CECF70112329F08C2F0E9433
:101820005F0D8D2F32CF8D2F0E947C0A8C2F0E944E
:101830006F0DD9CED23F41F160F4D03FB9F0D13F26
:1018400081F0112309F443C00111B3CE8C2F8F71A5
:101850001FC0D33F01F1D43FA1F78091D20382FD95
:1018600024C08C2F8F71112311F312C0112341F06A
:10187000053008F0B8CE8C2F8F710E94810DB3CE49
:10188000063008F0B0CEF7CF8C2F8F711111CFCF6B
:101890000E945F0DA8CE112329F08C2F8F710E941A
:1018A000530DA1CE0E944E0D9ECE112331F063E068
:1018B0008C2F8F710E941B1296CE81E00E943912EC
:1018C000023008F490CE82E00E9439128CCE0023C0
:1018D00059F0D93309F009CFEFEFF7EE23E0E150EB
:1018E000F0402040E1F7FFCE8C2F8F71A0CF0F93F7
:1018F0001F93CF93DF93EC01688179818D810E94E2
:10190000620E8C010E94AC0D0E94220DB801CE0126
:101910000E94830ADF91CF911F910F910895CF9379
:10192000DF93EC018C81882399F0CE010E9433086B
:10193000811111C00E944B11882351F08D818823A1
:1019400039F08091D20382FF03C082E00E943912F5
:10195000DF91CF910895CE010E94770CCE010E94B5
:10196000E707F6CF882321F00E9468110E94091230
:101970000895882321F00E946E110E940912089593
:1019800090E080E00E94702390E080E00E94952328
:101990000E9475110E9409120E9442200E948C1F11
:1019A00008950E94BE240E94C00C08950E946511F3
:1019B0000E94D10C089592959F70963091F058F442
:1019C000925F9F70923058F4803F19F030F4883E57
:1019D00030F481E008959A5FF4CF843FD1F380E042
:1019E0000895883EB0F3813FD1F7F3CFFC01248105
:1019F000222339F0808191810E94570E0E94DB0CD6
:101A0000089580E00895A6E0B0E0E9E0FDE00C94E0
:101A1000FC2D2696E2E00C94182EA7E0B0E0E3E15E
:101A2000FDE00C94FC2D2796E2E00C94182E08950E
:101A30000E94170D08950E94180D9093FB02809349
:101A4000FA02089508950E941B0D08952091FA024C
:101A50003091FB02822B932B0E941B0D0895209145
:101A6000FA023091FB02822393230E941B0D0895FA
:101A70002091FA023091FB02822793270E941B0DCE
:101A800008950E94170D08950E94410D08950E9427
:101A9000440D9093F9028093F802089590E080E05D
:101AA0000E94470D089521E030E0A90102C0440FD3
:101AB000551F8A95E2F7CA010E94470D089521E05B
:101AC00030E002C0220F331F8A95E2F78091F802BE
:101AD0009091F902822B932B0E94470D089521E0EB
:101AE00030E002C0220F331F8A95E2F7209530952F
:101AF0008091F8029091F902822393230E94470D6E
:101B0000089521E030E002C0220F331F8A95E2F7EA
:101B10008091F8029091F902822793270E94470D45
:101B200008952091F8023091F902822B932B0E94A4
:101B3000470D08952091F8023091F90282239323F2
:101B40000E94470D08952091F8023091F9028227F2
:101B500093270E94470D08950895262F277091E03E
:101B600001C0990F2A95EAF723E0769567952A95A3
:101B7000E1F7660F771F660F771FFA01E60FF71F71
:101B800050E040E0682F70E08191DF0111979B01E8
:101B9000042E02C0369527950A94E2F7217021950C
:101BA0002827292328272C934F5F5F4F4430510566
:101BB00059F70895A82FA77023E0969587952A9541
:101BC000E1F7880F991F880F991FFB01E80FF91F94
:101BD00050E040E080E0219130E00A2E02C03695CE
:101BE00027950A94E2F721703327042E01C0220FB3
:101BF0000A94EAF7822B4F5F5F4F4430510559F743
:101C00000895262F943070F48C3060F4682F70E0C3
:101C10008CE0989F600D711D112440EE52E0822FE0
:101C20000E94AD0D0895292F943068F48C3058F43B
:101C300090E060EE72E03CE0239F800D911D112446
:101C40000E94DA0D089580E00895B0E0A0E0EBE294
:101C5000FEE00C94F52D7C010091F8021091F90240
:101C60008091FA029091FB02082B192BCFE0D0E073
:101C7000CC24C394D12CBC2EC6010C2E02C0880FDC
:101C8000991F0A94E2F780239123892B49F4219725
:101C900090F7B12C8B2DCDB7DEB7E9E00C94112E67
:101CA000B7018C2F0E945C15019789F3F3CFCF9376
:101CB000DF93EC010E94250EBE010E945C15DF91AE
:101CC000CF9108951F93CF93DF93EB019091DF02A3
:101CD000992339F0CB010E94570EDF91CF911F91CC
:101CE0000895882369F0CB010E94250E182F682FD4
:101CF000CE010E94010EBE01812F0E945C15EDCF26
:101D0000CB010E94130E182FF6CF1F93CF93DF93B2
:101D1000C091FC0217E08091FD028C1304C0DF919A
:101D2000CF911F910895D0E01C9FF0011D9FF00DF1
:101D30001124E250FD4F2081318142815381648121
:101D4000758186810E940D0D2196C770E4CF209188
:101D50003603309137034091380350913903609135
:101D60003A0370913B0380913C030E940D0D08954E
:101D7000CF93DF9380913C03807F09F04DC0809129
:101D80003B03882309F448C0E091FC025091FD0216
:101D9000C0913703D09136036091380370913903B5
:101DA00047E05E17C9F18E2F90E0E49FF001112407
:101DB000E250FD4F2481222391F1489FF001499F79
:101DC000F00D1124DF01A250BD4F11962C911197F7
:101DD0002C1325C02C912D1322C015962C911597EC
:101DE00021111DC012962D913C91261B370B283CCA
:101DF0003105A8F480913C038F70806180933C038F
:101E0000EC5FFC4F80818F708061808386E393E07C
:101E10000E948F0C0E94850EDF91CF910895FC01E6
:101E20003196E770BECF482F2091FC029091FD02C1
:101E300057E0291302C080E0089530E0529FF0017E
:101E4000539FF00D1124E250FD4F8181681306C0AD
:101E50008081481303C085818111EECF2F5F3F4FF2
:101E60002770E7CFA4E1B0E0E8E3FFE00C94F22DA7
:101E70008C0186E0F801DE011F9601900D928A9593
:101E8000E1F7F8018481E58096E3A92E93E0B92E6D
:101E900090913A0391111FC08823D1F0EE20A9F050
:101EA000C8010E94F60CF82E882379F087E0F8012B
:101EB000D50101900D928A95E1F7C5010E94540960
:101EC0000E94B80E0E94A70E5FC0C8010E948F0C2E
:101ED000FF24F39459C0C080D18082809380F09019
:101EE0003B032091380330913903A401421B530B6B
:101EF000FF2009F4F9C0483C510508F0A7C0882329
:101F000009F442C09091370380913C03282F207F31
:101F100009F05CC09D1116C090913603C91212C021
:101F2000E1104EC08F70806180933C030E94A70E29
:101F300086E393E00E948F0C80913C03F801868336
:101F4000F12C22C0E1103CC06D2D8C2D0E94130F8E
:101F50006D2D8C2D0E94130FE82E8111F1CFCF86AD
:101F6000D88A8F8598890E94570E292F22952F7025
:101F7000243078F49F702230A8F09923B9F0F8014A
:101F80009681907F99F4FE2C8F2D6496ECE00C9452
:101F90000E2E2A5F2F70223068F0C8010E948F0C2D
:101FA000EF2CF1CF992311F0882369F3805E8830FC
:101FB00050F3F3CF803F38F3815F833070F7E3CF86
:101FC00080913C03816080933C03BACF9D1113C084
:101FD00090913603C9120FC0E1100DC08683C8016D
:101FE0000E948F0C87E0F801A6E3B3E001900D9208
:101FF0008A95E1F767CFC8010E94F60C882309F49F
:1020000064CFEE2009F461CF80913C03803288F0E8
:102010002091360330913703398728879B868A863B
:1020200090913A039C871D868E87CE0108960E9468
:102030008F0C87E0F801A6E3B3E001900D928A953A
:10204000E1F70E94B80E0E94A70E42CF90913C0388
:10205000292F207FA1F4682D9A8A898AA6017A897E
:102060009E2D0E94030D86E393E00E948F0C87E073
:10207000F50111928A95E9F70E94A70E61CF882396
:1020800009F482CF809137038D1110C080913603FF
:10209000C8120CC0E1100AC09683C8010E948F0CC0
:1020A00087E0F50111928A95E9F76ECFC8010E9489
:1020B000F60C882309F409CFEE2009F406CF8091AD
:1020C0003C03803208F4B5CF2091360330913703BA
:1020D0003A8329839C828B8290913A039D831E824E
:1020E0008F83CE010196A3CF483C5105B8F58823D4
:1020F00009F4EECEFE2CEE2009F4E7CE80913703F2
:102100008D111EC080913603C8121AC080913C0305
:1021100080FD0DC0982F907F51F08683903F09F489
:102120005ECF982F907F905F8F70892B57CF87E07D
:10213000F801A6E3B3E001900D928A95E1F724CF70
:10214000C8010E94F60C811174CF80913C0381601C
:1021500080933C03C8010E948F0C16CF682D9A8A89
:10216000898AA6017A899E2D0E94030D87E0F501D8
:1021700011928A95E9F7A6CEAEE0B0E0E2ECF0E18C
:102180000C94FB2D288739874A875B876C877D876E
:102190008E87CE0108960E94320F8823B1F06C859D
:1021A000662341F0288539854A855B857D858E8546
:1021B0000E940D0D17E08091FC029091FD028913A1
:1021C0003DC02E96E3E00C94172E87E0FE01389672
:1021D000DE01119601900D928A95E1F78C85882396
:1021E00049F32091FD0230E0C901019687709927DB
:1021F0004091FC024817190699F097E0929FD00190
:10220000939FB00D1124A250BD4FFE013196019055
:102210000D929A95E1F78093FD020E94850ECACF38
:102220000E94D60C1092FD021092FC0287E0E6E3B9
:10223000F3E0DF011D928A95E9F7BCCF819FC001D1
:10224000112482509D4F0E94320F882309F4B9CF88
:10225000E091FC021E9FF0011124E250FD4F20810D
:102260003181428153816481758186810E940D0D87
:102270008091FC0290E00196877099278093FC0280
:102280009ACF80916503869586958695089580916D
:1022900065038770089590916503977081E009F454
:1022A00080E0089580919103089590919103892B86
:1022B0008093910308958095909191039823909332
:1022C00091030895809391030895109291030895C6
:1022D00090919003892B809390030895809590911D
:1022E000900398239093900308951092900308957B
:1022F00008950E947811089590916603292F28234C
:1023000031F080958923809366030E9479110895A6
:1023100008950E948811089590916703292F28231A
:10232000281729F0982B909367030E94891108952C
:1023300090916703292F282331F08095892380937A
:1023400067030E948911089580916703882329F00B
:102350001092670380E00E9489110895CF93C09185
:10236000910380919003C82B80916703882331F0FB
:10237000C82B0E94BA2381110E94A4118C2FCF91E7
:102380000895CF93DF93C0910201D09103010E9481
:10239000AE118883C0910201D091030148E050E062
:1023A0006DE573E0CE010E94372E892B59F088E04D
:1023B000FE01ADE5B3E001900D928A95E1F7CE0103
:1023C0000E94C222DF91CF910895CF93DF93C091F5
:1023D0000001D09101010E94AE118983C0910001DA
:1023E000D091010140E250E06DE373E0CE010E9424
:1023F000372E892B59F080E2FE01ADE3B3E0019066
:102400000D928A95E1F7CE010E941023DF91CF91C2
:1024100008950E944E25813039F48091D10387FFC1
:1024200003C00E94E51108950E94C1110895089506
:102430000E94171208959091D20392FF11C098E064
:10244000899F90011124622B609365030E945F0DA8
:10245000809165038695869586950E941812089549
:102460000E945F0D08951092650380E00E9418128B
:102470000895909165038095892380936503282FA3
:10248000277069F4891759F09091D20392FF07C021
:102490008695869586950E946F0D0E943312089549
:1024A000CF93C82F8091D20382FB992790F99C1774
:1024B000E9F0C0FB82F98093D2038091D10390911F
:1024C000D2030E94B21282E00E9439128091A403CA
:1024D00080FF0CC01F92CF938FE592E09F938F9364
:1024E0000E94DE060F900F900F900F90CF910895ED
:1024F0008091D20382FB882780F991E089270E948E
:102500005012089581E00E945012089580E00E94C8
:10251000501208956FEF7FEF90E080E00E94892EC7
:10252000089590E080E00E94552E21E0853E9E4F68
:1025300009F020E0822F089582E090E00E944D2E65
:10254000089583E090E00E944D2E90E00895682F5A
:1025500083E090E00E946B2E089584E090E00E945A
:10256000552E0895BC0184E090E00E94892E0895C4
:10257000AB01BC018FE090E00E947D2E0895AB017D
:10258000BC0183E190E00E947D2E089560E070E040
:10259000CB010E94BF12089560E070E0CB010E9461
:1025A000B8120E94C6120895A8E0B0E0EAEDF2E188
:1025B0000C94FC2D65EE7EEF90E080E00E94892E69
:1025C00060E082E090E00E946B2E81E090E09093CA
:1025D000FB028093FA020E94A71260E074E184E09B
:1025E00090E00E94892E60E086E090E00E946B2ED1
:1025F00060E087E090E00E946B2E40E050E0BA017E
:1026000088E090E00E947D2E60E083E290E00E94EE
:102610006B2E60E08CE090E00E946B2E60E08DE01D
:1026200090E00E946B2E19821A821B821C821D82EE
:102630001E821F82188648E050E067E170E0CE01FC
:1026400001960E945B2E40E050E0BA018FE190E0DD
:102650000E947D2E0E94CC122896E2E00C94182E47
:102660000E94D4120895682F8EE090E00E946B2E95
:102670000895A6E0B0E0EFE3F3E10C94FA2D0E9498
:10268000F7258C0180919203909193038017910715
:1026900081F019821A820E94F725682F49815A8198
:1026A000792F80E090E00E94240910939303009317
:1026B00092032696E4E00C94162E0E940326609363
:1026C000A0037093A1038093A2039093A30360934C
:1026D0009C0370939D0380939E0390939F030895A2
:1026E000089508950E947013089508950E94751327
:1026F000089586E198E20E9415180E9471130E94C5
:102700007213089581E008950E94821308950E9433
:1027100082130895089508950E948A130E948B13CE
:1027200008950E949112811102C00E9430130E94EC
:102730009C128093A4030E94AD129093D2038093C5
:10274000D1030E94E8190E94A1120E94230D8091DA
:10275000F8029091F9020E94440D08950E94EE251E
:102760000E946E170E9491130E94ED080E94781833
:102770000E9476130895A6E0B0E0E1ECF3E10C943A
:10278000F02D0E94841381110AC00E9439130E9407
:1027900064200E94FA082696EEE00C940C2E0E940B
:1027A000841724E9822E23E0922E640110E0F601C2
:1027B000E190F1906F01812F0E946C161F5F143021
:1027C00009F44BC0E816F90691F38091A40381FD4A
:1027D0000E9475160E948713782E10E06624639479
:1027E000812F0E946C167C01F401A190B1904F01E1
:1027F0008A159B0561F100E0CC24C394D12CAE2452
:10280000BF24C5018C219D21892BC1F07720B1F017
:1028100009831A830E94F7259C838B836D8221E0B4
:10282000C7018C219D21892B09F420E049815A811F
:102830006B817C818D81922F0E9424090F5FCC0CCB
:10284000DD1C0C30F1F6F4013297F182E0821F5F5B
:10285000143031F60E945D139ACFE816F90609F09C
:10286000B4CF93CF1F93CF93DF930E946115EC01F8
:10287000C11580E5D807F0F5C11580E4D80708F048
:102880009CC0C03ED10520F5CD3CD10508F082C0EA
:10289000C83AD10578F4C53AD10508F073C0C13003
:1028A000D10519F1209709F1C430D105F0F4D0E039
:1028B000C0E01BC0C33CD105D0F7C85AD0E0CC0F54
:1028C000DD1FCD5ADE4F0990D881C02DD4640DC0D4
:1028D000C11580E2D80708F0D1C0C11581E0D80742
:1028E00008F05AC0C83ED10510F7CE01DF91CF9154
:1028F0001F910895C03682E5D80718F5C03482E5E7
:10290000D80708F06BC0C03282E5D80708F05FC076
:10291000C11582E5D80708F497C02C2F2695269577
:1029200080E2289F900111248C2F8370C1E0D0E0B9
:1029300002C0CC0FDD1F8A95E2F7C22BD32BDD68D6
:10294000D4CFC03A82E5D80760F4C03882E5D80712
:1029500008F459C0CF71D0E0DC2FCC27C46FD06A07
:10296000C4CFC03C82E5D80708F462C0C03E82E50F
:10297000D80708F09CCFDC2FCC27CC27DF71C06FA5
:10298000D06AB3CFC55AD0E0C757DE4FC881D0E078
:10299000D064ABCFD065A9CF8D2F0E940316182F1E
:1029A000CE0199270E946115C12FD0E0DC2FCC27E2
:1029B000CC27DF71C82BD92B98CFCE0199270E9445
:1029C0006115CC27DF70C82BD92BD06A8ECFCF7181
:1029D000D0E0DC2FCC27C16FD06A87CF2C2F269573
:1029E0002695277080E2289F900111248C2F8370F8
:1029F000C1E0D0E002C0CC0FDD1F8A95E2F7C22B08
:102A0000D32BDC6872CF2C2F26952695277080E279
:102A1000289F900111248C2F8370C1E0D0E002C068
:102A2000CC0FDD1F8A95E2F7C22BD32BDA685DCF7E
:102A30008C2F8F710E940316C82FD0E0DC2FCC277B
:102A4000CC27DF71D06251CF8C2F8F710E9403167B
:102A500055E0D695C7955A95E1F7CF70D0E0DC2FB9
:102A6000CC27282F30E084FF05C044E0220F331F1D
:102A70004A95E1F7C22BD32BD06937CF8D2F8F71B9
:102A80000E940316182FCE0199270E946115C12FAD
:102A9000D0E0DC2FCC27CC27DF71C82BD92BD2CFAD
:102AA000462F743030F46C3020F4672F0E940307F7
:102AB000089590E080E008950E9450150E9432141D
:102AC000089582389105B9F1B0F48133910509F484
:102AD0007DC048F48932910509F46DC08A329105B0
:102AE00009F47BC008958533910509F45FC08933EB
:102AF000910509F10895833E9105D9F138F4803E9E
:102B0000910529F1823E910579F10895863E91055E
:102B1000D9F1873E910509F43EC0843E910541F507
:102B20002091D20321FF24C08091D10384FD19C0DC
:102B300087EE90E008952091D103237009F05AC0E8
:102B40002091D20323FF14C089E290E008952091E0
:102B5000D10320FD38C03091D20330FF09C024FFDB
:102B600043C090E080E008952091D10322FDF7CF8B
:102B700008952091D10322FD3AC03091D20330FD57
:102B800039C024FFF5CFEDCF2091D10323FFF0CF43
:102B900024FDE7CFCDCF2091D10323FD2EC030916E
:102BA000D20331FFEECF84EE90E008952091D1035F
:102BB00025FFDECFC9CF2091D10325FD21C0209173
:102BC000D20323FFD5CF89E390E0D2CF2091D10368
:102BD00026FFCECF8AE290E008952091D10326FF10
:102BE000C7CF81E390E0089583EE90E0089582EEF0
:102BF00090E0089580EE90E0089586EE90E00895CC
:102C000085E390E008959091D10392FF10C041E0D8
:102C1000282F2471243009F040E031E0282F28715A
:102C2000283009F030E0431711F02CE0822793FFA1
:102C300010C041E0282F2471243109F040E031E038
:102C4000282F2871283109F030E0431711F02CE0CB
:102C500082273091D20330FF10C051E0282F21711C
:102C6000213009F050E041E0282F2871283009F088
:102C700040E0541711F029E0822731FF10C041E0F5
:102C8000282F2171213109F040E031E0282F2871EF
:102C9000283109F030E0431711F029E0822794FD34
:102CA000877E0895CF939C01205E3245C1E020329B
:102CB000310538F4FB01C581C11103C08F710E9439
:102CC000FF078C2FCF91089508950E9464160895F0
:102CD00008950E9468160895E82FF0E0EE0FFF1F98
:102CE000E552FC4F808191810895B0E0A0E0EBE7D0
:102CF000F6E10C94F22D84E892E09F938F930E946A
:102D0000DE068BEDE82E83E0F82E0F900F90912CCD
:102D1000812C9FE7A92E92E0B92E2CE7C22E22E04B
:102D2000D22E06E712E0C4E7D2E09F928F92BF92C4
:102D3000AF920E94DE06DF92CF920E94DE06F7017C
:102D4000819191917F010E94CE089F938F931F9351
:102D50000F930E94DE06DF93CF930E94DE069FEF63
:102D6000891A990AEDB7FEB73C960FB6F894FEBFE4
:102D70000FBEEDBFF4E08F169104B9F6CDB7DEB704
:102D8000ECE00C940E2E80EA8A95F1F7089500C0CD
:102D900008950E94C3160895F894E82FE295EF7005
:102DA000F0E031A1282F2F7081E090E001C0880F62
:102DB0002A95EAF7982F9095932391A392A1892BB6
:102DC00082A378940895CF93DF9386EF0E94CC1668
:102DD00085EF0E94CC1684EF0E94CC1681EF0E94F2
:102DE000CC16CCE8D1E089918F3F11F00E94CC162F
:102DF00081E0C839D807B9F7DF91CF910895AF9234
:102E0000BF92DF92EF92FF920F931F93CF93DF93C6
:102E10008C01D62EC62FD0E0CE0188569E4F7C0165
:102E2000FC0120812F3F09F44CC0F894E22FE29579
:102E3000EF70F0E031A12F7081E090E001C0880FC9
:102E40002A95EAF7932F982B91A392A18095892335
:102E500082A378940E94C716ECE8F1E041E050E0CC
:102E6000B12CA12C21912F3FB1F1A22FA295AF70CF
:102E7000B0E090968C9190E02F7002C09595879568
:102E80002A95E2F780FD27C0CA01A82AB92A440F73
:102E9000551F81E0E839F80729F7F70180818F3F56
:102EA00011F00E94CC1661E0A114B10409F460E0B5
:102EB0008D2D0E94C916CC0FDD1FC00FD11FB98206
:102EC000A882DF91CF911F910F91FF90EF90DF903B
:102ED000BF90AF90089590E080E0D7CF0E94E316B6
:102EE00088E0EBEDF3E0DF01982F1D929A95E9F76A
:102EF000E3EDF3E0DF011D928A95E9F784E00E949B
:102F0000BF170E9465160895A8E0B0E0EAE8F7E16F
:102F10000C94F92D8E010F5F1F4F88E0F80111927C
:102F20008A95E9F7F12C6F2DC8010E94FF16F394E2
:102F3000F4E0FF12F8CF48E050E0B80183ED93E0F1
:102F40000E94372E21E0009709F420E0892B41F000
:102F500088E0F801A3EDB3E001900D928A95E1F7C6
:102F600044E06BED73E083ED93E00E94C017182FEF
:102F70000E946916812F2896E5E00C94152E08957D
:102F8000B0E0A0E0E6ECF7E10C94F62D6C017B01DB
:102F9000042FC22F222379F081E08093A7030E949F
:102FA000F7259093A6038093A50380E0CDB7DEB705
:102FB000E8E00C94122ED091A703DD23B1F38091A9
:102FC000A5039091A6030E940F26059770F310E0C9
:102FD000000F111FA801B601C7010E94372E892BCF
:102FE00031F0A801B601C7010E94442ECD2F1092E6
:102FF000A7038C2FDBCF0E94BB1308950E9490255E
:103000000E9478280E9479130E9492280E94AE1391
:103010000E949F280E94A4280E94FB170E94CA2891
:103020000E94AD260E948C13F5CF9093D902809315
:10303000D8020895FB012581222341F097FF06C0A5
:103040009F77BC0190E080E00E94821981E00895A2
:103050000F931F93CF93DF93EC018B01FB018581CD
:10306000882389F00E9452118272FE01E053FC47CE
:10307000E830F10540F4E355F14D0C94E62D88233A
:1030800069F00E94B418B801CE010E941A18DF91AD
:10309000CF911F910F910895882399F30E94B3183F
:1030A000F2CF80E00E949318EECF81E0FBCF82E068
:1030B000F9CF83E0F7CF84E0F5CF85E0F3CF9091AF
:1030C000E403923071F48A3050F490E009966AE09B
:1030D00070E00E94D22D875A0E946C0A0895865093
:1030E000FBCF0E94FA21089508950E947418089554
:1030F0008CE090E00E944D2E8093E4030E947518AE
:103100008091A40380FF0EC08091E4031F928F93EF
:103110008AEB92E09F938F930E94DE060F900F90B0
:103120000F900F900895CF93C82F8093E403682FDA
:103130008CE090E00E946B2E8C2F0E94751880917D
:10314000A40380FF0EC08091E4031F928F938BE94C
:1031500092E09F938F930E94DE060F900F900F9046
:103160000F90CF910895089508950E94BF228093F3
:10317000E3039091E403913029F481FF03C089E3D4
:103180000E946C0A0E9452118093E5030E9465110F
:103190000E9475118091E403823021F158F4882354
:1031A000C1F08130D1F08FE39CE90197F1F700C0C5
:1031B00000000895843051F18530A9F78BE191E04A
:1031C0000E94870785E290E00E94870788E290E0EE
:1031D00006C082EE0E946709E6CF88E193E00E9474
:1031E0008707E1CF8091E30380FD03C083E50E9460
:1031F0006C0A82EE0E9467098FE39CE90197F1F760
:1032000000C0000087E50E946C0ACDCF86EE0E94C8
:103210006C0A88E1F8CF8091E403823011F148F420
:10322000882381F0813091F08091E5030E94621142
:1032300008958430F9F08530B9F788E290E00E9473
:103240008707F2CF82EE0E94FA09EECF8CE20E944D
:103250006C0A8091E30381FFE7CF89E30E946C0A47
:10326000E3CF82EE0E94FA098091E30380FDDCCF78
:1032700083E5F4CF88E2F2CF8F929F92AF92BF9214
:10328000EF92FF920F931F93CF93DF934B015C015B
:10329000D091E4038CE1E82EF12C07E010E021E06E
:1032A000D501C4010E2C04C0B695A79597958795B6
:1032B0000A94D2F7C82FCF70222339F0D43051F4BA
:1032C000CA3040F080E00E945F188C2F0E945F1887
:1032D00020E005C0C111F9CF04301105B4F301504D
:1032E000110984E0E81AF1080F3F1007C9F6DF91D1
:1032F000CF911F910F91FF90EF90BF90AF909F9053
:103300008F900895CF92DF92EF92FF926B017C0134
:10331000C114D10481E1E806F104A0F5C114D1047F
:1033200081E0E806F10420F08091E403823051F15D
:103330000E94B518C114D10481E0E806F10438F107
:103340008091E403811123C081E0E81AF108C701EC
:10335000B6012AE096958795779567952A95D1F7D6
:1033600078528F4F9F4F0E943C1983E0D822EE2461
:10337000FF24C701B60174528F4F9F4F0E943C1922
:103380000E940B19FF90EF90DF90CF900895C70136
:10339000B601F4CF0E948A12089580E00E946C1654
:1033A000817008950E9484172FEF86E791E02150E5
:1033B00080409040E1F700C000000E9484170E9406
:1033C000CD19882321F00E94CA190E94422608952F
:1033D0000E94D2190895809104011F928F938091C9
:1033E00005011F928F93809108011F928F93809106
:1033F00009011F928F9380910A011F928F938091F0
:103400000B011F928F938AED92E09F938F930E94FE
:10341000DE068DB79EB70E960FB6F8949EBF0FBE10
:103420008DBF0895883248F58E3108F07FC08B300B
:1034300069F130F4873009F4E0C089E394E0F1C029
:10344000833109F468C08431C1F78BE594E09F9320
:103450008F930E94DE060F900F908091AC0388231B
:1034600009F411C11092AC031092AB031092AA039D
:103470001092A9031092A80325C08F3409F4D6C076
:1034800008F03FC0893209F38833B9F68EE594E03D
:103490009F938F930E94DE060E94EB191F9281E09A
:1034A0008F931F9288E08F9387E593E09F938F938C
:1034B0000E94DE068DB79EB708960FB6F8949EBFA1
:1034C0000FBE8DBF2091AC03222309F4D3C080919D
:1034D000A8039091A903009711F48CE991E09F93C0
:1034E0008F931F922F9387E294E09F938F930E9474
:1034F000DE060F900F900F900F900F900F9081E0CD
:103500000895813509F4A6C008F4A6C0823509F0F3
:1035100094CF81E08CC08DE494E09F938F930E94C0
:10352000DE060E94EB190F900F90CCCF8D51809347
:10353000AC03833009F446C078F48130E1F0823086
:10354000C1F11092AC038AE494E09F938F930E94A0
:10355000DE060F900F901BC0853009F445C0D8F1EE
:10356000863079F784E091E09093AB038093AA03CF
:1035700084EE91E008C08BE091E09093AB038093E0
:10358000AA0380EA91E09093A9038093A803809115
:10359000AC03882309F496CF1F928F9386E494E0BE
:1035A0009F938F930E94DE060F900F900F900F90C5
:1035B00089CF8AE091E09093AB038093AA0389EAD4
:1035C00091E0E1CF89E091E09093AB038093AA036F
:1035D00085EB91E0D8CF88E091E09093AB038093A6
:1035E000AA0382EC91E0CFCF85E091E09093AB030A
:1035F0008093AA0381ED91E0C6CF81E080930B0117
:1036000084E180930A018AE0809309018EE180932E
:10361000080188E08093050188E2809304018CE32F
:1036200094E09F938F930E94DE067DCF8AE0E09125
:10363000AA03F091AB033097D1F02081082E000C43
:10364000990B820F911D8F3F910541F03CF08FEF58
:10365000808307C08FEFEBCF86EFE9CF97FFF8CFDE
:10366000108280811F928F9383E394E099CF80E34F
:1036700094E0D7CF83E294E09F938F930E94DE067D
:103680000F900F903CCF80E00895CF93C82F1F92EA
:103690008F9384E794E09F938F930E94DE0681E0EE
:1036A00090E002C0880F991FCA95E2F70E94230D8F
:1036B0000E94D60C0F900F900F900F90CF9108950D
:1036C000B0E0A0E0E6E6FBE10C94F72DEBEFE80FAD
:1036D000EF3308F054C1F0E0EB54F14D0C94E62DBB
:1036E0000E94A1129F938F9384E298E09F938F93FF
:1036F0000E94DE060E949C1283FB992790F91F927C
:103700009F9382FB992790F91F929F9381FB9927A2
:1037100090F91F929F93982F91701F929F931F92E1
:103720008F938BED97E09F938F930E94DE060E940C
:10373000AD1293FB222720F91F922F9387FB22279C
:1037400020F91F922F9386FB222720F91F922F9397
:1037500085FB222720F91F922F9384FB222720F933
:103760001F922F9383FB222720F91F922F9382FB16
:10377000222720F91F922F9391FB222720F91F92D5
:103780002F93292F21701F922F9381FB222720F93D
:103790001F922F93282F21701F922F939F938F9307
:1037A0008CED96E09F938F930E94DE068DB79EB7B7
:1037B0008A960FB6F8949EBF0FBE8DBF81E02AC0D7
:1037C00084EE98E09F938F930E94DE060E94301350
:1037D0000F900F90F3CF87E295E09F938F930E9415
:1037E000DE06F6CF8091A403807F8093A40380E05F
:1037F00095E09F938F930E94DE0680EE98E09F9362
:103800008F930E94DE0681E08093AD030F900F90AE
:103810000F900F90CDB7DEB7E7E00C94132E84EC39
:1038200098E09F938F930E94DE060E942708D0CFD6
:103830009091A403892F8E7F90FF81608093A403D1
:1038400080FF03C088EB98E0C8CF8BEA98E09F9395
:103850008F930E94DE068091A403817F8093A4034E
:10386000B7CF9091A403892F8D7F91FF82608093C1
:10387000A40381FF0AC08EE998E09F938F930E9472
:10388000DE068091A4038160E9CF80E998E0A5CFAE
:103890009091A403892F8B7F92FF84608093A4036F
:1038A00082FF03C081E898E0E8CF81E798E095CFF8
:1038B0009091A403892F877F93FF88608093A4034E
:1038C00083FF03C085E698E0D8CF88E598E085CFF0
:1038D00089EF91E09F938F938DEF94E09F938F9367
:1038E0000E94DE060F900F900F900F9067CF0E94FE
:1038F0000326062FF72EE82ED92EC091D103C7FB41
:10390000CC27C0F90E946E25182F0E944E25D82F73
:103910000E94B222DF92EF92FF920F931F92CF93F9
:103920001F921F931F92DF931F928F9389E794E05A
:103930009F938F930E94DE068DB79EB70E960FB6AB
:10394000F8949EBF0FBE8DBF39CF0E94D60C9091C8
:10395000D103892F97FB87F980588093D10387FF84
:1039600003C08EE498E039CF83E498E036CF80E05E
:103970000E94451B23CF8953FBCF8D51F9CF81E4A2
:1039800098E09F938F930E94DE060F900F9080E047
:1039900041CF80E008950E94C91C0895CF93C82F9D
:1039A0008091AD038130C1F0882339F0823009F471
:1039B00050C01092AD0380E00DC00E9452118232BF
:1039C000D1F78C2F0E94C91C81111FC08C2F0E941F
:1039D000601B8170CF9108950E945211823289F349
:1039E0008C2F0E94CB1C811127C0C43139F180F487
:1039F000CB3091F0C03131F18EE694E09F938F93FC
:103A00000E94DE060F900F901BC081E090E0E1CF96
:103A1000C932A1F0C83381F780E095E09F938F937E
:103A20000E94DE0680E794E09F938F930E94DE065B
:103A30000F900F900F900F9081E0CBCF1092AD03BD
:103A400080E0C7CF82E08093AD0388E30E94121A22
:103A5000F3CF8C2F0E94121A81E0BCCFCF93DF935B
:103A6000EB0186319C4711F50E9452119D819923EB
:103A700099F08A7A91E009F490E09093AE03811175
:103A800009C089E20E948A240E94091280E0DF9125
:103A9000CF91089585E3F6CF8091AE03811104C0E4
:103AA00089E20E94A424F0CF85E3FBCF81E0EFCF31
:103AB000CF93DF93EC01FB018581882309F4D2C009
:103AC0009E0130572332310508F0B2C00E94AD127A
:103AD0009093D2038093D103FE01E150F047E2328C
:103AE000F10520F4EC50F14D0C94E62D8091D103BA
:103AF00081608093D10393C08091D20388608093CA
:103B0000D2038DC08091D1038260F3CF8091D10325
:103B10008460EFCF8091D1038860EBCF8091D20396
:103B20008160EDCF8091D2038260E9CF8091D10393
:103B30008061DFCF8091D1038062DBCF8091D103A0
:103B40008064D7CF0E94D60C8091D1038068D1CFFA
:103B50008091D1038C60CDCF8091D2038360CFCF91
:103B60008091D1038E7FC5CF8091D203877FC7CF4D
:103B70008091D1038D7FBDCF8091D1038B7FB9CF51
:103B80008091D103877FB5CF8091D2038E7FB7CF4D
:103B90008091D2038D7FB3CF8091D1038F7EA9CF47
:103BA0008091D1038F7DA5CF8091D1038F7BA1CF51
:103BB0000E94D60C8091D1038F779BCF8091D10347
:103BC000837F97CF8091D2038C7F99CF8091D1034F
:103BD00082FB992790F921E0922790FB82F990FBD4
:103BE00083F987CF8091D203982F909591708E7F23
:103BF000892B90FB81F983CF9091D103892F8F7B03
:103C000096FF806476CF0E94D60C9091D103892FC5
:103C100097FB87F980586DCF81E00E943313809124
:103C2000D1039091D2030E94B2120E94D60C80E080
:103C3000DF91CF91089580E0F0CF9091D103892F4B
:103C40008F7E94FF806155CF9091D103892F8E7F15
:103C500090FF81604ECF9091D203892F877F93FF91
:103C600088604DCF81E0E4CF282F35EB2303C001DE
:103C7000112497FF04C080589109892F0895805816
:103C80009F4FFBCF8091B50380FF0DC0609109016C
:103C900070E0660F771F6038710570F5611571056A
:103CA00069F1862F089581FF07C06091090184E0C2
:103CB000689FB0011124EFCF6091090182FD0AC015
:103CC0008091B4038823A9F0209108016091090133
:103CD000821710F088E0ECCF869FC001112433E0FA
:103CE000880F991F3A95E1F7622F70E00E94D22D5C
:103CF000D2CF68E070E0D5CF8FE7089581E00895D6
:103D00008091B50380FF0CC06091050170E075954E
:103D10006795759567956115710549F1862F089529
:103D200081FF06C06091050170E075956795F3CF3E
:103D30006091050182FD0BC09091B3039923A1F01E
:103D40006091040180910501961738F0682F70E0AA
:103D50006038710500F38FE70895899FC001112431
:103D600070E00E94D22DF4CF61E070E0D7CF81E007
:103D700008958D3C31F40E94421E81958093B903D1
:103D800008958E3C19F40E94421EF8CF8F3C31F406
:103D90000E94421E81958093B8030895803D19F4D6
:103DA0000E94421EF8CF893D29F40E94801E809314
:103DB000BA0308958A3D21F40E94801E8195F7CFB1
:103DC0008B3D31F40E94801E81958093BB03089542
:103DD0008C3D19F40E94801EF8CF9FE2980F983016
:103DE00070F4815D990B21E030E001C0220F8A95CB
:103DF000EAF78091B703822B8093B70308958D3D36
:103E000031F48091B50381608093B50308958E3DB0
:103E100021F48091B5038260F7CF8F3DB9F780918F
:103E2000B5038460F1CF4091B8038D3C59F4809183
:103E3000B90387FF0DC01092B90341110BC0109256
:103E4000B40308C08E3C81F48091B90318169CF32A
:103E5000442381F08091BA039091BB03892B09F030
:103E60005AC01092B30308958F3C49F447FFF0CF36
:103E70001092B8038091B9038111ECCFE0CF803D5F
:103E800019F41416ACF3E4CF9091BA03893D29F4E8
:103E90001916F4F61092BA03DBCF8A3D19F497FF96
:103EA000D7CFF8CF9091BB038B3D29F497FFD0CFAC
:103EB0001092BB03CDCF8C3D19F41916CCF3C8CFAB
:103EC0009FE2980F983090F4815D990B21E030E0EB
:103ED000B90102C0660F771F8A95E2F7CB01809582
:103EE0009091B70389238093B703B2CF8D3D31F40E
:103EF0008091B5038E7F8093B503AACF8E3D21F4C8
:103F00008091B5038D7FF7CF8F3D09F0A1CF8091D0
:103F1000B5038B7FF0CF08958091A40383FF96C0F3
:103F20008CE199E09F938F930E94DE068091B70306
:103F30001F928F9387E199E09F938F930E94DE06F3
:103F400085E199E09F938F930E94DE068091B803EC
:103F5000282F082E000C330B3F938F9382E199E0BA
:103F60009F938F930E94DE0680E199E09F938F9349
:103F70000E94DE068091B903282F082E000C330B17
:103F80003F938F938DE099E09F938F930E94DE067D
:103F90008BE099E09F938F930E94DE068091BA0395
:103FA000282F082E000C330B3F938F9388E099E065
:103FB0009F938F930E94DE0686E099E09F938F93F4
:103FC0000E94DE068091BB03282F082E000C330BC5
:103FD0003F938F9383E099E09F938F930E94DE0637
:103FE00080E099E09F938F930E94DE068DB79EB785
:103FF00080960FB6F8949EBF0FBE8DBF8091B4031C
:104000001F928F938DEF98E09F938F930E94DE060F
:104010008BEF98E09F938F930E94DE068091B5030B
:104020001F928F9388EF98E09F938F930E94DE06F4
:1040300085EF98E09F938F930E94DE068DB79EB721
:104040000C960FB6F8949EBF0FBE8DBF0E94F72549
:104050009C019091B8038091B903982B21F0309383
:10406000B2032093B1039091BA038091BB03982BC4
:1040700021F03093B0032093AF0386EB93E00E94CE
:104080006223089586E0E6EBF3E0DF011D928A9556
:10409000E9F71092B4031092B3031092B503089598
:1040A000FC01828181110EC0838181110BC084814A
:1040B000811108C091E08581811101C090E0892FB4
:1040C0008170089581E0FCCFA6E0B0E0EAE6F0E27E
:1040D0000C94FB2D86E0E6EBF3E0DE0111960190F7
:1040E0000D928A95E1F71092B8031092B9031092DD
:1040F000BA031092BB038B819C81892B89F080913C
:10410000B1039091B2030E940F26AC019091B403C9
:104110009923C9F180910A018417150608F440C05B
:104120008D819E81892B91F08091AF039091B00396
:104130000E940F26AC019091B303992309F46AC041
:10414000809106018417150608F472C0BE016F5FE6
:104150007F4F86EB93E00E94D824811105C086EB47
:1041600093E00E94502081110E948C1F86E0FE0186
:104170003196A6EBB3E001900D928A95E1F7269671
:10418000E3E00C94172E20910B018AE0289F900108
:1041900011242417350720F69F5F9093B40302C0C3
:1041A0009F3FD1F71B81112359F00E94421E9FEFC0
:1041B00011160CF491E0899F802D11248093B8038F
:1041C0001C81112359F00E94421E9FEF11160CF41E
:1041D00091E0899F802D11248093B9038091B803C9
:1041E000882309F49DCF1091B903112309F498CFC6
:1041F0000E94341E882351F08093B803812F0E94BF
:10420000341E882329F08093B9038ACF81E0F4CF4C
:1042100081E0F9CF209107018AE0289F90011124C5
:104220002417350708F092CF9F5F9093B30302C025
:104230009F3FD1F71D81112359F00E94801E9FEFEF
:1042400011160CF491E0899F802D11248093BA03FC
:104250001E81112359F00E94801E9FEF11160CF44D
:1042600091E0899F802D11248093BB038091BA0334
:10427000882309F46BCF1091BB03112309F466CF97
:104280000E94341E882351F08093BA03812F0E942C
:10429000341E882329F08093BB0358CF81E0F4CFEC
:1042A00081E0F9CFB0E0A0E0E8E5F1E20C94F52D73
:1042B000E82FF0E0E15CF64FB490282F2695269584
:1042C000269530E0F901E152F64F0491877010E035
:1042D000082E02C0159507950A94E2F70170112780
:1042E000F901E153F64FE490F12C082E02C0F59449
:1042F000E7940A94E2F791E0E922FF24F901E154FE
:10430000F64FC491D0E002C0D595C7958A95E2F7E3
:10431000C170DD27C62ED12C0115110549F5E11418
:10432000F10431F086EE0E946709C601009771F52D
:10433000B6018B2D0E94540AC601009779F5E1144D
:10434000F104A1F50115110531F081EE0E94FA0981
:10435000C6010097C9F5CD2B31F08CE20E946C0AA2
:10436000C114D104C9F5CDB7DEB7E9E00C94112E24
:1043700081EE0E946709C601009789F2EFE9FFE02C
:104380003197F1F700C000000197F6CFEFE9FFE0A9
:104390003197F1F700C000000197C8CFEFE9FFE0C7
:1043A0003197F1F700C000000197C7CF86EE0E9459
:1043B000FA09C601009731F2EFE9FFE03197F1F712
:1043C00000C000000197F6CFEFE9FFE03197F1F769
:1043D00000C000000197BDCF8FE99FE00197F1F782
:1043E00000C0000091E0C91AD108BACF60E00E9475
:1043F00052210895982F9F709A50963020F0805D3A
:104400000E94F6210895895AFBCF0F931F93CF93F3
:10441000DF93C42FD22FFC0185818823C9F04093FC
:10442000BE030E94F7259093BD038093BC0380E2F6
:104430008C0F883040F4C77081E001C0880FCA95A6
:10444000EAF70E94750ADF91CF911F910F910895AD
:104450001091BE03141332C08091BC039091BD0330
:104460000E940F26883C910548F5C0E2CD0F1D172C
:10447000B9F080E2810F883040F4177081E001C00C
:10448000880F1A95EAF70E947C0AC83048F481E048
:104490009D2F977001C0880F9A95EAF70E94750AC0
:1044A000802F0E946C0AC83070F6D77081E001C07E
:1044B000880FDA95EAF70E947C0AC5CF80E28C0F5C
:1044C000883008F6C77081E001C0880FCA95EAF706
:1044D000F2CF0F93DB0188519C4787309105A0F5FF
:1044E000FC01EA5EF04D0C94E62D06E221EE41EE71
:1044F0006AE17CE7CD010E94052280E00F910895DA
:1045000007E225EE45EE6BE17CE7F4CF06E221EE13
:1045100040EE68E17CE7EECF07E225EE44EE69E18C
:104520007CE7E8CF06E221EE42EE6CE17CE7E2CFE9
:1045300007E225EE46EE6DE17CE7DCCF08E221E004
:1045400045EE6EE17CE7D6CF15968C91882319F065
:104550001092BE03D3CF81E0D1CF9093C403809358
:10456000C3030895E091C303F091C403309729F089
:104570000190F081E02D0995089580E008950E9452
:10458000B2220895EF92FF920F931F93CF93DF9380
:10459000EC01E091C303F091C4033097E1F1028094
:1045A000F381E02D09958091A40382FF34C080FF40
:1045B0000DC088811F928F9384E19AE09F938F931F
:1045C0000E94DE060F900F900F900F907E0186E004
:1045D000E80EF11C0EE01AE08091A40380FF0BC0EE
:1045E0008A811F928F931F930F930E94DE060F9074
:1045F0000F900F900F902196CE15DF0569F78091EF
:10460000A40380FF08C08CE09AE09F938F930E94E0
:10461000DE060F900F90CDB7DEB7E6E00C94142EB7
:10462000EF92FF920F931F93CF93DF93EC01E091F2
:10463000C303F091C403309709F43FC086E0888338
:104640000480F581E02DCE0109958091A40382FFBD
:1046500034C080FF0DC089811F928F9387EF99E04E
:104660009F938F930E94DE060F900F900F900F90F4
:104670007E018EE1E80EF11C01EF19E08091A403A8
:1046800080FF0BC08A811F928F931F930F930E940C
:10469000DE060F900F900F900F902196CE15DF053C
:1046A00069F78091A40380FF08C08FEE99E09F9383
:1046B0008F930E94DE060F900F90CDB7DEB7E6E035
:1046C0000C94142EE091C303F091C403309739F099
:1046D00022E0DC012C930680F781E02D09950895F6
:1046E000A3E0B0E0E6E7F3E20C94FC2D2091C103D7
:1046F0003091C20328173907A1F09093C203809329
:10470000C103E091C303F091C403309751F023E05B
:1047100029839B838A830084F185E02DCE01019655
:1047200009952396E2E00C94182EA3E0B0E0EBE9A3
:10473000F3E20C94FC2D2091BF033091C0032817A5
:104740003907A1F09093C0038093BF03E091C303A6
:10475000F091C403309751F024E029839B838A832E
:104760000084F185E02DCE01019609952396E2E0C3
:104770000C94182ECF93DF93C0910201D0910301C6
:1047800022960E944E25813081F48091D10387FFCB
:104790000CC0C0910001D091010122969EE180E001
:1047A000915028F4DF91CF91089596E0F8CF2991A8
:1047B0002223B1F38F5FF4CFCF93C82F811102C0B2
:1047C00080E024C00E944E25813011F58091D103F4
:1047D00087FF1EC0EC2FE695E695E695EE3180F753
:1047E0008091000190910101E80FF92FF11D2281C4
:1047F00030E0C77081E090E002C0880F991FCA9531
:10480000E2F72823392381E0232BD1F2CF910895B9
:104810008091020190910301FC013296089621914A
:104820002C1721F0E817F907D1F7CACF81E0EECFB6
:104830009C01FC0132969FEF80E04191461751F0B8
:104840009F3F19F4411101C0982F8F5F8630A9F75F
:104850009F3F09F40895290F311D97FD3A95F901FD
:1048600062830895FC01329608962191261303C0B5
:10487000DF0111971C92E817F907B9F70895E62FA1
:10488000E695E695E695EE3170F4E80FF92FF11D07
:10489000677021E030E001C0220F6A95EAF782815B
:1048A000822B828308958091A40380FF0CC01F9205
:1048B0006F938BE49AE09F938F930E94DE060F9094
:1048C0000F900F900F900895E62FE695E695E695E8
:1048D000EE3178F4E80FF92FF11D677021E030E038
:1048E00001C0220F6A95EAF720958281282322834E
:1048F00008958091A40380FF0CC01F926F938DE2F6
:104900009AE09F938F930E94DE060F900F900F9076
:104910000F900895CF93C82F0E944E256C2F8130A1
:1049200061F48091D10387FF08C0809100019091CC
:1049300001010E943F24CF9108958091020190913E
:1049400003010E941824F7CFCF93C82F0E944E2551
:104950006C2F813061F48091D10387FF08C0809172
:104960000001909101010E946424CF9108958091EB
:104970000201909103010E943224F7CF0E944E253C
:10498000813079F48091D10387FF0BC0E091000161
:10499000F091010132968EE1DF011D928A95E9F7CF
:1049A0000895E0910201F0910301329686E0F4CF80
:1049B000DC01FB0111969C9111978181981322C013
:1049C00012968C911297882319F0928189131AC03C
:1049D00013968C911397882319F09381891312C031
:1049E00015968C911597882319F0958189130AC023
:1049F00014969C91992321F081E02481291303C00E
:104A000080E001C081E08170089508950E9405252D
:104A1000089581110EC081E080930F0160910C0117
:104A200070910D0180910E0190910F010E94062559
:104A3000089582E0F1CF83E080930F0160910C0133
:104A400070910D0180910E0190910F010E94062539
:104A500008950E940925089581E080930F016091D7
:104A60000C0170910D0180910E0190910F010E9437
:104A7000062508950E942C25089591E0811101C01A
:104A800090E090930E0160910C0170910D01809166
:104A90000E0190910F010E940625089580910E014C
:104AA000089580930D0160910C0170910D0180912A
:104AB0000E0190910F010E940625089580910D012D
:104AC000089580930C0160910C0170910D0180910B
:104AD0000E0190910F010E940625089580910C010E
:104AE0000895089508950E947225089508950895DF
:104AF0000E9471250895CF930E9476250E94841705
:104B00000E947725C0E08C2F0E946C16892B31F40F
:104B1000CF5FC430C1F780E0CF91089581E0FCCF32
:104B200085B7806885BF85B7806885BF08951F9267
:104B30001FB61F9211248F939F93AF93BF938091C1
:104B4000C503811113C08091E6039091E703A09102
:104B5000E803B091E9034196A11DB11D8093E603DE
:104B60009093E703A093E803B093E903BF91AF915B
:104B70009F918F911F901FBE1F9018958091EE03FB
:104B8000843031F10E94AC081092C50388E190E0B6
:104B900020E40FB6F894A895809360000FBE209390
:104BA000600083B7817F846083BF83B7816083BFE8
:104BB0007894889583B78E7F83BF0FB6F894A895B5
:104BC00080916000886180936000109260000FBE49
:104BD00008950E94D60C0E94B108089582E084BD19
:104BE00093E095BD9AEF97BD80936E0008952FB71F
:104BF000F8948091E6039091E703A091E803B091C7
:104C0000E9032FBF08952FB7F8946091E6037091E0
:104C1000E7038091E8039091E9032FBF08959C0179
:104C20004FB7F8948091E6039091E703A091E803D1
:104C3000B091E9034FBF821B930B089578941F92A4
:104C40001FB61F9211248F939F93AF93BF938091B0
:104C5000E6039091E703A091E803B091E903019680
:104C6000A11DB11D8093E6039093E703A093E80391
:104C7000B093E903BF91AF919F918F911F901FBE99
:104C80001F90189587E797E7909301088093000895
:104C900088E19AE00FB6F894A895809360000FBE63
:104CA00090936000FFCF88E19AE00FB6F894A89542
:104CB000809360000FBE90936000FFCF9B01BA010C
:104CC0009091EE039430E9F48F708093E9009FEFA8
:104CD0008091E800915085FD06C085ED8A95F1F739
:104CE00000009111F5CF8091E80085FF0AC050E0E7
:104CF00040E0C9010E9440298091E8008E778093AE
:104D0000E800089543E050E0BC0182E00E945E2686
:104D1000089546E050E0BC0182E00E945E260895BE
:104D200040E250E0BC0182E00E945E260895CF93ED
:104D3000DF93EC010E944E2548E050E0BE0181E087
:104D40000E945E2688E0FE01A9ECB3E001900D927E
:104D50008A95E1F7DF91CF91089508958FE89AE061
:104D60009F938F930E94DE068091ED030F900F902A
:104D7000811109C00E94D02A0E942D2B8091E2004F
:104D800084608093E20008958BE89AE09F938F936C
:104D90000E94DE061092ED030F900F90089587E8B1
:104DA0009AE09F938F930E94DE060E942C2581E05B
:104DB0000E943D250F900F90089583E89AE09F93FD
:104DC0008F930E94DE066091EA0381E0611101C0C9
:104DD00080E00E941B250F900F9008958FE79AE0C6
:104DE0009F938F930E94DE069091EE0381E09430B2
:104DF00009F080E06091EA030E9429250F900F904E
:104E000008952091C7032F5F822F62E30E94C62D71
:104E1000992319F02093C70308951092C703809136
:104E2000C8038823F1F08091EE038430C1F490919F
:104E3000E9009F702091EC00822F817020FD80E8B6
:104E4000892B93E09093E9009091EB0090FF04C0D0
:104E50009091EE0097FD08C08F708093E90010924A
:104E6000C80308951092F1009091E80095FDFACFE3
:104E70009091E80090FFF0CF9091E8009E7790939A
:104E8000E800EACF42E061EC81E00E944C2A42E275
:104E900061EC82E00E944C2A42E261EC83E00E94D5
:104EA0004C2A9091EE0381E0943009F080E060910B
:104EB000EA030E94092508958091F003833009F4E4
:104EC00061C030F48130D1F1823009F49EC0089580
:104ED0008A3009F48AC08B3009F46FC0893009F038
:104EE00050C08091EF03813209F04BC08091F303F1
:104EF0009091F403029708F044C08091E800877F06
:104F00008093E8008091E80082FF37C09091F30021
:104F10008091F200029731F48091F100813011F01C
:104F2000863021F48091F1000E9451258091E800A3
:104F30008B778093E8000E94802A23C08091EF0342
:104F4000813AF9F48091E800877F8093E8008091AE
:104F5000F3039091F403892B61F468E089EC93E00A
:104F600070E00E948F298091E8008B778093E800A1
:104F7000089560E090E080E0F3CF8091EE0381112E
:104F8000C1CF08958091EF03813AD9F78091F3035F
:104F90009091F403892BA9F78091E800877F809393
:104FA000E8008091E80080FFFCCF0E944E258093AE
:104FB000F1008091E8008E77BCCF8091EF038132C1
:104FC00001F78091F3039091F403892BD1F680913E
:104FD000E800877F8093E8000E94802A8091F10397
:104FE0000E943D250E94D60C08958091EF038132E6
:104FF00041F68091E800877F8093E8000E94802A34
:105000008091F2030E94612508958091EF03813A17
:1050100009F0B7CF8091E800877F8093E800809106
:10502000E80080FFFCCF0E946E25C1CF9FB7F894A7
:105030001092C8039FBF9091EE03943009F048C0CE
:105040002091E9002F703091EC00932F917030FD8A
:1050500090E8922B23E02093E9002091EB0020FFC1
:1050600034C02091EE0027FF30C02091C6032223D8
:1050700021F02091E80025FF28C01092C60326E009
:105080003091E80035FF14C08093F1008091E80072
:1050900085FD27C08091E80080FFFCCF8091E8006B
:1050A0008E778093E8009F709093E90080E00895E8
:1050B0003091EE03343049F43091EB0035FD05C0FA
:1050C000215041F481E08093C6039F709093E900E2
:1050D0008FEF0895EFE9FFE03197F1F700C000008E
:1050E000CFCF8FB7F89421E02093C8038FBFDBCFD9
:1050F00084B7877F84BF0FB6F894A895809160002D
:10510000886180936000109260000FBE80E890E09C
:105110000FB6F89480936100909361000FBE0E94D7
:105120003A2508950E94D02A0E942D2BE2EEF0E04D
:1051300080818460808378940E94AB2D089580E103
:1051400091E00E94AD2208958091EE03853091F4A4
:105150008091A40380FF08C089E69AE09F938F9313
:105160000E94DE060F900F908091EE03853019F0BB
:105170000E94E92508950E94BE250E947B25882370
:1051800099F38091EC03882379F30E942A290E94E5
:10519000D60CEACF08959A014091F5035091F60399
:1051A0000E94D3280895492F55274330510521F1F6
:1051B00068F44130510509F443C04230510509F407
:1051C00044C090E080E050E040E026C0413251050C
:1051D00051F142325105A9F76330710590F7FB0197
:1051E000EE0FFF1FE553FD4F4081518168537D4F06
:1051F000FB01808190E010C099278130910581F0FA
:10520000009729F00297E9F6E3E9FAE002C0EBEB38
:10521000FAE0849190E0AF01F90151834083089551
:10522000E3EAFAE0F6CF6330710558F6660F771FB0
:10523000FB01EF52FD4F4081518189E090E0ECCFBE
:1052400082E190E043E15BE0E7CF84E590E04FEB63
:105250005AE0E2CF80E189BD82E189BD09B400FE58
:10526000FDCF8091D8008F7D8093D8008091E000A1
:1052700082608093E0008091E00081FDFCCF089582
:10528000AF92BF92CF92DF92FF920F931F93CF9373
:10529000DF936C01EB018A010E949F2AF82E811195
:1052A00023C00115110539F0F80180819181C81BD7
:1052B000D90BC80ED91EB12CA12C2097A9F0809132
:1052C000E80085FD22C08091E8008E778093E80099
:1052D00001151105A1F0F80180819181A80EB91E78
:1052E000B182A08285E0F82E8F2DDF91CF911F91A2
:1052F0000F91FF90DF90CF90BF90AF9008950E94E4
:105300009F2A8823D1F2F82EEFCFF60181916F0109
:105310008093F1002197FFEFAF1ABF0ACECFFC01B7
:105320008091F5039091F60386179707A0F0611519
:10533000710529F49091E8009E779093E80090E041
:105340006115710551F4911108C08091E80082FF48
:1053500034C080E00895BC01F2CF8091EE03882331
:10536000C1F18530C1F18091E80083FD30C08091AA
:10537000E80082FDEACF8091E80080FFE1CF8091D4
:10538000F3002091F200382F6115710519F02830D3
:10539000310558F091E02830310509F090E0209176
:1053A000E8002E772093E800CBCF81918093F10025
:1053B000615071092F5F3F4FE7CF8091EE03882343
:1053C00041F0853041F08091E80083FFBECF81E05D
:1053D000089582E0089583E00895FC018091F5032B
:1053E0009091F60386179707A0F06115710529F4CF
:1053F0008091E8008E778093E80090E06115710558
:1054000051F4911108C08091E80082FF35C080E01E
:105410000895BC01F2CF8091EE038823C9F1853055
:10542000C9F18091E80083FD31C08091E80082FDE0
:10543000EACF8091E80080FFE1CF8091F3002091D6
:10544000F200382F6115710519F02830310558F038
:1054500091E02830310509F090E08091E8008E77E6
:105460008093E800CBCF84918093F1003196615016
:1054700071092F5F3F4FE6CF8091EE03882341F003
:10548000853041F08091E80083FFBDCF81E0089531
:1054900082E0089583E00895982F973028F08F7068
:1054A0008093E90081E008959093E900242F762FFE
:1054B00050E0981731F07091EC002091ED00509180
:1054C000F00021FD02C09F5FE8CF3091EB003E7FEE
:1054D0003093EB003091ED003D7F3093ED00309143
:1054E000EB0031603093EB007093EC002093ED0003
:1054F0005093F0002091EE0027FDE5CF80E0089565
:105500008091EF0387FF13C08091E80082FF06C0FF
:105510008091E8008B778093E80004C08091EE03CF
:105520008111F2CF08958091EE038823D9F3809101
:10553000E80080FFF8CF8091E8008E77ECCF2091D3
:10554000E4003091E50095E6A9012091EC00822F5E
:10555000817020FF06C08091E80080FF06C080E0D7
:1055600008952091E80022FD1AC08091EE0388235F
:1055700089F0853089F08091EB0085FD0FC0209186
:10558000E4003091E50042175307F9F29150E1F63B
:1055900084E0089582E0089583E0089581E008950D
:1055A0000E943F2B0E94472BE0EEF0E0808181605B
:1055B0008083E8EDF0E080818F77808319BCA7EDD0
:1055C000B0E08C918E7F8C9380818F7E808310924F
:1055D000ED0308950F931F93CF93DF930E943F2B0A
:1055E0000E94472BC8EDD0E088818F77888388811F
:1055F0008068888388818F7D888319BC1092EE0330
:105600001092EA031092EC031092EB0300EE10E00C
:10561000F80180818B7F808388818160888342E06C
:1056200060E080E00E944C2AE1EEF0E080818E7F15
:105630008083E2EEF0E080818160808380818860F9
:105640008083F80180818E7F808388818061888358
:10565000DF91CF911F910F910895E8EDF0E08081E7
:105660008F7E8083E7EDF0E080818160808384E03D
:1056700082BF81E08093ED030E94EA2A0895E8ED5D
:10568000F0E080818E7F80831092E2000895109276
:10569000DA001092E10008951F920F920FB60F9258
:1056A00011242F933F934F935F936F937F938F9327
:1056B0009F93AF93BF93EF93FF938091E10082FF9D
:1056C0000BC08091E20082FF07C08091E1008B7FD8
:1056D0008093E1000E9401278091DA0080FF19C0C9
:1056E0008091D80080FF15C08091DA008E7F809372
:1056F000DA008091D90080FF96C080E189BD82E107
:1057000089BD09B400FEFDCF81E08093EE030E94C5
:10571000AE268091E10080FF19C08091E20080FFF9
:1057200015C08091E2008E7F8093E2008091E200BC
:1057300080618093E2008091D80080628093D800DD
:1057400019BC85E08093EE030E94DD268091E10084
:1057500084FF2BC08091E20084FF27C080E189BDD7
:1057600082E189BD89B5982F917080FFFBCF809130
:10577000D8008F7D8093D8008091E1008F7E809348
:10578000E1008091E2008F7E8093E2008091E20050
:1057900081608093E2008091EA03882309F449C084
:1057A00084E08093EE030E94EE268091E10083FF67
:1057B00029C08091E20083FF25C08091E100877FAE
:1057C0008093E10082E08093EE031092EA038091DF
:1057D000E1008E7F8093E1008091E2008E7F8093D4
:1057E000E2008091E20080618093E20042E060E0AC
:1057F00080E00E944C2A8091F00088608093F00045
:105800000E94CF26FF91EF91BF91AF919F918F9111
:105810007F916F915F914F913F912F910F900FBEAC
:105820000F901F90189519BC1092EE030E94C42689
:1058300070CF8091E30087FD93E09093EE03B3CFA8
:105840001F920F920FB60F9211242F933F934F93F5
:105850005F936F937F938F939F93AF93BF93CF93F8
:10586000DF93EF93FF93D091E900DF708091EC001C
:10587000C82FC17080FDC0E81092E9008091F0004F
:10588000877F8093F00078940E94642C1092E90046
:105890008091F00088608093F000CD2BCF70C09392
:1058A000E900FF91EF91DF91CF91BF91AF919F916F
:1058B0008F917F916F915F914F913F912F910F90B9
:1058C0000FBE0F901F901895AAE2B0E0EAE6FCE246
:1058D0000C94FB2D8FEE93E02091F100FC012193BD
:1058E000CF01F3E0873F9F07B9F70E945C278091C3
:1058F000E80083FF1EC18091EF039091F0039A307E
:1059000008F017C1E92FF0E0E35EF04D0C94E62DAE
:10591000803899F0823809F00CC18091F3038F70C0
:10592000873008F006C18093E9008091EB0085FB89
:10593000882780F91092E90006C08091EB039091CE
:10594000EC03911182609091E800977F9093E800BA
:105950008093F1001092F1008091E8008E77E5C00D
:10596000882309F4D3C0823009F0E3C08091F103A9
:105970008111D6C08091F3038F702FEF280F26304E
:1059800008F0D7C08093E9002091EB0020FFC8C049
:10599000933031F48091EB0080628093EB00C0C0C3
:1059A0009091EB0090619093EB0021E030E001C01A
:1059B000220F8A95EAF72093EA001092EA0080917C
:1059C000EB008860EACF8111B4C01091F1031F771A
:1059D0008091E3008078812B8093E3008091E80040
:1059E000877F8093E8000E94802A8091E80080FFF2
:1059F000FCCF8091E30080688093E30082E0111186
:105A000083E08093EE0395C08058823008F091C007
:105A10008091F1039091F2038C3D23E09207A1F570
:105A200083E08A838AE289834FB7F894DE01139674
:105A300020E03EE051E2E32FF0E050935700E49184
:105A400020FF03C0E295EF703F5FEF708E2F90E074
:105A5000EA30C0F0C7968D939D932F5F243159F79C
:105A60004FBF8091E800877F8093E8006AE270E092
:105A7000CE0101960E948F298091E8008B77809358
:105A8000E80057C0C096E7CF6091F3037091F4032C
:105A9000AE014F5F5F4F0E94CB28BC01892B09F4F8
:105AA00048C09091E800977F9093E80089819A819F
:105AB0000E94ED29E1CF8038E1F58091E800877FF1
:105AC0008093E8008091EA038093F10045CF811133
:105AD00030C09091F103923060F58091E800877FAB
