:100000000C945A080C9477080C9477080C94770891
:100010000C9477080C9477080C9477080C94770864
:100020000C9477080C9477080C948C2D0C94602E0B
:100030000C94D7270C9477080C9477080C947708C5
:100040000C9477080C9477080C9477080C94770834
:100050000C9477080C945E280C9477080C9477081D
:100060000C9477080C9477080C9477080C94770814
:100070000C9477080C9477080C9477080C94770804
:100080000C9477080C9477080C9477080C947708F4
:100090000C9477080C9477080C9477080C947708E4
:1000A0000C9477080C9477080C94770814001A00C5
:1000B000080015001700000000001C0018000C00CC
:1000C0001200130004001600070009000A000000D7
:1000D00000000B000D000E000F0033001D001B0080
:1000E0000600190005002B002A0011001000360040
:1000F00037003800167CC352C252E300E100E00032
:10010000C1522C00C2522D00340028001E021F02D2
:100110002002210222020000000023022402250204
:100120002E0031002F023002260227023102000089
:1001300000005000510052004F00340036023702D8
:100140002F003000350035024C002E0039002D0202
:1001500034023100005201000100A452E100E0002D
:100160000100010000002D02340228003A003B008B
:10017000200A210A220A000000003800240025007D
:1001800026002D002F023002260227020000000068
:10019000000025022100220023002E023602370231
:1001A0002F003000000000002A0036001E001F0053
:1001B00020002E00005201000100A452E100E000E6
:1001C0000100010001002700370028003A0000006C
:1001D000000000000000000000000000000000001F
:1001E000000000000000000000000000000000000F
:1001F000000000002B112B13000000000000000085
:10020000000000000000A900BD0000000000000088
:1002100000000000005201002F520000A800AA00B8
:10022000BE00AE0000000000000000000000000062
:1002300000000000000000000000000000000000BE
:1002400000000000000000000000000000000000AE
:10025000000000000000000000000000000000009E
:10026000000000000000000000000000000000008E
:10027000000000000052000000000000000000002C
:10028000000000000000000000000000000000006E
:10029000000000000000000000000000000000005E
:1002A000000000000000000000000000000000004E
:1002B000000000000000000000000000000000003E
:1002C000000000000000000000000000000000002E
:1002D00000000000005200000000000000000000CC
:1002E000000000000000000000000000000000000E
:1002F00000000000000000000000000000000000FE
:1003000000000000000000000000000000000000ED
:1003100000000000000000000000000000000000DD
:1003200000000000000000000000000000000000CD
:10033000000000000052000000000000000000006B
:1003400000000000000000000000000000000000AD
:10035000000000000000000000000000000000009D
:10036000000000000000000000000000000000008D
:10037000000000000000000000000000000000007D
:10038000000000000000000000000000000000006D
:10039000000000000052000000000000000000000B
:1003A000000000000000000000000000000000004D
:1003B000000000000000000000000000000000003D
:1003C000000000000000000000000000000000002D
:1003D000000000000000000000000000000000001D
:1003E000000000000000000000000000000000000D
:1003F00000000000005200000000000000000000AB
:1004000000000000000000000000000000000000EC
:1004100000000000000000000000000000000000DC
:1004200000000000000000000000000000000000CC
:1004300000000000000000000000000000000000BC
:1004400000000000000000000000000000000000AC
:10045000000000000052000000000000000000004A
:10046000000000000000000000000000000000008C
:10047000000000000000000000000000000000007C
:10048000000000000000000000000000000000006C
:10049000000000000000000000000000000000005C
:1004A000000000000000000000000000000000004C
:1004B00000000000005200000000000000000000EA
:1004C000000000000000000000000000000000002C
:1004D000000000000000000000000000000000001C
:1004E000000000000000000000000000000000000C
:1004F00000000000000000000000000000000000FC
:1005000000000000000000000000000000000000EB
:100510000000000000520000000000000000000089
:1005200000000000000000000000000000000000CB
:1005300000000000000000000000000000000000BB
:1005400000000000000000000000000000000000AB
:10055000000000000000000000000000000000009B
:10056000000000000000000000000000000000008B
:100570000000000000520000000000000000000029
:10058000000000000000000000000000000000006B
:10059000000000000000000000000000000000005B
:1005A000000000000000000000000000000000004B
:1005B000000000000000000000000000000000003B
:1005C000000000000000000000000000000000002B
:1005D00000000000005200000000000000000000C9
:1005E000000000000000000000000000000000000B
:1005F00000000000000000000000000000000000FB
:1006000000000000000000000000000000000000EA
:1006100000000000000000000000000000000000DA
:1006200000000000000000000000000000000000CA
:100630000000000000520000000000000000000068
:1006400000000000000000000000000000000000AA
:10065000000000000000000000000000000000009A
:10066000000000000000000000000000000000008A
:10067000000000000000000000000000000000007A
:10068000000000000000000000000000000000006A
:100690000000000000520000010000000000000007
:1006A00000000000000000000000007C44454255AE
:1006B000473A2064697361626C65642E0A004445A0
:1006C0004255473A20656E61626C65642E0A006C83
:1006D00065645F7461736B3A20253032580A004FAD
:1006E0006E6573686F743A206163746976653A2049
:1006F00025640A000A002530313662003A200025C0
:10070000303258000A722F6320303132333435369C
:100710003738394142434445460A00556E69636F94
:10072000646520696E707574206D6F6465207365F3
:100730007420746F3A2025750A00556E69636F64E2
:100740006520696E707574206D6F646520696E69CF
:100750007420746F3A2025750A00313A0964656C7B
:100760006179282A31306D73293A2025750A323A89
:1007700009696E74657276616C286D73293A20255B
:10078000750A333A096D61785F73706565643A2064
:1007900025750A343A0974696D655F746F5F6D6120
:1007A000783A2025750A353A09776865656C5F6D7A
:1007B00061785F73706565643A2025750A363A0979
:1007C000776865656C5F74696D655F746F5F6D6197
:1007D000783A2025750A00703A097072696E7420A3
:1007E00076616C7565730A643A0973657420646593
:1007F0006661756C74730A75703A092B310A646E00
:100800003A092D310A6C743A092B31300A72743A64
:10081000092D31300A4553432F713A0971756974B6
:100820000A0A7370656564203D2064656C746120FC
:100830002A206D61785F7370656564202A202872B4
:100840006570656174202F2074696D655F746F5FDA
:100850006D6178290A77686572652064656C7461DA
:100860003A20637572736F723D25642C207768653A
:10087000656C3D25640A53656520687474703A2F71
:100880002F656E2E77696B6970656469612E6F7272
:10089000672F77696B692F4D6F7573655F6B65792E
:1008A000730A004D3E20004D25753A25733E200009
:1008B0003F0A003D2025750A003F0A006465666115
:1008C000756C74730A0025750A003F0A000A092D29
:1008D0002056616C756573202D0A00710A000A09A3
:1008E0002D204D6F7573656B6579202D0A003F00D3
:1008F000433E20004C25640A000A092D20537461F0
:10090000747573202D0A686F73745F6B6579626FFD
:100910006172645F6C65647328293A20253032580F
:100920000A6B6579626F6172645F70726F746F6376
:100930006F6C3A20253032580A6B6579626F6172AC
:10094000645F69646C653A20253032580A6B6579BA
:100950006D61705F636F6E6669672E6E6B726F3A62
:1009600020253032580A74696D65725F7265616462
:10097000333228293A202530386C580A0025730074
:100980000A092D20436F6E736F6C65202D0A455345
:10099000432F713A09717569740A6D3A096D6F7563
:1009A00073656B65790A000A092D204D61676963DB
:1009B000202D0A443A094465627567204D657373BA
:1009C00061676520546F67676C650A583A094D6125
:1009D00074726978204465627567204D6F64652084
:1009E000546F67676C65202D2053686F77206B65A7
:1009F000797072657373657320696E206D617472AE
:100A0000697820677269640A4B3A094B6579626FAD
:100A100061726420446562756720546F67676C6516
:100A2000202D2053686F77206B6579707265737322
:100A3000207265706F72740A4D3A09446562756779
:100A4000204D6F75736520546F67676C650A563A61
:100A50000956657273696F6E0A533A09537461746B
:100A600075730A433A09416374697661746520437A
:100A70006F6E736F6C65204D6F64650A46312D464D
:100A800031303A0953776974636820746F204C6180
:100A900079657220302D392028463130203D204C98
:100AA00030290A302D393A09537769746368207404
:100AB0006F204C6179657220302D390A47524156BA
:100AC000453A0953776974636820746F204C6179E3
:100AD000657220302028616C7465726E61746529BE
:100AE0000A423A094A756D7020746F20426F6F7424
:100AF0006C6F616465720A4553433A094A756D70BB
:100B000020746F20426F6F746C6F6164657220286F
:100B1000616C7465726E617465290A453A09507298
:100B2000696E7420454550524F4D20536574746969
:100B30006E67730A4241434B53504143453A094360
:100B40006C65617220454550524F4D0A4E3A094E30
:100B50004B524F20546F67676C650A006B65796D67
:100B600061705F636F6E6669672E7261773A2025E8
:100B70003032580A2E737761705F636F6E74726FD4
:100B80006C5F636170736C6F636B3A2025750A2E1E
:100B9000636170736C6F636B5F746F5F636F6E74B0
:100BA000726F6C3A2025750A2E737761705F6C63E3
:100BB000746C5F6C6775693A2025750A2E737761CE
:100BC000705F7263746C5F726775693A2025750A8D
:100BD0002E737761705F6C616C745F6C6775693AD6
:100BE0002025750A2E737761705F72616C745F7275
:100BF0006775693A2025750A2E6E6F5F6775693AC9
:100C00002025750A2E737761705F67726176655F64
:100C10006573633A2025750A2E737761705F626190
:100C2000636B736C6173685F6261636B7370616344
:100C3000653A2025750A2E6E6B726F3A2025750A6B
:100C40002E737761705F6573636170655F63617058
:100C5000736C6F636B3A2025750A00646562756773
:100C60005F636F6E6669672E7261773A2025303256
:100C7000580A2E656E61626C653A2025750A2E6DE4
:100C800061747269783A2025750A2E6B6579626FF6
:100C90006172643A2025750A2E6D6F7573653A206E
:100CA00025750A006565636F6E6669673A0A646553
:100CB0006661756C745F6C617965723A2025750A9E
:100CC000003F004E4B524F3A206F66660A004E4B73
:100CD000524F3A206F6E0A000A6D6F7573653A20A5
:100CE0006F66660A000A6D6F7573653A206F6E0A4B
:100CF000000A6B6579626F6172643A206F66660AFA
:100D0000000A6B6579626F6172643A206F6E0A0047
:100D10000A6D61747269783A206F66660A000A6D1E
:100D200061747269783A206F6E0A000A64656275B0
:100D3000673A206F66660A000A64656275673A2042
:100D40006F6E0A000A0A4A756D70696E6720746FCB
:100D500020626F6F746C6F616465722E2E2E20009E
:100D6000433E2000436C656172696E6720454550C3
:100D7000524F4D0A00290A002575002F00257500E5
:100D80005D28002564002000256400200025640003
:100D900020002564007C0025303258006D6F75738B
:100DA000656B6579205B62746E7C78207920762093
:100DB000685D287265702F61636C293A205B0000C2
:100DC000000000000000002A2B28000000000000A6
:100DD0000000000000000000000029000000002CBE
:100DE0001E3420212224342627252E362D3738275D
:100DF0001E1F202122232425263333362E37381F69
:100E00000405060708090A0B0C0D0E0F101112132A
:100E10001415161718191A1B1C1D2F3130232D35C8
:100E20000405060708090A0B0C0D0E0F101112130A
:100E30001415161718191A1B1C1D2F3130354C00AC
:100E400000000000000000000000000000000000A2
:100E50000000000000000000000000000000000092
:100E60000000007E0F00D4FFFFFFC7000000780ADB
:100E7000002530325820006E6B726F5F7265706FA4
:100E800072743A2025303258207C20000A00253028
:100E9000325820006B6579626F6172645F726570B1
:100EA0006F72743A2025303258207C200064656CC3
:100EB0005F6B65795F6269743A2063616E277420A5
:100EC00064656C3A20253032580A006164645F6BB7
:100ED00065795F6269743A2063616E27742061648A
:100EE000643A20253032580A0073757370656E6459
:100EF000696E67206B6579626F6172640D0A005BD1
:100F0000575D005B535D005B525D005B445D005BC1
:100F1000435D000E034100740072006500750073AC
:100F200000000016034B006500790062006F00614D
:100F3000007200640069006F0000000403090409E6
:100F4000025400030100A0FA09040000010301019A
:100F50000009211101000122440007058103080056
:100F60000109040100010300000009211101000131
:100F700022B60007058203200001090402000103D4
:100F8000000000092111010001221500070583035B
:100F900020000112010002000000080912032301D1
:100FA00000010200010631FF0974A1010975150055
:100FB00026FF00952075088102C005010902A101E4
:100FC00085020901A100050919012908150025015B
:100FD0009508750181020501093009311581257FC8
:100FE00095027508810609381581257F95017508D8
:100FF0008106050C0A38021581257F950175088147
:1010000006C0C005010980A101850319012AB700A6
:10101000150126B700950175108100C0050C090166
:10102000A101850419012AA002150126A00295013B
:1010300075108100C005010906A101850605071983
:10104000E029E715002501950875018102050719BA
:101050000029EF1500250195F07501810205081999
:10106000012905950575019102950175039101C04E
:1010700005010906A101050719E029E71500250169
:101080009508750181029501750881010507190010
:1010900029FF150026FF009506750881000508192F
:1010A0000129051500250195057501910295017528
:1010B000039101C011241FBECFEFDAE0DEBFCDBF28
:1010C00012E0A0E0B1E0EEECF2E602C005900D9275
:1010D000A83DB107D9F723E0A8EDB2E001C01D9209
:1010E000A73FB207E1F70E943E1A0C94DF300C9440
:1010F0000000FF93EF93E091D802F091D90230976E
:1011000009F00995EF91FF910895FC0185918030D8
:1011100011F0EFDFFBCF0895FF27E0E230E247FF59
:101120000CC0419597FF09C0EDE2609570958095E0
:101130009095611D711D811D911D27FF02C0219594
:1011400030E350E2AA27660F771F881F991FAA1F56
:10115000A41710F0A41B63955A95A9F7AA3008F0BC
:10116000A95FA05DAF93F3956115710581059105A8
:1011700041F7ED3211F4EF93F395F21718F43F9322
:10118000F395FBCF8F91B5DFFA95E1F70895E991DB
:10119000F9918591803021F0853219F0AADFF9CFDD
:1011A000089520E0E89455915532C1F3503311F47D
:1011B000689455915A3348F4505390F3220F022EFD
:1011C000220F220F200D250FF4CF0EF421958991C7
:1011D0009991533619F3533729F1533559F1BC011D
:1011E00088279927E8945C3621F48991999168942D
:1011F0005591543639F446EF7EF077FF0DC08FEFEE
:101200009FEF0AC055374AE039F0583540E121F0E8
:10121000523642E009F00895FF93EF937DDFEF919E
:10122000FF91B7CFFF93EF93FC0181918030B9F329
:1012300060DFFBCFFF93EF9368DFF1CFDF93CF93B6
:10124000CDB7DEB72596A3DFCF91DF91089580312A
:10125000B8F46430A8F44C3098F450E09CE0699FF6
:10126000400D511D1124FA0190E3899FE00DF11DFD
:101270001124EE0FFF1FE455FF4F859194910895BF
:1012800081E090E008950E94270908959C013A9515
:1012900021153F4150F5FC01EE27F170BC01662796
:1012A0007270AC01442754709C012227387094FF5F
:1012B0000EC080E1EF2B09F480E0672B09F080621B
:1012C000452B09F08064232B89F08068089581E024
:1012D000EF2B09F480E0672B09F08260452B09F0C1
:1012E0008460232B19F08860089580E00895CF93DF
:1012F000DF93EB010E944609FE010995DF91CF9132
:101300000895CF93DF93EC01805E9109089720F058
:1013100062EF7EE0209711F465EB7CE0CE010E9445
:1013200077098C2F0E94A70BDF91CF910895CF935F
:10133000DF93EC010E943A0CCE01805E9109089780
:1013400020F069EF7EE0209711F46CEB7CE0CE0199
:101350000E947709DF91CF9108950F931F93CF9348
:10136000DF938C01EB010E948109209741F4C801B1
:101370000E949709DF91CF911F910F9108958FE9F6
:101380009FE00197F1F700C000002197EECF70E0D9
:1013900060E08933910511F460E570E00E94AD09C9
:1013A000089581E008950E94D109089581E008958B
:1013B0000E94D10908950E94D809089508950E94B5
:1013C000DE090895A6E0B0E0E8EEF9E00C943B30C9
:1013D00049835A839E833091DF0289819A8131113A
:1013E0001AC03E81332399F0222389F00E946510B0
:1013F000182F682F89819A810E94411069817A8112
:10140000812F0E9490172696E3E00C9457300E949B
:101410005310182FF3CF0E94651069817A81F1CFA4
:10142000FC01262F408151816281738184819581E5
:101430000E94E2090895CF93DF93EC0161E00E94DE
:10144000100ABE010E94D309DF91CF910895CF9376
:10145000DF93EC0160E00E94100ABE010E94DF09E8
:10146000DF91CF91089521E030E0A90102C0440F3F
:10147000551F8A95E2F7CA010E94630F0895CF9322
:10148000C82F81E090E00C2E02C0880F991F0A94AB
:10149000E2F70E94E7148C2F0E94330ACF9108953F
:1014A00081E008950E94500A0895CF93C82F0E94AA
:1014B000160F8C2F0E94520A2FEF84E39CE02150DC
:1014C00080409040E1F700C00000CF91089581E096
:1014D0000E94550A0E948228089580E00E94550AC1
:1014E0000E94932808950F931F93CF93DF938C014D
:1014F00061E00E94100AEC01B8010E94DB09811131
:1015000006C080E0DF91CF911F910F910895B8013F
:10151000CE010E94681A8823A1F3B801CE010E946F
:10152000A924882371F3B801CE010E94981F882353
:1015300041F3B801CE010E946E1F882311F3B80158
:10154000CE010E9492188823E1F2F8018581882358
:1015500069F0C330FCE7DF07A1F160F4C130ECE7CC
:10156000DE0789F1C0F4C115DC4791F0C8010E9483
:10157000D609C8CFCB35ECE7DE0759F1CC35FCE70F
:10158000DF0721F1CA35DC4789F70E94C214EECF8C
:101590000E94670AB6CF9091A403892F8E7F90FF97
:1015A00081608093A40380FF09C08EEB96E09F9337
:1015B0008F930E941E090F900F90A3CF8CEA96E0A4
:1015C000F6CF0E94CA140E946D0A9BCF0E94B814E5
:1015D000CDCF0E94C614CACF0E94B3270E94310B00
:1015E00008950E94350B0E94B8270895829590E0D7
:1015F0009C01220F331F220F331F2C7C959587955A
:10160000959587958373282B30E0C901880F991F22
:101610008A7A359527952575822B0895CF93DF9388
:10162000D92F0E94F60AC82F8D2F0E94F60A9C2FF0
:10163000DF91CF91089581E008950895CF93DF93CE
:10164000D82F0E941B0BC82F882319F08D2F0E94C2
:101650001D0B8C2FDF91CF91089508950E941E0BD2
:10166000089580E00E942E0B08950E94F2240E94AB
:101670002E0B0895CF930E94F224C82F8091DA0296
:101680008C1701F1C093DA020E9443286093DB02B9
:101690007093DC028093DD029093DE028091A403BC
:1016A0008570853061F41F92CF938FEC96E09F9305
:1016B0008F930E941E090F900F900F900F908C2F08
:1016C0000E942E0BCF910895ADE0B0E0EAE6FBE07A
:1016D0000C943C30488759876A877B878C879D8725
:1016E00091110E94B5131F8286E0FE013896DE013B
:1016F000119601900D928A95E1F78D8181110DC0AF
:1017000029813A814B815C816D817E818F810E942C
:10171000FC122D96E2E00C945830CE0101960E9406
:101720001B0A8111EDCFF5CFFC012481213021F47A
:10173000808191810E9497100895662329F00E946C
:10174000F9200E94CC2108950E945321FACFCF9313
:10175000C82F8823C9F08238C9F40E94FF2481FD74
:1017600013C089E30E94CA260E9449142FEF87EE16
:1017700093E0215080409040E1F700C0000089E3F1
:101780000E94E4260E944914CF9108958338A1F461
:101790000E94FF2480FDF8CF83E50E94CA260E94A4
:1017A00049142FEF81EE94E0215080409040E1F702
:1017B00000C0000083E5E4CF8438A1F40E94FF2438
:1017C00082FDE2CF87E40E94CA260E9449142FEFCF
:1017D00081EE94E0215080409040E1F700C000008D
:1017E00087E4CECF8CEF8C0F813A98F48C2F0E9437
:1017F0000E1F8111C9CF8C2F0E941C26882329F02F
:101800008C2F0E94E4260E9449148C2F0E94CA2625
:10181000B9CF80E28C0F883048F4C77081E001C0F6
:10182000880FCA95EAF70E949513ACCFEBE5EC0F51
:10183000E33040F4F0E0E05BFE4F808190E00E94F6
:10184000B025A2CFE8E5EC0FEB3150F4F0E0EE0F5D
:10185000FF1FE65EFE4F808191810E94D52594CFC7
:1018600083E38C0F833108F08FCF61E08C2F0E94CF
:101870009D0B8ACF882309F456C0823879F40E94E0
:10188000FF2481FF50C089E30E94CA260E944914A8
:1018900089E30E94E4260E9449140895833859F48C
:1018A0000E94FF2480FF3FC083E50E94CA260E9459
:1018B000491483E5EECF843859F40E94FF2482FF57
:1018C00032C087E40E94CA260E94491487E4E1CF0F
:1018D0009CEF980F913AE8F290E2980F983050F40C
:1018E000877091E001C0990F8A95EAF7892F0E94CD
:1018F0009B13D1CF9BE5980F933028F490E080E0C4
:101900000E94B025089598E5980F9B3128F490E047
:1019100080E00E94D525089593E3980F933118F441
:1019200060E00E949D0B08951F93CF93DF93182FC3
:10193000EB010E94A70B209739F4812F0E943A0CEB
:10194000DF91CF911F9108958FE99FE00197F1F703
:1019500000C000002197EFCF70E060E0893311F400
:1019600060E570E00E94940C0895882321F00E94A5
:1019700095130E9449140895882321F00E949B1317
:101980000E9449140895B0E0A0E0E9ECFCE00C945A
:1019900035306C01D62FC72FFC01158106810295C9
:1019A0000F700E948B13E82E8823F9F0E12E11238B
:1019B000E1F08C2F807F803461F080E28D0F8830E1
:1019C00008F18C2F807E803221F4D230D8F00023B1
:1019D000C9F08091D20382FF15C082E00E94791481
:1019E0000E948B1391E0E82EE926BC2EB2949FE072
:1019F000B922FBE0FB15B8F1EB2DF0E0EF51FF4C05
:101A00000C942630E12CF1CF0C2F0F70C07F11F019
:101A10000295007F112399F0002359F080E28D0F89
:101A2000883010F0D11107C0802F0E9495130E94BA
:101A300049148D2F5AC0802F0E94A813F8CF8D2FE4
:101A40000E943A0C002379F080E28D0F883010F06C
:101A5000D11104C0802F0E949B1303C0802F0E94CD
:101A6000AE130E944914EB2DE850FF0B349720F47D
:101A70000E94F2240E942E0BEE2089F00E94871310
:101A800080FD0DC0F60115820E9481130E949F0FF8
:101A9000C6010E94CF0E0E9481130E94AF0FCDB7E6
:101AA000DEB7E9E00C9451302C2F2F70F22EC07F5E
:101AB000C03219F0F29480EFF822DD2341F0D130EA
:101AC000D1F1112309F444C00023F1F0B2CF809189
:101AD000D20382FD15C0112359F0FF2029F08F2D6C
:101AE0000E9495130E94491480E00E94A70BBBCF6F
:101AF00080E00E943A0CFF2009F4B5CF8F2DABCFC8
:101B0000112369F0011104C08F2D0E94B50CABCFD9
:101B1000013009F0A8CF8F2D0E94CC13A4CF011162
:101B2000A2CF8F2D0E94BC0C8F2D0E94D8138F2D19
:101B30000E94BC1398CF112321F0063008F093CFF8
:101B4000E3CF053008F08FCF8F2D0E94BC0C8BCFD8
:101B50000023D1F3D93349F43FEF87EE93E03150BE
:101B600080409040E1F700C000008D2F0E943A0CA9
:101B70007ACF8C2F86958695837069F0813009F035
:101B800072CF8D2F9C2F9370111102C080E090E0D6
:101B90000E94D52568CF8D2F9C2F9370111102C004
:101BA00080E090E00E94B0255ECF612F8D2F0E94D3
:101BB0009D0B59CF8C2F8370A1F5111154CF4D2F50
:101BC000429546954770440F440F2D2F2F7030E0FB
:101BD000042E02C0220F331F0A94E2F790E080E047
:101BE000D4FF09C08FE090E002C0880F991F4A958A
:101BF000E2F780959095C695C695C370822B932B7E
:101C0000C23049F058F4C13019F00E946F0F2BCF49
:101C10000E94660F28CF0E94780F25CF0E94630F85
:101C200022CF8695112311F08C2F8170882309F41F
:101C30001ACF4D2F429546954770440F440F2D2FD4
:101C40002F7030E0042E02C0220F331F0A94E2F7F7
:101C500090E080E0D4FF09C08FE090E002C0880FE0
:101C6000991F4A95E2F780959095C695C695C370E1
:101C7000822B932BC23049F058F4C13019F00E94E6
:101C8000DA0FF1CE0E94D10FEECE0E94E30FEBCE21
:101C90000E94870FE8CECF70112329F08C2F0E946D
:101CA0009F0F8D2F32CF8D2F0E94BC0C8C2F0E9446
:101CB000AF0FD9CED23F41F160F4D03FB9F0D13F60
:101CC00081F0112309F443C00111B3CE8C2F8F7121
:101CD0001FC0D33F01F1D43FA1F78091D20382FD11
:101CE00024C08C2F8F71112311F312C0112341F0E6
:101CF000053008F0B8CE8C2F8F710E94C10FB3CE83
:101D0000063008F0B0CEF7CF8C2F8F711111CFCFE6
:101D10000E949F0FA8CE112329F08C2F8F710E9453
:101D2000930FA1CE0E948E0F9ECE112331F063E05F
:101D30008C2F8F710E945B1496CE81E00E947914E3
:101D4000023008F490CE82E00E9479148CCE0023F9
:101D500059F0D93309F009CFEFEFF7EE23E0E15066
:101D6000F0402040E1F7FFCE8C2F8F71A0CF0F9372
:101D70001F93CF93DF93EC01688179818D810E945D
:101D8000A2108C010E94EC0F0E94620FB801CE01DC
:101D90000E94C30CDF91CF911F910F910895CF93B3
:101DA000DF93EC018C81882399F0CE010E94730AA5
:101DB000811111C00E948B13882351F08D818823DB
:101DC00039F08091D20382FF03C082E00E9479142F
:101DD000DF91CF910895CE010E94B70ECE010E94EF
:101DE000270AF6CF882321F00E94A8130E944914E5
:101DF0000895882321F00E94AE130E94491408958B
:101E000090E080E00E94B02590E080E00E94D5251F
:101E10000E94B5130E9449140E9482220E94CC2184
:101E200008950E94FE260E94000F08950E94A513A7
:101E30000E94110F089592959F70963091F058F47A
:101E4000925F9F70923058F4803F19F030F4883ED2
:101E500030F481E008959A5FF4CF843FD1F380E0BD
:101E60000895883EB0F3813FD1F7F3CFFC01248180
:101E7000222339F0808191810E9497100E941B0FCC
:101E8000089580E00895A6E0B0E0E9E4FFE00C9456
:101E90003C302696E2E00C945830A7E0B0E0E3E551
:101EA000FFE00C943C302796E2E00C945830089503
:101EB0000E94570F08950E94580F9093FB02809341
:101EC000FA02089508950E945B0F08952091FA0286
:101ED0003091FB02822B932B0E945B0F089520917F
:101EE000FA023091FB02822393230E945B0F089534
:101EF0002091FA023091FB02822793270E945B0F08
:101F000008950E94570F08950E94810F08950E941E
:101F1000840F9093F9028093F802089590E080E096
:101F20000E94870F089521E030E0A90102C0440F0C
:101F3000551F8A95E2F7CA010E94870F089521E094
:101F400030E002C0220F331F8A95E2F78091F80239
:101F50009091F902822B932B0E94870F089521E024
:101F600030E002C0220F331F8A95E2F720953095AA
:101F70008091F8029091F902822393230E94870FA7
:101F8000089521E030E002C0220F331F8A95E2F766
:101F90008091F8029091F902822793270E94870F7F
:101FA00008952091F8023091F902822B932B0E9420
:101FB000870F08952091F8023091F902822393232C
:101FC0000E94870F08952091F8023091F90282272C
:101FD00093270E94870F08950895262F277091E078
:101FE00001C0990F2A95EAF723E0769567952A951F
:101FF000E1F7660F771F660F771FFA01E60FF71FED
:1020000050E040E0682F70E08191DF0111979B0163
:10201000042E02C0369527950A94E2F72170219587
:102020002827292328272C934F5F5F4F44305105E1
:1020300059F70895A82FA77023E0969587952A95BC
:10204000E1F7880F991F880F991FFB01E80FF91F0F
:1020500050E040E080E0219130E00A2E02C0369549
:1020600027950A94E2F721703327042E01C0220F2E
:102070000A94EAF7822B4F5F5F4F4430510559F7BE
:102080000895262F943070F48C3060F4682F70E03F
:102090008CE0989F600D711D112440EE52E0822F5C
:1020A0000E94ED0F0895292F943068F48C3058F475
:1020B00090E060EE72E03CE0239F800D911D1124C2
:1020C0000E941A10089580E00895B0E0A0E0EBE6C9
:1020D000F0E10C9435307C010091F8021091F90286
:1020E0008091FA029091FB02082B192BCFE0D0E0EF
:1020F000CC24C394D12CBC2EC6010C2E02C0880F58
:10210000991F0A94E2F780239123892B49F42197A0
:1021100090F7B12C8B2DCDB7DEB7E9E00C945130A0
:10212000B7018C2F0E949C17019789F3F3CFCF93AF
:10213000DF93EC010E946510BE010E949C17DF91A5
:10214000CF9108951F93CF93DF93EB019091DF021E
:10215000992339F0CB010E949710DF91CF911F9105
:102160000895882369F0CB010E946510182F682F0D
:10217000CE010E944110BE01812F0E949C17EDCF1D
:10218000CB010E945310182FF6CF1F93CF93DF93EC
:10219000C091FC0217E08091FD028C1304C0DF9116
:1021A000CF911F910895D0E01C9FF0011D9FF00D6D
:1021B0001124E250FD4F208131814281538164819D
:1021C000758186810E944D0F2196C770E4CF2091C2
:1021D00036033091370340913803509139036091B1
:1021E0003A0370913B0380913C030E944D0F089588
:1021F000CF93DF9380913C03807F09F04DC08091A5
:102200003B03882309F448C0E091FC025091FD0291
:10221000C0913703D0913603609138037091390330
:1022200047E05E17C9F18E2F90E0E49FF001112482
:10223000E250FD4F2481222391F1489FF001499FF4
:10224000F00D1124DF01A250BD4F11962C91119772
:102250002C1325C02C912D1322C015962C91159767
:1022600021111DC012962D913C91261B370B283C45
:102270003105A8F480913C038F70806180933C030A
:10228000EC5FFC4F80818F708061808386E393E0F8
:102290000E94CF0E0E94C510DF91CF910895FC01DE
:1022A0003196E770BECF482F2091FC029091FD023D
:1022B00057E0291302C080E0089530E0529FF001FA
:1022C000539FF00D1124E250FD4F8181681306C029
:1022D0008081481303C085818111EECF2F5F3F4F6E
:1022E0002770E7CFA4E1B0E0E8E7F1E10C943230E9
:1022F0008C0186E0F801DE011F9601900D928A950F
:10230000E1F7F8018481E58096E3A92E93E0B92EE8
:1023100090913A0391111FC08823D1F0EE20A9F0CB
:10232000C8010E94360FF82E882379F087E0F80163
:10233000D50101900D928A95E1F7C5010E94940B99
:102340000E94F8100E94E7105FC0C8010E94CF0EE3
:10235000FF24F39459C0C080D18082809380F09094
:102360003B032091380330913903A401421B530BE6
:10237000FF2009F4F9C0483C510508F0A7C08823A4
:1023800009F442C09091370380913C03282F207FAD
:1023900009F05CC09D1116C090913603C91212C09D
:1023A000E1104EC08F70806180933C030E94E71063
:1023B00086E393E00E94CF0E80913C03F801868370
:1023C000F12C22C0E1103CC06D2D8C2D0E945311C8
:1023D0006D2D8C2D0E945311E82E8111F1CFCF86E7
:1023E000D88A8F8598890E949710292F22952F705F
:1023F000243078F49F702230A8F09923B9F0F801C6
:102400009681907F99F4FE2C8F2D6496ECE00C94CD
:102410004E302A5F2F70223068F0C8010E94CF0E24
:10242000EF2CF1CF992311F0882369F3805E883077
:1024300050F3F3CF803F38F3815F833070F7E3CF01
:1024400080913C03816080933C03BACF9D1113C0FF
:1024500090913603C9120FC0E1100DC08683C801E8
:102460000E94CF0E87E0F801A6E3B3E001900D9241
:102470008A95E1F767CFC8010E94360F882309F4D7
:1024800064CFEE2009F461CF80913C03803288F064
:102490002091360330913703398728879B868A86B7
:1024A00090913A039C871D868E87CE0108960E94E4
:1024B000CF0E87E0F801A6E3B3E001900D928A9574
:1024C000E1F70E94F8100E94E71042CF90913C0380
:1024D000292F207FA1F4682D9A8A898AA6017A89FA
:1024E0009E2D0E94430F86E393E00E94CF0E87E06B
:1024F000F50111928A95E9F70E94E71061CF8823D0
:1025000009F482CF809137038D1110C0809136037A
:10251000C8120CC0E1100AC09683C8010E94CF0EF9
:1025200087E0F50111928A95E9F76ECFC8010E9404
:10253000360F882309F409CFEE2009F406CF8091E5
:102540003C03803208F4B5CF209136033091370335
:102550003A8329839C828B8290913A039D831E82C9
:102560008F83CE010196A3CF483C5105B8F588234F
:1025700009F4EECEFE2CEE2009F4E7CE809137036D
:102580008D111EC080913603C8121AC080913C0381
:1025900080FD0DC0982F907F51F08683903F09F405
:1025A0005ECF982F907F905F8F70892B57CF87E0F9
:1025B000F801A6E3B3E001900D928A95E1F724CFEC
:1025C000C8010E94360F811174CF80913C03816055
:1025D00080933C03C8010E94CF0E16CF682D9A8AC3
:1025E000898AA6017A899E2D0E94430F87E0F50112
:1025F00011928A95E9F7A6CEAEE0B0E0E2E0F3E111
:102600000C943B30288739874A875B876C877D87A6
:102610008E87CE0108960E9472118823B1F06C85D6
:10262000662341F0288539854A855B857D858E85C1
:102630000E944D0F17E08091FC029091FD028913DA
:102640003DC02E96E3E00C94573087E0FE013896AB
:10265000DE01119601900D928A95E1F78C85882311
:1026600049F32091FD0230E0C90101968770992756
:102670004091FC024817190699F097E0929FD0010B
:10268000939FB00D1124A250BD4FFE0131960190D1
:102690000D929A95E1F78093FD020E94C510CACF72
:1026A0000E94160F1092FD021092FC0287E0E6E3F2
:1026B000F3E0DF011D928A95E9F7BCCF819FC0014D
:1026C000112482509D4F0E947211882309F4B9CFC2
:1026D000E091FC021E9FF0011124E250FD4F208189
:1026E0003181428153816481758186810E944D0FC1
:1026F0008091FC0290E00196877099278093FC02FC
:102700009ACF8091650386958695869508958091E8
:1027100065038770089590916503977081E009F4CF
:1027200080E0089580919103089590919103892B01
:1027300080939103089580959091910398239093AD
:102740009103089580939103089510929103089541
:1027500090919003892B8093900308958095909198
:1027600090039823909390030895109290030895F6
:1027700008950E94B813089590916603292F282385
:1027800031F080958923809366030E94B9130895E0
:1027900008950E94C813089590916703292F282354
:1027A000281729F0982B909367030E94C913089566
:1027B00090916703292F282331F0809589238093F6
:1027C00067030E94C913089580916703882329F045
:1027D0001092670380E00E94C9130895CF93C091BF
:1027E000910380919003C82B80916703882331F077
:1027F000C82B0E94FA2581110E94E4138C2FCF91DF
:102800000895CF93DF93C0910201D09103010E94FC
:10281000EE138883C0910201D091030148E050E09B
:102820006DE573E0CE010E947730892B59F088E086
:10283000FE01ADE5B3E001900D928A95E1F7CE017E
:102840000E940225DF91CF910895CF93DF93C0912D
:102850000001D09101010E94EE138983C091000113
:10286000D091010140E250E06DE373E0CE010E949F
:102870007730892B59F080E2FE01ADE3B3E001909F
:102880000D928A95E1F7CE010E945025DF91CF91FC
:1028900008950E948E27813039F48091D10387FFFB
:1028A00003C00E94251408950E94011408950895FC
:1028B0000E94571408959091D20392FF11C098E09E
:1028C000899F90011124622B609365030E949F0FE2
:1028D000809165038695869586950E945814089583
:1028E0000E949F0F08951092650380E00E94581483
:1028F0000895909165038095892380936503282F1F
:10290000277069F4891759F09091D20392FF07C09C
:102910008695869586950E94AF0F0E947314089540
:10292000CF93C82F8091D20382FB992790F99C17EF
:10293000E9F0C0FB82F98093D2038091D10390919A
:10294000D2030E94F21482E00E9479148091A403C1
:1029500080FF0CC01F92CF938FED96E09F938F93D3
:102960000E941E090F900F900F900F90CF91089525
:102970008091D20382FB882780F991E089270E9409
:102980009014089581E00E949014089580E00E94C0
:10299000901408956FEF7FEF90E080E00E94C930BF
:1029A000089590E080E00E94953021E0853E9E4FA2
:1029B00009F020E0822F089582E090E00E948D309F
:1029C000089583E090E00E948D3090E00895682F94
:1029D00083E090E00E94AB30089584E090E00E9494
:1029E00095300895BC0184E090E00E94C9300895BC
:1029F000AB01BC018FE090E00E94BD300895AB01B7
:102A0000BC0183E190E00E94BD30089560E070E079
:102A1000CB010E94FF14089560E070E0CB010E949A
:102A2000F8140E9406150895A8E0B0E0EAE1F5E187
:102A30000C943C3065EE7EEF90E080E00E94C9305F
:102A400060E082E090E00E94AB3081E090E0909303
:102A5000FB028093FA020E94E71460E074E184E0D4
:102A600090E00E94C93060E086E090E00E94AB30C8
:102A700060E087E090E00E94AB3040E050E0BA01B7
:102A800088E090E00E94BD3060E083E290E00E9428
:102A9000AB3060E08CE090E00E94AB3060E08DE015
:102AA00090E00E94AB3019821A821B821C821D8228
:102AB0001E821F82188648E050E067E170E0CE0178
:102AC00001960E949B3040E050E0BA018FE190E017
:102AD0000E94BD300E940C152896E2E00C945830FC
:102AE0000E9414150895682F8EE090E00E94AB308C
:102AF0000895A6E0B0E0EFE7F5E10C943A300E94CB
:102B000037288C018091920390919303801791074D
:102B100081F019821A820E943728682F49815A81D0
:102B2000792F80E090E00E94640B10939303009350
:102B300092032696E4E00C9456300E94432860935A
:102B4000A0037093A1038093A2039093A3036093C7
:102B50009C0370939D0380939E0390939F0308951D
:102B6000089508950E94B015089508950E94B5151E
:102B7000089586E59AE20E94551A0E94B1150E94B6
:102B8000B215089581E008950E94C21508950E942B
:102B9000C2150895089508950E94CA150E94CB1584
:102BA00008950E94D114811102C00E9470150E94E4
:102BB000DC148093A4030E94ED149093D2038093BD
:102BC000D1030E94281C0E94E1140E94630F80918F
:102BD000F8029091F9020E94840F08950E942E2815
:102BE0000E94AE190E94D1150E942D0B0E94B81AA6
:102BF0000E94B6150895A6E0B0E0E1E0F6E10C947D
:102C000030300E94C41581110AC00E9479150E94BB
:102C1000A4220E943A0B2696EEE00C944C300E94BF
:102C2000C41924E9822E23E0922E640110E0F601FB
:102C3000E190F1906F01812F0E94AC181F5F14305A
:102C400009F44BC0E816F90691F38091A40381FDC5
:102C50000E94B5180E94C715782E10E06624639470
:102C6000812F0E94AC187C01F401A190B1904F011A
:102C70008A159B0561F100E0CC24C394D12CAE24CD
:102C8000BF24C5018C219D21892BC1F07720B1F093
:102C900009831A830E9437289C838B836D8221E0ED
:102CA000C7018C219D21892B09F420E049815A819B
:102CB0006B817C818D81922F0E94640B0F5FCC0C05
:102CC000DD1C0C30F1F6F4013297F182E0821F5FD7
:102CD000143031F60E949D159ACFE816F90609F0D6
:102CE000B4CF93CF1F93CF93DF930E94A117EC0132
:102CF000C11580E5D807F0F5C11580E4D80708F0C4
:102D00009CC0C03ED10520F5CD3CD10508F082C065
:102D1000C83AD10578F4C53AD10508F073C0C1307E
:102D2000D10519F1209709F1C430D105F0F4D0E0B4
:102D3000C0E01BC0C33CD105D0F7C85AD0E0CC0FCF
:102D4000DD1FCD5ADE4F0990D881C02DD4640DC04F
:102D5000C11580E2D80708F0D1C0C11581E0D807BD
:102D600008F05AC0C83ED10510F7CE01DF91CF91CF
:102D70001F910895C03682E5D80718F5C03482E562
:102D8000D80708F06BC0C03282E5D80708F05FC0F2
:102D9000C11582E5D80708F497C02C2F26952695F3
:102DA00080E2289F900111248C2F8370C1E0D0E035
:102DB00002C0CC0FDD1F8A95E2F7C22BD32BDD6852
:102DC000D4CFC03A82E5D80760F4C03882E5D8078E
:102DD00008F459C0CF71D0E0DC2FCC27C46FD06A83
:102DE000C4CFC03C82E5D80708F462C0C03E82E58B
:102DF000D80708F09CCFDC2FCC27CC27DF71C06F21
:102E0000D06AB3CFC55AD0E0C757DE4FC881D0E0F3
:102E1000D064ABCFD065A9CF8D2F0E944318182F57
:102E2000CE0199270E94A117C12FD0E0DC2FCC271B
:102E3000CC27DF71C82BD92B98CFCE0199270E94C0
:102E4000A117CC27DF70C82BD92BD06A8ECFCF71BA
:102E5000D0E0DC2FCC27C16FD06A87CF2C2F2695EE
:102E60002695277080E2289F900111248C2F837073
:102E7000C1E0D0E002C0CC0FDD1F8A95E2F7C22B83
:102E8000D32BDC6872CF2C2F26952695277080E2F5
:102E9000289F900111248C2F8370C1E0D0E002C0E4
:102EA000CC0FDD1F8A95E2F7C22BD32BDA685DCFFA
:102EB0008C2F8F710E944318C82FD0E0DC2FCC27B5
:102EC000CC27DF71D06251CF8C2F8F710E944318B5
:102ED00055E0D695C7955A95E1F7CF70D0E0DC2F35
:102EE000CC27282F30E084FF05C044E0220F331F99
:102EF0004A95E1F7C22BD32BD06937CF8D2F8F7135
:102F00000E944318182FCE0199270E94A117C12FA4
:102F1000D0E0DC2FCC27CC27DF71C82BD92BD2CF28
:102F2000462F743030F46C3020F4672F0E94430930
:102F3000089590E080E008950E9490170E94721614
:102F4000089582389105B9F1B0F48133910509F4FF
:102F50007DC048F48932910509F46DC08A3291052B
:102F600009F47BC008958533910509F45FC0893366
:102F7000910509F10895833E9105D9F138F4803E19
:102F8000910529F1823E910579F10895863E9105DA
:102F9000D9F1873E910509F43EC0843E910541F583
:102FA0002091D20321FF24C08091D10384FD19C058
:102FB00087EE90E008952091D103237009F05AC064
:102FC0002091D20323FF14C089E290E0089520915C
:102FD000D10320FD38C03091D20330FF09C024FF57
:102FE00043C090E080E008952091D10322FDF7CF07
:102FF00008952091D10322FD3AC03091D20330FDD3
:1030000039C024FFF5CFEDCF2091D10323FFF0CFBE
:1030100024FDE7CFCDCF2091D10323FD2EC03091E9
:10302000D20331FFEECF84EE90E008952091D103DA
:1030300025FFDECFC9CF2091D10325FD21C02091EE
:10304000D20323FFD5CF89E390E0D2CF2091D103E3
:1030500026FFCECF8AE290E008952091D10326FF8B
:10306000C7CF81E390E0089583EE90E0089582EE6B
:1030700090E0089580EE90E0089586EE90E0089547
:1030800085E390E008959091D10392FF10C041E054
:10309000282F2471243009F040E031E0282F2871D6
:1030A000283009F030E0431711F02CE0822793FF1D
:1030B00010C041E0282F2471243109F040E031E0B4
:1030C000282F2871283109F030E0431711F02CE047
:1030D00082273091D20330FF10C051E0282F217198
:1030E000213009F050E041E0282F2871283009F004
:1030F00040E0541711F029E0822731FF10C041E071
:10310000282F2171213109F040E031E0282F28716A
:10311000283109F030E0431711F029E0822794FDAF
:10312000877E0895CF939C01205E3245C1E0203216
:10313000310538F4FB01C581C11103C08F710E94B4
:103140003F0A8C2FCF91089508950E94A4180895E6
:1031500008950E94A8180895E82FF0E0EE0FFF1FD1
:10316000E552FC4F808191810895B0E0A0E0EBEB47
:10317000F8E10C94323084E097E09F938F930E94A3
:103180001E098BEDE82E83E0F82E0F900F90912C06
:10319000812C9FEFA92E96E0B92E2CEFC22E26E0AF
:1031A000D22E06EF16E0C4EFD6E09F928F92BF9228
:1031B000AF920E941E09DF92CF920E941E09F70172
:1031C000819191917F010E940E0B9F938F931F938A
:1031D0000F930E941E09DF93CF930E941E099FEF59
:1031E000891A990AEDB7FEB73C960FB6F894FEBF60
:1031F0000FBEEDBFF4E08F169104B9F6CDB7DEB780
:10320000ECE00C944E3080EA8A95F1F7089500C006
:1032100008950E9403190895F894E82FE295EF703D
:10322000F0E031A1282F2F7081E090E001C0880FDD
:103230002A95EAF7982F9095932391A392A1892B31
:1032400082A378940895CF93DF9386EF0E940C19A0
:1032500085EF0E940C1984EF0E940C1981EF0E94E7
:103260000C19CCE8D1E089918F3F11F00E940C1924
:1032700081E0C839D807B9F7DF91CF910895AF92AF
:10328000BF92DF92EF92FF920F931F93CF93DF9342
:103290008C01D62EC62FD0E0CE0188569E4F7C01E1
:1032A000FC0120812F3F09F44CC0F894E22FE295F5
:1032B000EF70F0E031A12F7081E090E001C0880F45
:1032C0002A95EAF7932F982B91A392A180958923B1
:1032D00082A378940E940719ECE8F1E041E050E005
:1032E000B12CA12C21912F3FB1F1A22FA295AF704B
:1032F000B0E090968C9190E02F7002C095958795E4
:103300002A95E2F780FD27C0CA01A82AB92A440FEE
:10331000551F81E0E839F80729F7F70180818F3FD1
:1033200011F00E940C1961E0A114B10409F460E0ED
:103330008D2D0E940919CC0FDD1FC00FD11FB9823E
:10334000A882DF91CF911F910F91FF90EF90DF90B6
:10335000BF90AF90089590E080E0D7CF0E942319EE
:1033600088E0EBEDF3E0DF01982F1D929A95E9F7E5
:10337000E3EDF3E0DF011D928A95E9F784E00E9416
:10338000FF190E94A5180895A8E0B0E0EAECF9E161
:103390000C9439308E010F5F1F4F88E0F8011192B5
:1033A0008A95E9F7F12C6F2DC8010E943F19F3941B
:1033B000F4E0FF12F8CF48E050E0B80183ED93E06D
:1033C0000E94773021E0009709F420E0892B41F03A
:1033D00088E0F801A3EDB3E001900D928A95E1F742
:1033E00044E06BED73E083ED93E00E94001A182F28
:1033F0000E94A918812F2896E5E00C945530089575
:10340000B0E0A0E0E6E0FAE10C9436306C017B011C
:10341000042FC22F222379F081E08093A7030E941A
:1034200037289093A6038093A50380E0CDB7DEB73D
:10343000E8E00C945230D091A703DD23B1F38091E2
:10344000A5039091A6030E944F28059770F310E002
:10345000000F111FA801B601C7010E947730892B08
:1034600031F0A801B601C7010E948430CD2F10921F
:10347000A7038C2FDBCF0E94FB1508950E94D02755
:103480000E94B82A0E94B9150E94D22A0E94EE1505
:103490000E94DF2A0E94E42A0E943B1A0E940A2B03
:1034A0000E94ED280E94CC15F5CF9093D90280930D
:1034B000D8020895FB012581222341F097FF06C021
:1034C0009F77BC0190E080E00E94C21B81E00895DC
:1034D0000F931F93CF93DF93EC018B01FB01858149
:1034E000882389F00E9492138272FE01E053FC4708
:1034F000E830F10540F4E351FF4C0C94263088236A
:1035000069F00E94F41AB801CE010E945A1ADF91A4
:10351000CF911F910F910895882399F30E94F31A78
:10352000F2CF80E00E94D31AEECF81E0FBCF82E0A1
:10353000F9CF83E0F7CF84E0F5CF85E0F3CF90912A
:10354000E403923071F48A3050F490E009966AE016
:1035500070E00E941230875A0E94AC0C0895865089
:10356000FBCF0E943A24089508950E94B41A08954A
:103570008CE090E00E948D308093E4030E94B51AA5
:103580008091A40380FF0EC08091E4031F928F936B
:103590008AE397E09F938F930E941E090F900F90EC
:1035A0000F900F900895CF93C82F8093E403682F56
:1035B0008CE090E00E94AB308C2F0E94B51A809175
:1035C000A40380FF0EC08091E4031F928F938BE1D0
:1035D00097E09F938F930E941E090F900F900F907A
:1035E0000F90CF910895089508950E94FF2480932D
:1035F000E3039091E403913029F481FF03C089E350
:103600000E94AC0C0E9492138093E5030E94A513C4
:103610000E94B5138091E403823021F158F488238D
:10362000C1F08130D1F08FE39CE90197F1F700C040
:1036300000000895843051F18530A9F78BE191E0C5
:103640000E94C70985E290E00E94C70988E290E0E5
:1036500006C082EE0E94A70BE6CF88E193E00E94AD
:10366000C709E1CF8091E30380FD03C083E50E9499
:10367000AC0C82EE0E94A70B8FE39CE90197F1F757
:1036800000C0000087E50E94AC0CCDCF86EE0E9402
:10369000AC0C88E1F8CF8091E403823011F148F45A
:1036A000882381F0813091F08091E5030E94A2137C
:1036B00008958430F9F08530B9F788E290E00E94EF
:1036C000C709F2CF82EE0E943A0CEECF8CE20E9444
:1036D000AC0C8091E30381FFE7CF89E30E94AC0C3F
:1036E000E3CF82EE0E943A0C8091E30380FDDCCFB1
:1036F00083E5F4CF88E2F2CF8F929F92AF92BF9290
:10370000EF92FF920F931F93CF93DF934B015C01D6
:10371000D091E4038CE1E82EF12C07E010E021E0E9
:10372000D501C4010E2C04C0B695A7959795879531
:103730000A94D2F7C82FCF70222339F0D43051F435
:10374000CA3040F080E00E949F1A8C2F0E949F1A7E
:1037500020E005C0C111F9CF04301105B4F30150C8
:10376000110984E0E81AF1080F3F1007C9F6DF914C
:10377000CF911F910F91FF90EF90BF90AF909F90CE
:103780008F900895CF92DF92EF92FF926B017C01B0
:10379000C114D10481E1E806F104A0F5C114D104FB
:1037A00081E0E806F10420F08091E403823051F1D9
:1037B0000E94F51AC114D10481E0E806F10438F141
:1037C0008091E403811123C081E0E81AF108C70168
:1037D000B6012AE096958795779567952A95D1F752
:1037E00078528F4F9F4F0E947C1B83E0D822EE249B
:1037F000FF24C701B60174528F4F9F4F0E947C1B5C
:103800000E944B1BFF90EF90DF90CF900895C7016F
:10381000B601F4CF0E94CA14089580E00E94AC184B
:10382000817008950E94C4192FEF86E791E021501E
:1038300080409040E1F700C000000E94C4190E943F
:103840000D1C882321F00E940A1C0E9482280895E2
:103850000E94121C0895809104011F928F93809101
:1038600005011F928F93809108011F928F93809181
:1038700009011F928F9380910A011F928F9380916B
:103880000B011F928F938AE597E09F938F930E947D
:103890001E098DB79EB70E960FB6F8949EBF0FBE49
:1038A0008DBF0895883248F58E3108F07FC08B3087
:1038B00069F130F4873009F4E0C089EB98E0F1C099
:1038C000833109F468C08431C1F78BED98E09F9390
:1038D0008F930E941E090F900F908091AC03882354
:1038E00009F411C11092AC031092AB031092AA0319
:1038F0001092A9031092A80325C08F3409F4D6C0F2
:1039000008F03FC0893209F38833B9F68EED98E0AC
:103910009F938F930E941E090E942B1C1F9281E08F
:103920008F931F9288E08F9387ED97E09F938F93FB
:103930000E941E098DB79EB708960FB6F8949EBFD9
:103940000FBE8DBF2091AC03222309F4D3C0809118
:10395000A8039091A903009711F48CE991E09F933B
:103960008F931F922F9387EA98E09F938F930E94E3
:103970001E090F900F900F900F900F900F9081E005
:103980000895813509F4A6C008F4A6C0823509F06F
:1039900094CF81E08CC08DEC98E09F938F930E9430
:1039A0001E090E942B1C0F900F90CCCF8D5180933D
:1039B000AC03833009F446C078F48130E1F0823002
:1039C000C1F11092AC038AEC98E09F938F930E9410
:1039D0001E090F900F901BC0853009F445C0D8F127
:1039E000863079F784E091E09093AB038093AA034B
:1039F00084EE91E008C08BE091E09093AB0380935C
:103A0000AA0380EA91E09093A9038093A803809190
:103A1000AC03882309F496CF1F928F9386EC98E02D
:103A20009F938F930E941E090F900F900F900F90FD
:103A300089CF8AE091E09093AB038093AA0389EA4F
:103A400091E0E1CF89E091E09093AB038093AA03EA
:103A500085EB91E0D8CF88E091E09093AB03809321
:103A6000AA0382EC91E0CFCF85E091E09093AB0385
:103A70008093AA0381ED91E0C6CF81E080930B0192
:103A800084E180930A018AE0809309018EE18093AA
:103A9000080188E08093050188E2809304018CEBA3
:103AA00098E09F938F930E941E097DCF8AE0E0915A
:103AB000AA03F091AB033097D1F02081082E000CBF
:103AC000990B820F911D8F3F910541F03CF08FEFD4
:103AD000808307C08FEFEBCF86EFE9CF97FFF8CF5A
:103AE000108280811F928F9383EB98E099CF80EBB7
:103AF00098E0D7CF83EA98E09F938F930E941E09A6
:103B00000F900F903CCF80E00895CF93C82F1F9265
:103B10008F9384EF98E09F938F930E941E0981E01A
:103B200090E002C0880F991FCA95E2F70E94630FC8
:103B30000E94160F0F900F900F900F90CF91089545
:103B4000B0E0A0E0E6EAFDE10C943730EBEFE80FDF
:103B5000EF3308F054C1F0E0EB50FF4C0C942630EA
:103B60000E94E1149F938F9384EA9CE09F938F932C
:103B70000E941E090E94DC1483FB992790F91F9272
:103B80009F9382FB992790F91F929F9381FB99271E
:103B900090F91F929F93982F91701F929F931F925D
:103BA0008F938BE59CE09F938F930E941E090E9448
:103BB000ED1493FB222720F91F922F9387FB2227D6
:103BC00020F91F922F9386FB222720F91F922F9313
:103BD00085FB222720F91F922F9384FB222720F9AF
:103BE0001F922F9383FB222720F91F922F9382FB92
:103BF000222720F91F922F9391FB222720F91F9251
:103C00002F93292F21701F922F9381FB222720F9B8
:103C10001F922F93282F21701F922F939F938F9382
:103C20008CE59BE09F938F930E941E098DB79EB7F2
:103C30008A960FB6F8949EBF0FBE8DBF81E02AC052
:103C400084E69DE09F938F930E941E090E94701549
:103C50000F900F90F3CF87EA99E09F938F930E9484
:103C60001E09F6CF8091A403807F8093A40380E88F
:103C700099E09F938F930E941E0980E69DE09F9399
:103C80008F930E941E0981E08093AD030F900F90E7
:103C90000F900F90CDB7DEB7E7E00C94533084E47B
:103CA0009DE09F938F930E941E090E94670AD0CFC8
:103CB0009091A403892F8E7F90FF81608093A4034D
:103CC00080FF03C088E39DE0C8CF8BE29DE09F9317
:103CD0008F930E941E098091A403817F8093A40387
:103CE000B7CF9091A403892F8D7F91FF826080933D
:103CF000A40381FF0AC08EE19DE09F938F930E94F1
:103D00001E098091A4038160E9CF80E19DE0A5CFE9
:103D10009091A403892F8B7F92FF84608093A403EA
:103D200082FF03C081E09DE0E8CF81EF9CE095CF6A
:103D30009091A403892F877F93FF88608093A403C9
:103D400083FF03C085EE9CE0D8CF88ED9CE085CF53
:103D500089EF91E09F938F938DE799E09F938F93E5
:103D60000E941E090F900F900F900F9067CF0E9436
:103D70004328062FF72EE82ED92EC091D103C7FB7A
:103D8000CC27C0F90E94AE27182F0E948E27D82F6B
:103D90000E94F224DF92EF92FF920F931F92CF9333
:103DA0001F921F931F92DF931F928F9389EF98E0CA
:103DB0009F938F930E941E098DB79EB70E960FB6E4
:103DC000F8949EBF0FBE8DBF39CF0E94160F909101
:103DD000D103892F97FB87F980588093D10387FF00
:103DE00003C08EEC9CE039CF83EC9CE036CF80E0C2
:103DF0000E94851D23CF8953FBCF8D51F9CF81ECD4
:103E00009CE09F938F930E941E090F900F9080E07B
:103E100041CF80E008950E94091F0895CF93C82FD5
:103E20008091AD038130C1F0882339F0823009F4EC
:103E300050C01092AD0380E00DC00E9492138232F8
:103E4000D1F78C2F0E94091F81111FC08C2F0E9457
:103E5000A01D8170CF9108950E949213823289F340
:103E60008C2F0E940B1F811127C0C43139F180F4BF
:103E7000CB3091F0C03131F18EEE98E09F938F936B
:103E80000E941E090F900F901BC081E090E0E1CFCF
:103E9000C932A1F0C83381F780E899E09F938F93EE
:103EA0000E941E0980EF98E09F938F930E941E0945
:103EB0000F900F900F900F9081E0CBCF1092AD0339
:103EC00080E0C7CF82E08093AD0388E30E94521C5C
:103ED000F3CF8C2F0E94521C81E0BCCFCF93DF9395
:103EE000EB0186319C4711F50E9492139D81992325
:103EF00099F08A7A91E009F490E09093AE038111F1
:103F000009C089E20E94CA260E94491480E0DF911C
:103F1000CF91089585E3F6CF8091AE03811104C05F
:103F200089E20E94E426F0CF85E3FBCF81E0EFCF6A
:103F3000CF93DF93EC01FB018581882309F4D2C084
:103F40009E0130572332310508F0B2C00E94ED14B3
:103F50009093D2038093D103FE01E150F047E23207
:103F6000F10520F4EC5CFE4C0C9426308091D103DA
:103F700081608093D10393C08091D2038860809345
:103F8000D2038DC08091D1038260F3CF8091D103A1
:103F90008460EFCF8091D1038860EBCF8091D20312
:103FA0008160EDCF8091D2038260E9CF8091D1030F
:103FB0008061DFCF8091D1038062DBCF8091D1031C
:103FC0008064D7CF0E94160F8091D1038068D1CF33
:103FD0008091D1038C60CDCF8091D2038360CFCF0D
:103FE0008091D1038E7FC5CF8091D203877FC7CFC9
:103FF0008091D1038D7FBDCF8091D1038B7FB9CFCD
:104000008091D103877FB5CF8091D2038E7FB7CFC8
:104010008091D2038D7FB3CF8091D1038F7EA9CFC2
:104020008091D1038F7DA5CF8091D1038F7BA1CFCC
:104030000E94160F8091D1038F779BCF8091D1037F
:10404000837F97CF8091D2038C7F99CF8091D103CA
:1040500082FB992790F921E0922790FB82F990FB4F
:1040600083F987CF8091D203982F909591708E7F9E
:10407000892B90FB81F983CF9091D103892F8F7B7E
:1040800096FF806476CF0E94160F9091D103892FFE
:1040900097FB87F980586DCF81E00E94731580915E
:1040A000D1039091D2030E94F2140E94160F80E077
:1040B000DF91CF91089580E0F0CF9091D103892FC7
:1040C0008F7E94FF806155CF9091D103892F8E7F91
:1040D00090FF81604ECF9091D203892F877F93FF0D
:1040E00088604DCF81E0E4CF282F35EB2303C0015A
:1040F000112497FF04C080589109892F0895805892
:104100009F4FFBCF8091B50380FF0DC060910901E7
:1041100070E0660F771F6038710570F561157105E5
:1041200069F1862F089581FF07C06091090184E03D
:10413000689FB0011124EFCF6091090182FD0AC090
:104140008091B4038823A9F02091080160910901AE
:10415000821710F088E0ECCF869FC001112433E075
:10416000880F991F3A95E1F7622F70E00E94123094
:10417000D2CF68E070E0D5CF8FE7089581E0089551
:104180008091B50380FF0CC06091050170E07595CA
:104190006795759567956115710549F1862F0895A5
:1041A00081FF06C06091050170E075956795F3CFBA
:1041B0006091050182FD0BC09091B3039923A1F09A
:1041C0006091040180910501961738F0682F70E026
:1041D0006038710500F38FE70895899FC0011124AD
:1041E00070E00E941230F4CF61E070E0D7CF81E040
:1041F00008958D3C31F40E94822081958093B9030B
:1042000008958E3C19F40E948220F8CF8F3C31F43F
:104210000E94822081958093B8030895803D19F40F
:104220000E948220F8CF893D29F40E94C02080930B
:10423000BA0308958A3D21F40E94C0208195F7CFEA
:104240008B3D31F40E94C02081958093BB0308957B
:104250008C3D19F40E94C020F8CF9FE2980F98304F
:1042600070F4815D990B21E030E001C0220F8A9546
:10427000EAF78091B703822B8093B70308958D3DB1
:1042800031F48091B50381608093B50308958E3D2C
:1042900021F48091B5038260F7CF8F3DB9F780910B
:1042A000B5038460F1CF4091B8038D3C59F48091FF
:1042B000B90387FF0DC01092B90341110BC01092D2
:1042C000B40308C08E3C81F48091B90318169CF3A6
:1042D000442381F08091BA039091BB03892B09F0AC
:1042E0005AC01092B30308958F3C49F447FFF0CFB2
:1042F0001092B8038091B9038111ECCFE0CF803DDB
:1043000019F41416ACF3E4CF9091BA03893D29F463
:104310001916F4F61092BA03DBCF8A3D19F497FF11
:10432000D7CFF8CF9091BB038B3D29F497FFD0CF27
:104330001092BB03CDCF8C3D19F41916CCF3C8CF26
:104340009FE2980F983090F4815D990B21E030E066
:10435000B90102C0660F771F8A95E2F7CB018095FD
:104360009091B70389238093B703B2CF8D3D31F489
:104370008091B5038E7F8093B503AACF8E3D21F443
:104380008091B5038D7FF7CF8F3D09F0A1CF80914C
:10439000B5038B7FF0CF08958091A40383FF96C06F
:1043A0008CE99DE09F938F930E941E098091B70333
:1043B0001F928F9387E99DE09F938F930E941E0920
:1043C00085E99DE09F938F930E941E098091B80319
:1043D000282F082E000C330B3F938F9382E99DE02A
:1043E0009F938F930E941E0980E99DE09F938F9376
:1043F0000E941E098091B903282F082E000C330B50
:104400003F938F938DE89DE09F938F930E941E09A9
:104410008BE89DE09F938F930E941E098091BA03C1
:10442000282F082E000C330B3F938F9388E89DE0D4
:104430009F938F930E941E0986E89DE09F938F9320
:104440000E941E098091BB03282F082E000C330BFD
:104450003F938F9383E89DE09F938F930E941E0963
:1044600080E89DE09F938F930E941E098DB79EB7B1
:1044700080960FB6F8949EBF0FBE8DBF8091B40397
:104480001F928F938DE79DE09F938F930E941E094B
:104490008BE79DE09F938F930E941E098091B50347
:1044A0001F928F9388E79DE09F938F930E941E0930
:1044B00085E79DE09F938F930E941E098DB79EB75D
:1044C0000C960FB6F8949EBF0FBE8DBF0E94372882
:1044D0009C019091B8038091B903982B21F03093FF
:1044E000B2032093B1039091BA038091BB03982B40
:1044F00021F03093B0032093AF0386EB93E00E944A
:10450000A225089586E0E6EBF3E0DF011D928A958F
:10451000E9F71092B4031092B3031092B503089513
:10452000FC01828181110EC0838181110BC08481C5
:10453000811108C091E08581811101C090E0892F2F
:104540008170089581E0FCCFA6E0B0E0EAEAF2E2F3
:104550000C943B3086E0E6EBF3E0DE01119601902F
:104560000D928A95E1F71092B8031092B903109258
:10457000BA031092BB038B819C81892B89F08091B7
:10458000B1039091B2030E944F28AC019091B40303
:104590009923C9F180910A018417150608F440C0D7
:1045A0008D819E81892B91F08091AF039091B00312
:1045B0000E944F28AC019091B303992309F46AC07B
:1045C000809106018417150608F472C0BE016F5F62
:1045D0007F4F86EB93E00E941827811105C086EB80
:1045E00093E00E94902281110E94CC2186E0FE017E
:1045F0003196A6EBB3E001900D928A95E1F72696ED
:10460000E3E00C94573020910B018AE0289F900141
:1046100011242417350720F69F5F9093B40302C03E
:104620009F3FD1F71B81112359F00E9482209FEFF9
:1046300011160CF491E0899F802D11248093B8030A
:104640001C81112359F00E9482209FEF11160CF457
:1046500091E0899F802D11248093B9038091B80344
:10466000882309F49DCF1091B903112309F498CF41
:104670000E947420882351F08093B803812F0E94F8
:104680007420882329F08093B9038ACF81E0F4CF86
:1046900081E0F9CF209107018AE0289F9001112441
:1046A0002417350708F092CF9F5F9093B30302C0A1
:1046B0009F3FD1F71D81112359F00E94C0209FEF29
:1046C00011160CF491E0899F802D11248093BA0378
:1046D0001E81112359F00E94C0209FEF11160CF487
:1046E00091E0899F802D11248093BB038091BA03B0
:1046F000882309F46BCF1091BB03112309F466CF13
:104700000E947420882351F08093BA03812F0E9465
:104710007420882329F08093BB0358CF81E0F4CF25
:1047200081E0F9CFB0E0A0E0E8E9F3E20C943530A5
:10473000E82FF0E0E154F24FB490282F269526950B
:10474000269530E0F901E15AF14F0491877010E0AD
:10475000082E02C0159507950A94E2F701701127FB
:10476000F901E15BF14FE490F12C082E02C0F594C1
:10477000E7940A94E2F791E0E922FF24F901E15C71
:10478000F14FC491D0E002C0D595C7958A95E2F764
:10479000C170DD27C62ED12C0115110549F5E11494
:1047A000F10431F086EE0E94A70BC601009771F567
:1047B000B6018B2D0E94940CC601009779F5E11487
:1047C000F104A1F50115110531F081EE0E943A0CBA
:1047D000C6010097C9F5CD2B31F08CE20E94AC0CDC
:1047E000C114D104C9F5CDB7DEB7E9E00C9451305E
:1047F00081EE0E94A70BC601009789F2EFE9FFE066
:104800003197F1F700C000000197F6CFEFE9FFE024
:104810003197F1F700C000000197C8CFEFE9FFE042
:104820003197F1F700C000000197C7CF86EE0E94D4
:104830003A0CC601009731F2EFE9FFE03197F1F74A
:1048400000C000000197F6CFEFE9FFE03197F1F7E4
:1048500000C000000197BDCF8FE99FE00197F1F7FD
:1048600000C0000091E0C91AD108BACF60E00E94F0
:1048700092230895982F9F709A50963020F0805D73
:104880000E9436240895895AFBCF0F931F93CF932C
:10489000DF93C42FD22FFC0185818823C9F0409378
:1048A000BE030E9437289093BD038093BC0380E22F
:1048B0008C0F883040F4C77081E001C0880FCA9522
:1048C000EAF70E94B50CDF91CF911F910F910895E7
:1048D0001091BE03141332C08091BC039091BD03AC
:1048E0000E944F28883C910548F5C0E2CD0F1D1766
:1048F000B9F080E2810F883040F4177081E001C088
:10490000880F1A95EAF70E94BC0CC83048F481E081
:104910009D2F977001C0880F9A95EAF70E94B50CF9
:10492000802F0E94AC0CC83070F6D77081E001C0B7
:10493000880FDA95EAF70E94BC0CC5CF80E28C0F95
:10494000883008F6C77081E001C0880FCA95EAF781
:10495000F2CF0F93DB0188519C4787309105A0F57A
:10496000FC01EA5AFE4C0C94263006E221EE41EEA0
:104970006AE17CE7CD010E94452480E00F91089513
:1049800007E225EE45EE6BE17CE7F4CF06E221EE8F
:1049900040EE68E17CE7EECF07E225EE44EE69E108
:1049A0007CE7E8CF06E221EE42EE6CE17CE7E2CF65
:1049B00007E225EE46EE6DE17CE7DCCF08E221E080
:1049C00045EE6EE17CE7D6CF15968C91882319F0E1
:1049D0001092BE03D3CF81E0D1CF9093C4038093D4
:1049E000C3030895E091C303F091C403309729F005
:1049F0000190F081E02D0995089580E008950E94CE
:104A0000F2240895EF92FF920F931F93CF93DF93B9
:104A1000EC01E091C303F091C4033097E1F102800F
:104A2000F381E02D09958091A40382FF34C080FFBB
:104A30000DC088811F928F9384E99EE09F938F938E
:104A40000E941E090F900F900F900F907E0186E03C
:104A5000E80EF11C0EE81EE08091A40380FF0BC05D
:104A60008A811F928F931F930F930E941E090F90AC
:104A70000F900F900F902196CE15DF0569F780916A
:104A8000A40380FF08C08CE89EE09F938F930E9450
:104A90001E090F900F90CDB7DEB7E6E00C945430AE
:104AA000EF92FF920F931F93CF93DF93EC01E0916E
:104AB000C303F091C403309709F43FC086E08883B4
:104AC0000480F581E02DCE0109958091A40382FF39
:104AD00034C080FF0DC089811F928F9387E79EE0CD
:104AE0009F938F930E941E090F900F900F900F902D
:104AF0007E018EE1E80EF11C01E71EE08091A40327
:104B000080FF0BC08A811F928F931F930F930E9487
:104B10001E090F900F900F900F902196CE15DF0574
:104B200069F78091A40380FF08C08FE69EE09F9301
:104B30008F930E941E090F900F90CDB7DEB7E6E06D
:104B40000C945430E091C303F091C403309739F0D2
:104B500022E0DC012C930680F781E02D0995089571
:104B6000A3E0B0E0E6EBF5E20C943C302091C10309
:104B70003091C20328173907A1F09093C2038093A4
:104B8000C103E091C303F091C403309751F023E0D7
:104B900029839B838A830084F185E02DCE010196D1
:104BA00009952396E2E00C945830A3E0B0E0EBEDD9
:104BB000F5E20C943C302091BF033091C0032817DC
:104BC0003907A1F09093C0038093BF03E091C30322
:104BD000F091C403309751F024E029839B838A83AA
:104BE0000084F185E02DCE01019609952396E2E03F
:104BF0000C945830CF93DF93C0910201D091030100
:104C000022960E948E27813081F48091D10387FF04
:104C10000CC0C0910001D091010122969EE180E07C
:104C2000915028F4DF91CF91089596E0F8CF299123
:104C30002223B1F38F5FF4CFCF93C82F811102C02D
:104C400080E024C00E948E27813011F58091D1032D
:104C500087FF1EC0EC2FE695E695E695EE3180F7CE
:104C60008091000190910101E80FF92FF11D22813F
:104C700030E0C77081E090E002C0880F991FCA95AC
:104C8000E2F72823392381E0232BD1F2CF91089535
:104C90008091020190910301FC01329608962191C6
:104CA0002C1721F0E817F907D1F7CACF81E0EECF32
:104CB0009C01FC0132969FEF80E04191461751F034
:104CC0009F3F19F4411101C0982F8F5F8630A9F7DB
:104CD0009F3F09F40895290F311D97FD3A95F90179
:104CE00062830895FC01329608962191261303C031
:104CF000DF0111971C92E817F907B9F70895E62F1D
:104D0000E695E695E695EE3170F4E80FF92FF11D82
:104D1000677021E030E001C0220F6A95EAF78281D6
:104D2000822B828308958091A40380FF0CC01F9280
:104D30006F938BEC9EE09F938F930E941E090F90C0
:104D40000F900F900F900895E62FE695E695E69563
:104D5000EE3178F4E80FF92FF11D677021E030E0B3
:104D600001C0220F6A95EAF72095828128232283C9
:104D700008958091A40380FF0CC01F926F938DEA69
:104D80009EE09F938F930E941E090F900F900F90AB
:104D90000F900895CF93C82F0E948E276C2F8130DB
:104DA00061F48091D10387FF08C080910001909148
:104DB00001010E947F26CF91089580910201909178
:104DC00003010E945826F7CFCF93C82F0E948E2749
:104DD0006C2F813061F48091D10387FF08C08091EE
:104DE0000001909101010E94A426CF910895809125
:104DF0000201909103010E947226F7CF0E948E2734
:104E0000813079F48091D10387FF0BC0E0910001DC
:104E1000F091010132968EE1DF011D928A95E9F74A
:104E20000895E0910201F0910301329686E0F4CFFB
:104E3000DC01FB0111969C9111978181981322C08E
:104E400012968C911297882319F0928189131AC0B7
:104E500013968C911397882319F09381891312C0AC
:104E600015968C911597882319F0958189130AC09E
:104E700014969C91992321F081E02481291303C089
:104E800080E001C081E08170089508950E94452767
:104E9000089581110EC081E080930F0160910C0193
:104EA00070910D0180910E0190910F010E94462793
:104EB000089582E0F1CF83E080930F0160910C01AF
:104EC00070910D0180910E0190910F010E94462773
:104ED00008950E944927089581E080930F01609111
:104EE0000C0170910D0180910E0190910F010E94B3
:104EF000462708950E946C27089591E0811101C012
:104F000090E090930E0160910C0170910D018091E1
:104F10000E0190910F010E944627089580910E0185
:104F2000089580930D0160910C0170910D018091A5
:104F30000E0190910F010E944627089580910D0166
:104F4000089580930C0160910C0170910D01809186
:104F50000E0190910F010E944627089580910C0147
:104F60000895089508950E94B22708950895089518
:104F70000E94B1270895CF930E94B6270E94C419BA
:104F80000E94B727C0E08C2F0E94AC18892B31F407
:104F9000CF5FC430C1F780E0CF91089581E0FCCFAE
:104FA00085B7806885BF85B7806885BF08951F92E3
:104FB0001FB61F9211248F939F93AF93BF9380913D
:104FC000C503811113C08091E6039091E703A0917E
:104FD000E803B091E9034196A11DB11D8093E6035A
:104FE0009093E703A093E803B093E903BF91AF91D7
:104FF0009F918F911F901FBE1F9018958091EE0377
:10500000843031F10E94EC0A1092C50388E190E0EF
:1050100020E40FB6F894A895809360000FBE20930B
:10502000600083B7817F846083BF83B7816083BF63
:105030007894889583B78E7F83BF0FB6F894A89530
:1050400080916000886180936000109260000FBEC4
:1050500008950E94160F0E94F10A089582E084BD0F
:1050600093E095BD9AEF97BD80936E0008952FB79A
:10507000F8948091E6039091E703A091E803B09142
:10508000E9032FBF08952FB7F8946091E60370915C
:10509000E7038091E8039091E9032FBF08959C01F5
:1050A0004FB7F8948091E6039091E703A091E8034D
:1050B000B091E9034FBF821B930B089578941F9220
:1050C0001FB61F9211248F939F93AF93BF9380912C
:1050D000E6039091E703A091E803B091E9030196FC
:1050E000A11DB11D8093E6039093E703A093E8030D
:1050F000B093E903BF91AF919F918F911F901FBE15
:105100001F90189587E797E7909301088093000810
:1051100088E19AE00FB6F894A895809360000FBEDE
:1051200090936000FFCF88E19AE00FB6F894A895BD
:10513000809360000FBE90936000FFCF9B01BA0187
:105140009091EE039430E9F48F708093E9009FEF23
:105150008091E800915085FD06C085ED8A95F1F7B4
:1051600000009111F5CF8091E80085FF0AC050E062
:1051700040E0C9010E94802B8091E8008E778093E7
:10518000E800089543E050E0BC0182E00E949E28C0
:10519000089546E050E0BC0182E00E949E280895F8
:1051A00040E250E0BC0182E00E949E280895CF9327
:1051B000DF93EC010E948E2748E050E0BE0181E0C1
:1051C0000E949E2888E0FE01A9ECB3E001900D92B8
:1051D0008A95E1F7DF91CF91089508958FE09FE0E0
:1051E0009F938F930E941E098091ED030F900F9063
:1051F000811109C00E94102D0E946D2D8091E20046
:1052000084608093E20008958BE09FE09F938F93EA
:105210000E941E091092ED030F900F90089587E0F1
:105220009FE09F938F930E941E090E946C2781E04C
:105230000E947D270F900F90089583E09FE09F9339
:105240008F930E941E096091EA0381E0611101C001
:1052500080E00E945B270F900F9008958FEF9EE0F3
:105260009F938F930E941E099091EE0381E09430EA
:1052700009F080E06091EA030E9469270F900F9087
:1052800008952091C7032F5F822F62E30E940630AA
:10529000992319F02093C70308951092C7038091B2
:1052A000C8038823F1F08091EE038430C1F490911B
:1052B000E9009F702091EC00822F817020FD80E832
:1052C000892B93E09093E9009091EB0090FF04C04C
:1052D0009091EE0097FD08C08F708093E9001092C6
:1052E000C80308951092F1009091E80095FDFACF5F
:1052F0009091E80090FFF0CF9091E8009E77909316
:10530000E800EACF42E061EC81E00E948C2C42E2AE
:1053100061EC82E00E948C2C42E261EC83E00E940E
:105320008C2C9091EE0381E0943009F080E0609144
:10533000EA030E94492708958091F003833009F41D
:1053400061C030F48130D1F1823009F49EC00895FB
:105350008A3009F48AC08B3009F46FC0893009F0B3
:1053600050C08091EF03813209F04BC08091F3036C
:105370009091F403029708F044C08091E800877F81
:105380008093E8008091E80082FF37C09091F3009D
:105390008091F200029731F48091F100813011F098
:1053A000863021F48091F1000E9491278091E800DD
:1053B0008B778093E8000E94C02C23C08091EF037C
:1053C000813AF9F48091E800877F8093E80080912A
:1053D000F3039091F403892B61F468E089EC93E086
:1053E00070E00E94CF2B8091E8008B778093E800DB
:1053F000089560E090E080E0F3CF8091EE038111AA
:10540000C1CF08958091EF03813AD9F78091F303DA
:105410009091F403892BA9F78091E800877F80930E
:10542000E8008091E80080FFFCCF0E948E278093E7
:10543000F1008091E8008E77BCCF8091EF0381323C
:1054400001F78091F3039091F403892BD1F68091B9
:10545000E800877F8093E8000E94C02C8091F103D0
:105460000E947D270E94160F08958091EF038132DC
:1054700041F68091E800877F8093E8000E94C02C6D
:105480008091F2030E94A12708958091EF03813A51
:1054900009F0B7CF8091E800877F8093E800809182
:1054A000E80080FFFCCF0E94AE27C1CF9FB7F894E1
:1054B0001092C8039FBF9091EE03943009F048C04A
:1054C0002091E9002F703091EC00932F917030FD06
:1054D00090E8922B23E02093E9002091EB0020FF3D
:1054E00034C02091EE0027FF30C02091C603222354
:1054F00021F02091E80025FF28C01092C60326E085
:105500003091E80035FF14C08093F1008091E800ED
:1055100085FD27C08091E80080FFFCCF8091E800E6
:105520008E778093E8009F709093E90080E0089563
:105530003091EE03343049F43091EB0035FD05C075
:10554000215041F481E08093C6039F709093E9005D
:105550008FEF0895EFE9FFE03197F1F700C0000009
:10556000CFCF8FB7F89421E02093C8038FBFDBCF54
:1055700084B7877F84BF0FB6F894A89580916000A8
:10558000886180936000109260000FBE80E890E018
:105590000FB6F89480936100909361000FBE0E9453
:1055A0007A2708950E94102D0E946D2DE2EEF0E002
:1055B00080818460808378940E94EB2F089580E13D
:1055C00091E00E94ED2408958091EE03853091F4DE
:1055D0008091A40380FF08C089EE9EE09F938F9383
:1055E0000E941E090F900F908091EE03853019F0F4
:1055F0000E94292808950E94FE270E94BB27882325
:1056000099F38091EC03882379F30E946A2B0E941E
:10561000160FEACF08959A014091F5035091F603D1
:105620000E94132B0895492F55274330510521F12E
:1056300068F44130510509F443C04230510509F482
:1056400044C090E080E050E040E026C04132510587
:1056500051F142325105A9F76330710590F7FB0112
:10566000EE0FFF1FE553FD4F4081518168537D4F81
:10567000FB01808190E010C099278130910581F075
:10568000009729F00297E9F6E3E1FFE002C0EBE3BF
:10569000FFE0849190E0AF01F901518340830895C8
:1056A000E3E2FFE0F6CF6330710558F6660F771F2F
:1056B000FB01EF52FD4F4081518189E090E0ECCF3A
:1056C00082E190E043E95FE0E7CF84E590E04FE3DB
:1056D0005FE0E2CF80E189BD82E189BD09B400FECF
:1056E000FDCF8091D8008F7D8093D8008091E0001D
:1056F00082608093E0008091E00081FDFCCF0895FE
:10570000AF92BF92CF92DF92FF920F931F93CF93EE
:10571000DF936C01EB018A010E94DF2CF82E8111CE
:1057200023C00115110539F0F80180819181C81B52
:10573000D90BC80ED91EB12CA12C2097A9F08091AD
:10574000E80085FD22C08091E8008E778093E80014
:1057500001151105A1F0F80180819181A80EB91EF3
:10576000B182A08285E0F82E8F2DDF91CF911F911D
:105770000F91FF90DF90CF90BF90AF9008950E945F
:10578000DF2C8823D1F2F82EEFCFF60181916F0143
:105790008093F1002197FFEFAF1ABF0ACECFFC0133
:1057A0008091F5039091F60386179707A0F0611595
:1057B000710529F49091E8009E779093E80090E0BD
:1057C0006115710551F4911108C08091E80082FFC4
:1057D00034C080E00895BC01F2CF8091EE038823AD
:1057E000C1F18530C1F18091E80083FD30C0809126
:1057F000E80082FDEACF8091E80080FFE1CF809150
:10580000F3002091F200382F6115710519F028304E
:10581000310558F091E02830310509F090E02091F1
:10582000E8002E772093E800CBCF81918093F100A0
:10583000615071092F5F3F4FE7CF8091EE038823BE
:1058400041F0853041F08091E80083FFBECF81E0D8
:10585000089582E0089583E00895FC018091F503A6
:105860009091F60386179707A0F06115710529F44A
:105870008091E8008E778093E80090E061157105D3
:1058800051F4911108C08091E80082FF35C080E09A
:105890000895BC01F2CF8091EE038823C9F18530D1
:1058A000C9F18091E80083FD31C08091E80082FD5C
:1058B000EACF8091E80080FFE1CF8091F300209152
:1058C000F200382F6115710519F02830310558F0B4
:1058D00091E02830310509F090E08091E8008E7762
:1058E0008093E800CBCF84918093F1003196615092
:1058F00071092F5F3F4FE6CF8091EE03882341F07F
:10590000853041F08091E80083FFBDCF81E00895AC
:1059100082E0089583E00895982F973028F08F70E3
:105920008093E90081E008959093E900242F762F79
:1059300050E0981731F07091EC002091ED005091FB
:10594000F00021FD02C09F5FE8CF3091EB003E7F69
:105950003093EB003091ED003D7F3093ED003091BE
:10596000EB0031603093EB007093EC002093ED007E
:105970005093F0002091EE0027FDE5CF80E00895E0
:105980008091EF0387FF13C08091E80082FF06C07B
:105990008091E8008B778093E80004C08091EE034B
:1059A0008111F2CF08958091EE038823D9F380917D
:1059B000E80080FFF8CF8091E8008E77ECCF20914F
:1059C000E4003091E50095E6A9012091EC00822FDA
:1059D000817020FF06C08091E80080FF06C080E053
:1059E00008952091E80022FD1AC08091EE038823DB
:1059F00089F0853089F08091EB0085FD0FC0209102
:105A0000E4003091E50042175307F9F29150E1F6B6
:105A100084E0089582E0089583E0089581E0089588
:105A20000E947F2D0E94872DE0EEF0E08081816052
:105A30008083E8EDF0E080818F77808319BCA7ED4B
:105A4000B0E08C918E7F8C9380818F7E80831092CA
:105A5000ED0308950F931F93CF93DF930E947F2D43
:105A60000E94872DC8EDD0E088818F778883888158
:105A70008068888388818F7D888319BC1092EE03AB
:105A80001092EA031092EC031092EB0300EE10E088
:105A9000F80180818B7F808388818160888342E0E8
:105AA00060E080E00E948C2CE1EEF0E080818E7F4F
:105AB0008083E2EEF0E08081816080838081886075
:105AC0008083F80180818E7F8083888180618883D4
:105AD000DF91CF911F910F910895E8EDF0E0808163
