:100000000C94D8050C94F5050C94F5050C94F505A5
:100010000C94F5050C94F5050C94F5050C94F50578
:100020000C94F5050C94F5050C9415290C94E9290C
:100030000C9476230C94F5050C94F5050C94F505B9
:100040000C94F5050C94F5050C94F5050C94F50548
:100050000C94F5050C94FD230C94F5050C94F50512
:100060000C94F5050C94F5050C94F5050C94F50528
:100070000C94F5050C94F5050C94F5050C94F50518
:100080000C94F5050C94F5050C94F5050C94F50508
:100090000C94F5050C94F5050C94F5050C94F505F8
:1000A0000C94F5050C94F5050C94F50514001A0054
:1000B000080015001700000000001C0018000C00CC
:1000C0001200130004001600070009000A000000D7
:1000D00000000B000D000E000F0033001D001B0080
:1000E0000600190005002B422A00110010003600FE
:1000F00037003800167C0000C252E300E000E10047
:10010000C1522C002D002E00340028001E021F02B8
:100110002002210222020000000023022402250204
:100120002D002E0000000000000000000000000074
:1001300000005000510052004F003100000000004C
:1001400000000000000000004C002F0026022702E3
:1001500030000000007C000000000000E000E10032
:100160000100000000000000000000003A00000054
:10017000000000000000000000002E022400250006
:1001800026002E000000000000000000000000001B
:1001900000002D00210022002300250200000000A5
:1001A00000000000A90001002A002D021E001F000F
:1001B000200038000052000001000000AA00AE003C
:1001C00001002C0036002700370028004445425526
:1001D000473A2064697361626C65642E0A00444585
:1001E0004255473A20656E61626C65642E0A000ACA
:1001F0000025303258006C65645F7461736B3A207F
:10020000004F6E6573686F743A2061637469766538
:100210003A2025640A000A002530313662003A206F
:100220000025303258000A722F63203031323334C7
:1002300035363738394142434445460A00290A00D9
:100240002575002F002575005D280025640020001D
:10025000256400200025640020002564007C002522
:10026000303258006D6F7573656B6579205B627411
:100270006E7C782079207620685D287265702F6109
:10028000636C293A205B00556E69636F6465206971
:100290006E707574206D6F64652073657420746F63
:1002A0003A2025750A00556E69636F646520696E92
:1002B000707574206D6F646520696E697420746F49
:1002C0003A2025750A0000000000000000002A2BDB
:1002D00028000000000000000000000000000000F6
:1002E0000029000000002C1E34202122243426275F
:1002F000252E362D3738271E1F2021222324252680
:100300003333362E37381F0405060708090A0B0C4D
:100310000D0E0F101112131415161718191A1B1C95
:100320001D2F3130232D350405060708090A0B0C53
:100330000D0E0F101112131415161718191A1B1C75
:100340001D2F3130354C000000000000000000007F
:10035000000000000000000000000000000000009D
:10036000000000000000000000007E0F00D4FFFF2E
:10037000FFC700000078313A0964656C6179282A6A
:1003800031306D73293A2025750A323A09696E7445
:10039000657276616C286D73293A2025750A333AA7
:1003A000096D61785F73706565643A2025750A345C
:1003B0003A0974696D655F746F5F6D61783A2025E5
:1003C000750A353A09776865656C5F6D61785F73AA
:1003D000706565643A2025750A363A09776865655F
:1003E0006C5F74696D655F746F5F6D61783A20252D
:1003F000750A00703A097072696E742076616C75C6
:1004000065730A643A097365742064656661756C86
:1004100074730A75703A092B310A646E3A092D31EA
:100420000A6C743A092B31300A72743A092D313052
:100430000A4553432F713A09717569740A0A73703A
:10044000656564203D2064656C7461202A206D61BF
:10045000785F7370656564202A2028726570656115
:1004600074202F2074696D655F746F5F6D617829EA
:100470000A77686572652064656C74613A206375FB
:1004800072736F723D25642C20776865656C3D251D
:10049000640A53656520687474703A2F2F656E2E58
:1004A00077696B6970656469612E6F72672F776910
:1004B0006B692F4D6F7573655F6B6579730A004DBE
:1004C0003E20004D25753A25733E20003F0A003D31
:1004D0002025750A003F0A0064656661756C7473B7
:1004E0000A0025750A003F0A000A092D2056616C92
:1004F000756573202D0A00710A000A092D204D6FC1
:100500007573656B6579202D0A003F00433E20001E
:100510004C25640A000A092D2053746174757320F8
:100520002D0A686F73745F6B6579626F6172645FC7
:100530006C65647328293A20253032580A6B657936
:10054000626F6172645F70726F746F636F6C3A2078
:10055000253032580A6B6579626F6172645F696435
:100560006C653A20253032580A6B65796D61705F91
:10057000636F6E6669672E6E6B726F3A202530323C
:10058000580A74696D65725F726561643332282937
:100590003A202530386C580A002573000A092D20AE
:1005A000436F6E736F6C65202D0A4553432F713A6C
:1005B00009717569740A6D3A096D6F7573656B65BC
:1005C000790A000A092D204D61676963202D0A44CC
:1005D0003A094465627567204D65737361676520EC
:1005E000546F67676C650A583A094D61747269788F
:1005F000204465627567204D6F646520546F67679E
:100600006C65202D2053686F77206B65797072655B
:100610007373657320696E206D61747269782067E9
:100620007269640A4B3A094B6579626F61726420A2
:10063000446562756720546F67676C65202D205391
:10064000686F77206B65797072657373207265705F
:100650006F72740A4D3A094465627567204D6F7573
:10066000736520546F67676C650A563A0956657260
:1006700073696F6E0A533A095374617475730A4350
:100680003A09416374697661746520436F6E736FD4
:100690006C65204D6F64650A46312D4631303A094C
:1006A00053776974636820746F204C617965722098
:1006B000302D392028463130203D204C30290A3059
:1006C0002D393A0953776974636820746F204C613F
:1006D00079657220302D390A47524156453A0953FF
:1006E000776974636820746F204C6179657220307B
:1006F0002028616C7465726E617465290A423A093A
:100700004A756D7020746F20426F6F746C6F6164F6
:1007100065720A4553433A094A756D7020746F201B
:10072000426F6F746C6F616465722028616C7465D0
:10073000726E617465290A453A095072696E7420B7
:10074000454550524F4D2053657474696E67730A66
:100750004241434B53504143453A09436C656172F2
:1007600020454550524F4D0A4E3A094E4B524F20AC
:10077000546F67676C650A006B65796D61705F63C4
:100780006F6E6669672E7261773A20253032580A9B
:100790002E737761705F636F6E74726F6C5F6361ED
:1007A00070736C6F636B3A2025750A2E63617073EA
:1007B0006C6F636B5F746F5F636F6E74726F6C3AB4
:1007C0002025750A2E737761705F6C63746C5F6CA3
:1007D0006775693A2025750A2E737761705F7263B9
:1007E000746C5F726775693A2025750A2E7377619C
:1007F000705F6C616C745F6C6775693A2025750A6F
:100800002E737761705F72616C745F726775693A9D
:100810002025750A2E6E6F5F6775693A2025750A67
:100820002E737761705F67726176655F6573633A97
:100830002025750A2E737761705F6261636B736C3C
:100840006173685F6261636B73706163653A2025F1
:10085000750A2E6E6B726F3A2025750A2E737761BA
:10086000705F6573636170655F636170736C6F6304
:100870006B3A2025750A0064656275675F636F6E69
:100880006669672E7261773A20253032580A2E65E4
:100890006E61626C653A2025750A2E6D617472690D
:1008A000783A2025750A2E6B6579626F6172643A19
:1008B0002025750A2E6D6F7573653A2025750A001F
:1008C0006565636F6E6669673A0A64656661756C33
:1008D000745F6C617965723A2025750A003F004E9D
:1008E0004B524F3A206F66660A004E4B524F3A20E9
:1008F0006F6E0A000A6D6F7573653A206F66660A3F
:10090000000A6D6F7573653A206F6E0A000A6B6599
:1009100079626F6172643A206F66660A000A6B65DD
:1009200079626F6172643A206F6E0A000A6D6174B9
:100930007269783A206F66660A000A6D617472699E
:10094000783A206F6E0A000A64656275673A206F14
:1009500066660A000A64656275673A206F6E0A006F
:100960000A0A4A756D70696E6720746F20626F6F36
:10097000746C6F616465722E2E2E2000433E200041
:10098000436C656172696E6720454550524F4D0A50
:10099000000A002530325820006B6579626F617261
:1009A000645F7265706F72743A200064656C5F6B8F
:1009B00065795F6269743A2063616E2774206465AB
:1009C0006C3A20253032580A006164645F6B6579A7
:1009D0005F6269743A2063616E2774206164643ACF
:1009E00020253032580A005B735D005B575D005B69
:1009F000535D005B525D005B445D005B435D000E38
:100A00000341007400720065007500730000001659
:100A1000034B006500790062006F006100720064A2
:100A20000069006F0000000403090409025B000371
:100A30000100A0FA090400000103010100092111CD
:100A4000010001224000070581030800010904019B
:100A500000010300000009211101000122B6000776
:100A600005820320000109040200020300000009BE
:100A70002111010001222200070583032000010744
:100A80000503032000011201000200000008091202
:100A900003230100010200010631FF0974A10109CD
:100AA00075150026FF00952075088102097615004E
:100AB00026FF00952075089102C005010902A101D9
:100AC00085020901A1000509190129081500250160
:100AD0009508750181020501093009311581257FCD
:100AE00095027508810609381581257F95017508DD
:100AF0008106050C0A38021581257F95017508814C
:100B000006C0C005010980A101850319012AB700AB
:100B1000150126B700950175108100C0050C09016B
:100B2000A101850419012AA002150126A002950140
:100B300075108100C005010906A101850605071988
:100B4000E029E715002501950875018102050719BF
:100B50000029EF1500250195F0750181020508199E
:100B6000012905950575019102950175039101C053
:100B700005010906A101050719E029E7150025016E
:100B80009508750181029501750881010507190015
:100B900029FF150026FF0095067508810005081934
:100BA000012905950575019102950175039101C013
:100BB00011241FBECFEFDAE0DEBFCDBF12E0A0E010
:100BC000B1E0E0EEF9E502C005900D92A63CB10758
:100BD000D9F723E0A6ECB2E001C01D92A03FB20716
:100BE000E1F70E949B170C94682C0C940000FF9373
:100BF000EF93E091C602F091C702309709F0099592
:100C0000EF91FF910895FC018591803011F0EFDFA5
:100C1000FBCF0895FF27E0E230E247FF0CC041958B
:100C200097FF09C0EDE26095709580959095611DE4
:100C3000711D811D911D27FF02C0219530E350E2F7
:100C4000AA27660F771F881F991FAA1FA41710F0E5
:100C5000A41B63955A95A9F7AA3008F0A95FA05D77
:100C6000AF93F395611571058105910541F7ED325B
:100C700011F4EF93F395F21718F43F93F395FBCF2C
:100C80008F91B5DFFA95E1F70895E991F991859192
:100C9000803021F0853219F0AADFF9CF089520E0E5
:100CA000E89455915532C1F3503311F4689455913D
:100CB0005A3348F4505390F3220F022E220F220F82
:100CC000200D250FF4CF0EF421958991999153367B
:100CD00019F3533729F1533559F1BC018827992766
:100CE000E8945C3621F48991999168945591543631
:100CF00039F446EF7EF077FF0DC08FEF9FEF0AC00B
:100D000055374AE039F0583540E121F0523642E09B
:100D100009F00895FF93EF937DDFEF91FF91B7CF37
:100D2000FF93EF93FC0181918030B9F360DFFBCF3B
:100D3000FF93EF9368DFF1CFDF93CF93CDB7DEB7AB
:100D40002596A3DFCF91DF9108958330B8F4643006
:100D5000A8F44C3098F450E09CE0699F400D511D80
:100D60001124FA0190E3899FE00DF11D1124EE0F8B
:100D7000FF1FE455FF4F85919491089581E090E025
:100D800008950E94A50608959C013A9521153F41BA
:100D900050F5FC01EE27F170BC0166277270AC01C2
:100DA000442754709C012227387094FF0EC080E1C4
:100DB000EF2B09F480E0672B09F08062452B09F0E6
:100DC0008064232B89F08068089581E0EF2B09F47B
:100DD00080E0672B09F08260452B09F08460232BAB
:100DE00019F08860089580E00895CF93DF93EB01B8
:100DF0000E94C406FE010995DF91CF910895CF931B
:100E0000DF93EC01805E9109089720F06CE57CE0AF
:100E1000209711F46EE17AE0CE010E94F5068C2F46
:100E20000E940C09DF91CF910895CF93DF93EC01DD
:100E30000E94A309CE01805E9109089720F063E625
:100E40007CE0209711F465E27AE0CE010E94F5067D
:100E5000DF91CF9108950F931F93CF93DF938C0170
:100E6000EB010E94FF06209741F4C8010E9415077C
:100E7000DF91CF911F910F9108958FE99FE0019726
:100E8000F1F700C000002197EECF70E060E08933F9
:100E9000910511F460E570E00E942B07089581E050
:100EA00008950E944F07089581E008950E944F071A
:100EB00008950E945607089508950E945C070895BA
:100EC000A6E0B0E0E6E6F7E00C94C42B49835A8331
:100ED0009E833091CD0289819A8131111AC03E8161
:100EE000332399F0222389F00E94CF0D182F682F09
:100EF00089819A810E94AB0D69817A81812F0E943C
:100F0000CE142696E3E00C94E02B0E94BD0D182F22
:100F1000F3CF0E94CF0D69817A81F1CFFC01262F9A
:100F20004081518162817381848195810E94600733
:100F30000895CF93DF93EC0161E00E948E07BE011C
:100F40000E945107DF91CF910895CF93DF93EC0179
:100F500060E00E948E07BE010E945D07DF91CF9185
:100F6000089508950E94800C0E94B1072FEF84E33A
:100F70009CE0215080409040E1F700C000000895BF
:100F80000E94B2070E94212408950E94B2070E9485
:100F9000322408950F931F93CF93DF938C0161E068
:100FA0000E948E07EC01B8010E945907811106C00A
:100FB00080E0DF91CF911F910F910895B801CE018C
:100FC0000E94BC1A8823A1F3B801CE010E943921E6
:100FD000882371F3B801CE010E94611C882341F37C
:100FE000B801CE010E94AB20882311F3F80185815E
:100FF000882369F0C330FCE7DF0781F160F4C1307A
:10100000ECE7DE0769F1C0F4C115DC4791F0C801D7
:101010000E945407CECFCB35ECE7DE0739F1CC3553
:10102000FCE7DF0701F1CA35DC4789F70E941B1294
:10103000EECF0E94C007BCCF90918203892F8E7F94
:1010400090FF81608093820380FF05C08EED91E068
:101050000E940306ADCF8CEC91E0FACF0E942312E0
:101060000E94C507A5CF0E941112D1CF0E941F1266
:10107000CECF0E9452230E94850808950E948908BD
:101080000E9457230895829590E09C01220F331F00
:10109000220F331F2C7C95958795959587958373A3
:1010A000282B30E0C901880F991F8A7A359527953A
:1010B0002575822B0895CF93DF93D92F0E94430883
:1010C000C82F8D2F0E9443089C2FDF91CF91089548
:1010D000089581E008950895CF93DF93D82F0E945B
:1010E0006908C82F882319F08D2F0E946B088C2F58
:1010F000DF91CF9108950895CF93C82F0E9468087B
:101100008C2F0E946C08CF91089580E00E947C088B
:1011100008950E9487210E947C080895CF930E9421
:101120008721C82F8091C8028C1789F1C093C8020B
:101130000E94E2236093C9027093CA028093CB029B
:101140009093CC028091820382FF1EC080FF1CC05E
:1011500086EF91E00E9403068091820380FF14C015
:101160001F92CF9381EF91E09F938F930E949C06F3
:10117000809182030F900F900F900F9080FF04C01A
:101180008FEE91E00E9403068C2F0E947C08CF9185
:101190000895ADE0B0E0EFECF8E00C94C52B488783
:1011A00059876A877B878C879D8791110E943611AA
:1011B0001F8286E0FE013896DE01119601900D92A5
:1011C0008A95E1F78D8181110DC029813A814B818A
:1011D0005C816D817E818F810E9466102D96E2E098
:1011E0000C94E12BCE0101960E9499078111EDCF5D
:1011F000F5CFFC012481213021F4808191810E946E
:10120000010E0895662329F00E941F180E94F2180B
:1012100008950E947918FACFCF93C82F8823C9F078
:101220008238C9F40E94872181FD13C089E30E949E
:10123000EB100E946F112FEF87EE93E0215080405A
:101240009040E1F700C0000089E30E94F3100E9483
:101250006F11CF9108958338A1F40E94872180FDFA
:10126000F8CF83E50E94EB100E946F112FEF81EE03
:1012700094E0215080409040E1F700C0000083E5F9
:10128000E4CF8438A1F40E94872182FDE2CF87E475
:101290000E94EB100E946F112FEF81EE94E021501D
:1012A00080409040E1F700C0000087E4CECF8CEF93
:1012B0008C0F813AB8F48C2F0E9457208111C9CF2E
:1012C0006C2F80910001909101010E945622882389
:1012D00029F08C2F0E94F3100E946F118C2F0E9416
:1012E000EB10B5CF80E28C0F883048F4C77081E0F6
:1012F00001C0880FCA95EAF70E941611A8CFEBE546
:10130000EC0FE33040F4F0E0E75BFE4F808190E0CB
:101310000E94F8219ECFE8E5EC0FEB3150F4F0E0AD
:10132000EE0FFF1FED5EFE4F808191810E941D2216
:1013300090CF83E38C0F833108F08BCF61E08C2F4B
:101340000E94020986CF882309F456C0823879F4B6
:101350000E94872181FF50C089E30E94EB100E9408
:101360006F1189E30E94F3100E946F110895833872
:1013700059F40E94872180FF3FC083E50E94EB1053
:101380000E946F1183E5EECF843859F40E948721C3
:1013900082FF32C087E40E94EB100E946F1187E445
:1013A000E1CF9CEF980F913AE8F290E2980F9830D5
:1013B00050F4877091E001C0990F8A95EAF7892F60
:1013C0000E941C11D1CF9BE5980F933028F490E038
:1013D00080E00E94F821089598E5980F9B3128F449
:1013E00090E080E00E941D22089593E3980F9331CE
:1013F00018F460E00E94020908951F93CF93DF93D1
:10140000182FEB010E940C09209739F4812F0E94BC
:10141000A309DF91CF911F9108958FE99FE0019774
:10142000F1F700C000002197EFCF70E060E0893352
:1014300011F460E570E00E94FD090895882321F011
:101440000E9416110E946F110895882321F00E94B6
:101450001C110E946F110895B0E0A0E0E2E3FAE0F1
:101460000C94BE2B6C01D62FC72FFC011581068171
:1014700002950F700E940C11E82E8823E9F0E12EEE
:101480001123D1F08C2F807F803451F080E28D0FBA
:101490008830F8F0011104C08C2F807E8032C9F0B2
:1014A0008091CB0382FF15C082E00E94D2110E947E
:1014B0000C1191E0E82EE926BC2EB2949FE0B922EF
:1014C000FBE0FB15B8F1EB2DF0E0E659F34D0C9481
:1014D000AF2BE12CF1CF0C2F0F70C07F11F00295D4
:1014E000007F112399F0002359F080E28D0F88309E
:1014F00010F0D11107C0802F0E9416110E946F11A9
:101500008D2F5AC0802F0E942911F8CF8D2F0E9455
:10151000A309002379F080E28D0F883010F0D111FB
:1015200004C0802F0E941C1103C0802F0E942F1125
:101530000E946F11EB2DE850FF0B349720F40E94AE
:1015400087210E947C08EE2089F00E94081180FD0E
:101550000DC0F60115820E9402110E94090DC601FC
:101560000E94390C0E9402110E94190DCDB7DEB7FE
:10157000E9E00C94DA2B2C2F2F70F22EC07FC032B2
:1015800019F0F29480EFF822DD2341F0D130D1F14F
:10159000112309F444C00023F1F0B2CF8091CB03B2
:1015A00082FD15C0112359F0FF2029F08F2D0E94D4
:1015B00016110E946F1180E00E940C09BBCF80E0E1
:1015C0000E94A309FF2009F4B5CF8F2DABCF1123C3
:1015D00069F0011104C08F2D0E941E0AABCF0130AB
:1015E00009F0A8CF8F2D0E944D11A4CF0111A2CFD9
:1015F0008F2D0E94250A8F2D0E9459118F2D0E9438
:101600003D1198CF112321F0063008F093CFE3CF9E
:10161000053008F08FCF8F2D0E94250A8BCF002335
:10162000D1F3D93349F43FEF87EE93E03150804056
:101630009040E1F700C000008D2F0E94A3097ACFEF
:101640008C2F86958695837069F0813009F072CF72
:101650008D2F9C2F9370111102C080E090E00E94AA
:101660001D2268CF8D2F9C2F9370111102C080E036
:1016700090E00E94F8215ECF612F8D2F0E94020919
:1016800059CF8C2F8370A1F5111154CF4D2F429556
:1016900046954770440F440F2D2F2F7030E0042ED5
:1016A00002C0220F331F0A94E2F790E080E0D4FFDB
:1016B00009C08FE090E002C0880F991F4A95E2F7B9
:1016C00080959095C695C695C370822B932BC2309A
:1016D00049F058F4C13019F00E94D90C2BCF0E9468
:1016E000D00C28CF0E94E20C25CF0E94CD0C22CF37
:1016F0008695112311F08C2F8170882309F41ACF5D
:101700004D2F429546954770440F440F2D2F2F7053
:1017100030E0042E02C0220F331F0A94E2F790E05B
:1017200080E0D4FF09C08FE090E002C0880F991FCD
:101730004A95E2F780959095C695C695C370822B21
:10174000932BC23049F058F4C13019F00E94440D77
:10175000F1CE0E943B0DEECE0E944D0DEBCE0E94CD
:10176000F10CE8CECF70112329F08C2F0E94090DC7
:101770008D2F32CF8D2F0E94250A8C2F0E94190D9C
:10178000D9CED23F41F160F4D03FB9F0D13F81F0E2
:10179000112309F446C00111B3CE8C2F8F711FC0E5
:1017A000D33F01F1D43FA1F78091CB0382FD24C048
:1017B0008C2F8F71112311F312C0112341F00530CA
:1017C00008F0B8CE8C2F8F710E942B0DB3CE06304F
:1017D00008F0B0CEF7CF8C2F8F711111CFCF0E94B0
:1017E000090DA8CE112329F08C2F8F710E94FD0CBA
:1017F000A1CE0E94F80C9ECE112349F0CF718C2F00
:101800000E94090D63E08C2F0E94B41193CE81E0F9
:101810000E94D211023008F48DCE82E00E94D211D3
:1018200089CE002359F0D93309F006CFEFEFF7EE58
:1018300023E0E150F0402040E1F7FCCE8C2F8F7187
:101840009DCF0F931F93CF93DF93EC016881798134
:101850008D810E940C0E8C010E94560D0E94CC0CB2
:10186000B801CE010E942C0ADF91CF911F910F91F8
:101870000895CF93DF93EC018C81882399F0CE01FA
:101880000E94CA07811111C00E940C11882351F0D7
:101890008D81882339F08091CB0382FF03C082E0E1
:1018A0000E94D211DF91CF910895CE010E94210CA8
:1018B000CE010E94A507F6CF882321F00E942911AE
:1018C0000E946F110895882321F00E942F110E9419
:1018D0006F11089590E080E00E94F82190E080E090
:1018E0000E941D220E9436110E946F110E949019C1
:1018F0000E94F21808950E94FB100E946A0C08953D
:101900000E9426110E947B0C089592959F7096303C
:1019100091F058F4925F9F70923058F4803F19F024
:1019200030F4883E30F481E008959A5FF4CF843F2C
:10193000D1F380E00895883EB0F3813FD1F7F3CF33
:10194000FC012481222339F0808191810E94010EC3
:101950000E94850C089580E00895A6E0B0E0E3EBD6
:10196000FCE00C94C52B2696E2E00C94E12BA7E05A
:10197000B0E0EDEBFCE00C94C52B2796E2E00C9474
:10198000E12B08950E94C10C08950E94C20C90930F
:10199000E9028093E802089508950E94C50C089515
:1019A0002091E8023091E902822B932B0E94C50C12
:1019B00008952091E8023091E902822393230E9446
:1019C000C50C08952091E8023091E90282279327FF
:1019D0000E94C50C08950E94C10C08950E94EB0C52
:1019E00008950E94EE0C9093E7028093E60208951A
:1019F00090E080E00E94F10C089521E030E0A90120
:101A000002C0440F551F8A95E2F7CA010E94F10CEB
:101A1000089521E030E002C0220F331F8A95E2F7DB
:101A20008091E6029091E702822B932B0E94F10CA9
:101A3000089521E030E002C0220F331F8A95E2F7BB
:101A4000209530958091E6029091E70282239323BE
:101A50000E94F10C089521E030E002C0220F331FF4
:101A60008A95E2F78091E6029091E7028227932718
:101A70000E94F10C08952091E6023091E702822B3A
:101A8000932B0E94F10C08952091E6023091E70219
:101A9000822393230E94F10C08952091E602309155
:101AA000E702822793270E94F10C08950895262FBC
:101AB000277091E001C0990F2A95EAF723E0769507
:101AC00067952A95E1F7660F771F660F771FFA0172
:101AD000E60FF71F50E040E0682F70E08191DF01D2
:101AE00011979B01042E02C0369527950A94E2F7C0
:101AF000217021952827292328272C934F5F5F4F9A
:101B00004430510559F70895A82FA77023E0969502
:101B100087952A95E1F7880F991F880F991FFB0178
:101B2000E80FF91F50E040E080E0219130E00A2EFC
:101B300002C0369527950A94E2F721703327042EC8
:101B400001C0220F0A94EAF7822B4F5F5F4F4430A7
:101B5000510559F70895262F943070F48C3060F4B5
:101B6000682F70E08CE0989F600D711D11244EEC81
:101B700052E0822F0E94570D0895292F943068F467
:101B80008C3058F490E06EEC72E03CE0239F800DC6
:101B9000911D11240E94840D089580E00895B0E005
:101BA000A0E0E5EDFDE00C94BE2B7C010091E60287
:101BB0001091E7028091E8029091E902082B192B1D
:101BC000CFE0D0E0CC24C394D12CBC2EC6010C2E87
:101BD00002C0880F991F0A94E2F780239123892B72
:101BE00049F4219790F7B12C8B2DCDB7DEB7E9E002
:101BF0000C94DA2BB7018C2F0E94DA14019789F329
:101C0000F3CFCF93DF93EC010E94CF0DBE010E9472
:101C1000DA14DF91CF9108951F93CF93DF93EB01F7
:101C20009091CD02992339F0CB010E94010EDF91F2
:101C3000CF911F910895882369F0CB010E94CF0DA9
:101C4000182F682FCE010E94AB0DBE01812F0E947C
:101C5000DA14EDCFCB010E94BD0D182FF6CF1F93E4
:101C6000CF93DF93C091EA0217E08091EB028C13CF
:101C700004C0DF91CF911F910895D0E01C9FF00127
:101C80001D9FF00D1124E451FD4F208131814281CF
:101C900053816481758186810E94B70C2196C7703B
:101CA000E4CF2091240330912503409126035091E5
:101CB0002703609128037091290380912A030E94D1
:101CC000B70C0895CF93DF9380912A03807F09F0AA
:101CD0004DC080912903882309F448C0E091EA02AD
:101CE0005091EB02C0912503D0912403609126030B
:101CF0007091270347E05E17C9F18E2F90E0E49FB3
:101D0000F0011124E451FD4F2481222391F1489FD9
:101D1000F001499FF00D1124DF01A451BD4F119630
:101D20002C9111972C1325C02C912D1322C01596A0
:101D30002C91159721111DC012962D913C91261BB7
:101D4000370B283C3105A8F480912A038F708061FD
:101D500080932A03EE50FD4F80818F7080618083D5
:101D600084E293E00E94390C0E942F0EDF91CF9104
:101D70000895FC013196E770BECF482F2091EA020A
:101D80009091EB0257E0291302C080E0089530E003
:101D9000529FF001539FF00D1124E451FD4F8181BA
:101DA000681306C08081481303C085818111EECF7E
:101DB0002F5F3F4F2770E7CFA4E1B0E0E2EEFEE0F7
:101DC0000C94BB2B8C0186E0F801DE011F9601907C
:101DD0000D928A95E1F7F8018481E58094E2A92EBD
:101DE00093E0B92E9091280391111FC08823D1F060
:101DF000EE20A9F0C8010E94A00CF82E882379F0EB
:101E000087E0F801D50101900D928A95E1F7C501AF
:101E10000E94F9080E94620E0E94510E5FC0C80124
:101E20000E94390CFF24F39459C0C080D180828075
:101E30009380F09029032091260330912703A40179
:101E4000421B530BFF2009F4F9C0483C510508F030
:101E5000A7C0882309F442C09091250380912A03EA
:101E6000282F207F09F05CC09D1116C0909124039B
:101E7000C91212C0E1104EC08F70806180932A0396
:101E80000E94510E84E293E00E94390C80912A0353
:101E9000F8018683F12C22C0E1103CC06D2D8C2D01
:101EA0000E94BD0E6D2D8C2D0E94BD0EE82E81115D
:101EB000F1CFCF86D88A8F8598890E94010E292F6D
:101EC00022952F70243078F49F702230A8F0992347
:101ED000B9F0F8019681907F99F4FE2C8F2D6496CD
:101EE000ECE00C94D72B2A5F2F70223068F0C801E9
:101EF0000E94390CEF2CF1CF992311F0882369F35C
:101F0000805E883050F3F3CF803F38F3815F8330B9
:101F100070F7E3CF80912A03816080932A03BACFC0
:101F20009D1113C090912403C9120FC0E1100DC080
:101F30008683C8010E94390C87E0F801A4E2B3E06F
:101F400001900D928A95E1F767CFC8010E94A00C1D
:101F5000882309F464CFEE2009F461CF80912A032D
:101F6000803288F020912403309125033987288717
:101F70009B868A86909128039C871D868E87CE013A
:101F800008960E94390C87E0F801A4E2B3E00190C2
:101F90000D928A95E1F70E94620E0E94510E42CF87
:101FA00090912A03292F207FA1F4682D9A8A898A8B
:101FB000A6017A899E2D0E94AD0C84E293E00E94D6
:101FC000390C87E0F50111928A95E9F70E94510ECC
:101FD00061CF882309F482CF809125038D1110C031
:101FE00080912403C8120CC0E1100AC09683C80176
:101FF0000E94390C87E0F50111928A95E9F76ECFBE
:10200000C8010E94A00C882309F409CFEE2009F42E
:1020100006CF80912A03803208F4B5CF20912403A3
:10202000309125033A8329839C828B8290912803E7
:102030009D831E828F83CE010196A3CF483C51051C
:10204000B8F5882309F4EECEFE2CEE2009F4E7CE95
:10205000809125038D111EC080912403C8121AC0DF
:1020600080912A0380FD0DC0982F907F51F08683C8
:10207000903F09F45ECF982F907F905F8F70892BEF
:1020800057CF87E0F801A4E2B3E001900D928A9562
:10209000E1F724CFC8010E94A00C811174CF809178
:1020A0002A03816080932A03C8010E94390C16CF4D
:1020B000682D9A8A898AA6017A899E2D0E94AD0C84
:1020C00087E0F50111928A95E9F7A6CEAEE0B0E07F
:1020D000ECE6F0E10C94C42B288739874A875B87AC
:1020E0006C877D878E87CE0108960E94DC0E882340
:1020F000B1F06C85662341F0288539854A855B857A
:102100007D858E850E94B70C17E08091EA02909140
:10211000EB0289133DC02E96E3E00C94E02B87E0A0
:10212000FE013896DE01119601900D928A95E1F735
:102130008C85882349F32091EB0230E0C901019698
:10214000877099274091EA024817190699F097E09D
:10215000929FD001939FB00D1124A451BD4FFE0159
:10216000319601900D929A95E1F78093EB020E94CF
:102170002F0ECACF0E94800C1092EB021092EA023E
:1021800087E0E4E2F3E0DF011D928A95E9F7BCCF36
:10219000819FC001112484519D4F0E94DC0E882331
:1021A00009F4B9CFE091EA021E9FF0011124E45135
:1021B000FD4F208131814281538164817581868107
:1021C0000E94B70C8091EA0290E0019687709927EF
:1021D0008093EA029ACF682F8091000190910101CB
:1021E0000E94F8220895682F8091000190910101CA
:1021F0000E940623089580910001909101010E94A0
:102200001423089580914B038695869586950895AD
:1022100080914B038770089590914B03977081E0F4
:1022200009F480E0089580916F03089590916F0301
:10223000892B80936F030895809590916F03982365
:1022400090936F03089580936F03089510926F0326
:10225000089590916E03892B80936E030895809565
:1022600090916E03982390936E03089510926E03DD
:10227000089508950E943911089590914C03292FD3
:10228000282331F08095892380934C030E943A11D2
:10229000089508950E944911089590914D03292FA2
:1022A0002823281729F0982B90934D030E944A1158
:1022B000089590914D03292F282331F0809589238B
:1022C00080934D030E944A11089580914D03882305
:1022D00029F010924D0380E00E944A110895CF9397
:1022E000DF93E0910001F091010180916F03808301
:1022F000E0910001F0910101808190916E03892BA2
:10230000808390914D03992381F0E0910001F09139
:1023100001018081892B80838091000190910101CE
:102320000E94422281110E946511C0910001D0914A
:10233000010140E250E06BE273E0CE010E94002C0C
:10234000892B59F080E2FE01ABE2B3E001900D92DF
:102350008A95E1F7CE010E949721DF91CF910895F0
:1023600008950E94B01108959091CB0392FF11C07F
:1023700098E0899F90011124622B60934B030E9487
:10238000090D80914B038695869586950E94B11123
:1023900008950E94090D089510924B0380E00E9459
:1023A000B111089590914B038095892380934B033D
:1023B000282F277069F4891759F09091CB0392FF69
:1023C00007C08695869586950E94190D0E94CC11AE
:1023D0000895CF93C82F8091CB0382FB992790F962
:1023E0009C17E9F0C0FB82F98093CB038091CA036C
:1023F0009091CB030E94441282E00E94D2118091FE
:10240000820380FF0CC01F92CF9381E092E09F93E4
:102410008F930E949C060F900F900F900F90CF917A
:1024200008958091CB0382FB882780F991E089276A
:102430000E94E911089581E00E94E911089580E069
:102440000E94E91108956FEF7FEF90E080E00E9415
:10245000522C089590E080E00E941E2C21E0863EE0
:102460009E4F09F020E0822F089582E090E00E94C4
:10247000162C089583E090E00E94162C089584E0C5
:1024800090E00E941E2C0895BC0184E090E00E9420
:10249000522C0895AB01BC018FE090E00E94462CC5
:1024A0000895AB01BC0183E190E00E94462C0895A1
:1024B00060E070E0CB010E945112089560E070E08E
:1024C000CB010E944A120E9458120895A8E0B0E081
:1024D000ECE6F2E10C94C52B66EE7EEF90E080E036
:1024E0000E94522C60E082E090E00E94342C60E078
:1024F00083E090E00E94342C1092E9021092E802EE
:1025000060E074E184E090E00E94522C60E086E09C
:1025100090E00E94342C6FEF87E090E00E94342C12
:1025200040E050E0BA0188E090E00E94462C60E074
:1025300084E290E00E94342C60E087E190E00E9409
:10254000342C60E08CE090E00E94342C60E08DE060
:1025500090E00E94342C19821A821B821C821D82F8
:102560001E821F82188648E050E068E170E0CE01CC
:1025700001960E94242C40E050E0BA0180E290E0F5
:102580000E94462C0E945E122896E2E00C94E12BF9
:102590000E9466120895682F8EE090E00E94342C0D
:1025A0000895A6E0B0E0E7EDF2E10C94C32B0E94A1
:1025B000D6238C018091700390917103801791074D
:1025C00081F019821A820E94D623682F49815A818C
:1025D000792F80E090E00E94C90810937103009366
:1025E00070032696E4E00C94DF2B0E94E2236093B4
:1025F0007E0370937F0380938003909381036093A5
:102600007A0370937B0380937C0390937D030895FA
:10261000089508950E940913089508950E940D13C6
:10262000089581E0089587EE95E20E947D210E9441
:1026300008130E940A1308950E94111308950E941E
:102640001C130895089508950E9422130E942313D5
:1026500008950E94E1150E947B080E940C1B0895BA
:102660000E94CD230E94FC160E9429130E940E1383
:102670000895A6E0B0E0EFE3F3E10C94B92B0E94DB
:10268000111381110AC00E94D1120E94B2190E9436
:102690008E082696EEE00C94D52B0E94121722E7A6
:1026A000822E23E0922E640110E0F601E190F19079
:1026B0006F01812F0E9407161F5F143009F44BC071
:1026C000E816F90691F38091820381FD0E941016AD
:1026D0000E941F13782E10E066246394812F0E94BD
:1026E00007167C01F401A190B1904F018A159B055A
:1026F00061F100E0CC24C394D12CAE24BF24C501E9
:102700008C219D21892BC1F07720B1F009831A8398
:102710000E94D6239C838B836D8221E0C7018C218C
:102720009D21892B09F420E049815A816B817C81AC
:102730008D81922F0E94C9080F5FCC0CDD1C0C30DC
:10274000F1F6F4013297F182E0821F5F143031F626
:102750000E94F5129ACFE816F90609F0B4CF93CF8C
:102760001F93CF93DF930E94DF14EC01C11580E526
:10277000D807F0F5C11580E4D80708F09CC0C03E2A
:10278000D10520F5CD3CD10508F082C0C83AD1056D
:1027900078F4C53AD10508F073C0C130D10519F1FC
:1027A000209709F1C430D105F0F4D0E0C0E01BC09F
:1027B000C33CD105D0F7C85AD0E0CC0FDD1FC45BB5
:1027C000DE4F0990D881C02DD4640DC0C11580E2C0
:1027D000D80708F0D1C0C11581E0D80708F05AC069
:1027E000C83ED10510F7CE01DF91CF911F9108951A
:1027F000C03682E5D80718F5C03482E5D80708F05E
:102800006BC0C03282E5D80708F05FC0C11582E511
:10281000D80708F497C02C2F2695269580E2289F8C
:10282000900111248C2F8370C1E0D0E002C0CC0F46
:10283000DD1F8A95E2F7C22BD32BDD68D4CFC03AD7
:1028400082E5D80760F4C03882E5D80708F459C09B
:10285000CF71D0E0DC2FCC27C46FD06AC4CFC03C8E
:1028600082E5D80708F462C0C03E82E5D80708F0C8
:102870009CCFDC2FCC27CC27DF71C06FD06AB3CFC1
:10288000C55AD0E0CE57DE4FC881D0E0D064ABCF80
:10289000D065A9CF8D2F0E948115182FCE019927C1
:1028A0000E94DF14C12FD0E0DC2FCC27CC27DF71B2
:1028B000C82BD92B98CFCE0199270E94DF14CC27A3
:1028C000DF70C82BD92BD06A8ECFCF71D0E0DC2F30
:1028D000CC27C16FD06A87CF2C2F269526952770DD
:1028E00080E2289F900111248C2F8370C1E0D0E0FA
:1028F00002C0CC0FDD1F8A95E2F7C22BD32BDC6818
:1029000072CF2C2F26952695277080E2289F900164
:1029100011248C2F8370C1E0D0E002C0CC0FDD1FEA
:102920008A95E2F7C22BD32BDA685DCF8C2F8F719B
:102930000E948115C82FD0E0DC2FCC27CC27DF7177
:10294000D06251CF8C2F8F710E94811555E0D695A2
:10295000C7955A95E1F7CF70D0E0DC2FCC27282F10
:1029600030E084FF05C044E0220F331F4A95E1F7B1
:10297000C22BD32BD06937CF8D2F8F710E94811539
:10298000182FCE0199270E94DF14C12FD0E0DC2F31
:10299000CC27CC27DF71C82BD92BD2CF462F743050
:1029A00030F46C3020F4672F0E94C106089590E047
:1029B00080E008950E94CE140E94B01308958238DA
:1029C0009105B9F1B0F48133910509F47DC048F463
:1029D0008932910509F46DC08A32910509F47BC0F2
:1029E00008958533910509F45FC08933910509F194
:1029F0000895833E9105D9F138F4803E910529F17F
:102A0000823E910579F10895863E9105D9F1873E80
:102A1000910509F43EC0843E910541F52091CB0318
:102A200021FF24C08091CA0384FD19C087EE90E085
:102A300008952091CA03237009F05AC02091CB0356
:102A400023FF14C089E290E008952091CA0320FD7D
:102A500038C03091CB0330FF09C024FF43C090E061
:102A600080E008952091CA0322FDF7CF08952091B8
:102A7000CA0322FD3AC03091CB0330FD39C024FF98
:102A8000F5CFEDCF2091CA0323FFF0CF24FDE7CF90
:102A9000CDCF2091CA0323FD2EC03091CB0331FF4F
:102AA000EECF84EE90E008952091CA0325FFDECF9B
:102AB000C9CF2091CA0325FD21C02091CB0323FF5C
:102AC000D5CF89E390E0D2CF2091CA0326FFCECFA5
:102AD0008AE290E008952091CA0326FFC7CF81E3E0
:102AE00090E0089583EE90E0089582EE90E00895DE
:102AF00080EE90E0089586EE90E0089585E390E002
:102B000008959091CA0392FF06C0282F287128309B
:102B1000F9F4877F846093FF06C0282F287128313D
:102B2000F1F4877E84612091CB0320FF06C0382F0B
:102B300038713830D9F4877F816021FF06C0282F93
:102B400028712831D1F4877E816194FD877E0895B4
:102B5000282F24712430F9F68B7F8860DCCF282F52
:102B60002471243101F78B7E8861DDCF382F3171DC
:102B7000313019F78E7F8860E0CF282F2171213105
:102B800021F78E7E8861E1CF0E94231208950E9472
:102B900012172FEF86E791E0215080409040E1F737
:102BA00000C000000E94121780E00E94071680FFFC
:102BB00004C00E94C4150E94212408950E94C715D4
:102BC00008950E942A12811102C00E94C8120E9418
:102BD0003512809382030E943F129093CB0380931F
:102BE000CA030E94DE150E943A1290E00E94CD0CAA
:102BF0008091E6029091E7020E94EE0C08950895FC
:102C00000E94FF15089508950E9403160895E82F65
:102C1000F0E0EE0FFF1FEC52FC4F80819181089590
:102C2000B0E0A0E0E6E1F6E10C94BF2B86E292E092
:102C30000E94030684EDE82E83E0F82ED0E0C0E089
:102C400091E2C92E92E0D92E08E112E0DF93CF93F2
:102C5000DF92CF920E949C068EE192E00E940306D2
:102C6000F701819191917F010E945B089F938F935F
:102C70001F930F930E949C0686E192E00E94030638
:102C800021968DB79EB708960FB6F8949EBF0FBEDB
:102C90008DBFC430D105D1F6CDB7DEB7E8E00C94D6
:102CA000DB2B80EA8A95F1F7089500C008950E9411
:102CB00051160895F894E82FE295EF70F0E031A1F5
:102CC000282F2F7081E090E001C0880F2A95EAF745
:102CD000982F9095932391A392A1892B82A3789406
:102CE0000895CF93DF9386EF0E945A1685EF0E94D6
:102CF0005A1684EF0E945A1681EF0E945A16C5E8B0
:102D0000D1E089918F3F11F00E945A1681E0C139BC
:102D1000D807B9F7DF91CF910895AF92BF92DF92B4
:102D2000EF92FF920F931F93CF93DF938C01D62ED8
:102D3000C62FD0E0CE018F569E4F7C01FC01208132
:102D40002F3F09F44CC0F894E22FE295EF70F0E0C9
:102D500031A12F7081E090E001C0880F2A95EAF739
:102D6000932F982B91A392A18095892382A3789485
:102D70000E945516E5E8F1E041E050E0B12CA12CAD
:102D800021912F3FB1F1A22FA295AF70B0E09096A4
:102D90008C9190E02F7002C0959587952A95E2F767
:102DA00080FD27C0CA01A82AB92A440F551F81E017
:102DB000E139F80729F7F70180818F3F11F00E9470
:102DC0005A1661E0A114B10409F460E08D2D0E944F
:102DD0005716CC0FDD1FC00FD11FB982A882DF911B
:102DE000CF911F910F91FF90EF90DF90BF90AF9028
:102DF000089590E080E0D7CF0E94711688E0E4ED5E
:102E0000F3E0DF01982F1D929A95E9F7ECECF3E0DF
:102E1000DF011D928A95E9F784E00E944D170E9418
:102E200000160895A8E0B0E0E8E1F7E10C94C22BA9
:102E30008E010F5F1F4F88E0F80111928A95E9F724
:102E4000F12C6F2DC8010E948D16F394F4E0FF124F
:102E5000F8CF48E050E0B8018CEC93E00E94002CE1
:102E600021E0009709F420E0892B41F088E0F80187
:102E7000ACECB3E001900D928A95E1F744E064ED8B
:102E800073E08CEC93E00E944E17182F0E940416FA
:102E9000812F2896E5E00C94DE2B0895CF92DF92E7
:102EA000EF92FF921F93CF93DF936C017B01C42FAE
:102EB000222349F081E0809385030E94D6239093DA
:102EC0008403809383031091850311110AC010E0DD
:102ED000812FDF91CF911F91FF90EF90DF90CF90E6
:102EE000089580918303909184030E94EE230597B7
:102EF00070F3D0E0CC0FDD1FAE01B601C7010E9418
:102F0000002C892B41F0AE01B601C7010E940D2CA7
:102F100010928503DDCF10E0FBCF0E9463260E9454
:102F200030130E94702608950E9475260E9439135E
:102F30000E94932608950E946F230E9449260E94B2
:102F400013130E948D170E9494170E942413FBCF25
:102F500080918C0380FF0DC06091070170E0660FC7
:102F6000771F6038710570F56115710569F1862F5D
:102F7000089581FF07C06091070184E0689FB00158
:102F80001124EFCF6091070182FD0AC080918B036D
:102F90008823A9F02091060160910701821710F0A3
:102FA00088E0ECCF869FC001112433E0880F991F81
:102FB0003A95E1F7622F70E00E949B2BD2CF68E038
:102FC00070E0D5CF8FE7089581E0089580918C035C
:102FD00080FF0CC06091030170E075956795759551
:102FE00067956115710549F1862F089581FF06C027
:102FF0006091030170E075956795F3CF60910301CF
:1030000082FD0BC090918A039923A1F06091020187
:1030100080910301961738F0682F70E060387105D1
:1030200000F38FE70895899FC001112470E00E948A
:103030009B2BF4CF61E070E0D7CF81E008958D3C09
:1030400031F40E94A81781958093900308958E3CD7
:1030500019F40E94A817F8CF8F3C31F40E94A817EA
:10306000819580938F030895803D19F40E94A817DD
:10307000F8CF893D29F40E94E617809391030895C3
:103080008A3D21F40E94E6178195F7CF8B3D31F4FC
:103090000E94E61781958093920308958C3D19F460
:1030A0000E94E617F8CF9FE2980F983070F4815D88
:1030B000990B21E030E001C0220F8A95EAF7809158
:1030C0008E03822B80938E0308958D3D31F4809181
:1030D0008C03816080938C0308958E3D21F4809150
:1030E0008C038260F7CF8F3DB9F780918C038460A9
:1030F000F1CF40918F038D3C59F48091900387FF6D
:103100000DC01092900341110BC010928B0308C0A8
:103110008E3C81F48091900318169CF3442381F037
:103120008091910390919203892B09F05AC01092DB
:103130008A0308958F3C49F447FFF0CF10928F0324
:10314000809190038111ECCFE0CF803D19F41416EB
:10315000ACF3E4CF90919103893D29F41916F4F66C
:1031600010929103DBCF8A3D19F497FFD7CFF8CFA8
:10317000909192038B3D29F497FFD0CF1092920348
:10318000CDCF8C3D19F41916CCF3C8CF9FE2980F20
:10319000983090F4815D990B21E030E0B90102C0D4
:1031A000660F771F8A95E2F7CB01809590918E0389
:1031B000892380938E03B2CF8D3D31F480918C03AF
:1031C0008E7F80938C03AACF8E3D21F480918C0357
:1031D0008D7FF7CF8F3D09F0A1CF80918C038B7F3E
:1031E000F0CF08958091820383FF7EC084E692E051
:1031F0000E94030680918E031F928F938FE592E0C9
:103200009F938F930E949C068DE592E00E94030697
:1032100080918F03282F082E000C330B3F938F9340
:103220008AE592E09F938F930E949C0688E592E046
:103230000E94030680919003282F082E000C330B68
:103240003F938F9385E592E09F938F930E949C0616
:1032500083E592E00E94030680919103282F082EB7
:10326000000C330B3F938F9380E592E09F938F93F5
:103270000E949C068EE492E00E94030680919203D5
:10328000282F082E000C330B3F938F938BE492E092
:103290009F938F930E949C0688E492E00E9403060D
:1032A00080918B031F928F9385E492E09F938F937D
:1032B0000E949C0683E492E00E94030680918C03A6
:1032C0001F928F9380E492E09F938F930E949C06BD
:1032D0008DE392E00E9403068DB79EB74C960FB621
:1032E000F8949EBF0FBE8DBF0E94D6239C01909183
:1032F0008F0380919003982B21F0309389032093C2
:1033000088039091910380919203982B21F0309340
:103310008703209386038DE893E00E94EA210895B5
:1033200086E0EDE8F3E0DF011D928A95E9F710925F
:103330008B0310928A0310928C030895FC01828102
:1033400081110EC0838181110BC08481811108C05D
:1033500091E08581811101C090E0892F81700895ED
:1033600081E0FCCFA6E0B0E0E8EBF9E10C94C42BDF
:1033700086E0EDE8F3E0DE01119601900D928A956A
:10338000E1F710928F031092900310929103109224
:1033900092038B819C81892B89F080918803909185
:1033A00089030E94EE23AC0190918B039923C9F10C
:1033B000809108018417150608F440C08D819E8114
:1033C000892B91F080918603909187030E94EE23D0
:1033D000AC0190918A03992309F471C08091040192
:1033E0008417150608F479C0BE016F5F7F4F8DE822
:1033F00093E00E942623811105C08DE893E00E948E
:103400009E1981110E94F21886E0FE013196ADE806
:10341000B3E001900D928A95E1F72696E3E00C94D3
:10342000E02B209109018AE0289F900111242417A4
:10343000350720F69F5F90938B0302C09F3FD1F723
:103440001B81112359F00E94A8179FEF11160CF44D
:1034500091E0899F802D112480938F031C8111237B
:1034600059F00E94A8179FEF11160CF491E0899F64
:10347000802D11248093900330918F03332309F41E
:103480009DCF20919003222309F498CF45EB34037C
:10349000C0011124992359F090938F0345EB240325
:1034A00090011124332339F03093900387CF81E0CA
:1034B00080938F03F3CF81E0809390037FCF20919F
:1034C00005018AE0289F900111242417350708F090
:1034D0008BCF9F5F90938A0302C09F3FD1F71D81DE
:1034E000112359F00E94E6179FEF11160CF491E09A
:1034F000899F802D1124809391031E81112359F0FF
:103500000E94E6179FEF11160CF491E0899F802D21
:1035100011248093920330919103332309F464CFF3
:1035200020919203222309F45FCF45EB3403C001BD
:103530001124992359F09093910345EB24039001B2
:103540001124332339F0309392034ECF81E08093DE
:103550009103F3CF81E08093920346CFFB01258155
:10356000222341F097FF06C09F77BC0190E080E0E6
:103570000E94191C81E008950F931F93CF93DF934E
:10358000EC018B01FB0185818823B1F00E941311AE
:103590008272FE01E053FC47E830F10568F4EA5816
:1035A000F34D0C94AF2B811104C081E003C0811155
:1035B000FCCF8FEF0E94271BB801CE010E94AE1AEC
:1035C000DF91CF911F910F91089580E00E942F1BF2
:1035D000F3CF81E0FBCF82E0F9CF83E0F7CF84E047
:1035E000F5CF85E0F3CF9091DD03923071F48A300E
:1035F00050F490E009966AE070E00E949B2B875A95
:103600000E94150A08958650FBCF0E949A1D0895C6
:1036100008950E94081B08958CE090E00E94162CEB
:103620008093DD030E94091B8091820380FF0EC0FE
:103630008091DD031F928F9386EA92E09F938F9390
:103640000E949C060F900F900F900F900895089580
:103650006091DD038CE090E00E94342C0895CF93BC
:10366000C82F8093DD030E94281B8C2F0E94091B0A
:103670008091820380FF0EC08091DD031F928F93A3
:1036800087E892E09F938F930E949C060F900F9083
:103690000F900F90CF9108950E9494218093DC03A6
:1036A0009091DD03913029F481FF03C089E30E94EA
:1036B000150A0E9413118093DE030E9426110E94B6
:1036C00036118091DD03823021F158F48823C1F056
:1036D0008130D1F08FE39CE90197F1F700C0000041
:1036E0000895843051F18530A9F78BE191E00E9473
:1036F000450785E290E00E94450788E290E006C019
:1037000082EE0E940C09E6CF88E193E00E94450713
:10371000E1CF8091DC0380FD03C083E50E94150AA0
:1037200082EE0E940C098FE39CE90197F1F700C03B
:10373000000087E50E94150ACDCF86EE0E94150A8B
:1037400088E1F8CF8091DD03823011F148F48823BD
:1037500081F0813091F08091DE030E942311089561
:103760008430F9F08530B9F788E290E00E9445078F
:10377000F2CF82EE0E94A309EECF8CE20E94150ADE
:103780008091DC0381FFE7CF89E30E94150AE3CF34
:1037900082EE0E94A3098091DC0380FDDCCF83E5EB
:1037A000F4CF88E2F2CF8F929F92AF92BF92EF92C6
:1037B000FF920F931F93CF93DF934B015C01D09146
:1037C000DD038CE1E82EF12C07E010E021E0D501CB
:1037D000C4010E2C04C0B695A795979587950A94B9
:1037E000D2F7C82FCF70222339F0D43051F4CA3029
:1037F00040F080E00E94F31A8C2F0E94F31A20E020
:1038000005C0C111F9CF04301105B4F301501109FD
:1038100084E0E81AF1080F3F1007C9F6DF91CF9155
:103820001F910F91FF90EF90BF90AF909F908F905E
:103830000895CF92DF92EF92FF926B017C01C11449
:10384000D10481E1E806F104A0F5C114D10481E0BE
:10385000E806F10420F08091DD03823051F10E94EE
:103860004C1BC114D10481E0E806F10438F18091C9
:10387000DD03811123C081E0E81AF108C701B60118
:103880002AE096958795779567952A95D1F778528E
:103890008F4F9F4F0E94D31B83E0D822EE24FF243A
:1038A000C701B60174528F4F9F4F0E94D31B0E94D5
:1038B000A21BFF90EF90DF90CF900895C701B60153
:1038C000F4CFCF93DF93EC01FB018581882309F4CA
:1038D000D2C09E0130572332310508F0B2C00E9499
:1038E0003F129093CB038093CA03FE01E150F0474F
:1038F000E232F10520F4E258F34D0C94AF2B8091A5
:10390000CA0381608093CA0393C08091CB0388600F
:103910008093CB038DC08091CA038260F3CF8091E6
:10392000CA038460EFCF8091CA038860EBCF809197
:10393000CB038160EDCF8091CB038260E9CF809192
:10394000CA038061DFCF8091CA038062DBCF8091A0
:10395000CA038064D7CF0E94800C8091CA0380681C
:10396000D1CF8091CA038C60CDCF8091CB0383608F
:10397000CFCF8091CA038E7FC5CF8091CB03877F45
:10398000C7CF8091CA038D7FBDCF8091CA038B7F43
:10399000B9CF8091CA03877FB5CF8091CB038E7F4B
:1039A000B7CF8091CB038D7FB3CF8091CA038F7E39
:1039B000A9CF8091CA038F7DA5CF8091CA038F7B49
:1039C000A1CF0E94800C8091CA038F779BCF8091FA
:1039D000CA03837F97CF8091CB038C7F99CF80914F
:1039E000CA0382FB992790F921E0922790FB82F984
:1039F00090FB83F987CF8091CB03982F909591709E
:103A00008E7F892B90FB81F983CF9091CA03892FF8
:103A10008F7B96FF806476CF0E94800C9091CA03C2
:103A2000892F97FB87F980586DCF81E00E94CB12D8
:103A30008091CA039091CB030E9444120E94800C93
:103A400080E0DF91CF91089580E0F0CF9091CA039C
:103A5000892F8F7E94FF806155CF9091CA03892F63
:103A60008E7F90FF81604ECF9091CB03892F877F0F
:103A700093FF88604DCF81E0E4CFB0E0A0E0E3E4C5
:103A8000FDE10C94C02BE82FF0E0EA53FD4FD490F9
:103A9000282F26952695269530E0F901EA59FC4F06
:103AA0000491877010E0082E02C0159507950A94BE
:103AB000E2F701701127F901EA5AFC4FE490F12C6A
:103AC000082E02C0F594E7940A94E2F791E0E92207
:103AD000FF24F901EA5BFC4FC491D0E002C0D59508
:103AE000C7958A95E2F7C170DD270115110519F018
:103AF00081EE0E940C09E114F10419F086EE0E9497
:103B00000C098D2D0E94150AE114F10419F086EEBE
:103B10000E94A3090115110519F081EE0E94A30965
:103B2000CD2B19F08CE20E94150ACDB7DEB7E7E085
:103B30000C94DC2B982F9F709A50963020F0805D6B
:103B40000E943D1D0895895AFBCF809102011F926A
:103B50008F93809103011F928F93809106011F9292
:103B60008F93809107011F928F93809108011F927C
:103B70008F93809109011F928F9386E793E09F9323
:103B80008F930E949C068DB79EB70E960FB6F89441
:103B90009EBF0FBE8DBF0895883228F58E3108F084
:103BA00072C08B3041F130F4873009F4CFC085ED1D
:103BB00094E0E0C0833109F45FC08431C1F787EF3E
:103BC00094E00E94030680919703882309F4FEC0C5
:103BD00010929703109296031092950310929403FB
:103BE0001092930320C08F3409F4C7C0D8F58932EE
:103BF00031F38833E1F68AEF94E00E9403060E94D5
:103C0000A51D1F9281E08F931F9288E08F9383EF11
:103C100093E09F938F930E949C060F900F900F90BC
:103C20000F900F900F9020919703222309F4C9C0A1
:103C30008091930390919403009711F485E991E0AA
:103C40009F938F931F922F9383EC94E09F938F9376
:103C50000E949C060F900F900F900F900F900F9066
:103C600081E00895813509F49CC008F49CC0823538
:103C700009F09DCF81E082C089EE94E00E940306A6
:103C80000E94A51DD0CF8D5180939703833009F4F6
:103C900042C058F48130C1F08230A1F110929703F4
:103CA00086EE94E00E9403061BC0853009F445C0EF
:103CB000D8F1863099F782E091E090939603809353
:103CC00095038DED91E008C089E091E09093960313
:103CD0008093950389E991E09093940380939303F3
:103CE00080919703882309F49ECF1F928F9382EED1
:103CF00094E09F938F930E949C060F900F900F90DB
:103D00000F9091CF88E091E0909396038093950374
:103D100082EA91E0E1CF87E091E09093960380936F
:103D200095038EEA91E0D8CF86E091E090939603D8
:103D3000809395038BEB91E0CFCF83E091E090935C
:103D40009603809395038AEC91E0C6CF81E080933F
:103D5000090184E1809308018AE0809307018EE1E4
:103D60008093060188E08093030188E2809302013A
:103D700088ED94E00E94030656CF8AE0E091950317
:103D8000F09196033097D1F02081082E000C990B0A
:103D9000820F911D8F3F910541F03CF08FEF8083A2
:103DA00007C08FEFEBCF86EFE9CF97FFF8CF1082F8
:103DB00080811F928F938FEC94E09BCF8CEC94E0EA
:103DC000D9CF8FEB94E00E9403064ACF80E008959C
:103DD000CF93C82F1F928F9380E195E09F938F938D
:103DE0000E949C0681E090E002C0880F991FCA954E
:103DF000E2F70E94CD0C0E94800C0F900F900F9064
:103E00000F90CF910895B0E0A0E0E9E0FFE10C94BD
:103E1000C02BEBEFE80FEF3308F03EC1F0E0E056C7
:103E2000F34D0C94AF2B0E943A121F928F9380ECAB
:103E300098E09F938F930E949C060E94351283FB0B
:103E4000992790F91F929F9382FB992790F91F92CF
:103E50009F9381FB992790F91F929F93982F9170C0
:103E60001F929F931F928F9387E798E09F938F9362
:103E70000E949C060E943F1293FB222720F91F926A
:103E80002F9387FB222720F91F922F9386FB22274F
:103E900020F91F922F9385FB222720F91F922F9341
:103EA00084FB222720F91F922F9383FB222720F9DE
:103EB0001F922F9382FB222720F91F922F9391FBB1
:103EC000222720F91F922F93292F21701F922F93C1
:103ED00081FB222720F91F922F93282F21701F92F8
:103EE0002F939F938F9388E797E09F938F930E94E0
:103EF0009C068DB79EB78A960FB6F8949EBF0FBEEC
:103F00008DBF81E01CC080E899E00E9403060E94FA
:103F1000C812F7CF83EC95E00E940306F2CF8091A0
:103F20008203807F809382038CE995E00E940306E0
:103F30008CE799E00E94030681E080939803CDB757
:103F4000DEB7E7E00C94DC2B80E699E00E940306E4
:103F50000E94C007D6CF90918203892F8E7F90FF59
:103F600081608093820380FF03C084E599E0D4CF11
:103F700087E499E00E94030680918203817F809309
:103F80008203BFCF90918203892F8D7F91FF826042
:103F90008093820381FF08C08AE399E00E940306B0
:103FA000809182038160EBCF8CE299E0B5CF909154
:103FB0008203892F8B7F92FF84608093820382FF2C
:103FC00003C08DE199E0EACF8DE099E0A5CF909113
:103FD0008203892F877F93FF88608093820383FF0A
:103FE00003C081E099E0DACF84EF98E095CF82EFCB
:103FF00091E09F938F9389E995E09F938F930E941F
:104000009C060F900F900F900F907BCF0E94E223A1
:10401000062FF72EE82ED92EC091CA03C7FBCC2756
:10402000C0F91091C903D09112010E948721DF923B
:10403000EF92FF920F931F92CF931F921F931F92A5
:10404000DF931F928F9385E195E09F938F930E945A
:104050009C068DB79EB70E960FB6F8949EBF0FBE06
:104060008DBF4FCF0E94800C9091CA03892F97FB80
:1040700087F980588093CA0387FF03C08AEE98E0CF
:104080004BCF8FED98E048CF80E00E94E81E39CFFB
:104090008953FBCF8D51F9CF8DED98E00E94030637
:1040A00080E04DCF80E008950E9452200895CF9384
:1040B000C82F809198038130C1F0882339F0823075
:1040C00009F444C01092980380E00DC00E941311BF
:1040D0008232D1F78C2F0E94522081111BC08C2F6D
:1040E0000E94031F8170CF9108950E9413118232A4
:1040F00089F38C2F0E94542081111BC0C431D9F048
:1041000060F4CB3071F0C031D1F08AE095E00E94CC
:10411000030613C081E090E0E5CFC93261F0C833F7
:10412000A1F78CE995E00E9403068CE095E00E94DF
:10413000030681E0D7CF1092980380E0D3CF82E0CE
:104140008093980388E30E94CC1DF3CF8C2F0E94AC
:10415000CC1D81E0C8CFCF93DF93EB0186319C4724
:1041600011F50E9413119D81992399F08A7A91E0AB
:1041700009F490E090939903811109C089E20E94AB
:10418000EB100E946F1180E0DF91CF91089585E3DD
:10419000F6CF80919903811104C089E20E94F31047
:1041A000F0CF85E3FBCF81E0EFCF0F931F93CF9349
:1041B000DF93C42FD22FFC0185818823C9F040935F
:1041C0009C030E94D62390939B0380939A0380E2E2
:1041D0008C0F883040F4C77081E001C0880FCA9509
:1041E000EAF70E941E0ADF91CF911F910F91089567
:1041F00010919C03141332C080919A0390919B03F9
:104200000E94EE23883C910548F5C0E2CD0F1D17B2
:10421000B9F080E2810F883040F4177081E001C06E
:10422000880F1A95EAF70E94250AC83048F481E001
:104230009D2F977001C0880F9A95EAF70E941E0A79
:10424000802F0E94150AC83070F6D77081E001C037
:10425000880FDA95EAF70E94250AC5CF80E28C0F15
:10426000883008F6C77081E001C0880FCA95EAF768
:10427000F2CF0F93DB0188519C4787309105A0F561
:10428000FC01E152F34D0C94AF2B06E221EE41EE1E
:104290006AE17CE7CD010E94D52080E00F9108956E
:1042A00007E225EE45EE6BE17CE7F4CF06E221EE76
:1042B00040EE68E17CE7EECF07E225EE44EE69E1EF
:1042C0007CE7E8CF06E221EE42EE6CE17CE7E2CF4C
:1042D00007E225EE46EE6DE17CE7DCCF08E221E067
:1042E00045EE6EE17CE7D6CF15968C91882319F0C8
:1042F00010929C03D3CF81E0D1CF9093C7028093DB
:10430000C60208959093A2038093A1030895E091BB
:10431000A103F091A203309729F00190F081E02DE4
:104320000995089580E008950E9487210895EF92ED
:10433000FF920F931F93CF93DF93EC01E091A103C2
:10434000F091A203309709F440C0809112018823B4
:1043500041F08091CA0387FF04C08881898386E089
:1043600088830280F381E02DCE010995809182033C
:1043700082FF2BC080FF04C089E999E00E940306F8
:1043800010E000E083E9E82E89E0F82E80918203B6
:1043900080FF0EC0FE01E00FF11F80811F928F93FE
:1043A000FF92EF920E949C060F900F900F900F903B
:1043B0000F5F1F4F0830110549F78091820380FF7E
:1043C00004C081E999E00E940306CDB7DEB7E6E0BC
:1043D0000C94DD2BE091A103F091A203309739F00A
:1043E00022E0DC012C930480F581E02D09950895ED
:1043F000A3E0B0E0EEEFF1E20C94C52B20919F0317
:104400003091A00328173907A1F09093A00380935F
:104410009F03E091A103F091A203309751F023E0B4
:1044200029839B838A830680F781E02DCE01019644
:1044300009952396E2E00C94E12BA3E0B0E0E3E2DF
:10444000F2E20C94C52B20919D0330919E03281716
:104450003907A1F090939E0380939D03E091A103FF
:10446000F091A203309751F024E029839B838A8343
:104470000680F781E02DCE01019609952396E2E0B2
:104480000C94E12BFC01329680911201882321F0DB
:104490008091CA039EE187FF96E080E0915008F486
:1044A000089521912223D1F38F5FF8CF662301F184
:1044B000209112012223F1F02091CA0327FF1AC094
:1044C000462F4695469546954E3190F4677021E00B
:1044D00030E002C0220F331F6A95E2F7840F911D6E
:1044E000FC01828190E02823392381E0232B69F4A9
:1044F00080E00895FC01329608962191261721F05C
:10450000E817F907D1F7F4CF81E008959C01FC0189
:1045100032969FEF80E04191461751F09F3F19F48A
:10452000411101C0982F8F5F8630A9F79F3F09F492
:104530000895290F311D97FD3A95F9016283089579
:10454000FC01329608962191261303C0DF011197D2
:104550001C92E817F907B9F70895E62FE695E69556
:10456000E695EE3170F4E80FF92FF11D677021E048
:1045700030E001C0220F6A95EAF78281822B8283A4
:1045800008958091820380FF0CC01F926F9389EC85
:1045900099E09F938F930E949C060F900F900F902D
:1045A0000F900895E62FE695E695E695EE3178F4BE
:1045B000E80FF92FF11D677021E030E001C0220FF4
:1045C0006A95EAF7209582812823228308958091B5
:1045D000820380FF0CC01F926F938BEA99E09F9338
:1045E0008F930E949C060F900F900F900F9008954C
:1045F00020911201222339F02091CA0327FF03C022
:104600000E94AD2208950E948622089520911201F1
:10461000222339F02091CA0327FF03C00E94D2222F
:1046200008950E94A0220895FC0132968091120103
:10463000882351F08091CA0387FF06C08EE1DF0115
:104640001D928A95E9F7089586E0F9CF46E050E09B
:104650000E94002C21E0892B09F420E0822F08958C
:1046600008950E9430230895811106C081E080934F
:10467000A3030E943123089582E0F9CF83E0809361
:10468000A3030E94312308950E943423089581E0FA
:104690008093A3030E94312308950E944723089525
:1046A000089508950E9451230895089508950E9441
:1046B00050230895CF930E9455230E9412170E9401
:1046C0005623C0E08C2F0E940716892B31F4CF5F50
:1046D000C430C1F780E0CF91089581E0FCCF85B769
:1046E000806885BF85B7806885BF08951F921FB613
:1046F0001F9211248F939F93AF93BF938091A40334
:10470000811113C08091DF039091E003A091E10338
:10471000B091E2034196A11DB11D8093DF039093F8
:10472000E003A093E103B093E203BF91AF919F91A7
:104730008F911F901FBE1F9018958091E7038430C2
:1047400031F10E9439081092A40388E190E020E43E
:104750000FB6F894A895809360000FBE2093600078
:1047600083B7817F846083BF83B7816083BF789480
:10477000889583B78E7F83BF0FB6F894A8958091F4
:104780006000886180936000109260000FBE089501
:104790000E94800C0E943E08089582E084BD93E050
:1047A00095BD9AEF97BD80936E0008952FB7F8944A
:1047B0008091DF039091E003A091E103B091E203C7
:1047C0002FBF08952FB7F8946091DF037091E00335
:1047D0008091E1039091E2032FBF08959C014FB7B0
:1047E000F8948091DF039091E003A091E103B091F0
:1047F000E2034FBF821B930B089578941F921FB65C
:104800001F9211248F939F93AF93BF938091DF03E7
:104810009091E003A091E103B091E2030196A11D04
:10482000B11D8093DF039093E003A093E103B09365
:10483000E203BF91AF919F918F911F901FBE1F9078
:10484000189587E797E7909301088093000888E11F
:104850009AE00FB6F894A895809360000FBE9093ED
:104860006000FFCF88E19AE00FB6F894A895809396
:1048700060000FBE90936000FFCF8091C803089541
:104880009B01BA019091E7039430E9F48F70809313
:10489000E9009FEF8091E800915085FD06C085ED0D
:1048A0008A95F1F700009111F5CF8091E80085FF1E
:1048B0000AC050E040E0C9010E9409278091E80049
:1048C0008E778093E800089543E050E0BC0182E0D9
:1048D0000E944024089546E050E0BC0182E00E941E
:1048E00040240895CF93DF93EC0180911201811150
:1048F00011C048E050E0BE0181E00E94402480E207
:10490000FE01A8EAB3E001900D928A95E1F7DF91EC
:10491000CF9108958091CA0387FF05C040E282E0ED
:1049200050E0BE01EACF48E081E0FACF8BEF99E09A
:104930000E9403068091E603811109C00E94992814
:104940000E94F6288091E20084608093E20008953E
:1049500087EF99E00E9403061092E603089583EF23
:1049600099E00E9403060E94472308958FEE99E084
:104970000E9403066091E30381E0611101C080E0C1
:104980000E943E2308958BEE99E00E9403069091C9
:10499000E70381E0943009F080E06091E3030E9436
:1049A000442308952091A6032F5F822F62E30E9483
:1049B0008F2B992319F02093A60308951092A60334
:1049C0008091A7038823F1F08091E7038430C1F43C
:1049D0009091E9009F702091EC00822F817020FD62
:1049E00080E8892B93E09093E9009091EB0090FF91
:1049F00004C09091EE0097FD08C08F708093E9008D
:104A00001092A70308951092F1009091E80095FD8F
:104A1000FACF9091E80090FFF0CF9091E8009E7758
:104A20009093E800EACF42E061EC81E00E94152813
:104A300042E261EC82E00E94152842E261EC83E0F0
:104A40000E9415289091E70381E0943009F080E0FE
:104A50006091E3030E94342308958091E903833039
:104A600009F461C030F48130D1F1823009F49EC084
:104A700008958A3009F48AC08B3009F46FC08930F8
:104A800009F050C08091E803813209F04BC0809159
:104A9000EC039091ED03029708F044C08091E80088
:104AA000877F8093E8008091E80082FF37C0909173
:104AB000F3008091F200029731F48091F10081308F
:104AC00011F0863021F48091F1008093C803809129
:104AD000E8008B778093E8000E94492823C08091EA
:104AE000E803813AF9F48091E800877F8093E80039
:104AF0008091EC039091ED03892B61F460E288EAE8
:104B000093E070E00E9458278091E8008B778093B3
:104B1000E800089560E090E080E0F3CF8091E70343
:104B20008111C1CF08958091E803813AD9F780912E
:104B3000EC039091ED03892BA9F78091E800877F22
:104B40008093E8008091E80080FFFCCF8091120103
:104B50008093F1008091E8008E77BCCF8091E803CC
:104B6000813201F78091EC039091ED03892BD1F60E
:104B70008091E800877F8093E8000E944928809117
:104B8000EA03809312010E94800C08958091E8034B
:104B9000813241F68091E800877F8093E8000E948F
:104BA00049288091EB038093C90308958091E8031D
:104BB000813A09F0B7CF8091E800877F8093E800C1
:104BC0008091E80080FFFCCF8091C903C1CF9FB7DF
:104BD000F8941092A7039FBF9091E703943009F0D7
:104BE00048C02091E9002F703091EC00932F917014
:104BF00030FD90E8922B23E02093E9002091EB0018
:104C000020FF34C02091EE0027FF30C02091A50383
:104C1000222321F02091E80025FF28C01092A5034F
:104C200026E03091E80035FF14C08093F1008091B8
:104C3000E80085FD27C08091E80080FFFCCF8091CF
:104C4000E8008E778093E8009F709093E90080E001
:104C500008953091E703343049F43091EB0035FD8D
:104C600005C0215041F481E08093A5039F7090938B
:104C7000E9008FEF0895EFE9FFE03197F1F700C009
:104C80000000CFCF8FB7F89421E02093A7038FBF08
:104C9000DBCF84B7877F84BF0FB6F894A895809147
:104CA0006000886180936000109260000FBE80E811
:104CB00090E00FB6F89480936100909361000FBE6E
:104CC0000E944D2308950E9499280E94F628E2EE42
:104CD000F0E080818460808378940E94742B089532
:104CE0008AE091E00E94822108958091E703853057
:104CF00051F487EE99E00E9403068091E703853026
:104D000019F00E94C82308950E949D238091E50315
:104D1000882399F30E945A23882379F30E94F3266B
:104D20000E94800CEACF08959A014091EE035091C1
:104D3000EF030E949C260895492F552743305105C3
:104D400021F168F44130510509F443C04230510566
:104D500009F444C090E080E050E040E026C04132D9
:104D6000510551F142325105A9F76330710590F7B1
:104D7000FB01EE0FFF1FE654FD4F40815181695446
:104D80007D4FFB01808190E010C099278130910513
:104D900081F0009729F00297E9F6EFEFF9E002C001
:104DA000E7E2FAE0849190E0AF01F901518340839A
:104DB0000895EFE0FAE0F6CF6330710558F6660F1C
:104DC000771FFB01E054FD4F4081518189E090E065
:104DD000ECCF82E190E046E85AE0E7CF8BE590E047
:104DE0004BE25AE0E2CF80E189BD82E189BD09B49E
:104DF00000FEFDCF8091D8008F7D8093D8008091F8
:104E0000E00082608093E0008091E00081FDFCCFB3
:104E10000895AF92BF92CF92DF92FF920F931F93AC
:104E2000CF93DF936C01EB018A010E946828F82E72
:104E3000811123C00115110539F0F801808191819C
:104E4000C81BD90BC80ED91EB12CA12C2097A9F0D4
:104E50008091E80085FD22C08091E8008E778093E4
:104E6000E80001151105A1F0F80180819181A80EDB
:104E7000B91EB182A08285E0F82E8F2DDF91CF91EF
:104E80001F910F91FF90DF90CF90BF90AF9008954A
:104E90000E9468288823D1F2F82EEFCFF601819185
:104EA0006F018093F1002197FFEFAF1ABF0ACECFB9
:104EB000FC018091EE039091EF0386179707A0F015
:104EC0006115710529F49091E8009E779093E800B0
:104ED00090E06115710551F4911108C08091E800CE
:104EE00082FF34C080E00895BC01F2CF8091E703D7
:104EF0008823C1F18530C1F18091E80083FD30C085
:104F00008091E80082FDEACF8091E80080FFE1CF48
:104F10008091F3002091F200382F6115710519F08E
:104F20002830310558F091E02830310509F090E043
:104F30002091E8002E772093E800CBCF81918093D9
:104F4000F100615071092F5F3F4FE7CF8091E70378
:104F5000882341F0853041F08091E80083FFBECF87
:104F600081E0089582E0089583E00895FC01809136
:104F7000EE039091EF0386179707A0F06115710576
:104F800029F48091E8008E778093E80090E0611525
:104F9000710551F4911108C08091E80082FF35C07D
:104FA00080E00895BC01F2CF8091E7038823C9F126
:104FB0008530C9F18091E80083FD31C08091E8001F
:104FC00082FDEACF8091E80080FFE1CF8091F3007D
:104FD0002091F200382F6115710519F02830310544
:104FE00058F091E02830310509F090E08091E80018
:104FF0008E778093E800CBCF84918093F100319637
:10500000615071092F5F3F4FE6CF8091E7038823FE
:1050100041F0853041F08091E80083FFBDCF81E011
:10502000089582E0089583E00895982F973028F03E
:105030008F708093E90081E008959093E900242F18
:10504000762F50E0981731F07091EC002091ED0030
:105050005091F00021FD02C09F5FE8CF3091EB003E
:105060003E7F3093EB003091ED003D7F3093ED00BB
:105070003091EB0031603093EB007093EC002093A3
:10508000ED005093F0002091EE0027FDE5CF80E089
:1050900008958091E80387FF13C08091E80082FFA4
:1050A00006C08091E8008B778093E80004C080916F
:1050B000E7038111F2CF08958091E7038823D9F3A4
:1050C0008091E80080FFF8CF8091E8008E77ECCFE8
:1050D0002091E4003091E50095E6A9012091EC00D3
:1050E000822F817020FF06C08091E80080FF06C0FB
:1050F00080E008952091E80022FD1AC08091E70326
:10510000882389F0853089F08091EB0085FD0FC000
:105110002091E4003091E50042175307F9F29150D5
:10512000E1F684E0089582E0089583E0089581E047
:1051300008950E9408290E941029E0EEF0E0808185
:1051400081608083E8EDF0E080818F77808319BCF7
:10515000A7EDB0E08C918E7F8C9380818F7E8083D1
:105160001092E60308950F931F93CF93DF930E944D
:1051700008290E941029C8EDD0E088818F778883A4
:1051800088818068888388818F7D888319BC10928C
:10519000E7031092E3031092E5031092E40300EE9C
:1051A00010E0F80180818B7F808388818160888313
:1051B00042E060E080E00E941528E1EEF0E08081AE
:1051C0008E7F8083E2EEF0E0808181608083808149
:1051D00088608083F80180818E7F808388818061F0
:1051E0008883DF91CF911F910F910895E8EDF0E052
:1051F00080818F7E8083E7EDF0E080818160808315
:1052000084E082BF81E08093E6030E94B328089582
:10521000E8EDF0E080818E7F80831092E2000895B7
:105220001092DA001092E10008951F920F920FB6CB
:105230000F9211242F933F934F935F936F937F931C
:105240008F939F93AF93BF93EF93FF938091E10070
:1052500082FF0BC08091E20082FF07C08091E100D5
:105260008B7F8093E1000E94D2248091DA0080FF3E
:1052700019C08091D80080FF15C08091DA008E7F20
:105280008093DA008091D90080FF96C080E189BDCB
:1052900082E189BD09B400FEFDCF81E08093E70380
:1052A0000E9496248091E10080FF19C08091E20065
:1052B00080FF15C08091E2008E7F8093E200809194
:1052C000E20080618093E2008091D8008062809348
:1052D000D80019BC85E08093E7030E94B624809132
:1052E000E10084FF2BC08091E20084FF27C080E1B1
:1052F00089BD82E189BD89B5982F917080FFFBCF70
:105300008091D8008F7D8093D8008091E1008F7EBE
:105310008093E1008091E2008F7E8093E200809193
:10532000E20081608093E2008091E303882309F426
:1053300049C084E08093E7030E94C3248091E10088
:1053400083FF29C08091E20083FF25C08091E100A6
:10535000877F8093E10082E08093E7031092E3036C
:105360008091E1008E7F8093E1008091E2008E7F4A
:105370008093E2008091E20080618093E20042E04D
:1053800060E080E00E9415288091F00088608093A2
:10539000F0000E94AF24FF91EF91BF91AF919F91D8
:1053A0008F917F916F915F914F913F912F910F90CE
:1053B0000FBE0F901F90189519BC1092E7030E9422
:1053C000A82470CF8091E30087FD93E09093E703DA
:1053D000B3CF1F920F920FB60F9211242F933F93CA
:1053E0004F935F936F937F938F939F93AF93BF93ED
:1053F000CF93DF93EF93FF93D091E900DF7080911B
:10540000EC00C82FC17080FDC0E81092E9008091C7
:10541000F000877F8093F00078940E942D2A1092EC
:10542000E9008091F00088608093F000CD2BCF7070
:10543000C093E900FF91EF91DF91CF91BF91AF91C0
:105440009F918F917F916F915F914F913F912F919C
:105450000F900FBE0F901F901895AAE2B0E0E3E303
:10546000FAE20C94C42B88EE93E02091F100FC0149
:105470002193CF01F3E0803F9F07B9F70E942D25CC
:105480008091E80083FF1EC18091E8039091E903B9
:105490009A3008F017C1E92FF0E0EA51F34D0C946F
:1054A000AF2B803899F0823809F00CC18091EC0361
:1054B0008F70873008F006C18093E9008091EB007F
:1054C00085FB882780F91092E90006C08091E403EB
:1054D0009091E503911182609091E800977F9093FD
:1054E000E8008093F1001092F1008091E8008E773F
:1054F000E5C0882309F4D3C0823009F0E3C080916D
:10550000EA038111D6C08091EC038F702FEF280F32
:10551000263008F0D7C08093E9002091EB0020FFEF
:10552000C8C0933031F48091EB0080628093EB002F
:10553000C0C09091EB0090619093EB0021E030E0CF
:1055400001C0220F8A95EAF72093EA001092EA0040
:105550008091EB008860EACF8111B4C01091EA031A
:105560001F778091E3008078812B8093E300809106
:10557000E800877F8093E8000E9449288091E80036
:1055800080FFFCCF8091E30080688093E30082E09D
:10559000111183E08093E70395C08058823008F0B2
:1055A00091C08091EA039091EB038C3D23E0920738
:1055B000A1F583E08A838AE289834FB7F894DE01FC
:1055C000139620E03EE051E2E32FF0E050935700C5
:1055D000E49120FF03C0E295EF703F5FEF708E2FE4
:1055E00090E0EA30C0F0C7968D939D932F5F2431F1
:1055F00059F74FBF8091E800877F8093E8006AE207
:1056000070E0CE0101960E9458278091E8008B77C8
:105610008093E80057C0C096E7CF6091EC0370918B
:10562000ED03AE014F5F5F4F0E949426BC01892BB2
:1056300009F448C09091E800977F9093E800898131
:105640009A810E94B627E1CF8038E1F58091E80089
:10565000877F8093E8008091E3038093F10045CF3A
:10566000811130C09091EA03923060F58091E8009A
:10567000877F8093E8009093E3030E9449288091FC
:10568000E303882311F084E005C08091E30087FDE7
:10569000FACF81E08093E7030E94132513C0809125
:1056A000EA03813079F481E0933009F080E080935F
:1056B000E5031092E9008091E800877F8093E8007D
:1056C0000E9449288091E80083FF0AC08091E80089
:1056D000877F8093E8008091EB0080628093EB00ED
:1056E000AA96E3E00C94E02BCF938091E703882304
:1056F000A1F0C091E900CF709091EC00892F8170EA
:1057000090FD80E8C82B1092E9008091E80083FDAD
:105710000E942D2ACF70C093E900CF910895991B64
:1057200079E004C0991F961708F0961B881F7A9598
:10573000C9F78095089597FB072E16F4009407D0BB
:1057400077FD09D00E94EC2B07FC05D03EF4909524
:1057500081959F4F0895709561957F4F0895EE0F45
:10576000FF1F0590F491E02D09942F923F924F92E4
:105770005F926F927F928F929F92AF92BF92CF92E1
:10578000DF92EF92FF920F931F93CF93DF93CDB7EA
:10579000DEB7CA1BDB0B0FB6F894DEBF0FBECDBF62
:1057A00009942A88398848885F846E847D848C8433
:1057B0009B84AA84B984C884DF80EE80FD800C813C
:1057C0001B81AA81B981CE0FD11D0FB6F894DEBF1F
:1057D0000FBECDBFED010895AA1BBB1B51E107C051
:1057E000AA1FBB1FA617B70710F0A61BB70B881F71
:1057F000991F5A95A9F780959095BC01CD01089500
:10580000FB01DC0104C08D910190801921F441500D
:105810005040C8F7881B990B0895FB01DC0102C0BA
:1058200001900D9241505040D8F70895F999FECF5C
:1058300092BD81BDF89A992780B50895A8E1B0E09E
:1058400042E050E00C945A2CDC01A40FB51F4150EB
:10585000504048F0CB01840F951F2E910E94352CAB
:1058600041505040D0F70895262FF999FECF92BDB0
:1058700081BDF89A019700B4021639F01FBA20BD15
:105880000FB6F894FA9AF99A0FBE08950396272F47
:105890000E94352C0E94342C252F0E94352C242F59
:1058A0000C94352C0196272F0E94352C0C94342C07
:1058B000DC01CB01FC01F999FECF06C0F2BDE1BDD0
:1058C000F89A319600B40D9241505040B8F70895BF
:1058D000F894FFCF6B0A6B0ABB0ABB0A200B3C0B88
:1058E0009A0A9A0A410BB20BC10BC10BD31AD71AF1
:1058F000E51AE91AEB1AED1AEF1AF11AB91C2D1D67
:10590000C11C8B1C8F1CC51C931CC91CD51C9F1C47
:10591000261DA31CD91CA71CDD1C051DAB1CE11CEE
:105920000C1DB11CE71CEF1C971CCD1C9B1CD11C33
:10593000B51CEB1CFB1C151D241D851CBD1C341D3A
:10594000A41F8F1FAB1F131F4C204C208A1F4C20FD
:105950004C20D71F4C20E71F32204C204C204C20DD
:105960004C2006204C204C20F71F4C20C21F4C20FE
:105970004C204A204A204A204A204A204A204A20D5
:105980004A204A2044204C20A41F831F4C204C2036
:105990004C204C204C204C204C204C204C204C20A7
:1059A00044204C204C208A1F4C204820482048206E
:1059B000482048204820482048204820442056219C
:1059C0005C2145215021622168216E21512A792ACA
:1059D000622B792A622BAC2ACD2A622B242B302B06
:1059E0004E03280850011E0A14013D2472246B2422
:1059F000642401E200E900EA00B500B600B700CD7A
:105A0000008301CC008A0192019401210223022427
:105A1000022502260227022A02B300B4006F00709A
:105A2000009F01CB019F02A002818283E200E90076
:105A3000EA00B500B600B700CD008301CC008A01B2
:105A40009201940121022302240225022602270248
:105A50002A02B300B4006F0070009F01CB019F02C7
:105A6000A002818283F7C267663635979694959334
:105A700092F6F5F4F13F3F3F006D6B5F64656C613A
:105A800079006D6B5F696E74657276616C006D6B29
:105A90005F6D61785F7370656564006D6B5F7469DD
:105AA0006D655F746F5F6D6178006D6B5F776865C2
:105AB000656C5F6D61785F7370656564006D6B5FC9
:105AC000776865656C5F74696D655F746F5F6D6144
:105AD00078000A092D2056657273696F6E202D0AB1
