:100000000C946B070C94B2070C94B2070C94B207D3
:100010000C94B2070C94B2070C94B2070C94B2077C
:100020000C94B2070C94B2070C94922C0C94642D8F
:100030000C94821E0C94B2070C94B2070C94B20775
:100040000C94B2070C94B2070C94B2070C94B2074C
:100050000C94B2070C94DB1E0C94B2070C94B207FC
:100060000C94B2070C94B2070C94B2070C94B2072C
:100070000C94B2070C94B2070C94B2070C94B2071C
:100080000C94B2070C94B2070C94B2070C94B2070C
:100090000C94B2070C94B2070C94B2070C94B207FC
:1000A0000C94B2070C94B2070C94B20792139213FB
:1000B000C413C41311142F14501550153A14CF142F
:1000C000E014E0144015501550154915FE15FE15A5
:1000D000101610160716101610161016FE15FE151F
:1000E0000C16101610160C16542542255B25E0231D
:1000F000302630263F2530263026882530269C2580
:1001000010263026302630263026CC2530263026C4
:10011000B92530267425302630262A262A262A2676
:100120002A262A262A262A262A262A262C26302647
:1001300054253725302630263026302630263026E6
:1001400030263026302630262C26302630263F25F5
:100150003026282628262826282628262826282627
:10016000282628262C26D12DF82DF02EF82DF02E1D
:10017000442E672EF02EBE2ECD2E14001A0009003C
:1001800013000500000000000D000F0018001C0007
:10019000330004001500160017000A0000000000DC
:1001A0001000110008000C0012001D001B000600CA
:1001B000070019002B412A000E000B003600370003
:1001C0003800290039642B01E100E000E30002510E
:1001D0002C00E1002D002E0028003A000000000055
:1001E0000000A900000000002D00240025002600CA
:1001F0002E000000000000000000AA000000000027
:100200002E02210022002300250200000000000031
:10021000AE00A80001002A0023021E001F002000DB
:100220003800105000001350E100E000E30000002F
:100230002C0036002700370028001E021F02200273
:1002400021022202000000002302240225023102C2
:1002500031002F02300226022702000000000000B9
:100260005000510052004F003400000000002F00E9
:10027000300000002B004C000000000000003502A0
:100280003402105000000000E100E000E300010033
:100290002C00E10000003500280014001A000800BE
:1002A00015001700000000001E001F0020002100A4
:1002B000220004001600070009000A0000000000E8
:1002C000230024005200250026001D001B0006000C
:1002D000190005002B002A000000500051004F00BB
:1002E000E0001050E2000453E100E0002C0029007F
:1002F0002C00E10000000000280014001A00080093
:1003000015001700000000001C0018000C0012006F
:10031000130004001600070009000A000000000096
:100320000B000D000E000F0033001D001B00060027
:10033000190005002B002A001100100036003700BC
:1003400038001050E2000100E100E000390029000F
:100350002C00E1002D003400280044454255473A66
:100360002064697361626C65642E0A0044454255DD
:10037000473A20656E61626C65642E0A000A0025AA
:1003800030313662003A200025303258000A722F90
:1003900063203031323334353637383941424344C3
:1003A00045460A00556E69636F646520696E707515
:1003B00074206D6F64652073657420746F3A202516
:1003C000750A00556E69636F646520696E70757497
:1003D000206D6F646520696E697420746F3A202502
:1003E000750A000A002530325820006B6579626F6B
:1003F0006172645F7265706F72743A20000A002542
:10040000303258006B6579626F6172645F73657436
:100410005F6C65643A200064656C5F6B65795F6250
:1004200069743A2063616E27742064656C3A2025F4
:100430003032580A006164645F6B65795F62697489
:100440003A2063616E2774206164643A202530325B
:10045000580A00290A002575002F002575005D281F
:100460000025640020002564002000256400200091
:100470002564007C0025303258006D6F7573656B04
:100480006579205B62746E7C782079207620685DC7
:10049000287265702F61636C293A205B006D6B5F79
:1004A000776865656C5F74696D655F746F5F6D61BA
:1004B00078203D2025640A006D6B5F776865656C68
:1004C0005F6D61785F7370656564203D2025640A07
:1004D000006D6B5F74696D655F746F5F6D6178202F
:1004E0003D2025640A006D6B5F6D61785F737065F8
:1004F0006564203D2025640A006D6B5F696E74653C
:100500007276616C203D2025640A006D6B5F646526
:100510006C6179203D2025640A006D6B5F7768650A
:10052000656C5F74696D655F746F5F6D6178203DA8
:100530002025640A006D6B5F776865656C5F6D618F
:10054000785F7370656564203D2025640A006D6BDB
:100550005F74696D655F746F5F6D6178203D202504
:10056000640A006D6B5F6D61785F73706565642010
:100570003D2025640A006D6B5F696E74657276615B
:100580006C203D2025640A006D6B5F64656C6179A9
:10059000203D2025640A000A00257500363A2077A0
:1005A0006865656C5F74696D655F746F5F6D6178B8
:1005B0003A20000A00257500353A20776865656C99
:1005C0005F6D61785F73706565643A20000A00258D
:1005D0007500343A2074696D655F746F5F6D617882
:1005E0003A20000A00257500333A206D61785F7368
:1005F000706565643A20000A00257500323A20696A
:100600006E74657276616C286D73293A20000A0059
:10061000257500313A2064656C6179282A31306D86
:1006200073293A20000A092D2056616C75657320E4
:100630002D0A004D3E004D25643E20003F007365AD
:10064000742064656661756C740A00433E2000770F
:10065000686572652064656C74613A2063757273B5
:100660006F723D25642C20776865656C3D25640AB2
:1006700053656520687474703A2F2F656E2E776904
:100680006B6970656469612E6F72672F77696B693A
:100690002F4D6F7573655F6B6579730A000A092DBD
:1006A000204D6F7573656B6579202D0A4553432F77
:1006B000713A09717569740A313A0964656C617936
:1006C000282A31306D73290A323A09696E746572CD
:1006D00076616C286D73290A333A096D61785F730E
:1006E000706565640A343A0974696D655F746F5F9B
:1006F0006D61780A353A09776865656C5F6D617878
:100700005F73706565640A363A09776865656C5F82
:1007100074696D655F746F5F6D61780A0A703A097C
:100720007072696E742076616C7565730A643A093B
:100730007365742064656661756C74730A75703ACC
:10074000092B310A646F776E3A092D310A7067758B
:10075000703A092B31300A7067646F776E3A092D51
:1007600031300A0A7370656564203D2064656C74DD
:1007700061202A206D61785F7370656564202A208E
:1007800028726570656174202F2074696D655F74CF
:100790006F5F6D6178290A003F004D3E2000433EA7
:1007A00020004C25640A0074696D65725F72656192
:1007B00064333228293A202530346C580A006B659E
:1007C000796D61705F636F6E6669672E6E6B726FB5
:1007D0003A2025580A006B6579626F6172645F691F
:1007E000646C653A2025580A006B6579626F617206
:1007F000645F70726F746F636F6C3A2025580A00E3
:10080000686F73745F6B6579626F6172645F6C654A
:10081000647328293A2025580A000A092D205374A8
:1008200061747573202D0A004743433A20352E34F6
:100830002E30204156522D4C4942433A20322E3020
:100840002E30204156525F415243483A2061767221
:10085000350A004F5054494F4E533A204C554641AB
:10086000204D4F5553454B45592045585452414B07
:10087000455920434F4E534F4C4520434F4D4D411A
:100880004E44204E4B524F20343039360A004255E8
:10089000494C443A2020284A616E203132203230BF
:1008A0003231290A005649443A2030783132303901
:1008B000284B6579626F617264696F2920504944E1
:1008C0003A20307832333033284174726575732999
:1008D000205645523A203078303030300A000A092C
:1008E0002D2056657273696F6E202D0A000A092D3E
:1008F00020436F6E736F6C65202D0A4553432F7133
:100900003A09717569740A6D3A096D6F7573656B93
:1009100065790A000A092D204D61676963202D0A57
:10092000443A094465627567204D65737361676574
:1009300020546F67676C650A583A094D6174726993
:1009400078204465627567204D6F646520546F6739
:10095000676C65202D2053686F77206B6579707206
:10096000657373657320696E206D61747269782098
:10097000677269640A4B3A094B6579626F61726408
:1009800020446562756720546F67676C65202D2071
:1009900053686F77206B6579707265737320726529
:1009A000706F72740A4D3A094465627567204D6F25
:1009B00075736520546F67676C650A563A0956650A
:1009C0007273696F6E0A533A095374617475730ACE
:1009D000433A09416374697661746520436F6E73AD
:1009E0006F6C65204D6F64650A46312D4631303A93
:1009F0000953776974636820746F204C617965725C
:100A000020302D392028463130203D204C30290A15
:100A1000302D393A0953776974636820746F204C1C
:100A20006179657220302D390A47524156453A099D
:100A300053776974636820746F204C617965722004
:100A4000302028616C7465726E617465290A423ABF
:100A5000094A756D7020746F20426F6F746C6F61FE
:100A60006465720A4553433A094A756D7020746F84
:100A700020426F6F746C6F616465722028616C74C2
:100A800065726E617465290A453A095072696E741F
:100A900020454550524F4D2053657474696E6773FD
:100AA0000A4253504143453A09436C6561722045FF
:100AB0004550524F4D0A4E3A094E4B524F20546FFB
:100AC00067676C650A000A002575002E6E6B726FF1
:100AD0003A20000A002575002E737761705F62610D
:100AE000636B736C6173685F6261636B7370616386
:100AF000653A20000A002575002E737761705F67E4
:100B0000726176655F6573633A20000A002575009F
:100B10002E6E6F5F6775693A20000A002575002EFA
:100B2000737761705F72616C745F726775693A2088
:100B3000000A002575002E737761705F6C616C741C
:100B40005F6C6775693A20000A002575002E73777F
:100B500061705F7263746C5F726775693A20000A36
:100B6000002575002E737761705F6C63746C5F6C29
:100B70006775693A20000A002575002E636170735D
:100B80006C6F636B5F746F5F636F6E74726F6C3AE0
:100B900020000A002575002E737761705F636F6E09
:100BA00074726F6C5F636170736C6F636B3A20007B
:100BB0000A0025303258006B65796D61705F636F94
:100BC0006E6669672E7261773A20000A002575000B
:100BD0002E6D6F7573653A20000A002575002E6B27
:100BE0006579626F6172643A20000A002575002EF3
:100BF0006D61747269783A20000A002575002E65CF
:100C00006E61626C653A20000A002530325800643B
:100C1000656275675F636F6E6669672E7261773AAA
:100C200020000A0025750064656661756C745F6C50
:100C3000617965723A20003F004E4B524F3A206F67
:100C400066660A004E4B524F3A206F6E0A000A6DDC
:100C50006F7573653A206F66660A000A6D6F75736B
:100C6000653A206F6E0A000A6B6579626F61726483
:100C70003A206F66660A000A6B6579626F6172647A
:100C80003A206F6E0A000A6D61747269783A206FBB
:100C900066660A000A6D61747269783A206F6E0A9E
:100CA000000A64656275673A206F66660A000A6426
:100CB000656275673A206F6E0A000A0A4A756D70A0
:100CC000696E6720746F20626F6F746C6F6164650A
:100CD000722E2E2E2000433E2000436C6561726907
:100CE0006E6720454550524F4D0A006565636F6E33
:100CF0006669673A0A005B735D004B6579626F61F4
:100D000072642073746172742E0A005B575D005B1D
:100D1000535D005B525D005B445D005B435D000E14
:100D20000341007400720065007500730000001636
:100D3000034B006500790062006F0061007200647F
:100D40000069006F0000000403090409025B00034E
:100D50000100A0FA090400000103010100092111AA
:100D60000100012240000705810308000A0904016F
:100D700000010300000009211101000122BC00074D
:100D800005820320000A0904020002030000000992
:100D90002111010001222200070583032000010721
:100DA00005030320000112011001000000080912D0
:100DB00003230000010200010631FF0974A10109AB
:100DC00075150026FF00952075088102097615002B
:100DD00026FF00952075089102C005010902A101B6
:100DE00085020901A1000509190129051500250140
:100DF0009505750181029501750381010501093091
:100E000009311581257F95027508810609381581FC
:100E1000257F950175088106050C0A380215812584
:100E20007F950175088106C0C005010980A1018573
:100E30000319012AB700150126B700950175108125
:100E400000C0050C0901A101850419012AA00215A1
:100E50000126A002950175108100C005010906A1B7
:100E6000018505050719E029E71500250195087595
:100E70000181020507190029EF1500250195F0757C
:100E80000181020508190129059505750191029551
:100E90000175039101C005010906A101050719E0CB
:100EA00029E715002501950875018102950175084E
:100EB00081010507190029FF150026FF0095067519
:100EC000088100050819012905950575019102950C
:100ED0000175039101C011241FBECFEFDAE0DEBF20
:100EE000CDBF04B603FE27C080919B0290919C0267
:100EF000A0919D02B0919E028730904BA740B04BCD
:100F0000D1F410929B0210929C0210929D021092BA
:100F10009E0214BE84B7877F84BF0FB6F894A8954D
:100F200080916000886180936000109260000FBE25
:100F3000E0E0F8E3099511E0A0E0B1E0E2E4FFE5CC
:100F400002C005900D92A03AB107D9F722E0A0EABD
:100F5000B1E001C01D92AB39B207E1F70E94C92987
:100F60000C949F2F0C940000FF93EF93E091A0014D
:100F7000F091A101309709F00995EF91FF91089543
:100F8000FC018591803011F0EFDFFBCF0895FF2742
:100F9000E0E230E247FF0CC0419597FF09C0EDE267
:100FA0006095709580959095611D711D811D911DB5
:100FB00027FF02C0219530E350E2AA27660F771F72
:100FC000881F991FAA1FA41710F0A41B63955A9598
:100FD000A9F7AA3008F0A95FA05DAF93F39561155A
:100FE00071058105910541F7ED3211F4EF93F39509
:100FF000F21718F43F93F395FBCF8F91B5DFFA9575
:10100000E1F70895E991F9918591803021F08532D9
:1010100019F0AADFF9CF089520E0E89455915532F0
:10102000C1F3503311F4689455915A3348F4505336
:1010300090F3220F022E220F220F200D250FF4CF46
:101040000EF4219589919991533619F3533729F16B
:10105000533559F1BC0188279927E8945C3621F46F
:101060008991999168945591543639F446EF7EF000
:1010700077FF0DC08FEF9FEF0AC055374AE039F078
:10108000583540E121F0523642E009F00895FF93CF
:10109000EF937DDFEF91FF91B7CFFF93EF93FC01CB
:1010A00081918030B9F360DFFBCFFF93EF9368DF6E
:1010B000F1CFDF93CF93CDB7DEB72596A3DFCF91E6
:1010C000DF9108959C013A9521153F4138F5DC01E7
:1010D000AA27B270AC01442754709C0122273870B3
:1010E00094FF0FC090FF02C080E101C080E0AB2BF5
:1010F00009F08062452B09F08064232B69F0806839
:101100000BC0892F8170AB2B09F08260452B09F051
:101110008460232B09F08860FB0109940895CF9324
:10112000DF93EC01805E9109089710F0209719F485
:101130006EE473E102C064EC75E1CE010E946208C6
:101140008C2FDF91CF910C942412CF93DF93EC017D
:101150000E94D312CE01805E9109089710F020976B
:1011600019F465E573E102C06BEC75E1CE01DF9126
:10117000CF910C946208CF93DF93EC010E948F080B
:10118000CE01DF91CF910C94A50881E0089581E014
:1011900008950C94C70808950C94CB081F93CF931F
:1011A000DF9300D000D01F92CDB7DEB749835A83BA
:1011B0006B833091B80189819A81311114C0662303
:1011C00059F0222349F00E94371B182F682F89817C
:1011D0009A810E94E01A03C00E940B1B182F69819C
:1011E0007A81812F04C00E94371B69817A810F9018
:1011F0000F900F900F900F90DF91CF911F910C9453
:10120000B409FC01262F4081518162817381848160
:101210000C94CE08CF93DF93EC0160E00E940109AB
:10122000BE01DF91CF910C94CC080E94141F0E9444
:101230009C1C811102C00E94431D0E94510D0C9400
:10124000190C0C94150C282F2F7041F0822F90E070
:101250002A3010F44D9608950697089587E290E09D
:10126000089508950E94EC150E9431092FEF84E340
:101270009CE0215080409040E1F700C000000C94B9
:10128000011F0F931F93CF93DF93EC0161E00E9446
:1012900001098C01BE010E94C908882309F449C0D4
:1012A000BE01C8010E94040E882309F442C0BE0199
:1012B000C8010E94930E8823E1F1BE01C8010E947B
:1012C000E50E8823B1F1BE01C8010E9410108823E9
:1012D00081F18A81882331F101308CE5180751F0C2
:1012E0000F3D8CE51807D9F001151C45D9F40E9473
:1012F00032091FC080913C02C82FC095C170C0FB4D
:1013000080F980933C02CC2329F08CE693E00E9484
:10131000C0070FC08AE593E00E94C0070BC00E947F
:10132000431D07C0CE01DF91CF911F910F910C9407
:10133000C508C0E08C2FDF91CF911F910F910895C8
:1013400008950C94A00981E008950C94A309CF930B
:10135000C82F0E94A1098C2F0E94A509CF91089542
:1013600080E090E00895089520E3829FC001112459
:10137000FC012CE0729FE00DF11D1124E60FF11D20
:10138000EE0FFF1FE658FE4F859194910895880F48
:10139000991FFC01E358FC4F859194910895CF93D8
:1013A000DF930E94B4090E94E70AEC018115904581
:1013B00008F041C0C11580E4D80708F0D1C0C83E8C
:1013C000D10510F5C03ED10508F0FDC0C83AD105E1
:1013D00078F4C53AD10508F0A2C0C130D10509F4AE
:1013E000F2C008F4EEC0C430D10508F0ECC0E9C08A
:1013F000CF3BD10508F49BC0C03CD10508F4E1C047
:10140000CE01805C91099EC0C11590E2D90758F4C5
:10141000C11521E0D20708F0D6C0C03FD10508F4BD
:10142000D0C0D065D0C0C11580E3D80708F08EC009
:10143000CE019F7087C0C11595E5D90708F043C05C
:10144000C11524E5D20708F0A2C0C11582E5D8076E
:1014500008F5C11591E5D90708F085C0CE0174E003
:10146000969587957A95E1F783709C2F937021E08C
:1014700030E002C0220F331F9A95E2F73C68382B08
:10148000CF70C695C69580E2C89FE0011124C22B9B
:10149000D32B99C09E01237033278C2F8695869578
:1014A000C115D34508F064C0C1E0D0E002C0CC0F44
:1014B000DD1F2A95E2F720E2829FC0011124C82B8C
:1014C000D92BDC6880C0C11529E5D207A0F4C1156D
:1014D00088E5D80708F060C0C11596E5D90708F07F
:1014E00070C08C2F0E947B0B8F71C82FD0E0DC2F37
:1014F000CC27D06268C0C1152AE5D20708F451C0D4
:10150000CE0190568115904208F05BC08D2F8F71EF
:101510000E947B0BDD27D0628F71D82B54C0C55A37
:10152000D0E0CD5BDE4FC881D0E0D0644CC0C85A5B
:10153000D0E0CC0FDD1FCB5EDE4F0990D881C02DEF
:10154000D46441C00E94C709EC013DC0CE01992777
:10155000D3FF03C0EC01D86C36C0EC01D06C33C0B3
:10156000DF70D06A30C0DC2FCC27C16FD06A2BC0AF
:10157000C1E0D0E002C0CC0FDD1F2A95E2F720E2E7
:10158000829FC0011124C82BD92BDA681CC0DC2F24
:10159000CC27C46FD06A17C0DC2FCC27C06FD06AAD
:1015A00012C08C2F8F700E947B0B94E0D695C7954C
:1015B0009A95E1F7CF70D0E0DC2FCC27D069C82B0B
:1015C00002C0C0E0D0E0CE01DF91CF910895823813
:1015D000910569F1B0F48133910509F46DC048F4C7
:1015E0008932910509F463C08A32910509F469C012
:1015F00008958533910509F455C089339105B9F0F3
:101600000895833E910569F138F4803E9105B1F06B
:10161000823E910509F10895863E9105A9F1873E24
:101620009105B9F1843E910509F064C023C0209171
:101630008C0220FD4FC021FD4DC0089580918C0289
:1016400080FD44C080918D0280FF44C080918C0257
:1016500084FD42C083EE4DC080918C0282FF38C071
:10166000F5CF80918C0282FD33C080918D0280FD88
:1016700031C0ECCF80918D0281FF32C080918C020D
:1016800084FD2AC087EE35C080918C0283FF26C07E
:10169000F5CF80918C0283FD21C080918D0281FD68
:1016A0001FC0ECCF80918C0285FD1CC01DC08091B5
:1016B0008C0285FD19C016C080918C0286FD16C073
:1016C00017C080918C0286FD13C010C089E311C041
:1016D00082EE0FC080EE0DC080E00BC086EE09C028
:1016E00084EE07C089E205C085E303C08AE201C039
:1016F00081E390E0089590918C0292FF0DC0282F15
:101700002871283019F4877F846006C0282F24713F
:10171000243011F48B7F886093FF0DC0282F28712F
:10172000283119F4877E846106C0282F2471243162
:1017300011F48B7E886120918D0220FF0DC0382F1F
:101740003871383019F4877F816006C0382F3171C5
:10175000313011F48E7F886021FF0DC0282F287151
:10176000283119F4877E816106C0282F217121312B
:1017700011F48E7E886194FD877E0895E82FF0E055
:10178000EE0FFF1FE658FD4F808191810895CF92A3
:10179000DF92EF92FF920F931F93CF93DF938DE829
:1017A00093E00E94C0078AE7E82E82E0F82EC0E0AE
:1017B000D0E098E8C92E93E0D92E0FE713E0DF932D
:1017C000CF93DF92CF920E94590885E893E00E9460
:1017D000C007F701819191917F010E94831C9F9323
:1017E0008F931F930F930E9459088DE793E00E94F7
:1017F000C00721968DB79EB708960FB6F8949EBF86
:101800000FBE8DBFC430D105D1F6DF91CF911F91AE
:101810000F91FF90EF90DF90CF90089580EA8A9526
:10182000F1F7089508950C94120C0C94130C0C9479
:10183000120C0C94170CF894E82FE295EF70F0E07E
:1018400031A1282F2F7081E090E001C0880F2A95E8
:10185000EAF7982F9095932391A392A1892B82A3C5
:10186000789408950F931F93CF93DF9386EF0E9490
:101870001B0C85EF0E941B0C84EF0E941B0C81EF58
:101880000E941B0CC6E4D1E002E511E089910E94A0
:101890001B0C0C171D07D1F71092730210927202E5
:1018A00010927B0210927A021092750210927402CA
:1018B00010927D0210927C021092770210927602B2
:1018C00010927F0210927E0210927902109278029A
:1018D000109281021092800284E00E94010DDF913B
:1018E000CF911F910F910C9415097F928F929F9227
:1018F000AF92BF92CF92DF92EF92FF920F931F931E
:10190000CF93DF93C2E5D1E082E7A82E82E0B82E24
:101910009AE7E92E92E0F92E712C01E010E06E01B9
:101920008881F894E82FE295EF70F0E021A18F70A4
:10193000A80102C0440F551F8A95E2F7CA01922FF1
:10194000982B91A392A18095892382A378940E94D9
:101950000E0CE6E4F1E020E030E0812C912C419186
:10196000A42FA295AF70B0E090968C9190E04F704C
:1019700002C0959587954A95E2F780FD08C0C80199
:10198000022E02C0880F991F0A94E2F702C080E07D
:1019900090E0882A992A2F5F3F4F2C303105F9F6C5
:1019A0002196F60180810E941B0CF50180819181B6
:1019B0008816990621F09182808281E001C080E042
:1019C000782AF2E0AF0EB11CEA14FB0409F0A7CFAD
:1019D000272D44E06AE772E082E792E00E94020D60
:1019E0000E942109872DDF91CF911F910F91FF90C8
:1019F000EF90DF90CF90BF90AF909F908F907F90AF
:101A000008950895FF920F931F93CF93DF93F82EBD
:101A1000092F162FD72FC42F222349F081E080935E
:101A2000A4010E94B41E9093A3018093A20180910F
:101A3000A4018823D9F08091A2019091A3010E9472
:101A4000CC1E069798F0EF2DF02FA12FBD2F80E030
:101A500090E04C2F50E08417950734F42191319198
:101A60002D933D930196F7CF1092A401DF91CF9172
:101A70001F910F91FF900895CF93DF9397FF0DC0B3
:101A8000FB012281222349F0EC010E94900DCE013E
:101A90009F770E94E70D0E94C90D81E0DF91CF91F1
:101AA00008958CE090E00E945D2F90E0A0E0B0E00F
:101AB0008093820290938302A0938402B093850264
:101AC00080913C0280FF0EC0809182021F928F9312
:101AD00083EC93E09F938F930E9459080F900F908F
:101AE0000F900F900895609182028CE090E00C942A
:101AF0006B2F809382020E94730D80913C0280FFC5
:101B00000EC0809182021F928F9384EA93E09F938C
:101B10008F930E9459080F900F900F900F90089587
:101B20000E94521086958170809387029091820264
:101B3000913029F4882319F089E30E943B130E9415
:101B4000B81B809386020E94CB1B80918202813059
:101B500071F048F0823081F08430A1F486EE0E946A
:101B60003B1388E10DC082EE0E9424120BC088E175
:101B700093E00E94BB0806C082EE0E94241287E513
:101B80000E943B138FE39CE90197F1F700C000002E
:101B9000089580918202813039F078F0823069F0C6
:101BA000843089F488E20DC08CE20E943B1380915E
:101BB0008702882341F089E304C082EE0E94D31299
:101BC00002C00E943B13809186020C94C81B0F93A5
:101BD0001F93CF93DF938C01CCE0D0E0C8010C2E93
:101BE00002C0969587950A94E2F78F700E942309A8
:101BF0000E94BB082497CC3F8FEFD80779F7DF917D
:101C0000CF911F910F9108950F931F93CF93DF935F
:101C1000EC018B01FB018281882351F00E94B81BEB
:101C2000CE01825E9C458530910510F40E94790DAD
:101C3000B801CE01DF91CF911F910F910C943C0D13
:101C40000F931F93CF93DF93C42FD22FFC01828178
:101C50008823C9F04093A7010E94B41E9093A60167
:101C60008093A50180E28C0F883008F057C0C770C0
:101C700081E001C0880FCA95EAF7DF91CF911F91EB
:101C80000F910C944E138091A701481330C080919E
:101C9000A5019091A6010E94CC1E883C910538F5C3
:101CA00010E21D0FCD17B9F080E28C0F883040F4A0
:101CB000C77081E001C0880FCA95EAF70E945513EA
:101CC000183028F581E09D2F977001C0880F9A95F4
:101CD000EAF70E944E13802F0E943B131830F0F455
:101CE000D77081E001C0880FDA95EAF70AC080E278
:101CF0008C0F883098F4C77081E001C0880FCA95B6
:101D0000EAF7DF91CF911F910F910C945513802F1B
:101D1000DF91CF911F910F910C943B13DF91CF91E5
:101D20001F910F9108950F939C01CB01243F4CE527
:101D3000340731F188F4293DFCE53F07D9F02A3D0D
:101D40004CE5340779F1283D3C45A9F506E221EE42
:101D500041EE68ED7CE52BC0263FFCE53F07E1F056
:101D6000A8F0273F3C4539F507E225EE46EE67EF40
:101D70007CE51DC007E225EE45EE69ED7CE517C068
:101D800006E221EE40EE64EF7CE511C007E225EEAD
:101D900044EE65EF7CE50BC006E221EE42EE66EF15
:101DA0007CE505C008E221E045EE6AED7CE50E9495
:101DB000200E80E008C0FC018281882319F0109277
:101DC000A70101C081E00F910895CF93DF93EC014B
:101DD000FB018281882309F41FC1C230FCE5DF07C3
:101DE00008F41BC1C6319CE5D90738F09E012B5F72
:101DF0003C452930310508F010C10E94AF1C90937A
:101E00008D0280938C02C031ECE5DE0709F4C3C07B
:101E100008F041C0C8308CE5D80709F49AC0F0F446
:101E2000C430ECE5DE0709F487C068F4C2308CE505
:101E3000D80709F477C0C330DC4509F0E3C08091CE
:101E40008C02826076C0C630ECE5DE0709F46EC015
:101E500008F07BC080918C0288606BC0CC308CE530
:101E6000D80709F485C068F4CA30ECE5DE0709F448
:101E700074C008F079C00E94EC1580918C028068D3
:101E800058C0CE308CE5D80709F476C008F07FC082
:101E900080918C028BC0CC3FECE5DE0709F44FC08B
:101EA00018F5C3318CE5D80709F47DC078F4C13149
:101EB000ECE5DE0709F473C0C231DC4509F0A2C0CD
:101EC0000E94EC1580918C028F7733C0C5318CE570
:101ED000D80709F472C008F486C0CB3FDC4509F08E
:101EE00091C080918D023EC0C115FDE5DF0709F468
:101EF0005FC058F4CE3F9CE5D90709F444C008F40C
:101F00003FC080918D0282602DC0C230FDE5DF07A9
:101F100009F475C008F45DC0C330DD4509F072C036
:101F200080E06EC080918C02816003C080918C0241
:101F3000806180938C0266C080918C0211C0809178
:101F40008D02826080938D025DC080918C028062E0
:101F5000F0CF80918C028064ECCF80918C028860FD
:101F60008460E7CF8160EECF80918C028E7FE1CFDD
:101F700080918C028D7FDDCF80918C02877FD9CFBD
:101F800080918D0218C080918D028D7FDBCF809172
:101F90008C028F7ECECF80918C028F7DCACF8091B4
:101FA0008C028F7BC6CF80918C02877F8B7FC1CFC5
:101FB00080918D028D7F8E7FC5CF80918C0282FBB8
:101FC000222720F991E0922790FB82F990FB83F978
:101FD000B0CF80918D02982F909591708E7F892B34
:101FE00090FB81F9AFCF0E94EC1580918C0287FBAA
:101FF000222720F991E0922790FB87F99ACF81E080
:102000000E94451D80918C0290918D020E94C01CFF
:102010000E94EC1580E001C081E0DF91CF9108952E
:10202000CF93DF9386319C4541F5EB010E94B81BAD
:10203000982F8A812091000130910101882379F045
:102040009A7A81E009F480E08093A801911102C09E
:1020500069E201C065E3C9010E94021E0AC08091C5
:10206000A801811102C069E201C065E3C9010E94B3
:102070000D1E0E94091C80E001C081E0DF91CF911C
:1020800008959093AE018093AD010895E091AD0164
:10209000F091AE01309721F00190F081E02D09948C
:1020A00080E00895E091AD01F091AE01309711F418
:1020B00080E008950190F081E02D09950895EF9258
:1020C000FF921F93CF93DF93FC01A091AD01B091DC
:1020D000AE01109709F442C080911401882341F0A9
:1020E00080918C0287FF04C08081818385E080839A
:1020F000EF011296ED91FC911397CE010995809115
:102100003C0282FF2BC080FF04C08BEE93E00E9454
:10211000C00718E085EEE82E83E0F82E80913C029F
:1021200080FF0BC088811F928F93FF92EF920E94D5
:1021300059080F900F900F900F9011502196111188
:10214000EDCF80913C0280FF09C083EE93E0DF91E8
:10215000CF911F91FF90EF900C94C007DF91CF912A
:102160001F91FF90EF900895E091AD01F091AE01C5
:10217000309739F022E0DC012C930480F581E02DCA
:10218000099408952091AB013091AC0128173907CB
:1021900071F09093AC018093AB01E091AD01F091AF
:1021A000AE01309721F00680F781E02D0994089563
:1021B0002091A9013091AA012817390771F0909355
:1021C000AA018093A901E091AD01F091AE01309791
:1021D00021F00084F185E02D0994089585B7806889
:1021E00085BF85B7806885BF089581E008950C9408
:1021F000F51008950C94F9100C94F9100C94FC103F
:102200000C94F9100C9400110C94F9100E94EE102B
:102210000E9404110C9402110E94AB1E0E94320C09
:102220000E94281F0C94FE10CF93C82F80913C026F
:1022300082FF1EC080FF04C084E094E00E94C007BB
:1022400080913C0280FF0CC01F92CF938FEF93E0F0
:102250009F938F930E9459080F900F900F900F90AB
:1022600080913C0280FF04C08DEF93E00E94C00784
:102270008C2FCF910C94A7097F928F929F92AF924F
:10228000BF92CF92DF92EF92FF920F931F93CF9363
:10229000DF93CDB7DEB72A970FB6F894DEBF0FBE37
:1022A000CDBF0E94FA100E94F9100E94750C0E9486
:1022B000F710811111C08FEF89838A831B820E94DE
:1022C000B41E8160782F9D838C8349815A816B81F4
:1022D0008D810E94F0114FC040EBA42E41E0B42E3E
:1022E00000E010E0702E802F0E94BE0B6C01F50103
:1022F000819091905F01882699268114910431F490
:102300000F5F1F4F0430110569F7D5CF80913C0254
:1023100081FD0E94C70B80E0EE24E394F12C940130
:102320002E213F21232B09F18E837F82CE20DF20B7
:1023300081E0CD2809F480E088870E94B41E816086
:10234000782F9A8789874E815F8168858A850E9468
:10235000F011000F111FF801E055FE4F80819181AF
:10236000E826F926F182E08206C08F5FEE0CFF1CA2
:102370008C30A9F6C5CF0E9459210E944610909139
:10238000AF018917C9F00E9446108093AF012A96C9
:102390000FB6F894DEBF0FBECDBFDF91CF911F9176
:1023A0000F91FF90EF90DF90CF90BF90AF909F90F4
:1023B0008F907F900C9414112A960FB6F894DEBF7C
:1023C0000FBECDBFDF91CF911F910F91FF90EF9086
:1023D000DF90CF90BF90AF909F908F907F900895A7
:1023E000CF93DF93CDB7DEB72B970FB6F894DEBF50
:1023F0000FBECDBF4F83588769877A878B87DE01F1
:10240000119686E0FD0111928A95E9F785E0FE01BB
:10241000379601900D928A95E1F749815A816B8137
:102420007C818D819E810E94A5182B960FB6F89411
:10243000DEBF0FBECDBFDF91CF910895FC0180813B
:1024400091810E94791B0895CF93882309F4A9C034
:10245000C82F8238C1F40E94461081FDA2C069E3F2
:1024600080910001909101010E94021E0E94091CAE
:102470002FEF81EE94E0215080409040E1F700C0C2
:10248000000069E319C0833801F50E94461080FD01
:1024900088C063E580910001909101010E94021EB5
:1024A0000E94091C2FEF81EE94E021508040904063
:1024B000E1F700C0000063E5809100019091010107
:1024C0000E940D1ECF910C94091C8438C1F40E9407
:1024D000461082FD66C067E4809100019091010181
:1024E0000E94021E0E94091C2FEF81EE94E02150F1
:1024F00080409040E1F700C0000067E4DDCF8CEF42
:102500008C0F813AF8F48C2F0E944826811149C023
:102510006C2F80910001909101010E94601D882321
:1025200049F06C2F80910001909101010E940D1ED5
:102530000E94091C6C2F80910001909101010E9462
:10254000021EC0CF80E28C0F883048F4C77081E053
:1025500001C0880FCA95EAF70E94BB1BB3CFEBE519
:10256000EC0FE33040F4F0E0EC57FE4F808190E058
:10257000CF910C94C210E8E5EC0FE73150F4F0E095
:10258000EE0FFF1FEA5AFE4F80819181CF910C948C
:10259000D810C03F30F08C2F0E94CC1FCF910C94EC
:1025A000B920CF910895882309F464C0823879F462
:1025B0000E94461081FF5EC069E380910001909106
:1025C00001010E94021E0E94091C69E310C08338A9
:1025D000B1F40E94461080FF4DC063E58091000178
:1025E000909101010E94021E0E94091C63E58091E6
:1025F0000001909101010E940D1E0C94091C843869
:1026000079F40E94461082FF35C067E48091000192
:10261000909101010E94021E0E94091C67E4E7CF0D
:102620009CEF980F913A10F4682FE1CF90E2980F49
:10263000983050F4877091E001C0990F8A95EAF7BD
:10264000892F0E94C11BD9CF9BE5980F933020F4AE
:1026500080E090E00C94C21098E5980F973120F438
:1026600080E090E00C94D810803F20F00E9434204D
:102670000C94B9200895CF93C82F0E942412C93317
:1026800049F42FEF87EE93E0215080409040E1F72E
:1026900000C000008C2FCF910C94D312882321F01E
:1026A0000E94BB1B0C94091C0895882321F00E94F2
:1026B000C11B0C94091C0895CF92DF92EF92FF92F8
:1026C0000F931F93CF93DF937C01062FC72FFC013D
:1026D000158112951F70D281D1110E94DB1B0E94BF
:1026E000B11B882399F0DD2389F08C2F807F803403
:1026F00021F080E2800F883048F082E00E94531C75
:102700000E94B11B91E0D82ED92601C0D12CCC2E2D
:10271000C2948FE0C8228C2D90E0FC01EA5AFF4F52
:102720000C94432F8C2F807FCF70882311F0C2959B
:10273000C07FDD2399F0CC2309F48DC180E2800FA6
:10274000883010F0011104C08C2F0E94BB1B03C005
:102750008C2F0E94CE1B0E94091C7DC1802F0E94DD
:10276000D312CC2309F49CC180E2800F883010F092
:10277000011104C08C2F0E94C11B03C08C2F0E942A
:10278000D41B0E94091C8CC18C2F807FCF7080329B
:1027900011F0C295C07F002319F00130C9F022C0AA
:1027A000DD2371F0112341F0113031F40E94EE1B52
:1027B0008C2B0E94F61B74C10E94EE1B8C2B1DC03B
:1027C000112319F0113009F46BC10E94FF1B25C0C1
:1027D000DD2321F0163008F063C10EC0153008F07B
:1027E0005FC11BC0DD2361F0112331F0F70185814A
:1027F00080FF31C18F7085838C2F0E944E1350C192
:10280000112359F0093309F037C1FFEF27EE83E0B8
:10281000F15020408040E1F72DC18C2F0E945513CC
:102820003FC18C2F86958695837019F0813061F0B9
:1028300037C1DD2321F0802F9C2F937002C080E0F0
:1028400090E00E94C21034C1DD2321F0802F9C2F24
:10285000937002C080E090E00E94D81029C1802FC0
:10286000DD2319F00E94CC1F02C00E9434200E9478
:10287000B9201EC18C2F837009F045C0D11114C13D
:10288000402F429546954770440F440F602F6F705C
:10289000862F90E0A0E0B0E0042E04C0880F991FBE
:1028A000AA1FBB1F0A94D2F704FF10C00FE010E06C
:1028B00020E030E004C0000F111F221F331F4A9593
:1028C000D2F7009510952095309503C000E010E0F8
:1028D0009801C695C695C370BC01CD01602B712BC4
:1028E000822B932BC23049F058F4C13019F00E946A
:1028F000F619DAC00E94E419D7C00E94081AD4C0A1
:102900000E94E219D1C0DD2319F08C2F817001C023
:102910008695882309F4C8C0402F42954695477094
:10292000440F440F602F6F70862F90E0A0E0B0E05E
:10293000042E04C0880F991FAA1FBB1F0A94D2F748
:1029400004FF10C00FE010E020E030E004C0000FF2
:10295000111F221F331F4A95D2F70095109520951D
:10296000309503C000E010E09801C695C695C3708D
:10297000BC01CD01602B712B822B932BC23049F00F
:1029800058F4C13019F00E94BB1A8EC00E94A91AD7
:102990008BC00E94CD1A88C00E941C1A85C0CF70BF
:1029A000DD2339F08C2F0E94421A802F0E944E1393
:1029B0007BC0802F0E9455138C2F0E94631A74C015
:1029C000023F01F128F4003F41F0013FA1F03FC078
:1029D000033FF9F0043F39F13AC0DD2341F01530EF
:1029E00008F05EC08C2F8F710E94881A59C0163073
:1029F00008F056C0F7CFDD2339F08C2F8F710E947D
:102A0000421A4EC0DD23C9F38C2F8F710E94631AC6
:102A100047C0DD2329F08C2F8F710E942D1A40C0F2
:102A20000E94281A3DC0DD2349F0CF718C2F0E94EF
:102A3000421A63E08C2F0E943E1C32C081E00E944B
:102A4000531C123068F182E00E94531C29C0DD2320
:102A500031F0112391F2802F0E94241221C0112302
:102A600099F2093349F49FEFE7EEF3E09150E0402B
:102A7000F040E1F700C00000802F0E94D31210C088
:102A80004C2F4F70602FC7010E94B0090E9453194C
:102A90000FC04C2F4F70602FC7010E94B30908C0B0
:102AA00088EF8C0D843020F40E9446100E94A70904
:102AB000DD20C9F00E94AD1B80FD15C0F701128218
:102AC0000E94A71B0E94421AC7010E9494150E94EF
:102AD000A71BDF91CF911F910F91FF90EF90DF9097
:102AE000CF900C94631ADF91CF911F910F91FF90BB
:102AF000EF90DF90CF9008950F931F93CF93DF93C4
:102B0000EC01688179818A810E94841B8C010E947A
:102B1000DF1A0E94D019B801CE010E945C13DF9128
:102B2000CF911F910F910895CF93DF93EC0198817E
:102B300089812B813C81232B31F08F3F31F481E05F
:102B40009F3F19F403C081E001C080E080FD19C0FF
:102B5000CE010E94410981110CC00E94B11B882343
:102B600081F08A81882369F082E0DF91CF910C9413
:102B7000531CCE010E947C15CE01DF91CF910C94A5
:102B80000A09DF91CF910895882321F00E94CE1B7E
:102B90000C94091C0895882321F00E94D41B0C94E6
:102BA000091C08950E94DB1B0E94EB1B0E94091C5C
:102BB0000E946C220E94B92080E090E00E94C21026
:102BC00080E090E00C94D810809100019091010178
:102BD0000E94181E0C94D2150E94CB1B0C94E41575
:102BE000E92FE295EF704E2F50E0FA013297EE3068
:102BF000F105B0F4EA59FF4F0C94432F803F91F058
:102C000018F4883E68F40EC0843F51F40BC0883E2F
:102C100048F0813F29F406C093FB882780F9089586
:102C200080E0089581E008950E94791B0E94F015CC
:102C30000895CF93DF9300D000D01F92CDB7DEB7B9
:102C40000F900F900F900F900F90DF91CF910895FC
:102C5000CF93DF9300D000D000D0CDB7DEB726965B
:102C60000FB6F894DEBF0FBECDBFDF91CF910895B0
:102C70001F93CF93DF93C091B90116E08091BA0101
:102C8000C81799F0D0E01C9FF0011D9FF00D112492
:102C9000E554FE4F40815181628173818481958129
:102CA0000E9428162196C770E9CFDF91CF911F911E
:102CB00008954091EB015091EC016091ED0170910C
:102CC000EE018091EF019091F0010C9428160F9382
:102CD0001F93CF93DF938091F00182958F7009F05D
:102CE0005DC08091ED01882309F458C08091B9013D
:102CF0001091BA016091EB017091EC01C091EE016D
:102D0000D091EF0191E06F3F09F090E0292F06E0AC
:102D1000811709F443C0209721F07F3F21F030E074
:102D200003C031E001C0322F90E030FD34C0089F75
:102D3000F001099FF00D1124DF01A554BE4F11963B
:102D40003C911197371327C03C91361324C012963B
:102D50003C91129731111FC013964D915C911497BD
:102D60004C1B5D0B483C5105B0F48091F0018F7015
:102D700080618093F001E054FE4F80818F7080610C
:102D800080838BEE91E00E949415DF91CF911F918B
:102D90000F910C94381601968770BACFDF91CF91BE
:102DA0001F910F9108959F92AF92BF92CF92DF92A1
:102DB000EF92FF920F931F93CF93DF93CDB7DEB7C0
:102DC00061970FB6F894DEBF0FBECDBF8C0185E0D2
:102DD000F801DE011D9601900D928A95E1F7F80148
:102DE00040815181E2809091EB016091EC01209152
:102DF000EE013091EF012115310531F06F3F31F4D3
:102E000081E09F3F19F403C081E001C080E0F82F0A
:102E1000F1709F2E80FD46C1F801A380B4808BEE37
:102E2000C82E81E0D82EF090ED01F501E21BF30BE6
:102E3000FF2009F4DFC08091F001E83CF10508F0C3
:102E40009BC0282F207F09F052C0561313C049138E
:102E500011C0FE2CE1100EC08F7080618093F001D4
:102E60000E945916C6010E9494158091F001F80144
:102E7000858358C1AB2831F05F3F31F481E04F3F8B
:102E800019F403C081E001C080E080FD03C081E04F
:102E90008E2502C080E090E0F82FF170FF2E80FFB9
:102EA0001CC08091B9012091BA0136E0821709F463
:102EB00017C190E0389FF001399FF00D1124E554BF
:102EC000FE4F6181561306C06081461303C06281C4
:102ED000E61203C001968770E9CFFE2CEE2009F4BC
:102EE00021C18091F00181608093F0015AC0561396
:102EF00006C0491304C0E11002C0F8019FC04D870D
:102F00005E878D859E850E941416882379F1EE20B8
:102F100069F12091F001822F82958F7090E00297E5
:102F200074F08091EB019091EC0198878F83198662
:102F3000BB86AA862C87CE0107960E94941586E050
:102F4000F801ABEEB1E001900D928A95E1F70E9495
:102F500067160E9459160DC0561729F14D875E87D6
:102F60008D859E850E94141681112CC0C8010E9477
:102F70009415FF24F394D6C0282F207F69F77A2D6B
:102F8000B98AA88A6E2D89890E9419168BEE91E064
:102F90000E94941586E0F60111928A95E9F70E9445
:102FA0005916F12CBFC04913D9CFE110D7CFF80182
:102FB0008583C8010E94941586E0F60111928A95D6
:102FC000E9F7B0C0EE2091F22091F001822F8295B6
:102FD0008F7090E002970CF4B2CF8091EB0190914A
:102FE000EC019A8389831B82BD82AC822E83CE0141
:102FF0000196A3CFE83CF10508F047C0FE2CEE2077
:1030000009F4B4CF561330C049132EC02091F001FB
:1030100020FD21C0822F82958F70482F50E04115EE
:103020005105C9F0F80125834F30510541F08F5FFC
:10303000982F9295907F822F8F70892B8583C8015E
:103040000E94941586E0F801ABEEB1E001900D927C
:103050008A95E1F742C086E0F801ABEEB1E001905D
:103060000D928A95E1F75EC04D875E878D859E85BE
:103070000E941416811163CF8091F00181608093CA
:10308000F001C8010E9494154DC07A2DB98AA88A12
:103090006E2D89890E94191686E0F60111928A9593
:1030A000E9F71BC0EE2009F461CF4D875E878D855F
:1030B0009E850E941416F82E882309F457CF86E0C7
:1030C000F801ABEEB1E001900D928A95E1F78BEE3D
:1030D00091E00E941E120E9467160E94591622C09B
:1030E0004D875E878D859E850E94791B292F2295AD
:1030F0002F70223028F49F7039F0811105C00BC069
:10310000243028F49F7049F4805E883020F0C80194
:103110000E9494159F2CF92C05C0F8019581907F91
:1031200099F7F9CF8F2D61960FB6F894DEBF0FBED9
:10313000CDBFDF91CF911F910F91FF90EF90DF9066
:10314000CF90BF90AF909F9008951F93CF93DF9340
:10315000CDB7DEB72C970FB6F894DEBF0FBECDBF4C
:103160004F83588769877A878B879C87CE0107961C
:103170000E94D3168823D1F09F8188852A853B85BC
:10318000232B31F08F3F31F481E09F3F19F403C0CE
:1031900081E001C080E080FD47C04F81588569858E
:1031A0007A858B859C850E9428163EC086E0FE01AC
:1031B0003796DE01119601900D928A95E1F7FF8115
:1031C000E8856A857B856115710531F0EF3F31F443
:1031D00081E0FF3F19F403C081E001C080E080FD81
:1031E00023C02091BA0130E0C90101968770992768
:1031F0004091B90150E084179507F1F1F983EA8312
:103200007D836C8396E0929FD001939FB00D112433
:10321000A554BE4FFE01319601900D929A95E1F7AB
:103220008093BA010E94381616E08091B9019091FE
:10323000BA01891771F1189FC001112485549E4F5E
:103240000E94D316882329F1E091B9011E9FF00155
:103250001124E554FE4F4081518162817381848144
:1032600095810E9428168091B90190E0019687709F
:1032700099278093B901D9CF0E94EC151092BA0119
:103280001092B901EBEEF1E086E0DF011D928A9524
:10329000E9F72C960FB6F894DEBF0FBECDBFDF91D5
:1032A000CF911F910895EF92FF920F931F93CF93A9
:1032B000DF938C01892B09F46CC0F12CEE24E3948C
:1032C000E8012196F8018491843740F4843008F0B5
:1032D00051C0813081F0823019F15BC0853709F42B
:1032E00044C0A8F19CE7980F903708F052C08F7740
:1032F0000E94D31241C00E5F1F4FFE01849190E2E5
:10330000980F983050F48770FE2D01C0FF0F8A95FA
:10331000EAF78F2F0E94DE1B14C00E9424122DC0DA
:103320000E5F1F4FFE01849190E2980F983060F479
:103330008770FE2D01C0FF0F8A95EAF78F2F0E943C
:10334000E41B0E94091C19C00E94D31216C00E5F14
:103350001F4FFE01C491CC2381F08FE99FE00197BC
:10336000F1F700C00000C150F6CF0E5F1F4FFE0105
:10337000F49003C00E9424128E018F2D882309F43B
:103380009FCFEFE9FFE03197F1F700C000008150D7
:10339000F5CFDF91CF911F910F91FF90EF9008959E
:1033A000089508950C94D1190C94D2190E94D4193F
:1033B0006093130270931402809315029093160287
:1033C0000C94D2150C94D6190F931F9300911302ED
:1033D000109114022091150230911602602B712B6E
:1033E000822B932B1F910F910C94D6190F931F933F
:1033F00000911302109114022091150230911602CF
:1034000060237123822393231F910F910C94D6196B
:103410000F931F9300911302109114022091150233
:103420003091160260277127822793271F910F91F1
:103430000C94D6190C94D1190E941A1A60930F0299
:103440007093100280931102909312020C94D21583
:1034500060E070E0CB010C941C1A0F931F9341E0C5
:1034600050E060E070E08A019B0104C0000F111F72
:10347000221F331F8A95D2F7C901B8011F910F91FE
:103480000C941C1A0F931F9341E050E060E070E031
:1034900004C0440F551F661F771F8A95D2F780918D
:1034A0000F0290911002A0911102B09112028A01B4
:1034B0009B01082B192B2A2B3B2BC901B8011F910B
:1034C0000F910C941C1A0F931F9341E050E060E0A1
:1034D00070E004C0440F551F661F771F8A95D2F70E
:1034E000409550956095709580910F0290911002D3
:1034F000A0911102B09112028A019B0108231923A5
:103500002A233B23C901B8011F910F910C941C1A67
:103510000F931F9341E050E060E070E004C0440F5F
:10352000551F661F771F8A95D2F780910F029091E1
:103530001002A0911102B09112028A019B0108278A
:1035400019272A273B27C901B8011F910F910C9415
:103550001C1A0F931F9300910F02109110022091DB
:10356000110230911202602B712B822B932B1F9131
:103570000F910C941C1A0F931F9300910F0210913E
:1035800010022091110230911202602371238223D4
:1035900093231F910F910C941C1A0F931F9300916A
:1035A0000F02109110022091110230911202602737
:1035B0007127822793271F910F910C941C1A08954D
:1035C0002CE0929F800D1124E82FE695E695E69574
:1035D000877051E001C0550F8A95EAF785E0E89FB2
:1035E000F0011124EF50FE4F20E030E070E0408108
:1035F000CB01022E02C0969587950A94E2F781705E
:10360000819584278523842781932F5F3F4F253021
:10361000310569F708952CE0929F800D1124682FE1
:10362000669566956695982F977085E0689FB001BE
:10363000112440E050E080E0FB01E40FF51FEF5063
:10364000FE4F208130E0092E02C0369527950A945E
:10365000E2F721703327042E01C0220F0A94EAF703
:10366000822B4F5F5F4F4530510531F70895BF9270
:10367000CF92DF92EF92FF920F931F93CF93DF933E
:103680008C01C0900F02D0901002E0901102F090D7
:1036900012028091130290911402A0911502B09130
:1036A0001602C82AD92AEA2AFB2ACFE1D0E0D7019C
:1036B000C6010C2E04C0B695A795979587950A94D8
:1036C000D2F780FD04C0219790F7B12C07C0BC2E23
:1036D000B8018C2F0E94CF090197A9F38B2DDF91A0
:1036E000CF911F910F91FF90EF90DF90CF90BF90FF
:1036F0000895CF93DF93EC010E94371BBE010E9417
:10370000CF09DF91CF9108951F93CF93DF93EB0102
:103710009091B801992321F0CB010E94791B13C02D
:10372000882349F0CB010E94371B182F682FCE0148
:103730000E94E01A04C0CB010E940B1B182FBE018F
:10374000812F0E94CF09DF91CF911F910895809121
:103750001702859585958595089580911702877044
:10376000089590911702977081E009F480E0089520
:1037700080913B02089590913B02892B80933B02FC
:103780000895809590913B02892380933B02089590
:1037900080933B02089510923B02089590913A0263
:1037A000892B80933A020895809590913A0289235B
:1037B00080933A02089510923A0208959091390246
:1037C000892B80933902089580959091390289233D
:1037D0008093390208951092390208958091180259
:1037E000089508950C94F11B0C94F21B909118020B
:1037F000981721F0809318020C94F41B089580917F
:103800001802882329F01092180280E00C94F41B0F
:103810000895E0910001F091010180913B028083C5
:10382000E0910001F0910101908180913A02892B91
:103830008083E0910001F091010190818091390233
:10384000892B808380911802882381F0E091000108
:10385000F09101019081892B8083809100019091EA
:1038600001010E944A1D81110E94FF1B80910001ED
:10387000909101010C945F100C94F11B98E0899FCA
:1038800090011124262B209317020E94421A809146
:1038900017028595859585950C943C1C109217020E
:1038A00080E00C943C1C2091170280958223809329
:1038B0001702982F977079F430E0482F082E000CEB
:1038C000550B2417350739F08595859585950E9408
:1038D000631A0C944E1C08959093A1018093A0014B
:1038E00008958295982F937344E0949F900111243A
:1038F0008C7C86958695282B822F8575880F2A7A51
:103900002695822B0895CF93DF93D92F0E94711CA7
:10391000C82F8D2F0E94711C2C2F30E0322F2227B0
:10392000A901482BCA01DF91CF9108956FEF7FEF76
:1039300080E090E00C94892F80E090E00E94652F59
:1039400021E08C3E9E4F09F020E0822F089582E016
:1039500090E00C945D2F83E090E00C945D2FCF936A
:1039600084E090E00E945D2FC82F81E290E00E94E9
:103970005D2F2C2F30E0A901582BCA01CF9108955B
:10398000CF93C92F682F84E090E00E946B2F6C2F9B
:1039900081E290E0CF910C946B2FAB01BC018FE0E2
:1039A00090E00C947D2FAB01BC0183E190E00C947E
:1039B0007D2F60E070E0CB010C94D31C60E070E0E0
:1039C000CB010E94CD1C0C94D91C6CEE7EEF80E0E4
:1039D00090E00E94892F60E082E090E00E946B2FCF
:1039E00060E083E090E00E946B2F1092130210922F
:1039F0001402109215021092160260E084E090E02A
:103A00000E946B2F60E081E290E00E946B2F60E0EB
:103A100085E090E00E946B2F60E086E090E00E94DD
:103A20006B2F6FEF87E090E00E946B2F40E050E03B
:103A3000BA0188E090E00E947D2F60E08DE090E088
:103A40000E946B2F40E050E0BA0188E190E00E94B4
:103A50007D2F60E087E190E00E946B2F40E050E016
:103A6000BA018CE190E00E947D2F60E080E290E05E
:103A70000E946B2F40E050E0BA0188E190E00E9484
:103A80007D2F0C94DE1C0C94E51C682F8EE090E0DA
:103A90000C946B2FFC01329680911401882331F035
:103AA00080918C0287FF02C09EE101C096E080E019
:103AB000915028F021912223D9F38F5FF9CF0895F7
:103AC000662351F1209114012223E9F020918C0208
:103AD00027FF19C0462F4695469546954E31E0F48E
:103AE000677021E030E002C0220F331F6A95E2F7D1
:103AF000FC01E40FF11D828190E02823392381E04D
:103B0000232B69F409C0FC013296089621916217B3
:103B100029F0E817F907D1F780E0089581E00895CA
:103B20009C01FC0132969FEF80E04191461789F09D
:103B30009F3F19F4411101C0982F8F5F8630A9F77C
:103B40009F3F39F0F901E90FF11D97FDFA95628366
:103B5000089508959C012A5F3F4FFC01428146135E
:103B600001C01282019682179307B9F70895262F94
:103B70002695269526952E3170F4FC01E20FF11D55
:103B8000677021E030E001C0220F6A95EAF7828178
:103B9000282B2283089580913C0280FF0CC01F9245
:103BA0006F9385E394E09F938F930E9459080F9041
:103BB0000F900F900F900895262F26952695269505
:103BC0002E3178F4FC01E20FF11D677021E030E046
:103BD00001C0220F6A95EAF720958281282322836B
:103BE000089580913C0280FF0CC01F926F9387E183
:103BF00094E09F938F930E9459080F900F900F901D
:103C00000F90089520911401222329F020918C0215
:103C100027FD0C94B71D0C94901D209114012223B4
:103C200029F020918C0227FD0C94DC1D0C94AA1D18
:103C300020911401FC013296222331F080918C02F4
:103C400087FF02C08EE101C086E0DF011D928A95E8
:103C5000E9F7089508950C942A1E0C942A1ECF9318
:103C60000E942D1E0E94750C0E942B1EC0E08C2FFE
:103C70000E94BE0B892B29F4CF5FC430C1F780E0CE
:103C800001C081E0CF9108950C942A1E0C94441E2B
:103C90000E94461E80919202843049F110923D02AA
:103CA00020E488E190E00FB6F894A8958093600036
:103CB0000FBE2093600080E00E94A7090E94461E6C
:103CC00083B7817F846083BF83B7816083BF78942B
:103CD000889583B78E7F83BF0FB6F894A89580919F
:103CE0006000886180936000109260000FBE0895AC
:103CF0000C942A1E0E94EC150E9446100E94A709EF
:103D00000C94781E1F920F920FB60F9211248F936E
:103D10009F93AF93BF9380913D02811113C0809117
:103D2000880290918902A0918A02B0918B024196FB
:103D3000A11DB11D8093880290938902A0938A02ED
:103D4000B0938B02BF91AF919F918F910F900FBE57
:103D50000F901F90189582E084BD93E095BD9AEF77
:103D600097BD80936E0008952FB7F89480918802D4
:103D700090918902A0918A02B0918B022FBF089581
:103D80002FB7F894609188027091890280918A021D
:103D900090918B022FBF08959C014FB7F8948091AA
:103DA000880290918902A0918A02B0918B024FBF44
:103DB000821B930B089578941F920F920FB60F9267
:103DC00011248F939F93AF93BF938091880290911A
:103DD0008902A0918A02B0918B020196A11DB11DAA
:103DE0008093880290938902A0938A02B0938B02F9
:103DF000BF91AF919F918F910F900FBE0F901F9029
:103E0000189587E797E790930108809300089AE058
:103E100088E10FB6F894A895809360000FBE909348
:103E20006000FFCF0C94961C0E94750C8FE39CE9F8
:103E30000197F1F700C000000E94750C80E00E941D
:103E4000BE0B80FF04C00E94121F0C94011F089536
:103E50000E949C1C811102C00E94431D0E94A71C4D
:103E600080933C020E94AF1C90938D0280938C0241
:103E70000E94AB1C682F70E080E090E00E94E21985
:103E800060910F02709110028091110290911202C4
:103E90000C941A1A8091440280FF0BC060910701B4
:103EA00085E0689FB00111247595679575956795B4
:103EB0002BC081FF09C06091070185E0689FB001B8
:103EC00011247595679520C082FF07C06091070196
:103ED00085E0689FB001112417C090914302992397
:103EE000D1F060910601961788F72091070185E0CF
:103EF000289F90011124929FA001939F500D11249F
:103F000070E0CA010E942F2F6038710540F46115DE
:103F1000710519F406C065E070E0862F08958FE7FB
:103F2000089581E008958091440280FF08C0609167
:103F3000030170E0759567957595679521C081FFC0
:103F400006C06091030170E07595679519C082FF06
:103F500004C06091030170E010C090914202992367
:103F600099F0609102019617A0F780910301899F53
:103F7000C001112470E00E942F2F6038710540F4B9
:103F80006115710519F406C061E070E0862F08958F
:103F90008FE7089581E00895803F21F40E944A1F31
:103FA000819504C0813F29F40E944A1F80934802F2
:103FB0000895823F21F40E944A1F819504C0833FE7
:103FC00029F40E944A1F809347020895893F19F4FB
:103FD0000E94931F05C08A3F31F40E94931F819570
:103FE0008093490208958B3F21F40E94931F81958D
:103FF00004C08C3F29F40E94931F80934A020895C5
:10400000843F21F480914602816017C0853F21F4EE
:1040100080914602826011C0863F21F48091460261
:1040200084600BC0873F21F480914602886005C000
:10403000883F31F480914602806180934602089562
:104040008D3F21F48091440281600BC08E3F21F4AA
:1040500080914402826005C08F3F29F48091440220
:104060008460809344020895803F39F4809148022F
:1040700087FF6AC01092480267C0813F29F480918F
:1040800048021816BCF360C090914702823F29F4A1
:1040900097FF5AC01092470257C0833F19F4191670
:1040A000CCF352C090914902893F31F419160CF0BB
:1040B0004BC01092490248C08A3F19F497FF44C090
:1040C000F8CF8B3F39F480914A0287FF3DC01092B0
:1040D0004A023AC08C3F29F480914A021816BCF378
:1040E00033C0843F21F4809146028E7F17C0853F04
:1040F00021F4809146028D7F11C0863F21F480918A
:1041000046028B7F0BC0873F21F480914602877F58
:1041100005C0883F31F4809146028F7E809346022D
:1041200013C08D3F21F4809144028E7F0BC08E3FDF
:1041300021F4809144028D7F05C08F3F29F4809146
:1041400044028B7F8093440280914702811106C014
:1041500080914802811102C010924302809149026D
:10416000811106C080914A02811102C01092420260
:10417000089580913C0283FF7EC08AE794E00E940C
:10418000C007809146021F928F9385E794E09F932A
:104190008F930E94590883E794E00E94C0078091A2
:1041A0004702282F082E000C330B3F938F9380E794
:1041B00094E09F938F930E9459088EE694E00E94AA
:1041C000C00780914802282F082E000C330B3F9324
:1041D0008F938BE694E09F938F930E94590889E612
:1041E00094E00E94C00780914902282F082E000CFD
:1041F000330B3F938F9386E694E09F938F930E94B7
:10420000590884E694E00E94C00780914A02282F52
:10421000082E000C330B3F938F9381E694E09F931D
:104220008F930E9459088EE594E00E94C007809108
:1042300043021F928F938BE594E09F938F930E948C
:10424000590889E594E00E94C007809144021F92BA
:104250008F9386E594E09F938F930E94590883E59E
:1042600094E00E94C0078DB79EB74C960FB6F894A5
:104270009EBF0FBE8DBF0E94B41E20914702211128
:1042800004C020914802222321F0909341028093A0
:10429000400220914902211104C020914A022223A8
:1042A00021F090933F0280933E0285E492E00C94CB
:1042B000B410EF92FF920F931F93CF93DF9300D030
:1042C00000D000D0CDB7DEB786E0E5E4F2E0DE0155
:1042D000119601900D928A95E1F7E0904702F090D7
:1042E00048020091490210914A021092470210922E
:1042F00048021092490210924A02E11003C0FF20C6
:1043000009F45DC080914002909141020E94CC1E50
:10431000AC0190914302992339F02091080130E0DB
:104320002417350758F04BC0209109018AE0289FD7
:10433000900111242417350718F041C09F3F19F050
:104340009F5F90934302EE2061F00E944A1F1E146B
:1043500014F09FEF01C091E0989F902D112490934D
:104360004702FF2061F00E944A1F1F1414F09FEFC4
:1043700001C091E0989F902D1124909348023091B4
:1043800047023323E1F0209148022223C1F045EB9C
:104390003403C0011124992319F09093470203C0FC
:1043A00081E08093470235EB2303C0011124992358
:1043B00019F09093480203C081E0809348020111F4
:1043C00003C0112309F45DC080913E0290913F0229
:1043D0000E94CC1EAC0190914202992339F02091A9
:1043E000040130E02417350758F04BC02091050137
:1043F0008AE0289F900111242417350718F041C046
:104400009F3F19F09F5F90934202002361F00E944A
:10441000931F101614F09FEF01C091E0989F902D0C
:10442000112490934902112361F00E94931F1116E9
:1044300014F09FEF01C091E0989F902D112490936C
:104440004A02309149023323E1F020914A022223AB
:10445000C1F045EB3403C0011124992319F0909366
:10446000490203C081E08093490235EB2303C00178
:104470001124992319F090934A0203C081E080939C
:104480004A028091470281110BC08091480281113C
:1044900007C080914902811103C080914A028111B5
:1044A0000E94B920EB82FC820D831E8386E0FE0110
:1044B0003196A5E4B2E001900D928A95E1F7269637
:1044C0000FB6F894DEBF0FBECDBFDF91CF911F9125
:1044D0000F91FF90EF900895E5E4F2E086E0DF01B0
:1044E0001D928A95E9F710924302109242021092AF
:1044F000440208958DE996E00E94C0071F9281E072
:104500008F931F9285E08F938FE496E09F938F9314
:104510000E9459080F900F900F900F900F900F90DE
:1045200008958330E9F128F4813061F0823009F197
:104530000895853009F462C008F449C0863009F452
:1045400074C0089580910901262F30E0280F311D95
:104550002F3F310524F4680F6093090103C08FEFEA
:1045600080930901809109011F928F9388E895E05B
:1045700072C080910801262F30E0280F311D2F3F97
:10458000310524F4680F6093080103C08FEF809316
:104590000801809108011F928F9386E795E05BC028
:1045A00080910701262F30E0280F311D2F3F310564
:1045B00024F4680F6093070103C08FEF8093070115
:1045C000809107011F928F9383E695E044C080910C
:1045D0000601262F30E0280F311D2F3F310524F42E
:1045E000680F6093060103C08FEF809306018091EE
:1045F00006011F928F938EE495E02DC080910301F8
:10460000262F30E0280F311D2F3F310524F4680F8D
:104610006093030103C08FEF809303018091030136
:104620001F928F9385E395E016C080910201262F9B
:1046300030E0280F311D2F3F310524F4680F6093BF
:10464000020103C08FEF80930201809102011F924B
:104650008F938AE195E09F938F930E9459080F9062
:104660000F900F900F900895833081F128F48130DE
:1046700059F08230D1F00895853009F449C0B8F17D
:10468000863009F456C0089580910901681720F416
:10469000861B8093090102C01092090180910901D3
:1046A0001F928F938BE095E054C0809108016817AA
:1046B00020F4861B8093080102C0109208018091AB
:1046C00008011F928F9389EF94E043C08091070106
:1046D000681720F4861B8093070102C0109207011F
:1046E000809107011F928F9386EE94E032C08091F3
:1046F0000601681720F4861B8093060102C0109201
:104700000601809106011F928F9381ED94E021C0F4
:1047100080910301681720F4861B8093030102C077
:1047200010920301809103011F928F9388EB94E014
:1047300010C080910201681720F4861B809302014B
:1047400002C010920201809102011F928F938DE9A5
:1047500094E09F938F930E9459080F900F900F90B1
:104760000F900895CF93C82F1F928F9382EA97E0FE
:104770009F938F930E94590881E090E0A0E0B0E001
:10478000BC01CD0104C0660F771F881F991FCA9511
:10479000D2F70E94E2190F900F900F900F90CF91D7
:1047A0000C94EC15CF93DF93482F50E0FA01359726
:1047B000EF33F10508F054C2EC58FF4F0C94432F2F
:1047C0008BEE9CE00E94C00787E29CE00E94C0073D
:1047D0000E94AB1C1F928F9384E29CE09F938F9367
:1047E0000E94590882E29CE00E94C0070E94A71C18
:1047F000C82F8FE09CE00E94C0071F92CF938AE0F1
:104800009CE09F938F930E94590888E09CE00E944F
:10481000C0078EEF9BE00E94C0078C2F81701F9213
:104820008F938BEF9BE09F938F930E94590889EFA2
:104830009BE00E94C0078FEE9BE00E94C007C1FB77
:10484000882780F91F928F938CEE9BE09F938F9324
:104850000E9459088AEE9BE00E94C0078EED9BE003
:104860000E94C007C2FB882780F91F928F938BEDAF
:104870009BE09F938F930E94590889ED9BE00E94D3
:10488000C00780ED9BE00E94C007C3FBCC27C0F9A6
:104890001F92CF938DEC9BE09F938F930E945908BA
:1048A0008BEC9BE00E94C0070E94AF1CEC0187EBE1
:1048B0009BE00E94C007DF93CF9382EB9BE09F9326
:1048C0008F930E94590880EB9BE00E94C00787E904
:1048D0009BE00E94C0078C2F81701F928F9384E908
:1048E0009BE09F938F930E9459088DB79EB7809647
:1048F0000FB6F8949EBF0FBE8DBF82E99BE00E9469
:10490000C0078BE79BE00E94C007C1FB882780F9A6
:104910001F928F9388E79BE09F938F930E94590883
:1049200086E79BE00E94C00784E69BE00E94C007E8
:104930008D2F81701F928F9381E69BE09F938F93C1
:104940000E9459088FE59BE00E94C0078DE49BE020
:104950000E94C007D695D1701F92DF938AE49BE036
:104960009F938F930E94590888E49BE00E94C007A0
:1049700086E39BE00E94C007C2FB882780F91F9254
:104980008F9383E39BE09F938F930E94590881E369
:104990009BE00E94C0078FE19BE00E94C007C3FB21
:1049A000882780F91F928F938CE19BE09F938F93D0
:1049B0000E9459088AE19BE00E94C00780E19BE0C9
:1049C0000E94C007C4FB882780F91F928F938DE057
:1049D0009BE09F938F930E9459088BE09BE00E947D
:1049E000C00789EF9AE00E94C007C5FB882780F9BD
:1049F0001F928F9386EF9AE09F938F930E9459089E
:104A000084EF9AE00E94C00788ED9AE00E94C007F8
:104A1000C6FB882780F91F928F9385ED9AE09F93BC
:104A20008F930E9459088DB79EB780960FB6F89461
:104A30009EBF0FBE8DBF83ED9AE00E94C0078BEC36
:104A40009AE00E94C007C7FBCC27C0F91F92CF9302
:104A500088EC9AE09F938F930E94590886EC9AE025
:104A60000E94C0070F900F900F900F9006C08AED24
:104A70009CE00E94C0070E94431DC1E0F6C084E193
:104A800099E074C080913C02817F8E7F80933C02CC
:104A90008DEE98E00E94C00786ED9CE00E94C00762
:104AA00081E080934C02E9CF8AEB9CE00E94C00732
:104AB0000E943209E2CF80913C02C82FC095C1709C
:104AC000C0FB80F980933C02CC2319F08EEA9CE075
:104AD000B9C081EA9CE00E94C00780913C02897FB6
:104AE000877F80933C02C9CF90913C0291FBCC27F9
:104AF000C0F981E0C827892FC0FB81F980933C026F
:104B0000CC2319F084E99CE027C086E89CE02EC005
:104B100090913C0292FBCC27C0F981E0C827892FF5
:104B2000C0FB82F980933C02CC2319F087E79CE01C
:104B300013C087E69CE01AC090913C0293FBCC27FF
:104B4000C0F981E0C827892FC0FB83F980933C021C
:104B5000CC2351F08BE59CE00E94C00780913C0281
:104B6000816080933C0281C08EE49CE00E94C0077B
:104B700084CF8EED98E00E94C00785EA98E00E94FD
:104B8000C0078EE898E00E94C00783E598E00E9485
:104B9000C00788E298E0EACF8AE198E00E94C00767
:104BA0000E9446101F928F9380E098E09F938F930E
:104BB0000E945908809114011F928F9389EE97E00B
:104BC0009F938F930E945908809171021F928F9337
:104BD00086ED97E09F938F930E94590880918C02F5
:104BE00087FB882780F91F928F938EEB97E09F9326
:104BF0008F930E9459080E94C01E9F938F937F93AA
:104C00006F9387EA97E09F938F930E9459088DB71F
:104C10009EB746960FB6F8949EBF0FBE8DBF2DCFA0
:104C20000E94EC1590918C0297FBCC27C0F981E093
:104C3000C827892FC0FB87F980938C02CC2329F0E9
:104C400084E49CE00E94C00710C089E39CE08ECF02
:104C5000895303C08D5101C080E00E94B2230DCF63
:104C600087E39CE00E94C007C0E08C2FDF91CF91CA
:104C7000089580E008950C9439268E518A3030F4DE
:104C8000E82FF0E0E957FE4F8081089580E0089515
:104C9000CF93C82F80914C02813059F020F08230A0
:104CA00009F445C039C10E94B81B823209F036C1EF
:104CB00004C00E94B81B823261F48C2F0E943B26F4
:104CC000811104C08C2F0E94D2232FC081E090E07C
:104CD0002CC08C2F0E943926811126C0C431E1F0EE
:104CE00070F4CB3081F0C031D1F40E947A228AE98D
:104CF00097E00E94C00782E080934C0215C0C93241
:104D000059F0C83361F48DEE98E00E94C0078EE937
:104D100097E00E94C00708C010924C0201C188E9C8
:104D200097E00E94C007FCC081E08170FBC0C432E4
:104D300028F5CE3108F0C1C0CB30A1F1D0F4C73096
:104D400009F0D0C08EE18093090182E380930801CD
:104D50008AE08093070184E18093060188E08093D4
:104D6000030188E2809302018EE396E00E94C0076F
:104D7000BCC0C33149F1C431C1F0B4C0CB3409F473
:104D8000A6C028F4C93289F0C83361F0ABC0C13580
:104D900009F49BC0C23509F496C0CE3409F0A2C014
:104DA0006AE09BC00E947A22A0C080914B028823B7
:104DB00019F010924B0299C08BE496E00E94C00754
:104DC00081E080934C02AEC085E296E00E94C0076D
:104DD00083E196E00E94C007809109011F928F93A2
:104DE00080E196E09F938F930E9459088EE096E0B1
:104DF0000E94C0078CEF95E00E94C00780910801D7
:104E00001F928F9389EF95E09F938F930E9459088B
:104E100087EF95E00E94C00788EE95E00E94C007EA
:104E2000809107011F928F9385EE95E09F938F935A
:104E30000E94590883EE95E00E94C00782ED95E03C
:104E40000E94C007809106011F928F938FEC95E01E
:104E50009F938F930E9459088DEC95E00E94C007A4
:104E600088EB95E00E94C007809103011F928F9309
:104E700085EB95E09F938F930E94590883EB95E013
:104E80000E94C0078CE995E00E94C0078091020152
:104E90001F928F9389E995E09F938F930E94590801
:104EA00087E995E00E94C0078DB79EB748960FB678
:104EB000F8949EBF0FBE8DBF18C08C2F0E943D2658
:104EC00080934B0212C061E003C061E006C06AE05B
:104ED00080914B020E94912208C080914B020E9457
:104EE000342303C08CE396E013C080914B028823E7
:104EF00069F01F928F9386E396E09F938F930E94B1
:104F000059080F900F900F900F9004C083E396E024
:104F10000E94C00781E006C010924C0280E002C0EF
:104F200080E003CFCF9108958091700208959FB7DC
:104F3000F89410924F029FBF90919202943009F022
:104F400057C09091E9009F703091EC00232F2170A1
:104F500030FD20E8922B23E02093E9002091EB0024
:104F600020FF43C02091EE0027FF3FC020914D025B
:104F7000222321F02091E80025FF37C010924D0236
:104F800026E03091E80035FD15C0309192023430B2
:104F900061F53091EB0035FD28C0215021F481E00E
:104FA00080934D0222C0EFE9FFE03197F1F700C096
:104FB0000000E7CF8093F1008091E80085FD0AC0F2
:104FC0008091E80080FFFCCF8091E8008E7780938D
:104FD000E80006C08FB7F89421E020934F028FBFFE
:104FE0009F709093E90080E008959F709093E9008E
:104FF0008FEF0895CF93DF9300D01F92CDB7DEB728
:1050000090919202943019F589837B836A8382E0C0
:105010008093E9008FEF9091E800815095FD06C0E4
:1050200095ED9A95F1F700008111F5CF8091E80098
:1050300085FF0DC040E050E063E070E0CE010196D6
:105040000E94862A8091E8008E778093E8000F9076
:105050000F900F90DF91CF910895BC0184E00C94E4
:10506000FA27BC0183E00C94FA2722E02093E900A0
:105070002FEF3091E800215035FD06C035ED3A950F
:10508000F1F700002111F5CF2091E80025FF0BC0BA
:1050900040E050E066E070E00E94862A8091E800DF
:1050A0008E778093E8000895CF93DF9320911401C9
:1050B000222339F020918C0227FF03C060E222E016
:1050C00002C068E021E02093E9002FEF3091E80072
:1050D000215035FD06C035ED3A95F1F7000021115C
:1050E000F5CF2091E80025FF1DC0EC01809114014F
:1050F000811105C040E050E068E070E003C070E05E
:1051000040E050E0CE010E94862A8091E8008E7730
:105110008093E80080E2FE01A0E5B2E001900D92EC
:105120008A95E1F7DF91CF9108958BE19DE00E9490
:10513000C00780919102811109C00E94172C0E9422
:10514000742C8091E20084608093E200089587E1EE
:105150009DE00E94C00710929102089583E19DE0B6
:105160000C94C0078FE09DE00C94C0078BE09DE09D
:105170000E94C0070C947A1E20914E022F5F822F4E
:1051800062E30E94232F992319F020934E02089581
:1051900010924E0280914F02882371F18091920209
:1051A000843041F58091E9008F702091EC00922FBE
:1051B000917020FD90E8892B93E09093E900909105
:1051C000EB0090FF14C09091EE0097FF10C09091FB
:1051D000E80095FF03C01092F100F9CF9091E8002C
:1051E00090FF05C09091E8009E779093E8008F7043
:1051F0008093E90010924F02089542E061EC81E053
:105200000E94902B42E261EC82E00E94902B42E2ED
:1052100061EC83E00C94902B80919402833009F42C
:1052200060C030F4813071F0823009F499C0089583
:105230008A3009F485C08B3009F46BC0893009F0DD
:10524000A7C020C080919302813A09F0A1C080914B
:10525000E800877F8093E800809197029091980200
:10526000892B21F460E280E592E003C060E080E0F9
:1052700090E070E00E94D12A8091E8008B778093C3
:10528000E800089580919302813209F081C08091F5
:10529000970290919802029708F07AC08091E800F6
:1052A000877F8093E8008091E80082FD05C08091AF
:1052B00092028111F8CF6CC02091F3008091F2002E
:1052C00090E0922B029729F48091F1008B7F81303E
:1052D00021F48091F100809370028091E8008B7737
:1052E00053C080919302813A09F052C08091970295
:1052F00090919802892B09F04BC08091E800877F3C
:105300008093E8008091E80080FFFCCF8091140139
:1053100036C0809193028132D9F5809197029091A5
:105320009802892BA9F58091E800877F8093E80097
:105330000E94C52B80919502809314010C94EC156A
:1053400080919302813221F58091E800877F8093DC
:10535000E8000E94C52B8091960280937102089507
:1053600080919302813AA1F48091E800877F809335
:10537000E8008091E80080FFFCCF8091710280936B
:10538000F1008091E8008E778093E8000C94C52BA3
:10539000089584B7877F84BF0FB6F894A89580914D
:1053A0006000886180936000109260000FBE90E002
:1053B00080E80FB6F89480936100909361000FBE6F
:1053C0000E9406110E94172C0E94742C8091E2000A
:1053D00084608093E20087E997E20E946C1C7894D5
:1053E0000E94082F0E940C118AE091E00E94411057
:1053F0008AEF9CE00E94C00780919202853089F478
:1054000086EF9CE00E94C0070E94481E8091900297
:10541000882391F30E942F1E882371F30E94702A23
:10542000EBCF0E943C110E94FA100E94F910E4CFC9
:105430000C941A2A292F332723303105C9F060F440
:105440002130310581F02230310509F041C08BE572
:1054500090E02BE43DE040C021323105E1F0223202
:10546000310531F135C082E190E026EA3DE034C0FB
:1054700099278130910549F028F0029749F5EFE12D
:10548000FDE005C0E7E4FDE002C0EFE2FDE084914D
:1054900090E09F0121C063307105D0F4660F771F43
:1054A000FB01E656FE4F2081318189E090E014C077
:1054B0006330710568F4FB01EE0FFF1FEC56FE4FE1
:1054C00020813181FB01EF56FE4F808190E004C0C6
:1054D00080E090E020E030E0FA01318320830895FD
:1054E00080E189BD82E189BD09B400FEFDCF8091D4
:1054F000D8008F7D8093D8008091E00082608093F7
:10550000E0008091E00081FDFCCF0895CF92DF9212
:10551000EF92FF920F931F93CF93DF93EC018B01D8
:105520007A010E94E42B811133C0E114F10439F0B7
:10553000F70180819181081B190BC80FD91FC12C5D
:10554000D12C0115110519F18091E80085FD16C0D7
:105550008091E8008E778093E800E114F10449F02F
:10556000F70180819181C80ED91ED182C08285E069
:105570000FC00E94E42B882321F30AC089918093F5
:10558000F10001501109FFEFCF1ADF0ADACF80E0F6
:10559000DF91CF911F910F91FF90EF90DF90CF900F
:1055A00008952091990230919A022617370748F002
:1055B0006115710539F42091E8002E772093E800F9
:1055C00001C0B901FC0120E06115710579F18091FC
:1055D00092028823F1F18530F1F18091E80083FD9A
:1055E0003CC08091E80082FD2EC08091E80080FFE1
:1055F000EBCF2091F3008091F20090E0922B6115A7
:10560000710551F08830910538F421912093F10013
:10561000615071090196F3CF21E0089709F020E06D
:105620008091E8008E778093E800CECF2111CFCF14
:105630000AC080919202882361F0853061F08091E8
:10564000E80083FD0AC08091E80082FFF2CF80E08D
:10565000089582E0089583E0089581E008952091FF
:10566000990230919A022617370748F061157105A3
:1056700039F42091E8002E772093E80001C0B901A9
:10568000FC0120E06115710591F18091920288235F
:1056900009F440C0853009F43FC08091E80083FDE3
:1056A0003DC08091E80082FD2FC08091E80080FF1E
:1056B000E9CF2091F3008091F20090E0922B6115E8
:1056C000710559F08830910540F424912093F10040
:1056D0003196615071090196F2CF21E0089709F0E7
:1056E00020E08091E8008E778093E800CBCF2111F5
:1056F000CCCF0AC080919202882361F0853061F09E
:105700008091E80083FD0AC08091E80082FFF2CF1B
:1057100080E0089582E0089583E0089581E008958F
:10572000982F973068F59093E900981739F07091A9
:10573000EC002091ED005091F00003C0242F762F53
:1057400050E021FD02C09F5FECCF3091EB003E7F27
:105750003093EB003091ED003D7F3093ED003091C0
:10576000EB0031603093EB007093EC002093ED0080
:105770005093F0002091EE0027FDE5CF80E00895E2
:105780008F708093E90081E008958091930287FFF4
:1057900011C08091E80082FD05C0809192028111C4
:1057A000F8CF11C08091E8008B770BC080919202F6
:1057B000882349F08091E80080FFF8CF8091E800CD
:1057C0008E778093E80008952091E4003091E50001
:1057D00095E64091EC00842F817040FF23C08091BA
:1057E000E80080FD1DC080919202882399F08530E9
:1057F00099F08091EB0085FD11C04091E40050913B
:10580000E5002417350729F3915011F09A01E1CFF3
:1058100084E0089582E0089583E0089581E008958A
:1058200080E008954091E80042FFDDCF08950E9496
:10583000852C0E948D2CE0EEF0E0808181608083D9
:10584000E8EDF0E080818F77808319BCA7EDB0E0B0
:105850008C918E7F8C9380818F7E808310929102B9
:1058600008950F931F93CF93DF930E94852C0E947E
:105870008D2CC8EDD0E088818F77888388818068FF
:10588000888388818F7D888319BC10929202109240
:105890008E021092900210928F0200EE10E0F8013A
:1058A00080818B7F808388818160888342E060E093
:1058B00080E00E94902BE1EEF0E080818E7F80837B
:1058C000E2EEF0E080818160808380818860808367
:1058D000F80180818E7F8083888180618883DF9159
:1058E000CF911F910F910895E8EDF0E080818F7EB8
:1058F0008083E7EDF0E080818160808384E082BF77
:1059000081E0809391020C94312CE8EDF0E08081ED
:105910008E7F80831092E20008951092DA00109238
:10592000E10008951F920F920FB60F9211242F934A
:105930003F934F935F936F937F938F939F93AF9317
:10594000BF93EF93FF938091E10082FF0BC08091A2
:10595000E20082FF07C08091E1008B7F8093E1002D
:105960000E94BC288091DA0080FF1FC08091D8007F
:1059700080FF1BC08091DA008E7F8093DA008091D7
:10598000D90080FF0DC080E189BD82E189BD09B4E5
:1059900000FEFDCF81E0809392020E94952805C011
:1059A00019BC109292020E94A7288091E10080FF0A
:1059B00019C08091E20080FF15C08091E2008E7FC7
:1059C0008093E2008091E20080618093E200809108
:1059D000D80080628093D80019BC85E08093920241
:1059E0000E94B2288091E10084FF30C08091E200E3
:1059F00084FF2CC080E189BD82E189BD09B400FE2D
:105A0000FDCF8091D8008F7D8093D8008091E100F8
:105A10008F7E8093E1008091E2008F7E8093E20090
:105A20008091E20081608093E20080918E02882361
:105A300011F084E007C08091E30087FD02C081E09F
:105A400001C083E0809392020E94B6288091E10019
:105A500083FF29C08091E20083FF25C08091E1008F
:105A6000877F8093E10082E08093920210928E0201
:105A70008091E1008E7F8093E1008091E2008E7F33
:105A80008093E2008091E20080618093E20042E036
:105A900060E080E00E94902B8091F000886080930D
:105AA000F0000E94AE28FF91EF91BF91AF919F91BE
:105AB0008F917F916F915F914F913F912F910F90B7
:105AC0000FBE0F901F9018951F920F920FB60F9256
:105AD00011242F933F934F935F936F937F938F93F3
