:100000000C944E020C9495020C9495020C94451A93
:100010000C9495020C9495020C9495020C94950204
:100020000C9495020C9495020C946A220C943C2337
:100030000C94851D0C9495020C9495020C949502D9
:100040000C9495020C9495020C9495020C949502D4
:100050000C9495020C94FA1D0C9495020C94950244
:100060000C9495020C9495020C9495020C949502B4
:100070000C9495020C9495020C9495020C949502A4
:100080000C9495020C9495020C9495020C94950294
:100090000C9495020C9495020C9495020C94950284
:1000A0000C9495020C9495020C949502A304A3045D
:1000B000D504D50422054005540654064B05E40535
:1000C000F505F505F406F40606070607FD0606071E
:1000D00006070607F406F4060207060706070207E6
:1000E000A923D023C824D023C8241C243F24C824F7
:1000F0009624A5242B0014001A00080015001700F0
:10010000E00004001600070009000A00E1001D00DD
:100110001B0006001900050000000000000001514E
:10012000E100E3002A00130012000C0018001C007C
:10013000340033000F000E000D000B0028003800C3
:1001400037003600100011000000000000003302EC
:1001500002512C002B0000000000000000000000F5
:10016000E00000000000000000000000E1000000CE
:10017000000000000000000000000000000001007E
:100180003900E1002A0000002600250024000000BC
:1001900000000000230022002100000028000000D1
:1001A00020001F001E0000000000000000003700BB
:1001B00027002C0029001E021F0220022102220219
:1001C000E0002F022602270230023502E100000083
:1001D0002F0030000000000000000000000004516B
:1001E0001350E3004C0031002E00250224022302AC
:1001F00035002E024F00520051005000E100000077
:10020000000000002D000000000000000000145558
:1002100001002C00290014001A00080015001E001F
:100220002B0004001600070009001F00E2001D005B
:100230001B00060019002000000000000000E00084
:10024000E1002C002A000000000052000000000025
:10025000105000004F005100500000002800000026
:10026000000000000000000000000000000000008E
:100270000000280000000000000000000000000056
:100280000000000000000000000000001550000009
:10029000000000000000000000000000000001005D
:1002A000000000000000000000000000000000004E
:1002B000000000000000000000000000000000003E
:1002C000000000000000000000000000000000002E
:1002D00000000000105000000000000000000000BE
:1002E000000000000000000000000000005C0000B2
:1002F00000000000000000000000000000000000FE
:1003000000000000000000000000000000000000ED
:1003100000000000000000000000000000000000DD
:1003200000000000000000000000000000000000CD
:10033000000000000C0343006F0072006E006500B7
:100340000000100366006F006F007300740061000E
:100350006E0000000403090409023B00020100A032
:10036000FA09040000010301010009211101000143
:100370002240000705810308000A09040100010367
:1003800000000009211101000122B60007058203C7
:1003900020000A120100020000000853460100017B
:1003A000000102000105010902A10185020901A164
:1003B0000005091901290815002501950875018115
:1003C000020501093009311581257F9502750881E3
:1003D0000609381581257F950175088106050C0AE7
:1003E00038021581257F950175088106C0C0050179
:1003F0000980A101850319012AB700150126B7005C
:10040000950175108100C0050C0901A10185041931
:10041000012AA002150126A002950175108100C0D5
:1004200005010906A1018505050719E029E7150061
:1004300025019508750181020507190029EF1500AE
:10044000250195F075018102050819012905950519
:1004500075019102950175039101C005010906A17D
:1004600001050719E029E7150025019508750181A7
:10047000029501750881010507190029FF1500265D
:10048000FF009506750881000508190129059505E5
:1004900075019102950175039101C00011241FBEE1
:1004A000CFEFDAE0DEBFCDBF04B603FE27C08091F8
:1004B000C6029091C702A091C802B091C9028730CC
:1004C000904BA740B04BD1F41092C6021092C702D5
:1004D0001092C8021092C90214BE84B7877F84BFED
:1004E0000FB6F894A89580916000886180936000B1
:1004F000109260000FBEE0E0F8E3099511E0A0E083
:10050000B1E0ECE2FBE402C005900D92A63AB1071F
:10051000D9F722E0A6EAB1E001C01D92A63CB207DD
:10052000E1F70E94CB140C9494250C94000081E018
:10053000089581E008950C94990208950C949D0209
:100540001F93CF93DF9300D000D01F92CDB7DEB7BB
:1005500049835A836B833091A80189819A81311133
:1005600014C0662359F0222349F00E949A08182FDC
:10057000682F89819A810E94410803C00E946D08FA
:10058000182F69817A81812F04C00E949A0869819D
:100590007A810F900F900F900F900F90DF91CF9175
:1005A0001F910C94A30FFC01262F40815181628181
:1005B000738184810C94A00281E00895CF93DF932E
:1005C000EC0160E00E94D302BE01DF91CF910C9458
:1005D0009E020E94B2100E945A030C94EC100C94DC
:1005E000E81008950E94E2060E94F1022FEF84E3D2
:1005F0009CE0215080409040E1F700C000000C9446
:10060000201E0F931F93CF93DF938C0161E00E9414
:10061000D302EC01B8010E949B028823F1F1B801DA
:10062000CE010E94F4178823C1F1B801CE010E94C7
:100630004618882391F1B801CE010E9471198823D0
:1006400061F1F8018281882309F1CB358DE5D80766
:10065000C1F050F4C115FCE5DF0781F0CF3DDC456A
:10066000A9F40E94AB0D19C0CC35EDE5DE0761F0B1
:10067000CD35DD4559F40E943C0C08C00E94F202C1
:100680000CC00E94450C02C00E94480CC801DF91BA
:10069000CF911F910F910C94970280E0DF91CF9141
:1006A0001F910F91089508950C94530381E00895CC
:1006B0000C9456030895CF93C82F0E9454038C2F97
:1006C0000E945803CF910895CF93DF93CDB7DEB743
:1006D0002B970FB6F894DEBF0FBECDBF4F83588760
:1006E00069877A878B8761110E946B0C9E012F5F4F
:1006F0003F4F86E0F90111928A95E9F785E0FE0106
:100700003796D90101900D928A95E1F789819A81F6
:100710004C815D81452B31F09F3F31F491E08F3F5B
:1007200019F403C091E001C090E090FF09C0498135
:100730005A816B817C818D819E810E946B0B05C0EB
:10074000C9010E94DC028111F2CF2B960FB6F894FA
:10075000DEBF0FBECDBFDF91CF910895FC01808138
:1007600091810E94DC080895CF93882309F450C03A
:10077000C82F8CEF8C0F813AD0F46C2F8091000140
:10078000909101010E94461C882349F06C2F8091B2
:100790000001909101010E94D11C0E94900C6C2FCD
:1007A00080910001909101010E94C61C0CC080E262
:1007B0008C0F883058F4C77081E001C0880FCA954B
:1007C000EAF70E944E0CCF910C94900CEBE5EC0FE5
:1007D000E33040F4F0E0EE59FE4F808190E0CF919D
:1007E0000C94041CE8E5EC0FE73150F4F0E0EE0F58
:1007F000FF1FEC5CFE4F80819181CF910C941A1CFD
:10080000CD3E30F08C2F0E945815CF910C942A16B3
:10081000CF910895882389F19CEF980F913A40F485
:10082000682F80910001909101010E94D11C0DC0A0
:1008300090E2980F983058F4877091E001C0990FBA
:100840008A95EAF7892F0E94540C0C94900C9BE532
:10085000980F933020F480E090E00C94041C98E50D
:10086000980F973120F480E090E00C941A1C8D3E94
:1008700020F00E94B3150C942A1608951F93CF936D
:10088000DF93182FEB010E94B403209741F08FE90A
:100890009FE00197F1F700C000002197F6CF812F6C
:1008A000DF91CF911F910C940A04893319F060E015
:1008B00070E002C060E570E00C943E04882321F0F3
:1008C0000E944E0C0C94900C0895882321F00E94F5
:1008D000540C0C94900C0895CF92DF92EF92FF92FB
:1008E0000F931F93CF93DF937C01D62FC72FFC016B
:1008F0001281058102950F700E94230C882399F0C4
:10090000112389F08C2F807F803421F080E28D0FBD
:10091000883048F082E00E94E00C0E94230C91E0B5
:10092000D82ED92601C0D12CCC2EC2948FE0C8225B
:100930008C2D90E08C30910508F0B6C1FC01EA5A8C
:10094000FF4F0C9422258C2F807FCF70882311F0CD
:10095000C295C07F112399F0CC2309F491C180E2A4
:100960008D0F883010F0D11104C08C2F0E944E0CD6
:1009700003C08C2F0E945E0C0E94900C81C18D2FB1
:100980000E940A04CC2309F48FC180E28D0F8830C5
:1009900010F0D11104C08C2F0E94540C03C08C2F76
:1009A0000E94640C0E94900C7FC18C2F807FCF70BE
:1009B000803211F0C295C07FDD2319F0D130C9F02B
:1009C00022C0112371F0002341F0013031F40E9464
:1009D000710C8C2B0E94790C67C10E94710C8C2BBE
:1009E0001DC0002319F0013009F45EC10E94860C7D
:1009F00025C0112321F0063008F056C10EC0053085
:100A000008F052C11BC0112361F0002331F0F7013F
:100A1000858180FF35C18F7085838C2F0E945E0495
:100A200043C1002359F0D93309F03BC1FFEF07EE72
:100A300013E0F15000401040E1F731C18C2F0E94CB
:100A4000650432C18C2F86958695837019F08130AC
:100A500061F02AC1112321F08D2F9C2F937002C0C9
:100A600080E090E00E94041C27C1112321F08D2F0B
:100A70009C2F937002C080E090E00E941A1C1CC161
:100A80008D2F112319F00E94581502C00E94B31532
:100A90000E942A1611C18C2F837009F047C01111D2
:100AA00007C12D2F229526952770220F220F6D2F1B
:100AB0006F70862F90E0A0E0B0E0022E04C0880F97
:100AC000991FAA1FBB1F0A94D2F7D4FF10C04FE092
:100AD00050E060E070E004C0440F551F661F771FB0
:100AE0002A95D2F7409550956095709503C040E0E7
:100AF00050E0BA01C695C695C3708A019B01082BC8
:100B0000192B2A2B3B2BC901B801C23049F058F4EC
:100B1000C13019F00E945707CBC00E944507C8C0DA
:100B20000E946907C5C00E944307C2C0112319F083
:100B30008C2F817001C08695882309F4B9C02D2FB0
:100B4000229526952770220F220F6D2F6F70862F0A
:100B500090E0A0E0B0E0022E04C0880F991FAA1F09
:100B6000BB1F0A94D2F7D4FF10C04FE050E060E002
:100B700070E004C0440F551F661F771F2A95D2F7F7
:100B8000409550956095709503C040E050E0BA01E3
:100B9000C695C695C3708A019B01082B192B2A2B79
:100BA0003B2BC901B801C23049F058F4C13019F0EB
:100BB0000E941C087DC00E940A087AC00E942E086C
:100BC00077C00E947D0774C0CF70112339F08C2F3D
:100BD0000E94A3078D2F0E945E046AC08D2F0E9481
:100BE00065048C2F0E94C40763C0D23F01F128F432
:100BF000D03F41F0D13FA1F03FC0D33FF9F0D43F07
:100C000039F13AC0112341F0053008F04DC08C2F66
:100C10008F710E94E90748C0063008F045C0F7CF41
:100C2000112339F08C2F8F710E94A3073DC011232F
:100C3000C9F38C2F8F710E94C40736C0112329F08D
:100C40008C2F8F710E948E072FC00E9489072CC0A5
:100C5000112349F0CF718C2F0E94A30763E08C2FE2
:100C60000E94C50C21C081E00E94E00C0230E0F03F
:100C700082E00E94E00C18C0112331F0002391F2B1
:100C80008D2F0E94B40310C0002399F2D93349F488
:100C90001FEF27EE33E0115020403040E1F700C055
:100CA00000008D2F0E940A0488EF8C0D843020F400
:100CB0000E94C91B0E945B03DD20C9F00E941F0C2B
:100CC00080FD15C0F70112820E94190C0E94A30733
:100CD000C7010E9498060E94190CDF91CF911F91C5
:100CE0000F91FF90EF90DF90CF900C94C407DF91AD
:100CF000CF911F910F91FF90EF90DF90CF900895CB
:100D00000F931F93CF93DF93EC01688179818A81E0
:100D10000E94E7088C010E9440080E943107B80138
:100D2000CE010E946C04DF91CF911F910F91089525
:100D3000CF93DF93EC01988189812B813C81232B18
:100D400031F08F3F31F481E09F3F19F403C081E01F
:100D500001C080E080FD19C0CE010E940103811115
:100D60000CC00E94230C882381F08A81882369F0BB
:100D700082E0DF91CF910C94E00CCE010E948006BE
:100D8000CE01DF91CF910C94DE02DF91CF910895D7
:100D900080E090E00E94041C80E090E00E941A1C19
:100DA0000E946B0C0E946E0C0E94900C0E945B17BC
:100DB0000C942A1680910001909101010E94DC1C84
:100DC0000C94C8060E945B0C0C94DA06E92FE2959D
:100DD000EF704E2F50E0FA013297EE30F105B0F48B
:100DE000EE59FF4F0C942225803F91F018F4883E75
:100DF00068F40EC0843F51F40BC0883E48F0813F38
:100E000029F406C093FB882780F9089580E00895AF
:100E100081E00895FC01808191810E94DC080E949C
:100E2000E6060895CF93DF9300D000D01F92CDB790
:100E3000DEB70F900F900F900F900F90DF91CF9132
:100E40000895CF93DF9300D000D000D0CDB7DEB7A8
:100E500026960FB6F894DEBF0FBECDBFDF91CF91BF
:100E60000895089508950C9432070C9433070E9456
:100E700035076093CB017093CC018093CD019093A3
:100E8000CE010C94C8060C9437070F931F93009162
:100E9000CB011091CC012091CD013091CE01602B7E
:100EA000712B822B932B1F910F910C9437070F936B
:100EB0001F930091CB011091CC012091CD01309175
:100EC000CE0160237123822393231F910F910C94F1
:100ED00037070F931F930091CB011091CC01209104
:100EE000CD013091CE0160277127822793271F9172
:100EF0000F910C9437070C9432070E947B07609384
:100F0000C7017093C8018093C9019093CA010C94E2
:100F1000C80660E070E0CB010C947D070F931F932F
:100F200041E050E060E070E08A019B0104C0000FE6
:100F3000111F221F331F8A95D2F7C901B8011F91D3
:100F40000F910C947D070F931F9341E050E060E0F8
:100F500070E004C0440F551F661F771F8A95D2F7B3
:100F60008091C7019091C801A091C901B091CA01B7
:100F70008A019B01082B192B2A2B3B2BC901B80195
:100F80001F910F910C947D070F931F9341E050E048
:100F900060E070E004C0440F551F661F771F8A95FC
:100FA000D2F740955095609570958091C7019091CA
:100FB000C801A091C901B091CA018A019B0108230F
:100FC00019232A233B23C901B8011F910F910C94C7
:100FD0007D070F931F9341E050E060E070E004C094
:100FE000440F551F661F771F8A95D2F78091C7015E
:100FF0009091C801A091C901B091CA018A019B01D9
:10100000082719272A273B27C901B8011F910F91EB
:101010000C947D070F931F930091C7011091C80195
:101020002091C9013091CA01602B712B822B932B27
:101030001F910F910C947D070F931F930091C7018F
:101040001091C8012091C9013091CA016023712318
:10105000822393231F910F910C947D070F931F936D
:101060000091C7011091C8012091C9013091CA01B6
:1010700060277127822793271F910F910C947D077A
:101080000895292F220F920F990F890FE82FE695C7
:10109000E695E695877051E001C0550F8A95EAF70D
:1010A00085E0E89FF0011124E755FE4F20E030E095
:1010B00070E04081CB01022E02C0969587950A947C
:1010C000E2F78170819584278523842781932F5FA0
:1010D0003F4F2530310569F70895292F220F920FD0
:1010E000990F890F682F669566956695982F97706A
:1010F00085E0689FB001112440E050E080E0FB01F2
:10110000E40FF51FE755FE4F208130E0092E02C0A5
:10111000369527950A94E2F721703327042E01C0F3
:10112000220F0A94EAF7822B4F5F5F4F453051053B
:1011300031F70895BF92CF92DF92EF92FF920F9313
:101140001F93CF93DF938C01C090C701D090C8014B
:10115000E090C901F090CA018091CB019091CC013F
:10116000A091CD01B091CE01C82AD92AEA2AFB2A42
:10117000CFE1D0E0D701C6010C2E04C0B695A795EB
:10118000979587950A94D2F780FD04C0219790F730
:10119000B12C07C0BC2EB8018C2F0E94B60F01974E
:1011A000A9F38B2DDF91CF911F910F91FF90EF90BD
:1011B000DF90CF90BF900895CF93DF93EC010E9412
:1011C0009A08BE010E94B60FDF91CF9108951F9338
:1011D000CF93DF93EB019091A801992321F0CB01EC
:1011E0000E94DC0813C0882349F0CB010E949A08B2
:1011F000182F682FCE010E94410804C0CB010E9425
:101200006D08182FBE01812F0E94B60FDF91CF917C
:101210001F9108951F93CF93DF93C091CF0116E0E4
:101220008091D001C81799F0D0E01C9FF0011D9F5C
:10123000F00D1124EF52FE4F408151816281738184
:10124000848195810E9421072196C770E9CFDF91A3
:10125000CF911F9108954091010250910202609137
:1012600003027091040280910502909106020C9491
:1012700021070F931F93CF93DF93809106028295EE
:101280008F7009F05DC080910302882309F458C073
:101290008091CF011091D001609101027091020202
:1012A000C0910402D091050291E06F3F09F090E0F7
:1012B000292F06E0811709F443C0209721F07F3FD2
:1012C00021F030E003C031E001C0322F90E030FD6A
:1012D00034C0089FF001099FF00D1124DF01AF52C7
:1012E000BE4F11963C911197371327C03C9136138E
:1012F00024C012963C91129731111FC013964D9144
:101300005C9114974C1B5D0B483C5105B0F48091E7
:1013100006028F70806180930602EA52FE4F808140
:101320008F708061808381E092E00E949806DF9157
:10133000CF911F910F910C940A0901968770BACF33
:10134000DF91CF911F910F9108959F92AF92BF921D
:10135000CF92DF92EF92FF920F931F93CF93DF9381
:10136000CDB7DEB761970FB6F894DEBF0FBECDBF25
:101370008C0185E0F801DE011D9601900D928A95A1
:10138000E1F7F801E2809091010260910202209160
:101390000402309105022115310531F06F3F31F41F
:1013A00081E09F3F19F403C081E001C080E0F82F85
:1013B000F1709F2E80FD3FC1F80140815181A380D3
:1013C000B48081E0C82E82E0D82EF0900302F501AF
:1013D000E21BF30BFF2009F4D9C080910602E83C20
:1013E000F10508F095C0282F207F09F052C0561350
:1013F00013C0491311C0FE2CE1100EC08F70806124
:10140000809306020E942B09C6010E9498068091D3
:101410000602F80185834CC1AB2831F05F3F31F4FF
:1014200081E04F3F19F403C081E001C080E080FDFE
:1014300003C081E08E2502C080E090E0F82FF170BB
:10144000FF2E80FF1CC08091CF012091D00136E09B
:10145000821709F40BC190E0389FF001399FF00D1D
:101460001124EF52FE4F6181561306C0608146136E
:1014700003C06281E61203C001968770E9CFFE2C9B
:10148000EE2009F415C18091060281608093060266
:1014900054C0561306C0491304C0E11002C0F8013D
:1014A00099C0C8010E940A07882361F1EE2051F11A
:1014B00020910602822F82958F7090E0029774F03F
:1014C000809101029091020298878F831986BB86D2
:1014D000AA862C87CE0107960E94980686E0F8011E
:1014E000A1E0B2E001900D928A95E1F70E943909DE
:1014F0000E942B090AC0561711F1C8010E940A0761
:1015000081112CC0C8010E949806FF24F394D0C01A
:10151000282F207F81F77A2DB98AA88A6E2D898994
:101520000E94120781E092E00E94980686E0F60190
:1015300011928A95E9F70E942B09F12CB9C0491341
:10154000DCCFE110DACFF8018583C8010E9498064C
:1015500086E0F60111928A95E9F7AAC0EE2091F291
:1015600020910602822F82958F7090E002970CF4F2
:10157000B5CF80910102909102029A8389831B82E8
:10158000BD82AC822E83CE010196A6CFE83CF10548
:1015900008F044C0FE2CEE2009F4B4CF561330C03E
:1015A00049132EC02091060220FD21C0822F829572
:1015B0008F70482F50E041155105C9F0F80125837F
:1015C0004F30510541F08F5F982F9295907F822F79
:1015D0008F70892B8583C8010E94980686E0F801E8
:1015E000A1E0B2E001900D928A95E1F73CC086E05F
:1015F000F801A1E0B2E001900D928A95E1F758C0A0
:10160000C8010E940A07811169CF8091060281609A
:1016100080930602C8010E9498064AC07A2DB98AB2
:10162000A88A6E2D89890E94120786E0F601119220
:101630008A95E9F718C0EE2009F464CFC8010E942A
:101640000A07F82E882309F45DCF86E0F801A1E0AF
:10165000B2E001900D928A95E1F781E092E00E945C
:10166000AE030E9439090E942B0922C04D875E8774
:101670008D859E850E94DC08292F22952F702230AF
:1016800028F49F7039F0811105C00BC0243028F474
:101690009F7049F4805E883020F0C8010E9498064F
:1016A0009F2CF92C05C0F8019581907F99F7F9CF0F
:1016B0008F2D61960FB6F894DEBF0FBECDBFDF91C0
:1016C000CF911F910F91FF90EF90DF90CF90BF903F
:1016D000AF909F9008951F93CF93DF93CDB7DEB760
:1016E0002C970FB6F894DEBF0FBECDBF4F8358873F
:1016F00069877A878B879C87CE0107960E94A50908
:101700008823D1F09F8188852A853B85232B31F062
:101710008F3F31F481E09F3F19F403C081E001C0A5
:1017200080E080FD47C04F81588569857A858B852B
:101730009C850E9421073EC086E0FE013796DE01AF
:10174000119601900D928A95E1F7FF81E8856A85EF
:101750007B856115710531F0EF3F31F481E0FF3F8A
:1017600019F403C081E001C080E080FD23C0209116
:10177000D00130E0C9010196877099274091CF01CF
:1017800050E084179507F1F1F983EA837D836C8338
:1017900096E0929FD001939FB00D1124AF52BE4F9F
:1017A000FE01319601900D929A95E1F78093D00158
:1017B0000E940A0916E08091CF019091D00189170B
:1017C00071F1189FC00111248F529E4F0E94A509EC
:1017D000882329F1E091CF011E9FF0011124EF52DF
:1017E000FE4F4081518162817381848195810E9485
:1017F00021078091CF0190E001968770992780930F
:10180000CF01D9CF0E94E2061092D0011092CF01F1
:10181000E1E0F2E086E0DF011D928A95E9F72C967F
:101820000FB6F894DEBF0FBECDBFDF91CF911F91F1
:1018300008958091070285958595859508958091F5
:1018400007028770089590910702977081E009F46C
:1018500080E0089590919D0292FB222720F928179D
:1018600051F080FB92F990939D0280919C0290919F
:101870009D020C94270D089580919D0282FB88277C
:1018800080F991E089270C942A0C81E00C942A0CB1
:1018900080E00C942A0C80912B02089590912B02E9
:1018A000892B80932B020895809590912B02892398
:1018B00080932B02089510922B02089590912A0292
:1018C000892B80932A020895809590912A0289237A
:1018D00080932A02089510922A02089510922902F4
:1018E000089580910802089508950C94740C0C9446
:1018F000750C90919D0292FD08C090910802981776
:1019000021F0809308020C94770C089580910802CE
:10191000882329F01092080280E00C94770C089537
:10192000E0910001F091010180912B028083E09110
:101930000001F0910101908180912A02892B80831E
:10194000E0910001F0910101908180912902892BA1
:10195000808380910802882381F0E0910001F0915A
:1019600001019081892B8083809100019091010178
:101970000E94301C81110E94860C80910001909180
:1019800001010C94DC1B0C94740C90919D0292FD4F
:1019900010C098E0899F90011124262B2093070204
:1019A0000E94A307809107028595859585950C94E3
:1019B000C30C0C94A3071092070280E00C94C30C94
:1019C000209107028095822380930702982F9770B9
:1019D00041F430E0482F082E000C550B2417350732
:1019E00021F490919D0292FF07C08595859585957C
:1019F0000E94C4070C94DB0C08956FEF7FEF80E02A
:101A000090E00C947E2580E090E00E945A2521E031
:101A1000893E9E4F09F020E0822F089582E090E0F9
:101A20000C94522583E090E00C945225CF9384E0EF
:101A300090E00E945225C82F82E290E00E94522539
:101A40002C2F30E0A901582BCA01CF910895CF93D4
:101A5000C92F682F84E090E00E9460256C2F82E2FD
:101A600090E0CF910C946025AB01BC018FE090E039
:101A70000C947225AB01BC0183E190E00C947225BB
:101A800060E070E0CB010C943A0D60E070E0CB01B7
:101A90000E94340D0C94400D69EE7EEF80E090E0E2
:101AA0000E947E2560E082E090E00E94602560E078
:101AB00083E090E00E9460251092CB011092CC014F
:101AC0001092CD011092CE0160E084E090E00E947F
:101AD000602560E082E290E00E94602560E085E0A1
:101AE00090E00E94602560E086E090E00E94602522
:101AF0006FEF87E090E00E94602540E050E0BA017F
:101B000088E090E00E94722560E08DE090E00E9405
:101B1000602540E050E0BA0188E190E00E94722523
:101B200060E087E190E00E94602540E050E0BA016B
:101B30008CE190E00E94722560E070E080E290E02D
:101B40000E947E2540E050E0BA0188E190E00E94CA
:101B500072250C94450D0C944C0D682F8EE090E08E
:101B60000C9460250E94C31D6093390270933A0261
:101B700080933B0290933C0260933502709336024F
:101B80008093370290933802089585B7806885BFA7
:101B900085B7806885BF08950C94921208950C94BF
:101BA000CE0D0C94CE0D0C94D10D0C94CE0D0C9446
:101BB000D50D0C94CE0D0E94C50D82E990E10E94D6
:101BC000311E0E94D90D0C94D70D0E94CF0D0C949C
:101BD000CE0D0E94AE1D0E94EE1C0E9492110E942A
:101BE00069170C94D30D9F92AF92BF92CF92DF9260
:101BF000EF92FF920F931F93CF93DF93CDB7DEB792
:101C00002A970FB6F894DEBF0FBECDBF0E94071211
:101C100081110E94B20D8DE2A82E82E0B82E00E064
:101C200010E0902E802F0E94D610D82EF501C19082
:101C30005F01C826B1F40F5F1F4F0830110589F707
:101C40008FEF89838A831B820E94B71D8160782F62
:101C50009D838C8349815A816B818D810E946403AD
:101C60002FC080913D0281FD0E94DC10E12CFF24F9
:101C7000F3948C2D8F21F1F00E94CC0D882399F0E4
:101C8000EE829F82DF2081E009F480E088870E9455
:101C9000B71D8160782F9A8789874E815F8168851B
:101CA0008A850E946403F801E35DFD4F8081F82678
:101CB000F08206C0E394FF0CF6E0EF12DACFBBCF60
:101CC0000E9448160E94C91B90912C028917B9F0F6
:101CD0000E94C91B80932C022A960FB6F894DEBF8F
:101CE0000FBECDBFDF91CF911F910F91FF90EF906D
:101CF000DF90CF90BF90AF909F900C945B032A969B
:101D00000FB6F894DEBF0FBECDBFDF91CF911F910C
:101D10000F91FF90EF90DF90CF90BF90AF909F908A
:101D20000895CF93DF930E94BB0FEC01811521E54D
:101D3000920708F045C0811530E5930708F094C07C
:101D4000883E910528F5803E910508F0F8C0883A54
:101D5000910570F4853A910508F07CC081309105B9
:101D600009F475C008F4E8C0049708F0E8C0E4C0BE
:101D70008F3B910508F0E0C0C85AD0E0CC0FDD1FC2
:101D8000CB59DE4F0990D881C02DCE019464D8C0C4
:101D9000811540E2940758F4811551E0950708F049
:101DA000CEC08D3E910508F4C7C09065C9C0C1156D
:101DB00080E4D80708F4C0C0DF70CE01906AC0C0CC
:101DC000811525E59207A8F4811534E5930708F0FD
:101DD00095C0811543E5940708F07BC0811552E555
:101DE000950708F061C0D82FCC27CE01816F906A8B
:101DF000A7C0C11589E5D807A0F4C11528E5D20709
:101E000008F082C0C11536E5D30708F095C08C2FC5
:101E10000E944F108F7190E0D82FCC27CE01906296
:101E20008FC0C1154AE5D40708F474C0CE0190569E
:101E30008115904208F080C08D2F8F710E944F1045
:101E4000DD27D0628F71AE01582BCA0179C081E0C5
:101E500090E076C0C55AD0E0CD56DE4F8881C82FBD
:101E6000D0E0CE0190646CC074E0969587957A9529
:101E7000E1F7282F23703C2F337081E090E002C0FF
:101E8000880F991F3A95E2F79C68AC01522B9A0192
:101E90009C2F9F709695969550E2959FE001112496
:101EA000C9018C2B9D2B4CC08370992721E030E019
:101EB00002C0220F331F8A95E2F79C2F96959695C4
:101EC00080E2989FE0011124C22BD32BCE019C68A5
:101ED00037C08370992721E030E002C0220F331F02
:101EE0008A95E2F79C2F9695969540E2949FE001A3
:101EF0001124C22BD32BCE019A6822C0D82FCC2715
:101F0000CE01846F906A1CC0DC2FCC27CE01806F7D
:101F1000906A16C08C2F8F700E944F1094E0D69557
:101F2000C7959A95E1F7CF70D0E0DC2FCC27D06928
:101F30009E01282BC90104C080E090E001C0CE01C1
:101F4000DF91CF91089520E3829FC0011124FC010D
:101F500026E0729FE00DF11D1124E60FF11DEE0F3A
:101F6000FF1FEC50FF4F8591949108950E94A30F9D
:101F70000E94910E08958238910569F1B0F4813381
:101F8000910509F46DC048F48932910509F463C0E4
:101F90008A32910509F469C008958533910509F4E1
:101FA00055C089339105B9F00895833E910569F1D3
:101FB00038F4803E9105B1F0823E910509F1089513
:101FC000863E9105A9F1873E9105B9F1843E9105C0
:101FD00009F064C023C020919C0220FD4FC021FD68
:101FE0004DC0089580919C0280FD44C080919D0267
:101FF00080FF44C080919C0284FD42C083EE4DC0AE
:1020000080919C0282FF38C0F5CF80919C0282FDB6
:1020100033C080919D0280FD31C0ECCF80919D0244
:1020200081FF32C080919C0284FD2AC087EE35C0BA
:1020300080919C0283FF26C0F5CF80919C0283FD96
:1020400021C080919D0281FD1FC0ECCF80919C0238
:1020500085FD1CC01DC080919C0285FD19C016C065
:1020600080919C0286FD16C017C080919C0286FD5F
:1020700013C010C089E311C082EE0FC080EE0DC006
:1020800080E00BC086EE09C084EE07C089E205C07F
:1020900085E303C08AE201C081E390E00895909156
:1020A0009C0292FF0DC0282F2871283019F4877FD9
:1020B000846006C0282F2471243011F48B7F88603F
:1020C00093FF0DC0282F2871283119F4877E846171
:1020D00006C0282F2471243111F48B7E8861209151
:1020E0009D0220FF0DC0382F3871383019F4877FDA
:1020F000816006C0382F3171313011F48E7F8860D5
:1021000021FF0DC0282F2871283119F4877E8161A5
:1021100006C0282F2171213111F48E7E886194FD33
:10212000877E089580E008950C94FD0C0E940712AC
:102130008FE39CE90197F1F700C000000E940712AD
:102140000E94AA12811102C084E001C080E00E94B6
:10215000D61081FF04C00E9494100C94201E089594
:102160000C9496100E94030D811102C00E94AB0DC9
:102170000E940E0D80933D020E94160D90939D02C9
:1021800080939C020E94B0100E94120D682F70E094
:1021900080E090E00E9443076091C7017091C80100
:1021A0008091C9019091CA010C947B07E82FF0E05F
:1021B000EA55FD4F80810895089580EA8A95F1F7E8
:1021C000089500C008950C94DD1008950C94E51056
:1021D0000C94E6100C94E5100C94EA10F894E82F97
:1021E000E295EF70F0E031A1282F2F7081E090E0B0
:1021F00001C0880F2A95EAF7982F9095932391A311
:1022000092A1892B82A37894089508950C940511C6
:102210000F931F93CF93DF93CCE9D1E089918F3F48
:1022200011F00E94EE1081E0C03AD807B9F7C6E974
:10223000D1E00CE911E089918F3F11F00E94EE107E
:102240000C171D07C1F7DF91CF911F910F910895D2
:10225000CF92DF92EF92FF920F931F93CF93DF9372
:102260008C01C62FD0E0CE0184569E4F7C01FC012C
:1022700090819F3F09F44DC0D62EF894E92FE29546
:10228000EF70F0E081A19F7021E030E001C0220FEB
:102290009A95EAF7822B81A382A12095282322A375
:1022A00078940E94E110E6E9F1E020E030E0C12CF2
:1022B00051E041914F3FB1F0A42FA295AF70B0E033
:1022C00090968C9190E04F7002C0959587954A95B5
:1022D000E2F780FD07C0852F022E01C0880F0A9407
:1022E000EAF701C080E0C82A2F5F3F4F2630310552
:1022F00001F7F70180818F3F11F00E94EE1061E03D
:10230000C11001C060E08D2D0E94E310C00FD11FED
:10231000C882DF91CF911F910F91FF90EF90DF90D6
:10232000CF9008950E94AC12809102018091020129
:10233000811102C094E001C090E09093AF0284E06C
:10234000891B8093AE020E940811EEE9F2E0A6EA32
:10235000B2E011921D9282E0E63AF807D1F784E0EC
:102360000E945B120E94E9020C94B6121F93CF9355
:10237000DF9300D000D0CDB7DEB70E9492126091FB
:10238000AF02882371F119821A821B821C82862F68
:1023900090E0BE016F5F7F4F8A559D4F0E94C4122F
:1023A000E091AE029E012B5F3F4FF0E0EA55FD4FFA
:1023B000DE011196882361F010E08D9190819817CD
:1023C00011F0808311E03196A217B307B1F706C070
:1023D00011921D92A217B307D9F711E00E94EF02E4
:1023E0000DC070E06A557D4F8091AE0290E08A5535
:1023F0009D4F0E9454130E94061110E0812F0F90F0
:102400000F900F900F90DF91CF911F910895EF9251
:10241000FF920F931F93CF93DF93CDB7DEB728972B
:102420000FB6F894DEBF0FBECDBF8E010F5F1F4FFA
:1024300088E0F80111928A95E9F7F12C6F2DC80117
:102440000E942811F394F4E0FF12F8CF48E050E026
:10245000B8018EE992E00E943C257C0121E0892BA5
:1024600009F420E0E114F10441F088E0F801AEE95C
:10247000B2E001900D928A95E1F76091AF0270E0B1
:102480006A557D4F44E08EE992E00E945C12EF288D
:1024900019F40E94B61102C081E090E028960FB6B0
:1024A000F894DEBF0FBECDBFDF91CF911F910F918A
:1024B000FF90EF9008950895FF920F931F93CF938D
:1024C000DF938C01F62ED72FC42F222349F081E011
:1024D000809340020E94B71D90933F0280933E027A
:1024E000809140028823C1F080913E0290913F028A
:1024F0000E94CF1D059780F0EF2DFD2FD8014C2FA6
:1025000050E0CD01801B910B841795071CF48D9131
:102510008193F7CF10924002DF91CF911F910F91DD
:10252000FF9008958091430281110DC00E94012502
:10253000811102C082E001C081E0809343028230B9
:1025400011F40E94FC2481E090914302913009F043
:1025500080E008950C9492120E94AA1280930201C6
:102560000E94921281110C94FC1208950E94921202
:10257000811102C00C94FE12089581E090914402F2
:102580009A3008F080E008950F931F93CF93DF9364
:10259000EC018B01809144028A3038F4B801CE01FD
:1025A0000E94521381111DC00AC080914102909176
:1025B00042020E94CF1D843F914080F715C0809158
:1025C00044028F3F19F08F5F809344028091440250
:1025D0008A3060F00E94B71D9093420280934102BE
:1025E00003C01092440202C080E001C081E0DF918C
:1025F000CF911F910F9108950C94FF190C94021A1A
:10260000EF92FF920F931F93CF93DF937901C82F1F
:10261000880FDD0B41155105A9F08AE08C9FF00170
:102620008D9FF00D1124ED5FFE4F838194818B5BB4
:102630009D4F228130E04217530708F49A01A90107
:102640000E944925CE010E940C1B892B09F501151A
:10265000110501F18AE08C9FF0018D9FF00D11248E
:10266000ED5FFE4F458150E00417150708F4A801FF
:102670008AE08C9FF0018D9FF00D1124ED5FFE4FDD
:10268000668177816B5B7D4FC7010E94492502C03F
:1026900080E001C081E0DF91CF911F910F91FF9009
:1026A000EF9008950C9475140C9491140F931F934C
:1026B000CF93DF9300D000D0CDB7DEB760915A0240
:1026C00070915B0280915C0290915D020E94DE1D20
:1026D000643671058105910528F10E94141DDC0105
:1026E000CB010296A11DB11D89839A83AB83BC8364
:1026F00000E010E020E030E044E050E0BE016F5F19
:102700007F4F82E00E940013182F882361F00E94FF
:10271000C31D60935A0270935B0280935C02909396
:102720005D0201C011E0812F0F900F900F900F906C
:10273000DF91CF911F910F910895AF92BF92CF92E9
:10274000DF92EF92FF920F931F93CF93DF937C0161
:102750005B016A010E94BD12811103C001E010E01B
:1027600002C00AE010E0C1E0D0E0F894B501C70172
:10277000F60109957894811115C021960C171D0753
:1027800094F0CC9F9001CD9F300D300D112480E04E
:1027900090E045E34A95F1F7000001968217930710
:1027A000C1F7E3CF81E0DF91CF911F910F91FF90AF
:1027B000EF90DF90CF90BF90AF900895AF92BF920F
:1027C000CF92DF92EF92FF920F931F93CF93DF93FD
:1027D00000D000D01F92CDB7DEB75B01E090A4011E
:1027E000F090A50101E010E09E012B5F3F4F40E01B
:1027F00050E060E070E080E00E940013182F882312
:1028000009F43EC067018FEFC81AD80A60915602DA
:102810007091570280915802909159020E94DE1DDA
:10282000643671058105910518F104E010E09E0100
:102830002F5F3F4F40E050E060E070E081E00E9499
:102840000013182F64E070E0C6010E946A1791E03F
:102850002D81281390E0192351F10E94C31D60932C
:10286000560270935702809358029093590211C0F8
:1028700064E070E0C6010E946A179D818913D5CF7C
:10288000F70181819281A381B48189839A83AB838B
:10289000BC83112361F089819A81AB81BC818093D3
:1028A000520290935302A0935402B0935502809128
:1028B000520290915302A0915402B0915502F50139
:1028C00080839183A283B383812F0F900F900F9009
:1028D0000F900F90DF91CF911F910F91FF90EF908C
:1028E000DF90CF90BF90AF9008950F931F93CF9339
:1028F000DF93EC018B014EED53E10E949D13882381
:1029000051F046E553E1B801CE01DF91CF911F911F
:102910000F910C949D1380E0DF91CF911F910F9147
:1029200008950F931F93CF93DF93F894C091A40160
:10293000D091A501CE01019624E0FB01DC010190BC
:102940000D922A95E1F764E070E00E946A1788838F
:102950007894F8946D817E818F81988500914E02E4
:1029600010914F022091500230915102601771076F
:102970008207930751F060934E0270934F02809349
:102980005002909351020E94F71C7894DF91CF91EE
:102990001F910F9108950E942F1D0E94A71F0E9452
:1029A000C01F0E94D21F0E94E50DFBCF80916402E0
:1029B00080FF0BC06091260185E0689FB001112463
:1029C00075956795759567952BC081FF09C06091D6
:1029D000260185E0689FB00111247595679520C098
:1029E00082FF07C06091260185E0689FB001112435
:1029F00017C0909163029923D1F060912501961739
:102A000088F72091260185E0289F90011124929F4C
:102A1000A001939F500D112470E0CA010E940E2561
:102A20006038710540F46115710519F406C065E060
:102A300070E0862F08958FE7089581E008958091D2
:102A4000640280FF08C06091220170E0759567956F
:102A50007595679521C081FF06C06091220170E0E5
:102A60007595679519C082FF04C06091220170E0DE
:102A700010C090916202992399F0609121019617FC
:102A8000A0F780912201899FC001112470E00E946B
:102A90000E256038710540F46115710519F406C002
:102AA00061E070E0862F08958FE7089581E0089532
:102AB0008D3E21F40E94D614819504C08E3E29F4E7
:102AC0000E94D6148093680208958F3E21F40E94DC
:102AD000D614819504C0803F29F40E94D6148093B7
:102AE00067020895893F19F40E941F1505C08A3FA7
:102AF00031F40E941F1581958093690208958B3FE0
:102B000021F40E941F15819504C08C3F29F40E9476
:102B10001F1580936A0208959FE0980F983078F40B
:102B200021E030E0A90102C0440F551F9A95E2F759
:102B3000CA0190916602892B8093660208958D3FA9
:102B400021F48091640281600BC08E3F21F480915A
:102B50006402826005C08F3F29F480916402846022
:102B60008093640208958D3E39F49091680297FF36
:102B700035C01092680259C08E3E29F490916802C7
:102B80001916BCF32BC0909167028F3E29F497FF72
:102B900025C01092670249C0803F19F41916CCF382
:102BA0001DC090916902893F29F41916BCF4109256
:102BB00069023BC08A3F19F497FF10C0F8CF8B3FE2
:102BC00039F490916A0297FF09C010926A022DC0F1
:102BD0008C3F21F490916A021916BCF39FE0980F84
:102BE000983080F421E030E0A90102C0440F551F65
:102BF0009A95E2F7CA0180959091660289238093A5
:102C0000660213C08D3F21F4809164028E7F0BC059
:102C10008E3F21F4809164028D7F05C08F3F29F49F
:102C2000809164028B7F809364028091670281119E
:102C300006C080916802811102C0109263028091E7
:102C40006902811106C080916A02811102C010924E
:102C5000620208950E94B71D20916702211104C0ED
:102C600020916802222321F09093610280936002F8
:102C700020916902211104C020916A02222321F0CF
:102C800090935F0280935E0285E692E00C94F61BBF
:102C9000EF92FF920F931F93CF93DF9300D000D05A
:102CA00000D0CDB7DEB786E0E5E6F2E0DE011196B2
:102CB00001900D928A95E1F7E0906702F09068022A
:102CC0000091690210916A021092670210926802E4
:102CD0001092690210926A02E11003C0FF2009F409
:102CE0005DC080916002909161020E94CF1DAC0195
:102CF00090916302992339F02091270130E0241745
:102D0000350758F04BC0209128018AE0289F900198
:102D100011242417350718F041C09F3F19F09F5F19
:102D200090936302EE2061F00E94D6141E1414F0FA
:102D30009FEF01C091E0989F902D1124909367021E
:102D4000FF2061F00E94D6141F1414F09FEF01C001
:102D500091E0989F902D1124909368023091670222
:102D60003323E1F0209168022223C1F045EB3403C4
:102D7000C0011124992319F09093670203C081E0E8
:102D80008093670235EB2303C0011124992319F0C6
:102D90009093680203C081E080936802011103C030
:102DA000112309F45DC080915E0290915F020E9440
:102DB000CF1DAC0190916202992339F0209123013B
:102DC00030E02417350758F04BC0209124018AE0E9
:102DD000289F900111242417350718F041C09F3F08
:102DE00019F09F5F90936202002361F00E941F150B
:102DF000101614F09FEF01C091E0989F902D1124C0
:102E000090936902112361F00E941F15111614F0AE
:102E10009FEF01C091E0989F902D112490936A023A
:102E2000309169023323E1F020916A022223C1F03C
:102E300045EB3403C0011124992319F090936902E2
:102E400003C081E08093690235EB2303C0011124A4
:102E5000992319F090936A0203C081E080936A027B
:102E60008091670281110BC080916802811107C0B7
:102E700080916902811103C080916A0281110E94D0
:102E80002A16EB82FC820D831E8386E0FE013196BA
:102E9000A5E6B2E001900D928A95E1F726960FB66D
:102EA000F894DEBF0FBECDBFDF91CF911F910F9180
:102EB000FF90EF900895E5E6F2E086E0DF011D92D5
:102EC0008A95E9F7109263021092620210926402EE
:102ED00008950895FC01680F791F8FEF91E3E617BD
:102EE000F70771F02191822728E030E087FF03C0C7
:102EF000880F892701C0880F21503109B9F7EFCF1A
:102F000008950F931F93CF93DF93C42FD22FFC010B
:102F100082818823C9F040936D020E94B71D90936F
:102F20006C0280936B0280E28C0F883008F057C0EF
:102F3000C77081E001C0880FCA95EAF7DF91CF9191
:102F40001F910F910C945E0480916D02481330C064
:102F500080916B0290916C020E94CF1D883C91057C
:102F600038F510E21D0FCD17B9F080E28C0F8830D4
:102F700040F4C77081E001C0880FCA95EAF70E944B
:102F80006504183028F581E09D2F977001C0880FE7
:102F90009A95EAF70E945E04802F0E94550418302B
:102FA000F0F4D77081E001C0880FDA95EAF70AC023
:102FB00080E28C0F883098F4C77081E001C0880FE0
:102FC000CA95EAF7DF91CF911F910F910C94650498
:102FD000802FDF91CF911F910F910C945504DF91B9
:102FE000CF911F910F9108950F939C01CB01243F26
:102FF0004CE5340731F188F4293DFCE53F07D9F071
:103000002A3D4CE5340779F1283D3C45A9F506E217
:1030100021EE41EE68ED7CE52BC0263FFCE53F0745
:10302000E1F0A8F0273F3C4539F507E225EE46EEF2
:1030300067EF7CE51DC007E225EE45EE69ED7CE516
:1030400017C006E221EE40EE64EF7CE511C007E216
:1030500025EE44EE65EF7CE50BC006E221EE42EE84
:1030600066EF7CE505C008E221E045EE6AED7CE50F
:103070000E94811780E008C0FC018281882319F03A
:1030800010926D0201C081E00F910895CF93DF93FC
:10309000EC01FB018281882309F41FC1C230FCE5E9
:1030A000DF0708F41BC1C6319CE5D90738F09E0143
:1030B0002B5F3C452930310508F010C10E94160DE8
:1030C00090939D0280939C02C031ECE5DE0709F4E9
:1030D000C3C008F041C0C8308CE5D80709F49AC0D5
:1030E000F0F4C430ECE5DE0709F487C068F4C230C0
:1030F0008CE5D80709F477C0C330DC4509F0E3C09C
:1031000080919C02826076C0C630ECE5DE0709F44F
:103110006EC008F07BC080919C0288606BC0CC3090
:103120008CE5D80709F485C068F4CA30ECE5DE0701
:1031300009F474C008F079C00E94E20680919C02F4
:10314000806858C0CE308CE5D80709F476C008F006
:103150007FC080919C028BC0CC3FECE5DE0709F478
:103160004FC018F5C3318CE5D80709F47DC078F459
:10317000C131ECE5DE0709F473C0C231DC4509F06A
:10318000A2C00E94E20680919C028F7733C0C531B5
:103190008CE5D80709F472C008F486C0CB3FDC4543
:1031A00009F091C080919D023EC0C115FDE5DF0789
:1031B00009F45FC058F4CE3F9CE5D90709F444C038
:1031C00008F43FC080919D0282602DC0C230FDE5B1
:1031D000DF0709F475C008F45DC0C330DD4509F0B0
:1031E00072C080E06EC080919C02816003C08091BB
:1031F0009C02806180939C0266C080919C0211C0F9
:1032000080919D02826080939D025DC080919C02AE
:103210008062F0CF80919C028064ECCF80919C0210
:1032200088608460E7CF8160EECF80919C028E7FC2
:10323000E1CF80919C028D7FDDCF80919C02877FC2
:10324000D9CF80919D0218C080919D028D7FDBCFE8
:1032500080919C028F7ECECF80919C028F7DCACFC1
:1032600080919C028F7BC6CF80919C02877F8B7F51
:10327000C1CF80919D028D7F8E7FC5CF80919C02B2
:1032800082FB222720F991E0922790FB82F990FBA4
:1032900083F9B0CF80919D02982F909591708E7F89
:1032A000892B90FB81F9AFCF0E94E20680919C02AE
:1032B00087FB222720F991E0922790FB87F99ACF8C
:1032C00081E00E94AD0D80919C0290919D020E9430
:1032D000270D0E94E20680E001C081E0DF91CF91DE
:1032E0000895CF93DF9386319C4541F5EB010E9411
:1032F0004B0C982F8A812091000130910101882385
:1033000079F09A7A81E009F480E080936E0291115D
:1033100002C069E201C065E3C9010E94C61C0AC07F
:1033200080916E02811102C069E201C065E3C901AA
:103330000E94D11C0E94900C80E001C081E0DF91CE
:10334000CF9108958EE14A9B02C08150E1F74A9BDC
:10335000FECF08955A9880E28A95F1F75A9A089517
:10336000FC012AE02A95F1F728E090E080E031E0C6
:1033700040E14A95F1F7880F4A9B02C0816093278C
:1033800000C0000040E14A95F1F7215089F720E1A3
:103390002A95F1F729B100C0000030E13A95F1F724
:1033A00022FB222720F992272081920F90830895F3
:1033B000EF92FF920F931F93CF93DF931F92CDB79E
:1033C000DEB719828C017C01E60EF11C0E151F057B
:1033D00051F00E94A219CE0101960E94B019F80185
:1033E00081938F01F3CF81E09981911180E00F905B
:1033F000DF91CF911F910F91FF90EF900895529A16
:103400005A9A089552985A9AEA9AE9E6F0E0808129
:103410008F7C80830895615091E001C0990F6A9577
:10342000EAF720E031E0992361F0492F482319F0B1
:103430005A9A232701C05A9840E24A95F1F7969587
:10344000F2CF222311F05A9A01C05A9880E28A954D
:10345000F1F75A980895FF920F931F93CF93DF933C
:10346000EC018C01060F111DC017D10741F0F99036
:103470000E94AA1968E08F2D0E940B1AF5CFDF91E8
:10348000CF911F910F91FF9008951F920F920FB649
:103490000F921124EF92FF920F931F932F933F935C
:1034A0004F935F936F937F938F939F93AF93BF934C
:1034B000EF93FF93CF93DF931F92CDB7DEB71982BF
:1034C0000E94A219CE0101960E94B019A82FA695BC
:1034D000A695A6959A2F969595702A2F2570920FEE
:1034E000292F237096959695920F877089137CC02B
:1034F0008981811179C0A43008F076C080E18A9575
:10350000F1F75A9A529AB2E0BA95F1F700C05A9878
:10351000EA2EF12CEAE0AE9FD0011124AD5FBE4F40
:103520001896ED91FC9119973097B1F06091A40134
:103530007091A50116962D913C911797260F371F74
:1035400013968D919C911497680F791F15964C9145
:10355000159712968C9109958AE08E9DF0018F9DAA
:10356000F00D1124ED5FFE4F6581662351F08091CF
:10357000A4019091A50126813781820F931F0E949B
:103580002B1A0E94AA19F0E1FA95F1F75A9852986D
:103590005A9A80E18A95F1F78AE08E9D80018F9D8D
:1035A000100D11240D5F1E4FD80112966C911297C9
:1035B000662399F08091A4019091A50113962D9115
:1035C0003C911497820F931F0E94D819D801ED9156
:1035D000FC91811105C082E004C0D801ED91FC91FD
:1035E00088E080830E94A2190F90DF91CF91FF9114
:1035F000EF91BF91AF919F918F917F916F915F916B
:103600004F913F912F911F910F91FF90EF900F904D
:103610000FBE0F901F9018950F931F93CF93DF93BA
:10362000843091050CF0A9C02AE0289FF001299F61
:10363000F00D1124ED5FFE4F20813181232B09F421
:103640009CC0EC01F894529A5A9885E08A95F1F75B
:1036500000008C2F869585709C2F9570890F982F70
:103660009370869586958E0123E0000F111F2A9591
:10367000E1F7890F082B0E94AA19A4E0AA95F1F797
:1036800000C068E0802F0E940B1AB0E1BA95F1F7F4
:1036900052985A9A4A9902C000C0FCCF87E090E045
:1036A0004A9B17C0019799F4529A5A9A8AE08C9FC4
:1036B000F0018D9FF00D1124ED5FFE4F0190F08120
:1036C000E02D81E08083789481E090E058C000C0D4
:1036D000E7CF8AE08C9F80018D9F100D11240D5F34
:1036E0001E4FF80165816623B9F08091A401909185
:1036F000A50126813781820F931F0E94D81981115D
:103700000BC0529A5A9AD801ED91FC9182E08083C5
:10371000789482E090E033C00E94A219B0E2BA959A
:10372000F1F75A98529AE0E1EA95F1F78AE08C9F16
:10373000F0018D9FF00D1124ED5FFE4F6281662335
:1037400051F08091A4019091A50123813481820FD1
:10375000931F0E942B1A0E94AA198AE08C9FF001E5
:103760008D9FF00D1124ED5FFE4F0190F081E02D53
:103770001082789480E090E002C084E090E0DF91D5
:10378000CF911F910F9108959093750280937402C9
:1037900008950E949212811103C080916F020895D2
:1037A000E0917402F0917502309721F00190F08160
:1037B000E02D099480E00895E0917402F091750283
:1037C000309799F020913301222359F020919C02E7
:1037D00027FF07C0DC012C9111962C93119725E04F
:1037E0002C930280F381E02D09940895E0917402F6
:1037F000F0917502309739F022E0DC012C930480BF
:10380000F581E02D099408952091720230917302A0
:103810002817390771F09093730280937202E09138
:103820007402F0917502309721F00680F781E02D47
:103830000994089520917002309171022817390778
:1038400071F09093710280937002E0917402F09194
:103850007502309721F00084F185E02D09940895D8
:10386000FC01329680913301882331F080919C02D3
:1038700087FF02C09EE101C096E080E0915028F0F1
:1038800021912223D9F38F5FF9CF0895662351F157
:10389000209133012223E9F020919C0227FF19C0D7
:1038A000462F4695469546954E31E0F4677021E0E7
:1038B00030E002C0220F331F6A95E2F7FC01E40FEB
:1038C000F11D828190E02823392381E0232B69F4C4
:1038D00009C0FC01329608962191621729F0E81779
:1038E000F907D1F780E0089581E008959C01FC017B
:1038F00032969FEF80E04191461789F09F3F19F47F
:10390000411101C0982F8F5F8630A9F79F3F39F092
:10391000F901E90FF11D97FDFA9562830895089565
:103920009C012A5F3F4FFC014281461301C0128275
:10393000019682179307B9F70895262F26952695A5
:1039400026952E3168F4FC01E20FF11D677021E02D
:1039500030E001C0220F6A95EAF78281282B22838A
:103960000895262F2695269526952E3170F4FC0174
:10397000E20FF11D677021E030E001C0220F6A956F
:10398000EAF720958281282322830895209133012C
:10399000222329F020919C0227FD0C949D1C0C945D
:1039A000761C20913301222329F020919C0227FDCF
:1039B0000C94B11C0C94901C20913301FC013296A4
:1039C000222331F080919C0287FF02C08EE101C06A
:1039D00086E0DF011D928A95E9F708951092B10201
:1039E0001092B2021092B3021092B4020895CF92D4
:1039F000DF92EF92FF926B017C010E949212811183
:103A00000EC00E94C31DC61AD70AE80AF90AC0925E
:103A1000B102D092B202E092B302F092B402FF90EF
:103A2000EF90DF90CF9008950F931F930E94921212
:103A3000882321F01F910F910C94C31D0E94C31D78
:103A40000091B1021091B2022091B3023091B40200
:103A5000600F711F821F931F1F910F91089508958A
:103A600008950C94301D0C94301DCF930E94331D8B
:103A70000E9407120E94311DC0E08C2F0E94D610B8
:103A8000811104C0CF5FC830C1F701C081E0CF9180
:103A900008950C94301D0C94491D8091BD02843012
:103AA00049F10E944B1D80E00E945B031092760258
:103AB00020E488E190E00FB6F894A8958093600028
:103AC0000FBE2093600083B7817F846083BF83B77C
:103AD000816083BF7894889583B78E7F83BF0FB64C
:103AE000F894A8958091600088618093600010929E
:103AF00060000FBE08950C94301D0E94E2060E94E3
:103B0000C91B0E945B030C947B1D1F920F920FB682
:103B10000F9211248F939F93AF93BF93809176025E
:103B2000811113C08091B5029091B602A091B702A5
:103B3000B091B8024196A11DB11D8093B50290933A
:103B4000B602A093B702B093B802BF91AF919F9114
:103B50008F910F900FBE0F901F90189582E084BD3B
:103B600093E095BD9AEF97BD80936E0008952FB7AF
:103B7000F8948091B5029091B602A091B702B091ED
:103B8000B8022FBF08952FB7F8946091B5027091D5
:103B9000B6028091B7029091B8022FBF08959C01A0
:103BA0004FB7F8948091B5029091B602A091B702F8
:103BB000B091B8024FBF821B930B0895CF92DF9252
:103BC000EF92FF922FB7F894C090B502D090B60252
:103BD000E090B702F090B8022FBFA7019601261B14
:103BE000370B480B590BCA01B901FF90EF90DF90DA
:103BF000CF90089578941F920F920FB60F921124D0
:103C00008F939F93AF93BF938091B5029091B6022B
:103C1000A091B702B091B8020196A11DB11D809389
:103C2000B5029093B602A093B702B093B802BF91C9
:103C3000AF919F918F910F900FBE0F901F9018958D
:103C400087E797E790930108809300089AE088E15E
:103C50000FB6F894A895809360000FBE9093600013
:103C6000FFCF9093A7018093A601089580919A02B7
:103C700008959091BD02943031F58093770270934E
:103C800079026093780282E08093E9008FEF90914F
:103C9000E800815095FD06C095ED9A95F1F700007A
:103CA0008111F5CF8091E80085FF0DC040E050E024
:103CB00063E070E087E792E00E945E208091E80078
:103CC0008E778093E8000895BC0184E00C94391E3F
:103CD000BC0183E00C94391E22E02093E9002FEF11
:103CE0003091E800215035FD06C035ED3A95F1F7E9
:103CF00000002111F5CF2091E80025FF0BC040E026
:103D000050E066E070E00E945E208091E8008E77CF
:103D10008093E8000895CF93DF932091330122230D
:103D200039F020919C0227FF03C060E222E002C02C
:103D300068E021E02093E9002FEF3091E800215066
:103D400035FD06C035ED3A95F1F700002111F5CFAC
:103D50002091E80025FF1DC0EC0180913301811105
:103D600005C040E050E068E070E003C070E040E073
:103D700050E0CE010E945E208091E8008E77809313
:103D8000E80080E2FE01AAE7B2E001900D928A9578
:103D9000E1F7DF91CF9108958091BC02811109C0B4
:103DA0000E94EF210E944C228091E2008460809367
:103DB000E20008951092BC020895089508950895B0
:103DC00042E061EC81E00E94682142E261EC82E025
:103DD0000C9468218091BF02833009F460C030F4F4
:103DE000813071F0823009F499C008958A3009F465
:103DF00085C08B3009F46BC0893009F0A7C020C0A2
:103E00008091BE02813A09F0A1C08091E800877FCD
:103E10008093E8008091C2029091C302892B21F423
:103E200060E28AE792E003C060E080E090E070E04A
:103E30000E94A9208091E8008B778093E800089584
:103E40008091BE02813209F081C08091C2029091BE
:103E5000C302029708F07AC08091E800877F8093C0
:103E6000E8008091E80082FD05C08091BD028111CB
:103E7000F8CF6CC02091F3008091F20090E0922B7B
:103E8000029729F48091F1008B7F813021F4809199
:103E9000F10080939A028091E8008B7753C0809163
:103EA000BE02813A09F052C08091C2029091C302D1
:103EB000892B09F04BC08091E800877F8093E80050
:103EC0008091E80080FFFCCF8091330136C0809163
:103ED000BE028132D9F58091C2029091C302892B32
:103EE000A9F58091E800877F8093E8000E949D21DA
:103EF0008091C002809333010C94E2068091BE024F
:103F0000813221F58091E800877F8093E8000E944C
:103F10009D218091C10280939B0208958091BE02F1
:103F2000813AA1F48091E800877F8093E800809136
:103F3000E80080FFFCCF80919B028093F10080918C
:103F4000E8008E778093E8000C949D21089584B753
:103F5000877F84BF0FB6F894A89580916000886130
:103F600080936000109260000FBE90E080E80FB672
:103F7000F89480936100909361000FBE0C94DB0D68
:103F80000E94EF210E944C22E2EEF0E080818460EA
:103F9000808378940E94E1240E94E90D89E291E0F7
:103FA0000C94C41B8091BD028530A9F48091BD02A0
:103FB000853079F40E944D1D8091BB028823B1F3B6
:103FC0000E94351D882391F30E9448200E94E2063A
:103FD000EDCF0E947D1D0C94F30D0C94EF1F292F43
:103FE000332723303105C9F060F42130310581F0E9
:103FF0002230310509F044C08BE390E028E533E03E
:1040000043C021323105E1F02232310549F138C097
:1040100082E190E023E933E037C0992781309105B0
:1040200049F028F0029761F5E4E3F3E005C0E4E528
:10403000F3E002C0E2E4F3E0849190E09F0124C049
:104040006115710541F061307105D1F489E090E0AE
:1040500023E833E019C089E090E02AE633E014C099
:104060006115710541F06130710551F486EB90E006
:1040700025EA33E009C080E490E02BE534E004C099
:1040800080E090E020E030E0FA0131832083089561
:1040900080E189BD82E189BD09B400FEFDCF809138
:1040A000D8008F7D8093D8008091E000826080935B
:1040B000E0008091E00081FDFCCF0895CF92DF9277
:1040C000EF92FF920F931F93CF93DF93EC018B013D
:1040D0007A010E94BC21811133C0E114F10439F04E
:1040E000F70180819181081B190BC80FD91FC12CC2
:1040F000D12C0115110519F18091E80085FD16C03C
:104100008091E8008E778093E800E114F10449F093
:10411000F70180819181C80ED91ED182C08285E0CD
:104120000FC00E94BC21882321F30AC0899180938B
:10413000F10001501109FFEFCF1ADF0ADACF80E05A
:10414000DF91CF911F910F91FF90EF90DF90CF9073
:1041500008952091C4023091C5022617370748F010
:104160006115710539F42091E8002E772093E8005D
:1041700001C0B901FC0120E06115710579F1809160
:10418000BD028823F1F18530F1F18091E80083FDD3
:104190003CC08091E80082FD2EC08091E80080FF45
:1041A000EBCF2091F3008091F20090E0922B61150B
:1041B000710551F08830910538F421912093F10078
:1041C000615071090196F3CF21E0089709F020E0D2
:1041D0008091E8008E778093E800CECF2111CFCF79
:1041E0000AC08091BD02882361F0853061F0809122
:1041F000E80083FD0AC08091E80082FFF2CF80E0F2
:10420000089582E0089583E0089581E00895209163
:10421000C4023091C5022617370748F061157105B1
:1042200039F42091E8002E772093E80001C0B9010D
:10423000FC0120E06115710591F18091BD02882398
:1042400009F440C0853009F43FC08091E80083FD47
:104250003DC08091E80082FD2FC08091E80080FF82
:10426000E9CF2091F3008091F20090E0922B61154C
:10427000710559F08830910540F424912093F100A4
:104280003196615071090196F2CF21E0089709F04B
:1042900020E08091E8008E778093E800CBCF211159
:1042A000CCCF0AC08091BD02882361F0853061F0D7
:1042B0008091E80083FD0AC08091E80082FFF2CF80
:1042C00080E0089582E0089583E0089581E00895F4
:1042D000982F973068F59093E900981739F070910E
:1042E000EC002091ED005091F00003C0242F762FB8
:1042F00050E021FD02C09F5FECCF3091EB003E7F8C
:104300003093EB003091ED003D7F3093ED00309124
:10431000EB0031603093EB007093EC002093ED00E4
:104320005093F0002091EE0027FDE5CF80E0089546
:104330008F708093E90081E008958091BE0287FF2D
:1043400011C08091E80082FD05C08091BD028111FD
:10435000F8CF11C08091E8008B770BC08091BD022F
:10436000882349F08091E80080FFF8CF8091E80031
:104370008E778093E80008952091E4003091E50065
:1043800095E64091EC00842F817040FF23C080911E
:10439000E80080FD1DC08091BD02882399F0853022
:1043A00099F08091EB0085FD11C04091E40050919F
:1043B000E5002417350729F3915011F09A01E1CF58
:1043C00084E0089582E0089583E0089581E00895EF
:1043D00080E008954091E80042FFDDCF08950E94FB
:1043E0005D220E946522E0EEF0E0808181608083A2
:1043F000E8EDF0E080818F77808319BCA7EDB0E015
:104400008C918E7F8C9380818F7E80831092BC02F2
:1044100008950F931F93CF93DF930E945D220E9414
:104420006522C8EDD0E088818F7788838881806895
:10443000888388818F7D888319BC1092BD02109279
:10444000B9021092BB021092BA0200EE10E0F8011D
:1044500080818B7F808388818160888342E060E0F7
:1044600080E00E946821E1EEF0E080818E7F808311
:10447000E2EEF0E0808181608083808188608083CB
:10448000F80180818E7F8083888180618883DF91BD
:10449000CF911F910F910895E8EDF0E080818F7E1C
:1044A0008083E7EDF0E080818160808384E082BFDB
:1044B00081E08093BC020C940922E8EDF0E0808159
:1044C0008E7F80831092E20008951092DA0010929D
:1044D000E10008951F920F920FB60F9211242F93AF
:1044E0003F934F935F936F937F938F939F93AF937C
:1044F000BF93EF93FF938091E10082FF0BC0809107
:10450000E20082FF07C08091E1008B7F8093E10091
:104510000E94E0248091DA0080FF1FC08091D800C3
:1045200080FF1BC08091DA008E7F8093DA0080913B
:10453000D90080FF0DC080E189BD82E189BD09B449
:1045400000FEFDCF81E08093BD020E94CC1E05C01D
:1045500019BC1092BD020E94DA1E8091E10080FF1A
:1045600019C08091E20080FF15C08091E2008E7F2B
:104570008093E2008091E20080618093E20080916C
:10458000D80080628093D80019BC85E08093BD027A
:104590000E94DE1E8091E10084FF30C08091E20025
:1045A00084FF2CC080E189BD82E189BD09B400FE91
:1045B000FDCF8091D8008F7D8093D8008091E1005D
:1045C0008F7E8093E1008091E2008F7E8093E200F5
:1045D0008091E20081608093E2008091B90288239B
:1045E00011F084E007C08091E30087FD02C081E004
:1045F00001C083E08093BD020E94DF1E8091E10034
:1046000083FF29C08091E20083FF25C08091E100F3
:10461000877F8093E10082E08093BD021092B9020F
:104620008091E1008E7F8093E1008091E2008E7F97
:104630008093E2008091E20080618093E20042E09A
:1046400060E080E00E9468218091F00088608093A3
:10465000F0000E94DD1EFF91EF91BF91AF919F91FD
:104660008F917F916F915F914F913F912F910F901B
:104670000FBE0F901F9018951F920F920FB60F92BA
:1046800011242F933F934F935F936F937F938F9357
:104690009F93AF93BF93CF93DF93EF93FF93C0911B
:1046A000E900CF708091EC00D82FD17080FDD0E868
:1046B0001092E9008091F000877F8093F000789459
:1046C0000E9480231092E9008091F000886080931E
:1046D000F000CD2BCF70C093E900FF91EF91DF91F7
:1046E000CF91BF91AF919F918F917F916F915F918A
:1046F0004F913F912F910F900FBE0F901F901895E3
:104700001F93CF93DF93CDB7DEB7AA970FB6F89478
:10471000DEBF0FBECDBFEEEBF2E08091F1008193E2
:1047200022E0E63CF207C9F70E94EA1E8091E80009
:1047300083FF2EC18091BE029091BF02492F50E0AD
:104740004A30510508F024C1FA01E059FF4F0C949A
:104750002225803821F0823809F01AC108C08091E2
:10476000BA029091BB02992389F082600FC08091B8
:10477000C2028F70873008F00BC18093E9008091EE
:10478000EB0085FB882780F91092E9009091E80002
:10479000977F9093E8008093F1001092F100D1C0D0
:1047A000282F2D7F09F0F4C0882319F0823061F0A2
:1047B000EFC08091C002813009F0EAC0933009F067
:1047C00080E08093BB022EC08091C00281112AC07C
:1047D0008091C2028F702FEF280F263008F0D8C0CA
:1047E0008093E9002091EB0020FF1CC0933021F45E
:1047F0008091EB00806214C09091EB0090619093E7
:10480000EB0021E030E0A90102C0440F551F8A955A
:10481000E2F74093EA001092EA008091EB00886092
:104820008093EB001092E9008091E800877F8093ED
:10483000E8000E949D21ACC08111AAC01091C00265
:104840001F778091E3008078812B8093E300809133
:10485000E800877F8093E8000E949D218091E80016
:1048600080FFFCCF8091E30080688093E30011110A
:1048700002C082E001C083E08093BD0289C08058FD
:10488000823008F085C08091C0029091C1028C3DB9
:1048900053E0950779F583E08A838AE289834FB7ED
:1048A000F894DE01139620E03EE051E2E32FF0E0C1
:1048B00050935700E49120FF03C0E295EF703F5FF3
:1048C000EF708E2F90E0EA3010F0C79601C0C096CE
:1048D0008D939D932F5F243149F74FBF8091E8005E
:1048E000877F8093E8006AE270E0CE0101960E9423
:1048F000A92016C06091C2027091C302AE014F5F41
:104900005F4F0E94ED1FBC01892B09F441C09091BB
:10491000E800977F9093E80089819A810E9407219F
:104920008091E8008B778093E80032C0803881F571
:104930008091E800877F8093E8008091B90280939E
:10494000F1008091E8008E7772CF811121C08091B3
:10495000C0029091C10299270297D4F48091E80097
:10496000877F8093E8008091C0028093B9020E9403
:104970009D218091B902811106C08091E30087FDDD
:1049800002C081E001C084E08093BD020E94E01E6D
:104990008091E80083FF0AC08091E800877F8093C0
:1049A000E8008091EB0080628093EB00AA960FB63E
:1049B000F894DEBF0FBECDBFDF91CF911F91089558
:1049C0000895CF938091BD028823A1F0C091E900A2
:1049D000CF709091EC00892F817090FD80E8C82BFA
:1049E0001092E9008091E80083FD0E948023CF703F
:1049F000C093E900CF9108950E94EF211092BD026B
:104A00000895E8EDF0E08081806180838AE18A95F5
:104A1000F1F700C08091D9008170089597FB072EAF
:104A200016F4009407D077FD09D00E94282507FCD2
:104A300005D03EF4909581959F4F089570956195AE
:104A40007F4F0895EE0FFF1F0590F491E02D09941C
:104A5000AA1BBB1B51E107C0AA1FBB1FA617B707A4
:104A600010F0A61BB70B881F991F5A95A9F78095C0
:104A70009095BC01CD010895FB01DC0104C08D912E
:104A80000190801921F441505040C8F7881B990BC0
:104A90000895FB01DC0102C001900D92415050408D
:104AA000D8F70895F999FECF92BD81BDF89A99275C
:104AB00080B50895A8E1B0E042E050E00C9486256E
:104AC000262FF999FECF92BD81BDF89A019700B4C7
:104AD000021639F01FBA20BD0FB6F894FA9AF99A67
:104AE0000FBE08950396272F0E9461250E9460251E
:104AF000252F0E946125242F0C9461250196272FD4
:104B00000E9461250C946025DC01CB01FC01F99920
:104B1000FECF06C0F2BDE1BDF89A319600B40D9209
:0C4B200041505040B8F70895F894FFCFC2
:104B2C00090201B0020000000100000000B0020008
:104B3C0000000401000000B00204050000000000A9
:104B4C00002808641E140A321E361E8B1E6C1E684A
:104B5C001E641E01E200E900EA00B500B600B700D1
:104B6C00CD008301CC008A01920194012102230221
:104B7C0024022502260227022A02B300B4006F0089
:104B8C007000818283E200E900EA00B500B600B74C
:104B9C0000CD008301CC008A0192019401210223F3
:104BAC000224022502260227022A02B300B4006F57
:104BBC00007000818283F4F5F6F73133946697C662
:064BCC000000000045029C
:00000001FF
