:100000000C9460010C94A7010C94A7010C94A70117
:100010000C94A7010C94A7010C94A7010C94A701C0
:100020000C94A7010C94A7010C945B180C942F1945
:100030000C9485130C94A7010C94A7010C94A701B0
:100040000C94A7010C94A7010C94A7010C94A70190
:100050000C94A7010C94DC130C94A7010C94A70139
:100060000C94A7010C94A7010C94A7010C94A70170
:100070000C94A7010C94A7010C94A7010C94A70160
:100080000C94A7010C94A7010C94A7010C94A70150
:100090000C94A7010C94A7010C94A7010C94A70140
:1000A0000C94A7010C94A7010C94A7012B00140039
:1000B0001A000800150017001C0018000C001200A0
:1000C00013002A00E00004001600070009000A00DF
:1000D0000B000D000E000F0033003400E1001D0086
:1000E0001B00060019000500110010003600370043
:1000F0003800E500390000000000E2000251E30092
:100100002C000151025100000000280029001E02AD
:100110001F022002210222022302240225022E00B5
:1001200031004C00E0002F023002260227020000BE
:100130005000510052004F0033023500E100000032
:1001400000002F00300000002E022D002D020000C4
:100150000000E5003900000000000100010001007E
:100160002C0001000100000000002800A900000090
:100170000000000000000000000024002500260010
:1001800000000000AA0000000000000000000000C5
:10019000000021002200230000000000A800000051
:1001A000000000000000000000001E001F002000F2
:1001B00000000000005C00000000010001000100E0
:1001C0002C00270037000000000028000C0362000C
:1001D000610062007900760000002003450079008C
:1001E000650020004F0068002100200044006500E9
:1001F0007300690067006E007300000004030904C7
:1002000009023B00020100A0FA09040000010301F9
:1002100001000921110100012240000705810308A6
:10022000000A090401000103000000092111010076
:10023000012232000705820320000A12011001008A
:10024000000008EDFE0000010001020001050109A7
:1002500080A101850319012AB700150126B7009571
:100260000175108100C0050C0901A1018504190167
:100270002AA002150126A002950175108100C00573
:10028000010906A101050719E029E71500250195D7
:10029000087501810295017508810105071900297A
:1002A000FF150026FF009506750881000508190155
:1002B0002905950575019102950175039101C0000D
:1002C00011241FBECFEFDAE0DEBFCDBF04B603FEC0
:1002D00027C080913F0290914002A0914102B091CD
:1002E00042028730904BA740B04BD1F410923F02AE
:1002F00010924002109241021092420214BE84B742
:10030000877F84BF0FB6F894A895809160008861BC
:1003100080936000109260000FBEE0E0F8E3099562
:1003200011E0A0E0B1E0EEE9F6E302C005900D9225
:10033000A038B107D9F722E0A0E8B1E001C01D92D2
:10034000AF33B207E1F70E948C150C94291B0C9473
:100350000000CF93DF939C013A9521153F4168F54A
:10036000EC01CC27D170DC01AA27B270AC01442784
:1003700054709C012227387094FF11C080E1CD2B6E
:1003800009F480E0AB2B09F08062452B09F0806412
:10039000232B09F08068FB01DF91CF91099481E064
:1003A000CD2B09F480E0AB2B09F08260452B09F0DE
:1003B0008460232B81F38860EECFDF91CF91089585
:1003C000CF93DF93EC01805E9109089720F060E7FE
:1003D0007CE0209711F462E27AE0CE010E94A9014C
:1003E0008C2FDF91CF910C94950981E0089581E0E5
:1003F00008950C94F70108950C94FB011F93CF937B
:10040000DF9300D000D00F92CDB7DEB749835A8377
:100410006B833091A40189819A8131111DC06623BB
:10042000B9F02223A9F00E94FB10182F682F8981B0
:100430009A810E94A71069817A81812F0F900F9075
:100440000F900F900F90DF91CF911F910C94B202FB
:100450000E94D310182FEFCF0E94FB1069817A8180
:10046000EDCFFC01262F408151816281738184810F
:100470000C94FE01CF93DF93EC0160E00E94310207
:10048000BE01DF91CF910C94FC010E9434128111C6
:1004900002C00E94D8120C948D040E94D8070C94BC
:1004A000900408950E94890C0E9451022FEF84E36A
:1004B0009CE0215080409040E1F700C000000C9487
:1004C00000140F931F93CF93DF93EC0161E00E9420
:1004D00031028C01BE010E94F901882359F1BE014D
:1004E000C8010E940308882329F1BE01C8010E94A7
:1004F00023068823F9F0BE01C8010E9475068823EF
:10050000C9F0BE01C8010E949807882399F08A812A
:10051000882339F001158CE5180751F00F3D1C4573
:1005200079F0CE01DF91CF911F910F910C94F501DD
:100530000E94520280E0DF91CF911F910F910895A8
:100540000E94D812F7CF08950C94A30281E0089579
:100550000C94A602CF93C82F0E94A4028C2FCF9197
:100560000C94A802972F70E02CE0929F600D711DF3
:100570001124FB0190E3899FE00DF11D1124EE0F82
:10058000FF1FE455FF4F859194910895CF93DF931A
:100590000E94B2020E94B203EC01811522E592078B
:1005A000E8F5811531E5930708F0ACC0883E910568
:1005B00010F5803E910570F5883A910570F4853A02
:1005C000910508F078C08130910521F1009711F173
:1005D000049700F5D0E0C0E01DC08F3B9105D0F737
:1005E000C85AD0E0CC0FDD1FC25FDE4F0990D88122
:1005F000C02DD4640FC0811540E5940708F066C093
:10060000C11580E4D80708F05EC0CE019A95811527
:100610009F4100F7CE01DF91CF910895811536E516
:10062000930718F5811545E5940708F083C0C115B7
:1006300084E5D80708F079C09C2F969596959E0181
:1006400023703327C115D34508F461C0C1E0D0E061
:1006500002C0CC0FDD1F2A95E2F730E2939FC00164
:100660001124C82BD92BDA68D5CFC1158AE5D80754
:1006700078F4C11599E5D90708F066C0C11528E5D9
:10068000D20708F4A7CFDC2FCC27C06FD06AC2CF27
:10069000CE0190568115904208F09CCF8D2F8F711E
:1006A0000E94490490E0982F882788279F719C0119
:1006B0002C2BE90147C0C55AD0E0C45CDE4FC8818D
:1006C000D0E0D064A7CFDF70D06AA4CFE4E09695E5
:1006D0008795EA95E1F783702C2F26952695237050
:1006E00040E2249F90011124382B8C2F8370C1E0AD
:1006F000D0E002C0CC0FDD1F8A95E2F7C22BD32BCE
:10070000DC6888CFD82FCC27C16FD06A83CFC1E0F7
:10071000D0E002C0CC0FDD1F2A95E2F720E2929FC5
:10072000C0011124C82BD92BEBCFDC2FCC27C46FF1
:10073000D06A70CF0E944904C82FD0E0DC2FCC27AC
:10074000CC27DF71D06266CF8C2F8F700E94490456
:1007500034E0D695C7953A95E1F7CF709C2FEC0120
:10076000D06958CF82389105B1F1B0F48133910549
:1007700009F475C048F48932910509F469C08A32D8
:10078000910509F473C008958533910509F459C0A2
:100790008933910501F10895833E9105A9F138F45B
:1007A000803E9105F9F0823E910549F10895863E1B
:1007B0009105A9F1873E9105C9F1843E910519F58E
:1007C0002091310221FF1FC08091300284FD14C0AE
:1007D00087EE90E00895209130022370A1F080EE22
:1007E00090E008952091300220FD47C03091310201
:1007F00030FF09C024FF44C090E080E004C0209195
:10080000300222FDF7CF08952091300222FD3BC037
:100810003091310230FDE3CF24FFF5CFEDCF2091B1
:10082000300223FFF0CF24FDE7CFD2CF209130025A
:1008300023FD2CC03091310231FFEECF84EE90E0E9
:1008400008952091300225FFDECF89E290E00895DF
:100850002091300225FFD7CF85E390E008952091C5
:10086000300226FFD0CF8AE290E008952091300236
:1008700026FFC9CF81E390E0089589E390E00895D1
:1008800083EE90E0089582EE90E0089586EE90E089
:1008900008959091300292FF06C0282F28712830C9
:1008A000F9F4877F846093FF06C0282F28712831D0
:1008B000F1F4877E84612091310220FF06C0382F39
:1008C00038713830D9F4877F816021FF06C0282F26
:1008D00028712831D1F4877E816194FD877E089547
:1008E000282F24712430F9F68B7F8860DCCF282FE5
:1008F0002471243101F78B7E8861DDCF382F31716F
:10090000313019F78E7F8860E0CF282F2171213197
:1009100021F78E7E8861E1CF08950C948C040895B0
:100920000C948F04E82FF0E0EE0FFF1FEC5DFD4FFD
:10093000808191810895089580EA8A95F1F708955C
:1009400000C008950C949C04F894E82FE295EF7091
:10095000F0E031A1282F2F7081E090E001C0880FD6
:100960002A95EAF7982F9095932391A392A1892B2A
:1009700082A378940895CF93DF9385E30E94A40423
:1009800082E90E94A40485E90E94A40483E90E94EC
:10099000A404CFE3D1E089910E94A40481E0CB3488
:1009A000D807C9F710921D0210921C02109225025E
:1009B0001092240210921F0210921E02109227021F
:1009C0001092260210922102109220021092290207
:1009D00010922802109223021092220210922B02EF
:1009E00010922A0284E00E947D05DF91CF910C9441
:1009F0004502AF92BF92CF92DF92EF92FF920F9398
:100A00001F93CF93DF930BE411E0CCE1D2E0C12C34
:100A1000D12CEE24E394F12CF80181918F01F8940C
:100A2000E82FE295EF70F0E021A18F70A70102C0DE
:100A3000440F551F8A95E2F7CA01922F982B91A374
:100A400092A18095892382A378940E94A004EFE369
:100A5000F1E030E020E0B12CA12C4191A42FA2952F
:100A6000AF70B0E090968C9190E04F7002C0959579
:100A700087954A95E2F780FD3BC0C701022E02C070
:100A8000880F991F0A94E2F7A82AB92A2F5F3F4FCF
:100A90002C30310511F7F801319780810E94A404B0
:100AA00053E0C5120E94A20488819981A816B90654
:100AB00011F1B982A88281E0D82AC394229684E0F9
:100AC000C812AACF2D2D44E064E272E08CE192E0DE
:100AD0000E947E050E944D028D2DDF91CF911F91C6
:100AE0000F91FF90EF90DF90CF90BF90AF9008955F
:100AF00090E080E0C9CF80E0DFCF0895FF920F93B0
:100B00001F93CF93DF93F82E092F162FD72FC42FC3
:100B1000222349F081E0809384010E94B5139093D1
:100B2000830180938201809184018823A1F08091C8
:100B30008201909183010E94CD13069760F0EF2D02
:100B4000F02FA12FBD2F90E080E0D0E08C179D0703
:100B500044F010928401DF91CF911F910F91FF908B
:100B60000895219131912D933D930196EFCF0F93ED
:100B70001F93CF93DF93C42FD22FFC018281882350
:100B8000C9F0409387010E94B5139093860180932A
:100B9000850180E28C0F883008F050C0C77081E07A
:100BA00001C0880FCA95EAF7DF91CF911F910F918D
:100BB0000C94220A10918701141335C0809185018D
:100BC000909186010E94CD13883C910560F5C0E2AA
:100BD000CD0F1D17B9F080E2810F883040F41770F7
:100BE00081E001C0880F1A95EAF70E94290AC830EF
:100BF00048F481E09D2F977001C0880F9A95EAF71D
:100C00000E94220A802F0E941A0AC830B8F4D770B6
:100C100081E001C0880FDA95EAF7DF91CF911F914B
:100C20000F910C94290A80E28C0F883038F4C77039
:100C300081E001C0880FCA95EAF7EFCFDF91CF912D
:100C40001F910F9108950F939C01CB01243F4CE518
:100C5000340759F1A8F4293DFCE53F0701F12A3D8D
:100C60004CE53407D1F1283D3C4591F406E221EEF4
:100C700041EE68ED7CE50E94B70580E00F91089594
:100C8000263FFCE53F07E9F0B0F0273F3C45F9F08F
:100C9000FC018281882339F110928701EFCF07E2AE
:100CA00025EE45EE69ED7CE5E6CF06E221EE40EE6D
:100CB00064EF7CE5E0CF07E225EE44EE65EF7CE5EE
:100CC000DACF06E221EE42EE66EF7CE5D4CF07E212
:100CD00025EE46EE67EF7CE5CECF08E221E045EE5B
:100CE0006AED7CE5C8CF81E0C9CFCF93DF93EC01FB
:100CF000FB018281882309F419C1C230FCE5DF07BA
:100D0000C0F1C6319CE5D90730F09E012B5F3C4510
:100D10002930310570F50E9447129093310280937B
:100D20003002C031ECE5DE0709F4CFC008F05BC04B
:100D3000C8308CE5D80709F4B6C088F5C430ECE5B6
:100D4000DE0709F4A8C0C0F4C2308CE5D80709F466
:100D50009CC0809130028260C330DC4509F498C0A9
:100D600080913002909131020E9455120E94890CAC
:100D700080E0DF91CF910895809130028061C6308C
:100D8000ECE5DE0709F484C0809130028860C7304A
:100D9000DC4508F47DC080913002806279C0CC309F
:100DA0008CE5D80709F489C070F4809130028C601A
:100DB000CA30ECE5DE0709F46BC008F478C0809116
:100DC00030028E7F65C0CE308CE5D80709F479C03B
:100DD000809130028B7FCF30DC4508F459C0809180
:100DE00030028F7E55C0CC3FECE5DE0709F457C0DA
:100DF00030F5C3318CE5D80709F46FC078F4C13100
:100E0000ECE5DE0709F465C0C231DC4509F0A8CF86
:100E10000E94890C809130028F773AC0C5318CE5F1
:100E2000D80709F462C008F476C08091310281606D
:100E3000CB3FDC4509F094CF8093310291CFC115AF
:100E4000FDE5DF0709F44DC088F4809131028D7F04
:100E5000CE3F9CE5D90781F3809131028E7FCF3F51
:100E6000DC4550F3809131028360E6CFC230FDE56E
:100E7000DF0709F459C008F444C080E0C330DD4501
:100E800009F06ECF0E94DA126BCF80913002816040
:100E90008093300265CF809130028460F9CF8091D9
:100EA00031028260C9CF809130028064F1CF0E940C
:100EB000890C809130028068EBCF809130028D7F69
:100EC000E7CF80913002877FE3CF809130028F7D22
:100ED000DFCF809130028F7BDBCF80913002837F28
:100EE000D7CF809131028C7FA7CF8091300282FBD7
:100EF000992790F921E0922790FB82F990FB83F9E2
:100F0000C7CF80913102982F909591708E7F892B59
:100F100090FB81F991CF0E94890C90913002892F2A
:100F200097FB87F98058B4CF81E0ACCF81E021CF27
:100F3000CF93DF93EB0186319C4511F50E94901110
:100F40009A81992399F08A7A91E009F490E090933C
:100F50008801811109C089E20E946B110E94CF11A2
:100F600080E0DF91CF91089585E3F6CF80918801ED
:100F7000811104C089E20E947211F0CF85E3FBCF9A
:100F800081E0EFCFCF9380918901C0E0811109C04A
:100F9000CF91089590E080E00E94E0010E94CF117F
:100FA000CF5F80918901C817A8F310928901F0CF13
:100FB00080910001882399F080918A01882379F03B
:100FC00080918B0190918C01009749F00E94CD1384
:100FD000893C910520F010928A010C94C207089573
:100FE00010928A011092000110928C0110928B01D4
:100FF0000C94C2078091000181110C94F00781E0EC
:10100000809300010895FB01883F2CE5920741F48D
:1010100082818823C1F081E08093000181E00895FE
:10102000893F2CE5920731F48281882361F00E9488
:10103000F007F4CF8A3F9C4531F48281882319F070
:101040000E94FA07EBCF80910001882339F30E94B8
:10105000C20710928C0110928B0181E080938A016B
:10106000DDCF90939201809391010895E0919101D9
:10107000F0919201309721F00190F081E02D0994D8
:1010800080E00895E0919101F0919201309721F074
:101090000280F381E02D0994089520918F01309111
:1010A00090012817390771F09093900180938F0178
:1010B000E0919101F0919201309721F00680F78143
:1010C000E02D0994089520918D0130918E0128170B
:1010D000390771F090938E0180938D01E091910119
:1010E000F0919201309721F00084F185E02D099470
:1010F00008950E94C1136093A0017093A101809391
:10110000A2019093A30160939C0170939D01809331
:101110009E0190939F01089585B7806885BF85B72C
:10112000806885BF0895089508950C9493080895E4
:101130000C9497080E948C0882E392E10E94241488
:101140000E9494080C94950881E008950C94A408DA
:10115000089508950E94AC130E94BB040E942914B4
:101160000C9498088F929F92AF92BF92CF92DF9289
:10117000EF92FF920F931F93CF93DF93CDB7DEB71C
:101180002A970FB6F894DEBF0FBECDBF0E94A80805
:101190000E94A9080E94F90481110E94790854E96B
:1011A000852E51E0952E10E000E0A02E802F0E94A9
:1011B00092046C01F401E190F1904F01E816F906F8
:1011C00009F45AC08091100281FD0E949B04C7015E
:1011D0008C259D25B12CEE24E394F12C9C012E212D
:1011E0003F21232B09F442C00E94A6088823A9F0BE
:1011F000BE82AF82CE20DF2081E0CD2809F480E0DE
:1012000088870E94B5138160782F9A8789874E81DD
:101210005F8168858A850E946609000F111FF801A9
:10122000EC56FE4F80819181E826F926F182E0821A
:101230000E943608909193018917A9F10E943608FF
:10124000809393012A960FB6F894DEBF0FBECDBFF0
:10125000DF91CF911F910F91FF90EF90DF90CF9092
:10126000BF90AF909F908F900C94AA02B394EE0C15
:10127000FF1CFCE0BF12B2CF0F5F1F4F04301105FF
:1012800009F093CF8FEF89838A831B820E94B51365
:101290008160782F9D838C8349815A816B818D81F8
:1012A0000E946609C5CF2A960FB6F894DEBF0FBE1E
:1012B000CDBFDF91CF911F910F91FF90EF90DF9005
:1012C000CF90BF90AF909F908F900895CF93DF9372
:1012D000CDB7DEB72B970FB6F894DEBF0FBECDBFEC
:1012E0004F83588769877A878B871E821D8285E0A6
:1012F000FE013796DE01119601900D928A95E1F775
:1013000049815A816B817C818D819E812B960FB69C
:10131000F894DEBF0FBECDBFDF91CF910C94FF0ECE
:10132000FC01808191810C943D11CF93C82F8823BB
:1013300009F43FC08CEF8C0F813AA0F46C2F8091A0
:101340000101909102010E94F112882329F08C2F53
:101350000E9472110E94CF118C2F0E946B11CF91AD
:101360000C94CF1180E28C0F883048F4C77081E074
:1013700001C0880FCA95EAF70E949311F0CFEBE500
:10138000EC0FE33040F4F0E0E358FE4F808190E052
:10139000CF910C944D08C85AC73158F4EC2FF0E0A7
:1013A000EE0FFF1FE15BFE4F80819181CF910C9486
:1013B0006308CF910895882329F19CEF980F913A03
:1013C00020F40E9472110C94CF1190E2980F983083
:1013D00050F4877091E001C0990F8A95EAF7892F40
:1013E0000E949911F0CF9BE5980F933020F490E084
:1013F00080E00C944D08885A873120F490E080E01A
:101400000C94630808951F93CF93DF93182FEB017B
:101410000E949509209731F4812FDF91CF911F9180
:101420000C94DB098FE99FE00197F1F700C0000001
:101430002197F0CF70E060E0893311F460E570E04F
:101440000C94030A882321F00E9493110C94CF116D
:101450000895882321F00E9499110C94CF110895CA
:10146000BF92CF92DF92EF92FF920F931F93CF9391
:10147000DF936C01D62FC72FFC01058102950F70F9
:10148000128111110E94B0110E948911E82E882347
:1014900091F01123E9F08C2F807F803421F080E2DD
:1014A0008D0F8830A8F082E00E941A120E948911E4
:1014B00091E0E82EE926BC2EB2949FE0B922FBE031
:1014C000FB15A8F1EB2DF0E0E55DF44E0C94E11A6C
:1014D000E12CF1CF0C2F0F70C07F11F00295007F2F
:1014E0001123A9F0002359F080E28D0F883010F00D
:1014F000D11109C0802F0E9493110E94CF118D2F0E
:101500000E94950914C0802F0E94A311F6CF8D2F41
:101510000E94DB09002359F080E28D0F883010F023
:10152000D1112CC0802F0E9499110E94CF112B2D18
:101530002850330B2430310520F40E9436080E94D5
:10154000AA02EE2009F483C10E94851180FD7FC1AB
:10155000F60112820E947F110E940B10C6010E94A8
:10156000480C0E947F11DF91CF911F910F91FF9046
:10157000EF90DF90CF90BF900C942C10802F0E94A2
:10158000A911D3CF2C2F2F70F22EC07FC03219F0AB
:10159000F29480EFF822DD2369F0D13049F1112374
:1015A00091F1002351F1F601858180FFA8CF8F7062
:1015B000858323C0112381F0011106C00E94B6115A
:1015C0008F290E94220AB3CF0130C1F70E94B611C1
:1015D0008F290E94BC11ABCF011106C00E94C5111A
:1015E0008F2D0E94290AA3CF013009F4A0CFF6CF96
:1015F000112329F0063008F09ACF8F2DE2CF053065
:1016000008F095CFEDCF002359F3D93349F4FFEF1C
:1016100027EE33E0F15020403040E1F700C00000F9
:101620008D2F0E94DB0983CF8C2F86958695837042
:1016300069F0813009F07BCF8D2F9C2F93701111B1
:1016400002C090E080E00E94630871CF8D2F9C2F34
:101650009370111102C090E080E00E944D0867CFA6
:101660008C2F837009F041C0111161CF4D2F42952D
:1016700046954770440F440F0D2F0F7010E030E077
:1016800020E0042E04C0000F111F221F331F0A94F4
:10169000D2F760E070E0CB01D4FF0FC06FE070E0E4
:1016A00080E090E004C0660F771F881F991F4A955D
:1016B000D2F76095709580959095C695C695C37044
:1016C000602B712B822B932BC23049F058F4C13020
:1016D00019F00E94BD0F2BCF0E94AB0F28CF0E94A4
:1016E000CF0F25CF0E94A90F22CF8695112311F08D
:1016F0008C2F8170882309F41ACF4D2F429546957F
:101700004770440F440F0D2F0F7010E030E020E0C1
:10171000042E04C0000F111F221F331F0A94D2F79A
:1017200060E070E0CB01D4FF0FC06FE070E080E0BC
:1017300090E004C0660F771F881F991F4A95D2F763
:101740006095709580959095C695C695C370602BF1
:10175000712B822B932BC23049F058F4C13019F011
:101760000E948210E4CE0E947010E1CE0E9494107C
:10177000DECE0E94E50FDBCECF70112329F08C2F37
:101780000E940B108D2F1DCF8D2F0E94290A8C2FA8
:101790000E942C10CCCED23F89F160F4D03FC9F02A
:1017A000D13F29F1112309F442C00111A8CE8C2F99
:1017B0008F7121C0D33F39F1D43FA1F7112369F1D3
:1017C000CF718C2F0E940B1063E08C2F0E940512AA
:1017D000AECE112341F0053008F0A9CE8C2F8F71C9
:1017E0000E944F10A4CE063008F0A1CEF7CF8C2F68
:1017F0008F71112369F20E940B1099CE8C2F8F717B
:101800001123C9F3C5CF112329F08C2F8F710E94AA
:10181000F60F8DCE0E94F10F8ACE81E00E941A123F
:10182000023008F484CE82E00E941A1280CE002397
:1018300059F0D93309F0F4CE8FEF97EEE3E0815001
:101840009040E040E1F7EACE8C2F8F71A1CFDF917D
:10185000CF911F910F91FF90EF90DF90CF90BF90AD
:1018600008950F931F93CF93DF93EC0168817981E3
:101870008A810E9447118C010E94A6100E94A80F25
:10188000B801CE01DF91CF911F910F910C94300AD6
:10189000CF93DF93EC018B819C81892B29F0888188
:1018A000998189238F3F59F4DF91CF910895CE011B
:1018B0000E94310CCE01DF91CF910C943A02CE01FF
:1018C0000E9461028111F3CF0E948911882361F384
:1018D0008A81882349F382E0DF91CF910C941A1218
:1018E000882321F00E94A3110C94CF11089590E059
:1018F00080E00E944D0890E080E00E9463080E9412
:10190000B0110E94B3110C94CF110E9479110C9464
:10191000770C0E94A0110C94850CE92FE295EF70D2
:10192000E250EE3070F4F0E0E95CF44E0C94E11A11
:10193000803F19F020F4883E20F481E00895843F30
:10194000E1F380E00895883EC0F3813FD1F7F5CF01
:1019500093FB882780F908950E943D110C948D0C0B
:10196000CF93DF9300D000D00F92CDB7DEB70F90AA
:101970000F900F900F900F90DF91CF910895CF931C
:10198000DF9300D000D000D0CDB7DEB726960FB6DB
:10199000F894DEBF0FBECDBFDF91CF9108951F93A6
:1019A000CF93DF93C091A50116E08091A6018C131F
:1019B00004C0DF91CF911F910895D0E01C9FF001EA
:1019C0001D9FF00D1124E955FE4F40815181628128
:1019D0007381848195810E94BF0C2196C770E5CFE9
:1019E0004091D7015091D8016091D9017091DA01ED
:1019F0008091DB019091DC010C94BF0C1F93CF937D
:101A0000DF938091DC01807FA9F48091D901882344
:101A100089F08091A501C091A6016091D7017091D4
:101A2000D801A091DA01B091DB01D62FD72316E0BF
:101A3000C81304C0DF91CF911F91089590E01097D3
:101A400011F0DF3F19F401968770F2CF189F9001D3
:101A5000199F300D1124F901E955FE4F41814713BB
:101A6000F2CF40814613EFCF42814111ECCF438149
:101A700054814A1B5B0B483C510528F78091DC01DF
:101A80008F7080618093DC01F901E455FE4F808105
:101A90008F708061808387ED91E00E94480CDF9118
:101AA000CF911F910C94CF0CAF92BF92CF92DF9247
:101AB000EF92FF920F931F93CF93DF93CDB7DEB7D3
:101AC00061970FB6F894DEBF0FBECDBF8C0185E0E5
:101AD000F801DE011D9601900D928A95E1F7F8015B
:101AE00040815181E28087EDC82E81E0D82E60913F
:101AF000DA017091DB016115710509F461C1909102
:101B0000D7012091D801892F82238F3F09F458C132
:101B1000A380B480F090D901F501E61BF70BFF20FC
:101B200009F4FCC08091DC01382F307FE83CF105DE
:101B300008F0B2C0311179C0FE2C251323C09413D4
:101B400021C0E1101FC08F7080618093DC010E9472
:101B5000F00CC6010E94480C8091DC01F8018583DD
:101B60008F2D61960FB6F894DEBF0FBECDBFDF910B
:101B7000CF911F910F91FF90EF90DF90CF90BF908A
:101B8000AF900895AB2829F0842F85238F3F09F06B
:101B900033C180E0F82FF170DF2E80FF3CC08091D0
:101BA000A5012091A60136E0821315C04D875E87FE
:101BB0008D859E850E943D11292F22952F70223000
:101BC000F0F0243018F59F70F1F0F8019581907FC6
:101BD000D1F4D12C1EC090E0389FF001399FF00D58
:101BE0001124E955FE4F6181651306C060816413BD
:101BF00003C062816E110FC001968770D5CF9F70B0
:101C000011F0882331F3805E883018F3C8010E94F8
:101C1000480CFD2CA5CFEE2009F4A2CF8091DC0169
:101C200081608093DC01F12C9BCF251306C09413B7
:101C300004C0F801EE2009F48DC04D875E878D85C4
:101C40009E850E94AC0C882319F1EE2009F1809149
:101C5000DC01803270F02091D7013091D8013887B3
:101C60002F831986BB86AA868C87CE0107960E9491
:101C7000480C86E0F801A7EDB1E001900D928A953D
:101C8000E1F70E94FE0C0E94F00CFF24F39468CF51
:101C9000C8010E94480CF9CF311113C07A2DB98ABE
:101CA000A88A6E2D89890E94B00C87ED91E00E9470
:101CB000480C86E0F60111928A95E9F70E94F00C33
:101CC000B2CF25130FC094130DC0E1100BC0F80163
:101CD0008583C8010E94480C86E0F60111928A951E
:101CE000E9F73ECF4D875E878D859E850E94AC0CBF
:101CF000882371F2EE2061F28091DC01803208F4D9
:101D0000B8CF2091D7013091D8013A8329831B8223
:101D1000BD82AC828E83CE010196A9CFE83CF1054D
:101D200008F041C0FE2CEE2009F4B2CF25132AC0E2
:101D3000941328C08091DC0180FD1BC0982F907FF8
:101D4000C1F0F8018583903F31F0982F907F905F2C
:101D50008F70892B8583C8010E94480C86E0F801AA
:101D6000A7EDB1E001900D928A95E1F70E94F00C89
:101D7000F7CE86E0F801A7EDB1E001900D928A95CB
:101D8000E1F7EECE4D875E878D859E850E94AC0C77
:101D900081116FCF8091DC0181608093DC01C801EB
:101DA0000E94480CDDCE7A2DB98AA88A6E2D8989C9
:101DB0000E94B00C86E0F60111928A95E9F7D6CF21
:101DC000EE2009F465CF4D875E878D859E850E9444
:101DD000AC0CF82E882309F45BCF86E0F801A7ED60
:101DE000B1E001900D928A95E1F787ED91E00E94B4
:101DF00090090E94FE0CBACF81E08E25CBCE1F93B6
:101E0000CF93DF93CDB7DEB72C970FB6F894DEBF34
:101E10000FBECDBF4F83588769877A878B879C8792
:101E2000CE0107960E94540D882369F08A859B8510
:101E3000892B39F04F815885842F85238F3F09F0F6
:101E400071C016E05FC086E0FE013796DE01119694
:101E500001900D928A95E1F78A859B85892B89F3FC
:101E60008F81988589238F3F61F32091A60130E00F
:101E7000C9010196877099274091A5014817190655
:101E800071F40E94890C1092A6011092A50186E0BF
:101E9000E7EDF1E0DF011D928A95E9F7D2CF96E0F8
:101EA000929FD001939FB00D1124A955BE4FFE0102
:101EB000319601900D929A95E1F78093A6010E94C8
:101EC000CF0CBFCF819FC001112489559E4F0E9426
:101ED000540D8823E9F0E091A5011E9FF001112423
:101EE000E955FE4F408151816281738184819581E2
:101EF0000E94BF0C8091A50190E001968770992700
:101F00008093A5018091A5019091A6018913DACF54
:101F10002C960FB6F894DEBF0FBECDBFDF91CF91E8
:101F20001F91089569857A858B859C850E94BF0CD9
:101F300088CF08950C94990F0E949A0F6093FF0127
:101F40007093000280930102909302020C94770C2C
:101F500008950C949C0F0F931F930091FF01109113
:101F600000022091010230910202602B712B822B22
:101F7000932B1F910F910C949C0F0F931F93009123
:101F8000FF011091000220910102309102026023B2
:101F90007123822393231F910F910C949C0F0F9315
:101FA0001F930091FF0110910002209101023091D6
:101FB000020260277127822793271F910F910C94AB
:101FC0009C0F0C94990F0C94E10F0E94E30F609307
:101FD000FB017093FC018093FD019093FE010C9432
:101FE000770C60E070E0CB010C94E50F0F931F932A
:101FF00041E050E060E070E08A019B0104C0000F06
:10200000111F221F331F8A95D2F7C901B8011F91F2
:102010000F910C94E50F0F931F9341E050E060E0A7
:1020200070E004C0440F551F661F771F8A95D2F7D2
:102030008091FB019091FC01A091FD01B091FE0106
:102040008A019B01082B192B2A2B3B2BC901B801B4
:102050001F910F910C94E50F0F931F9341E050E0F7
:1020600060E070E004C0440F551F661F771F8A951B
:10207000D2F7CB01BA01609570958095909500914B
:10208000FB011091FC012091FD013091FE016023C4
:102090007123822393231F910F910C94E50F0F93CB
:1020A0001F9341E050E060E070E004C0440F551F12
:1020B000661F771F8A95D2F78091FB019091FC01F2
:1020C000A091FD01B091FE018A019B01082719270B
:1020D0002A273B27C901B8011F910F910C94E50FE6
:1020E0000F931F930091FB011091FC012091FD01C2
:1020F0003091FE01602B712B822B932B1F910F913E
:102100000C94E50F0F931F930091FB011091FC01BC
:102110002091FD013091FE016023712382239323DE
:102120001F910F910C94E50F0F931F930091FB01EA
:102130001091FC012091FD013091FE016027712773
:10214000822793271F910F910C94E50F08952CE09F
:10215000929F800D1124982F977041E001C0440F89
:102160009A95EAF786958695869595E0899FF00180
:102170001124E352FE4F90E080E070E05191DF01C6
:1021800011979B01082E02C0369527950A94E2F715
:10219000217021952527242325272C93019685300E
:1021A000910561F708952CE0929F800D1124982FDE
:1021B000977086958695869525E0829FF00111247B
:1021C000E352FE4F50E040E080E0219130E0092EE4
:1021D00002C0369527950A94E2F721703327042E22
:1021E00001C0220F0A94EAF7822B4F5F5F4F453000
:1021F000510559F70895BF92CF92DF92EF92FF9267
:102200000F931F93CF93DF938C01C090FB01D0906D
:10221000FC01E090FD01F090FE018091FF019091A2
:102220000002A0910102B0910202C82AD92AEA2A2A
:10223000FB2ACFE1D0E0BC2ED701C6010C2E04C092
:10224000B695A795979587950A94D2F780FD0EC00D
:10225000219788F7B12C8B2DDF91CF911F910F9192
:10226000FF90EF90DF90CF90BF900895B8018C2F32
:102270000E94C602019761F3EECFCF93DF93EC018A
:102280000E94FB10BE01DF91CF910C94C6021F93F8
:10229000CF93DF93EB019091A401992331F0CB010F
:1022A000DF91CF911F910C943D11882379F0CB01E0
:1022B0000E94FB10182F682FCE010E94A710BE01AC
:1022C000812FDF91CF911F910C94C602CB010E9408
:1022D000D310182FF4CF682F809101019091020143
:1022E0000C942713682F80910101909102010C94A6
:1022F000291380910101909102010C942B1380917C
:1023000003028595859585950895809103028770D0
:10231000089590910302977081E009F480E0089598
:1023200080910F02089590910F02892B80930F02E4
:102330000895809590910F02982390930F0208952D
:1023400010920F02089590910E02892B80930E0235
:102350000895809590910E02982390930E0208950F
:1023600010920E02089510920D02089580910402B9
:10237000089508950C94B91190910402981721F0D2
:10238000809304020C94BA1108958091040288236A
:1023900029F01092040280E00C94BA110895E091A3
:1023A0000101F091020180910F028083E09101010F
:1023B000F0910201808190910E02892B8083E0913F
:1023C0000101F0910201808190910D02892B80839F
:1023D00090910402992381F0E0910101F0910201B2
:1023E0008081892B808380910101909102010E945C
:1023F000DF1281110E94C5118091010190910201AB
:102400000C94420808950C94021298E0899F900160
:102410001124622B609303020E940B10809103022F
:102420008595859585950C9403121092030280E0A2
:102430000C940312909103028095892380930302E8
:10244000282F277071F4282F082E000C330B9217B9
:10245000130639F08595859585950E942C100C946E
:102460001512089580E0089590E080E00E94EF1A30
:1024700021E08B3E9E4F09F020E0822F089582E0FC
:1024800090E00C94E71A83E090E00C94E71ACF9365
:1024900084E090E00E94E71AC82F81E290E00E9459
:1024A000E71A982F8C2FCF910895CF93C92F682FBB
:1024B00084E090E00E94F51A6C2F81E290E0CF91C9
:1024C0000C94F51AAB01BC018FE090E00C94071B53
:1024D000AB01BC0183E190E00C94071B60E070E06D
:1024E000CB010C94681260E070E0CB010E94621294
:1024F0000C946E126BEE7EEF90E080E00E94131B56
:1025000060E082E090E00E94F51A60E083E090E0F5
:102510000E94F51A1092FF0110920002109201021F
:102520001092020260E084E090E00E94F51A60E000
:1025300081E290E00E94F51A60E085E090E00E9460
:10254000F51A60E086E090E00E94F51A6FEF87E0F0
:1025500090E00E94F51A40E050E0BA0188E090E077
:102560000E94071B60E08DE090E00E94F51A40E0B9
:1025700050E0BA0188E190E00E94071B60E087E12B
:1025800090E00E94F51A40E050E0BA018CE190E042
:102590000E94071B60E080E290E00E94F51A40E094
:1025A00050E0BA0188E190E00E94071B0C9473127E
:1025B0000C947A12682F8EE090E00C94F51A9C012E
:1025C0002E5F3F4FAC01485F5F4F80E02417350717
:1025D00009F40895F90191919F019923B9F38F5F4F
:1025E000F5CF662349F0FC01329608962191261713
:1025F00029F0E817F907D1F780E0089581E0089500
:102600009C01FC0132969FEF80E04191461751F00A
:102610009F3F19F4411101C0982F8F5F8630A9F7B1
:102620009F3F09F40895290F311D97FD3A95F9014F
:1026300062830895FC01329608962191261303C007
:10264000DF0111971C92E817F907B9F708950C9468
:1026500000130C941A13029626E0FC0111922A959D
:10266000E9F70895089508950C9433138091360284
:10267000843049F10E94341380E00E94AA02109233
:10268000110288E190E020E40FB6F894A8958093B9
:1026900060000FBE2093600083B7817F846083BF9A
:1026A00083B7816083BF7894889583B78E7F83BF1B
:1026B0000FB6F894A89580916000886180936000BF
:1026C000109260000FBE08950895CF930E943213B8
:1026D0000E94F9040E946413C0E08C2F0E949204AF
:1026E000892B31F4CF5FC430C1F780E0CF910895DA
:1026F00081E0FCCF08950C947A130E94890C0E940B
:1027000036080E94AA020C947B131F921FB61F92D8
:1027100011248F939F93AF93BF93809111028111E6
:1027200013C080912C0290912D02A0912E02B091A5
:102730002F024196A11DB11D80932C0290932D0272
:10274000A0932E02B0932F02BF91AF919F918F91D2
:102750001F901FBE1F90189582E084BD93E095BD29
:102760009AEF97BD80936E0008952FB7F8948091EB
:102770002C0290912D02A0912E02B0912F022FBF1A
:1027800008952FB7F89460912C0270912D028091DA
:102790002E0290912F022FBF08959C014FB7F894FD
:1027A00080912C0290912D02A0912E02B0912F02C7
:1027B0004FBF821B930B089578941F921FB61F92F0
:1027C00011248F939F93AF93BF9380912C0290918C
:1027D0002D02A0912E02B0912F020196A11DB11DD4
:1027E00080932C0290932D02A0932E02B0932F027F
:1027F000BF91AF919F918F911F901FBE1F90189511
:1028000081E08093E00080E28093D8001092C900BC
:102810008FE19EE40197F1F700C0000087E090EBA4
:10282000DC0180933F0290934002A0934102B09359
:10283000420288E19CE00FB6F894A895809360006E
:102840000FBE90936000FFCF909381018093800131
:1028500008950E943412811102C00E94D8120E9471
:102860003F12809310020E9447129093310280938E
:1028700030020E944312682F70E090E080E00E94D6
:10288000A90F6091FB017091FC018091FD01909175
:10289000FE010C94E30F80911A0208950895CF93DE
:1028A000DF9300D00F92CDB7DEB79091360294300F
:1028B00019F589837B836A8382E08093E9008FEF37
:1028C0009091E800815095FD06C095ED9A95F1F73D
:1028D00000008111F5CF8091E80085FF0DC050E028
:1028E00040E063E070E0CE0101960E9450168091B6
:1028F000E8008E778093E8000F900F900F90DF91A3
:10290000CF910895BC0184E00C944F14BC0183E086
:102910000C944F14CF93DF93EC0181E08093E90096
:102920008FEF9091E800815095FD06C095ED9A9546
:10293000F1F700008111F5CF8091E80085FF14C008
:1029400050E040E068E070E0CE010E9450168091B7
:10295000E8008E778093E80088E0FE01A2E1B2E013
:1029600001900D928A95E1F7DF91CF9108958091C2
:102970003502811109C00E94E0170E943D18809124
:10298000E20084608093E200089510923502089579
:1029900008950895089542E061EC81E00E945C177B
:1029A00042E261EC82E00C945C1780913802833043
:1029B00009F45FC030F48130C1F1823009F49BC06A
:1029C00008958A3009F487C08B3009F46DC08930CE
:1029D00009F04EC080913702813209F049C08091E0
:1029E0003B0290913C02029708F042C08091E800BF
:1029F000877F8093E8008091E80082FF35C0909146
:102A0000F3008091F200029729F48091F1008B7F0E
:102A1000813021F48091F10080931A028091E800C6
:102A20008B778093E8000C94901780913702813A5D
:102A3000F9F48091E800877F8093E80080913B0261
:102A400090913C02892B61F468E082E192E070E0B1
:102A50000E949F168091E8008B778093E80008958C
:102A600060E090E080E0F3CF809136028111C3CF27
:102A7000089580913702813AD9F780913B02909175
:102A80003C02892BA9F78091E800877F8093E800BA
:102A90008091E80080FFFCCF80910D018093F100D0
:102AA0008091E8008E77BDCF80913702813201F7A7
:102AB00080913B0290913C02892BD1F68091E800F5
:102AC000877F8093E8000E9490178091390280935D
:102AD0000D010C94890C80913702813249F6809166
:102AE000E800877F8093E8000E94901780913A0267
:102AF00080931B02089580913702813A09F0B8CF84
:102B00008091E800877F8093E8008091E80080FF53
:102B1000FCCF80911B02C2CF84B7877F84BF0FB6E2
:102B2000F894A8958091600088618093600010926D
:102B300060000FBE80E890E00FB6F89480936100CB
:102B4000909361000FBE0E949A080E94E0170E94B5
:102B50003D188091E20084608093E20078940E94A6
:102B6000C61A0E94AA0883E091E00E943108809171
:102B700036028530F1F00E94B2080E94A8080E9437
:102B8000A908F5CF0E94361380913402882389F07A
:102B90000E946513882369F00E943A160E94890CEE
:102BA0002FEF83EC99E0215080409040E1F700C086
:102BB000000080913602853029F30E947D13DBCF1F
:102BC0000C94E215292F33272330310519F168F4CD
:102BD0002130310509F444C02230310509F445C0E3
:102BE00090E080E030E020E025C02132310549F15D
:102BF00022323105A9F780E490E02FE732E0611539
:102C00007105C1F082E390E02DE432E0613071059E
:102C100089F0E6CF99278130910581F0009729F05E
:102C20000297F1F6ECECF1E002C0ECEFF1E08491F8
:102C300090E09F01FA01318320830895EAEDF1E0ED
:102C4000F6CF89E090E022E132E06115710591F361
:102C500089E090E02BE232E06130710559F3C0CF9A
:102C600082E190E02BE332E0E5CF8BE390E020E0DF
:102C700032E0E0CF80E189BD82E189BD09B400FE88
:102C8000FDCF8091D8008F7D8093D8008091E000A7
:102C900082608093E0008091E00081FDFCCF089588
:102CA000AF92BF92CF92DF92FF920F931F93CF9379
:102CB000DF936C01EB018A010E94AF17F82E81119E
:102CC00023C00115110539F0F80180819181C81BDD
:102CD000D90BC80ED91EB12CA12C2097A9F0809138
:102CE000E80085FD22C08091E8008E778093E8009F
:102CF00001151105A1F0F80180819181A80EB91E7E
:102D0000B182A08285E0F82E8F2DDF91CF911F91A7
:102D10000F91FF90DF90CF90BF90AF9008950E94E9
:102D2000AF178823D1F2F82EEFCFF60181916F0112
:102D30008093F1002197FFEFAF1ABF0ACECFFC01BD
:102D400080913D0290913E0286179707A0F0611591
:102D5000710529F49091E8009E779093E80090E047
:102D60006115710551F4911108C08091E80082FF4E
:102D700034C080E00895BC01F2CF809136028823F0
:102D8000C1F18530C1F18091E80083FD30C08091B0
:102D9000E80082FDEACF8091E80080FFE1CF8091DA
:102DA000F3002091F200382F6115710519F02830D9
:102DB000310558F091E02830310509F090E020917C
:102DC000E8002E772093E800CBCF81918093F1002B
:102DD000615071092F5F3F4FE7CF80913602882302
:102DE00041F0853041F08091E80083FFBECF81E063
:102DF000089582E0089583E00895FC0180913D02EA
:102E000090913E0286179707A0F06115710529F48D
:102E10008091E8008E778093E80090E0611571055D
:102E200051F4911108C08091E80082FF35C080E024
:102E30000895BC01F2CF809136028823C9F1853014
:102E4000C9F18091E80083FD31C08091E80082FDE6
:102E5000EACF8091E80080FFE1CF8091F3002091DC
:102E6000F200382F6115710519F02830310558F03E
:102E700091E02830310509F090E08091E8008E77EC
:102E80008093E800CBCF84918093F100319661501C
:102E900071092F5F3F4FE6CF80913602882341F0C2
:102EA000853041F08091E80083FFBDCF81E0089537
:102EB00082E0089583E00895982F973028F08F706E
:102EC0008093E90081E008959093E900242F762F04
:102ED00050E0981731F07091EC002091ED00509186
:102EE000F00021FD02C09F5FE8CF3091EB003E7FF4
:102EF0003093EB003091ED003D7F3093ED00309149
:102F0000EB0031603093EB007093EC002093ED0008
:102F10005093F0002091EE0027FDE5CF80E008956A
:102F20008091370287FF13C08091E80082FF06C0BE
:102F30008091E8008B778093E80004C0809136028E
:102F40008111F2CF0895809136028823D9F38091C0
:102F5000E80080FFF8CF8091E8008E77ECCF2091D9
:102F6000E4003091E50095E6A9012091EC00822F64
:102F7000817020FF06C08091E80080FF06C080E0DD
:102F800008952091E80022FD1AC08091360288231E
:102F900089F0853089F08091EB0085FD0FC020918C
:102FA000E4003091E50042175307F9F29150E1F641
:102FB00084E0089582E0089583E0089581E0089513
:102FC0000E944E180E945618E0EEF0E08081816069
:102FD0008083E8EDF0E080818F77808319BCA7EDD6
:102FE000B0E08C918E7F8C9380818F7E8083109255
:102FF000350208950F931F93CF93DF930E944E18CD
:103000000E945618C8EDD0E088818F778883888128
:103010008068888388818F7D888319BC10923602EE
:1030200010923202109234021092330200EE10E03D
:10303000F80180818B7F808388818160888342E072
:1030400060E080E00E945C17E1EEF0E080818E7F1E
:103050008083E2EEF0E080818160808380818860FF
:103060008083F80180818E7F80838881806188835E
:10307000DF91CF911F910F910895E8EDF0E08081ED
:103080008F7E8083E7EDF0E080818160808384E043
:1030900082BF81E0809335020C94FA17E8EDF0E0EE
:1030A00080818E7F80831092E20008951092DA0072
:1030B0001092E10008951F920F920FB60F92112403
:1030C0002F933F934F935F936F937F938F939F9330
:1030D000AF93BF93EF93FF938091E10082FF0BC00A
:1030E0008091E20082FF07C08091E1008B7F809396
:1030F000E1000E94C51A8091DA0080FF19C080911A
:10310000D80080FF15C08091DA008E7F8093DA00AE
:103110008091D90080FF96C080E189BD82E189BDA0
:1031200009B400FEFDCF81E0809336020E94B714FF
:103130008091E10080FF19C08091E20080FF15C0FE
:103140008091E2008E7F8093E2008091E2008061B6
:103150008093E2008091D80080628093D80019BCEF
:1031600085E0809336020E94C9148091E10084FFBB
:103170002BC08091E20084FF27C080E189BD82E1FD
:1031800089BD89B5982F917080FFFBCF8091D800C1
:103190008F7D8093D8008091E1008F7E8093E10045
:1031A0008091E2008F7E8093E2008091E200816056
:1031B0008093E20080913202882309F449C084E0C0
:1031C000809336020E94CA148091E10083FF29C0D7
:1031D0008091E20083FF25C08091E100877F80938A
:1031E000E10082E080933602109232028091E10089
:1031F0008E7F8093E1008091E2008E7F8093E200D9
:103200008091E20080618093E20042E060E080E033
:103210000E945C178091F00088608093F0000E940B
:10322000C814FF91EF91BF91AF919F918F917F91C2
:103230006F915F914F913F912F910F900FBE0F9023
:103240001F90189519BC109236020E94C51470CFB9
:103250008091E30087FD93E090933602B3CF1F92F5
:103260000F920FB60F9211242F933F934F935F93BA
:103270006F937F938F939F93AF93BF93CF93DF937E
:10328000EF93FF93D091E900DF708091EC00C82F9D
:10329000C17080FDC0E81092E9008091F000877F46
:1032A0008093F00078940E9473191092E900809145
:1032B000F00088608093F000CD2BCF70C093E900C0
:1032C000FF91EF91DF91CF91BF91AF919F918F913E
:1032D0007F916F915F914F913F912F910F900FBE12
:1032E0000F901F9018951F93CF93DF93CDB7DEB744
:1032F000AA970FB6F894DEBF0FBECDBF87E392E06A
:103300002091F100FC012193CF01F2E08F339F0760
:10331000B9F70E94D5148091E80083FF1EC1809107
:103320003702909138029A3008F017C1E92FF0E087
:10333000EB5BF44E0C94E11A803899F0823809F076
:103340000CC180913B028F70873008F006C18093DA
:10335000E9008091EB0085FB882780F91092E90055
:1033600006C0809133029091340291118260909155
:10337000E800977F9093E8008093F1001092F100AD
:103380008091E8008E77E5C0882309F4D3C08230AD
:1033900009F0E3C0809139028111D6C080913B02CF
:1033A0008F702FEF280F263008F0D7C08093E900E8
:1033B0002091EB0020FFC8C0933031F48091EB00E6
:1033C00080628093EB00C0C09091EB00906190937D
:1033D000EB0021E030E001C0220F8A95EAF720934C
:1033E000EA001092EA008091EB008860EACF811138
:1033F000B4C0109139021F778091E3008078812B4F
:103400008093E3008091E800877F8093E8000E942A
:1034100090178091E80080FFFCCF8091E3008068E6
:103420008093E30082E0111183E08093360295C01F
:103430008058823008F091C08091390290913A0210
:103440008C3D23E09207A1F583E08A838AE2898399
:103450004FB7F894DE01139620E03EE051E2E32FEF
:10346000F0E050935700E49120FF03C0E295EF7025
:103470003F5FEF708E2F90E0EA30C0F0C7968D93DB
:103480009D932F5F243159F74FBF8091E800877FCC
:103490008093E8006AE270E0CE0101960E949F16D8
:1034A0008091E8008B778093E80057C0C096E7CF03
:1034B00060913B0270913C02AE014F5F5F4F0E94F2
:1034C000E015BC01892B09F448C09091E800977F72
:1034D0009093E80089819A810E94FD16E1CF80389F
:1034E000E1F58091E800877F8093E80080913202C7
:1034F0008093F10045CF811130C090913902923014
:1035000060F58091E800877F8093E8009093320215
:103510000E94901780913202882311F084E005C048
:103520008091E30087FDFACF81E0809336020E940C
:10353000CB1413C080913902813079F481E093304B
:1035400009F080E0809334021092E9008091E80055
:10355000877F8093E8000E9490178091E80083FFA6
:103560000AC08091E800877F8093E8008091EB009B
:1035700080628093EB00AA960FB6F894DEBF0FBE70
:10358000CDBFDF91CF911F9108950895CF93809182
:1035900036028823A1F0C091E900CF709091EC0031
:1035A000892F817090FD80E8C82B1092E9008091EE
:1035B000E80083FD0E947319CF70C093E900CF919A
:1035C0000895EE0FFF1F0590F491E02D0994F999ED
:1035D000FECF92BD81BDF89A992780B50895A8E1E4
:1035E000B0E042E050E00C941B1B262FF999FECF6F
:1035F00092BD81BDF89A019700B4021639F01FBA46
:1036000020BD0FB6F894FA9AF99A0FBE0895039662
:10361000272F0E94F61A0E94F51A252F0E94F61AEB
:10362000242F0C94F61A0196272F0E94F61A0C9458
:10363000F51ADC01CB01FC01F999FECF06C0F2BD01
:10364000E1BDF89A319600B40D9241505040B8F760
:103650000895F894FFCF6A0A6A0AC20AC20A140BD4
:10366000970A970A970A300BBC0BCB0BCB0B980C25
:10367000980CA10CA10CA30CA10CA10CA10C980CF2
:10368000980CA80CA10CA10CA80C9C19C419AD1A7B
:0E369000C419AD1AF719181AAD1A6F1A7B1A61
:10369E000105024B148A144E148614821401E200A2
:1036AE00E900EA00B500B600B700CD008301CC00FA
:1036BE008A0192019401210223022402250226028C
:1036CE0027022A02B300B4006F007000818283903B
:1036DE009134979694303132F0F1F435929593E21D
:1036EE0000E900EA00B500B600B700CD008301CCBA
:1036FE00008A01920194012102230224022502264E
:10370E000227022A02B300B4006F00700081828388
:00000001FF
