:100000000C94F9090C94400A0C94400A0C94400A90
:100010000C94400A0C94400A0C94400A0C94400A38
:100020000C94400A0C94400A0C94632E0C94352FC7
:100030000C9469200C94400A0C94400A0C94400AD9
:100040000C94400A0C94400A0C94400A0C94400A08
:100050000C94400A0C94C2200C94400A0C94400A60
:100060000C94400A0C94400A0C94400A0C94400AE8
:100070000C94400A0C94400A0C94400A0C94400AD8
:100080000C94400A0C94400A0C94400A0C94400AC8
:100090000C94400A0C94400A0C94400A0C94400AB8
:1000A0000C94400A0C94400A0C94400A161616163A
:1000B000481648169516B316D417D417BE165317FC
:1000C00064176417C417D417D417CD178218821871
:1000D000941894188B1894189418941882188218ED
:1000E0009018941894189018A22FC92FC130C92FB6
:1000F000C13015303830C1308F309E3029001E009D
:100100001F00200021002200000023002400250001
:10011000260027002E002B0014001A0008001500EE
:10012000170000001C0018000C0012001300310022
:10013000E00004001600070009000A0000000B00A0
:100140000D000E000F0033003400E1001D001B0005
:10015000060019000500E30011001000360037000A
:100160003800E1000F5802510351E20001512A000A
:1001700028002C002D003502AA00A9004C001050C8
:10018000000000000000000000000000000000006F
:100190000000000000004C00000000000000080407
:1001A000000000000000000018040C040000000023
:1001B000A8000000000000002A082B010000000039
:1001C0005000510052004F000000A900E100000063
:1001D0000000000000000000E30011040000000027
:1001E00000000000AA000000000000000000000065
:1001F000000028002C0000000000AC00AB00AE00A6
:100200001050000000000000000000000000230269
:1002100024022502260227024C00000000000000F4
:1002200000000000000000000000000000000000CE
:100230002F0030000000000000000000000000005F
:100240000000000000000000000000003500000079
:100250000000000039000000000000000000000065
:10026000000000000000000000000100E1000000AC
:1002700000000000000000002D0000000000000051
:10028000000010500000000000000000000000000E
:10029000230224022502260227024C00000000004F
:1002A000000000000000000000000000000000004E
:1002B00000002F02300200000000000000000000DB
:1002C00000000000000000000000000000003502F7
:1002D00000000000000039000000000000000000E5
:1002E000000000000000000000000000000001000D
:1002F000000000000000000000002D0200000000CF
:10030000000000001050000000000000000000008D
:1003100000000000000000000000000000000000DD
:1003200000000000000000000000000000000000CD
:1003300000000000000000000000000000000000BD
:1003400000000000000000000000000000000000AD
:10035000000000000000000000000000000000009D
:10036000000000000000000000000000000000008D
:10037000000000000000000000000000000000007D
:1003800000000000005C010001000100010001000C
:100390000100000001000100010001000100010056
:1003A0000100010001000100010001000000010046
:1003B0000100010001000100010001000100010035
:1003C0000100010001000000010001000100010026
:1003D0000100010001000100010001000100010015
:1003E0000100010001000100010001000100010005
:1003F00001000100010001000100010001000100F5
:1004000001000100010001000100010001000100E4
:1004100001000100000001000100010001000100D5
:1004200001000100010001000100010001000000C5
:1004300001000100010001000100010001000100B4
:1004400001000100010001000000010001000100A5
:100450000100010001000100010001000100010094
:100460000100010001000100010001000100010084
:100470000100010001000100010001000100010074
:100480000100010001000100010001000100010064
:100490000100010001000000010001000100010055
:1004A0000100010001000100010001000100010044
:1004B0000000010001000100010001000100010035
:1004C0000100010001000100010000000100010025
:1004D0000100010001000100010001000100010014
:1004E0000100010001000100010001000100010004
:1004F00001000100010001000100010001000100F4
:1005000001000100010001000100010001000100E3
:1005100001000100010001000000010001000100D4
:1005200001000100010001000100010001000100C3
:1005300001000000010001000100010001000100B4
:1005400001000100010001000100010000000100A4
:100550000100010001000100010001000100010093
:100560000100010001000100010001000100010083
:100570000100010001000100010001000100010073
:100580000100010001000100010001000100010063
:100590000100010001000100010000000100010054
:1005A0000100010001000100010001000100010043
:1005B0000100010000000100010001000100010034
:1005C0000100010001000100010001000100000024
:1005D0000100010001000100010001000100010013
:1005E0000100010001000100010001000100010003
:1005F00001000100010001000100010001000100F3
:1006000001000100010001000100010001000100E2
:1006100001000100010001000100010000000100D3
:1006200001000100010001000100010001000100C2
:1006300001000100010000000100010001000100B3
:1006400001000100010001000100010001000100A2
:100650000000010001000100010001000100010093
:100660000100010001000100010001000100010082
:100670000100010001000100010001000100010072
:100680000100010001000100010001000100010062
:100690000100010001000100010001000100000053
:1006A0000100010001000100010001000100010042
:1006B0000100010001000100000001000100010033
:1006C0000100010001000100010001000100010022
:1006D0000100000001000100010001000100010013
:1006E0000100010001000100010001000100010002
:1006F00001000100010001000100010001000100F2
:1007000001000100010001000100010001000100E1
:1007100001000100010001000100010001000100D1
:1007200000000100010001000100010001000100C2
:1007300001000100010001000100000001000100B2
:1007400001000100010001000100010001000100A1
:100750000100010000000100010001000100010092
:100760000100010001000100010001000100010081
:100770000100010001000100010001000100010071
:100780000100010001000100010001000100010061
:100790000100010001000100010001000100010051
:1007A0000100000001000100010001000100010042
:1007B0000100010001000100010001000000010032
:1007C0000100010001000100010001000100010021
:1007D0000100010001000000010001000100010012
:1007E0000100010001000100010001000100010001
:1007F00001000100010001000100010001000100F1
:1008000001000100010001000100010001000100E0
:1008100001000100010001000100010001000100D0
:1008200001000100000001000100010001000100C1
:1008300001000100010001000100010001000000B1
:1008400001000100010001000100010001000100A0
:100850000100010001000100000001000100010091
:100860000100010001000100010001000100010080
:100870000100010001000100010001000100010070
:100880000100010001000100010001000100010060
:100890000100010001000100010010501150125030
:1008A0001350145000000000000000000000000081
:1008B000000000002B0000005200000000000000BB
:1008C000000000000000000000000000A800E000A0
:1008D000500051004F000000000000005000510087
:1008E00052004F000000A900E100000000000000DD
:1008F00000000000290000000000000000000000CF
:10090000AA000100000000000000E2002C00280006
:100910002C0000000000AC00AB00AE004445425586
:10092000473A2064697361626C65642E0A0044452D
:100930004255473A20656E61626C65642E0A000A72
:10094000002530313662003A200025303258000A46
:10095000722F6320303132333435363738394142E3
:10096000434445460A00556E69636F646520696EAD
:10097000707574206D6F64652073657420746F3AB0
:100980002025750A00556E69636F646520696E7075
:100990007574206D6F646520696E697420746F3A98
:1009A0002025750A000A002530325820006B657931
:1009B000626F6172645F7265706F72743A20000AD0
:1009C0000025303258006B6579626F6172645F7325
:1009D00065745F6C65643A2000290A002575002F54
:1009E000002575005D280025640020002564002096
:1009F0000025640020002564007C0025303258006A
:100A00006D6F7573656B6579205B62746E7C7820A1
:100A100079207620685D287265702F61636C293AB1
:100A2000205B006D6B5F776865656C5F74696D65F1
:100A30005F746F5F6D6178203D2025640A006D6BE7
:100A40005F776865656C5F6D61785F73706565641D
:100A5000203D2025640A006D6B5F74696D655F74CD
:100A60006F5F6D6178203D2025640A006D6B5F6DBE
:100A700061785F7370656564203D2025640A006DB0
:100A80006B5F696E74657276616C203D2025640A27
:100A9000006D6B5F64656C6179203D2025640A0000
:100AA0006D6B5F776865656C5F74696D655F746FAA
:100AB0005F6D6178203D2025640A006D6B5F77686B
:100AC00065656C5F6D61785F7370656564203D205E
:100AD00025640A006D6B5F74696D655F746F5F6D8F
:100AE0006178203D2025640A006D6B5F6D61785F41
:100AF0007370656564203D2025640A006D6B5F6935
:100B00006E74657276616C203D2025640A006D6B01
:100B10005F64656C6179203D2025640A000A002528
:100B20007500363A20776865656C5F74696D655F3E
:100B3000746F5F6D61783A20000A00257500353AC0
:100B400020776865656C5F6D61785F73706565645B
:100B50003A20000A00257500343A2074696D655FFB
:100B6000746F5F6D61783A20000A00257500333A92
:100B7000206D61785F73706565643A20000A002516
:100B80007500323A20696E74657276616C286D73F7
:100B9000293A20000A00257500313A2064656C610D
:100BA00079282A31306D73293A20000A092D205600
:100BB000616C756573202D0A004D3E004D25643E25
:100BC00020003F007365742064656661756C740A6B
:100BD00000433E200077686572652064656C74612F
:100BE0003A20637572736F723D25642C20776865B7
:100BF000656C3D25640A53656520687474703A2FEE
:100C00002F656E2E77696B6970656469612E6F72EE
:100C1000672F77696B692F4D6F7573655F6B6579AA
:100C2000730A000A092D204D6F7573656B65792075
:100C30002D0A4553432F713A09717569740A313A87
:100C40000964656C6179282A31306D73290A323A5A
:100C500009696E74657276616C286D73290A333A7E
:100C6000096D61785F73706565640A343A09746967
:100C70006D655F746F5F6D61780A353A09776865F5
:100C8000656C5F6D61785F73706565640A363A09FB
:100C9000776865656C5F74696D655F746F5F6D61C2
:100CA000780A0A703A097072696E742076616C7500
:100CB00065730A643A097365742064656661756CCE
:100CC00074730A75703A092B310A646F776E3A09AA
:100CD0002D310A706775703A092B31300A706764DC
:100CE0006F776E3A092D31300A0A7370656564209A
:100CF0003D2064656C7461202A206D61785F73709B
:100D0000656564202A2028726570656174202F2033
:100D100074696D655F746F5F6D6178290A003F00CB
:100D20004D3E2000433E20004C25640A0074696D4E
:100D300065725F72656164333228293A2025303448
:100D40006C580A006B6579626F6172645F69646CEC
:100D5000653A2025580A006B6579626F6172645F9D
:100D600070726F746F636F6C3A2025580A00686F59
:100D700073745F6B6579626F6172645F6C656473D5
:100D800028293A2025580A000A092D205374617435
:100D90007573202D0A004743433A20352E342E30F8
:100DA000204156522D4C4942433A20322E302E30AB
:100DB000204156525F415243483A20617672350ACB
:100DC000004F5054494F4E533A204C554641204D08
:100DD0004F5553454B45592045585452414B455961
:100DE00020434F4E534F4C4520434F4D4D414E44B1
:100DF00020343039360A004255494C443A202230DA
:100E0000306436326422202830373A30343A343075
:100E1000205365702031362032303230290A005696
:100E200049443A203078464545442850726F6665FB
:100E30007429205049443A203078363036322841DF
:100E40007472657573363229205645523A203078CF
:100E5000303030310A000A092D2056657273696FEF
:100E60006E202D0A000A092D20436F6E736F6C658A
:100E7000202D0A4553432F713A09717569740A6D23
:100E80003A096D6F7573656B65790A000A092D2043
:100E90004D61676963202D0A443A094465627567AC
:100EA000204D65737361676520546F67676C650AD1
:100EB000583A094D617472697820446562756720FB
:100EC0004D6F646520546F67676C65202D205368F3
:100ED0006F77206B65797072657373657320696EC7
:100EE000206D617472697820677269640A4B3A09EF
:100EF0004B6579626F617264204465627567205446
:100F00006F67676C65202D2053686F77206B65795C
:100F10007072657373207265706F72740A4D3A094E
:100F20004465627567204D6F75736520546F676700
:100F30006C650A563A0956657273696F6E0A533AC0
:100F4000095374617475730A433A0941637469768D
:100F500061746520436F6E736F6C65204D6F6465BF
:100F60000A46312D4631303A095377697463682057
:100F7000746F204C6179657220302D3920284631FC
:100F800030203D204C30290A302D393A09537769F9
:100F900074636820746F204C6179657220302D393C
:100FA0000A47524156453A09537769746368207479
:100FB0006F204C6179657220302028616C746572F5
:100FC0006E617465290A423A094A756D7020746F22
:100FD00020426F6F746C6F616465720A4553433AC7
:100FE000094A756D7020746F20426F6F746C6F6169
:100FF0006465722028616C7465726E617465290A7B
:10100000453A095072696E7420454550524F4D2043
:1010100053657474696E67730A4253504143453A8D
:1010200009436C65617220454550524F4D0A000AD4
:10103000002575002E6E6B726F3A20000A00257530
:10104000002E737761705F6261636B736C617368AC
:101050005F6261636B73706163653A20000A00250B
:1010600075002E737761705F67726176655F657377
:10107000633A20000A002575002E6E6F5F67756960
:101080003A20000A002575002E737761705F726147
:101090006C745F726775693A20000A002575002E2E
:1010A000737761705F6C616C745F6C6775693A200F
:1010B000000A002575002E737761705F7263746C8F
:1010C0005F726775693A20000A002575002E7377F4
:1010D00061705F6C63746C5F6C6775693A20000ABD
:1010E000002575002E636170736C6F636B5F746FA6
:1010F0005F636F6E74726F6C3A20000A0025750092
:101100002E737761705F636F6E74726F6C5F636173
:1011100070736C6F636B3A20000A00253032580000
:101120006B65796D61705F636F6E6669672E726162
:10113000773A20000A002575002E6D6F7573653AA9
:1011400020000A002575002E6B6579626F6172645C
:101150003A20000A002575002E6D61747269783A94
:1011600020000A002575002E656E61626C653A20CC
:10117000000A00253032580064656275675F636F4E
:101180006E6669672E7261773A20000A0025750045
:1011900064656661756C745F6C617965723A200094
:1011A0003F000A6D6F7573653A206F66660A000A24
:1011B0006D6F7573653A206F6E0A000A6B65796210
:1011C0006F6172643A206F66660A000A6B65796225
:1011D0006F6172643A206F6E0A000A6D6174726901
:1011E000783A206F66660A000A6D61747269783A0F
:1011F000206F6E0A000A64656275673A206F666642
:101200000A000A64656275673A206F6E0A000A0A6E
:101210004A756D70696E6720746F20626F6F746CB1
:101220006F616465722E2E2E2000433E2000436CB9
:10123000656172696E6720454550524F4D0A0065E1
:1012400065636F6E6669673A0A005B735D004B65A4
:1012500079626F6172642073746172742E0A005B2C
:10126000575D005B535D005B525D005B445D005B5E
:10127000435D00040330000000120341007400725B
:10128000006500750073003600320000000E035048
:101290000072006F0066006500740000000403091E
:1012A0000409025B00030100A0FA09040000010325
:1012B00001010009211101000122400007058103FD
:1012C00008000A09040100010300000009211101BE
:1012D00000012281000705820320000A09040200A0
:1012E000020300000009211101000122220007056C
:1012F00083032000010705030320000112011001F0
:1013000000000008EDFE62600100010203010631E9
:10131000FF0974A1010975150026FF0095207508C5
:1013200081020976150026FF00952075089102C0FC
:1013300005010902A10185020901A10005091901A0
:101340002905150025019505750181029501750393
:1013500081010501093009311581257F9502750844
:10136000810609381581257F950175088106050CD0
:101370000A38021581257F950175088106C0C005D0
:10138000010980A101850319012AB700150126B7BB
:1013900000950175108100C0050C0901A1018504AB
:1013A00019012AA002150126A002950175108100DD
:1013B000C005010906A101050719E029E715002567
:1013C00001950875018102950175088101050719CC
:1013D0000029FF150026FF00950675088100050805
:1013E0001901290595057501910295017503910172
:1013F000C00011241FBECFEFDAE0DEBFCDBF04B6C0
:1014000003FE27C08091810290918202A091830205
:10141000B09184028730904BA740B04BD1F410922A
:10142000810210928202109283021092840214BEF2
:1014300084B7877F84BF0FB6F894A8958091600029
:10144000886180936000109260000FBEE0E0F8E3D6
:10145000099511E0A0E0B1E0E4EEF2E602C00590EB
:101460000D92A23AB107D9F722E0A2EAB1E001C099
:101470001D92A138B207E1F70E94982B0C947031AD
:101480000C940000FF93EF93E091A201F091A3016F
:10149000309709F00995EF91FF910895FC0185912E
:1014A000803011F0EFDFFBCF0895FF27E0E230E25C
:1014B00047FF0CC0419597FF09C0EDE2609570951C
:1014C00080959095611D711D811D911D27FF02C0A2
:1014D000219530E350E2AA27660F771F881F991FD6
:1014E000AA1FA41710F0A41B63955A95A9F7AA3058
:1014F00008F0A95FA05DAF93F395611571058105B3
:10150000910541F7ED3211F4EF93F395F21718F4CA
:101510003F93F395FBCF8F91B5DFFA95E1F70895EF
:10152000E991F9918591803021F0853219F0AADF97
:10153000F9CF089520E0E89455915532C1F3503326
:1015400011F4689455915A3348F4505390F3220F94
:10155000022E220F220F200D250FF4CF0EF421951D
:1015600089919991533619F3533729F1533559F12C
:10157000BC0188279927E8945C3621F489919991D8
:1015800068945591543639F446EF7EF077FF0DC0DC
:101590008FEF9FEF0AC055374AE039F0583540E1E8
:1015A00021F0523642E009F00895FF93EF937DDF7A
:1015B000EF91FF91B7CFFF93EF93FC0181918030C2
:1015C000B9F360DFFBCFFF93EF9368DFF1CFDF93D9
:1015D000CF93CDB7DEB72596A3DFCF91DF910895E6
:1015E0009C013A9521153F4138F5DC01AA27B270DC
:1015F000AC01442754709C012227387094FF0FC01F
:1016000090FF02C080E101C080E0AB2B09F0806256
:10161000452B09F08064232B69F080680BC0892F6B
:101620008170AB2B09F08260452B09F08460232B7D
:1016300009F08860FB0109940895CF93DF93EC01D2
:10164000805E9109089710F0209719F462ED75E11A
:1016500002C068E478E1CE010E94F00A8C2FDF918D
:10166000CF910C94A814CF93DF93EC010E945715EF
:10167000CE01805E9109089710F0209719F469ED6A
:1016800075E102C06FE478E1CE01DF91CF910C9457
:10169000F00ACF93DF93EC010E941D0BCE01DF9186
:1016A000CF910C94330B81E0089581E008950C9460
:1016B000550B08950C94590B1F93CF93DF9300D0D3
:1016C00000D01F92CDB7DEB749835A836B83309128
:1016D000BC0189819A81311114C0662359F02223FB
:1016E00049F00E94BE1D182F682F89819A810E949F
:1016F000671D03C00E94921D182F69817A81812F76
:1017000004C00E94BE1D69817A810F900F900F90D6
:101710000F900F90DF91CF911F910C94400CFC0122
:10172000262F408151816281738184810C945C0BEE
:10173000CF93DF93EC0160E00E948F0BBE01DF913D
:10174000CF910C945A0B0E941D1F811102C00E9460
:10175000BD1F0E94E70F0C94A50E0C94A10E282F1C
:101760002F7041F0822F90E02A3010F44D960895AA
:101770000697089587E290E0089508950C94BD0BB4
:1017800081E008950C94C00BCF93C82F0E94BE0B2C
:101790008C2F0E94C20BCF91089508950E9470185B
:1017A0000E94CD0B2FEF84E39CE0215080409040BD
:1017B000E1F700C000000C94E8200F931F93CF9333
:1017C000DF93EC0161E00E948F0B8C01BE010E944F
:1017D000570B882309F449C0BE01C8010E94841038
:1017E000882309F442C0BE01C8010E943811882331
:1017F000E1F1BE01C8010E948A118823B1F1BE0146
:10180000C8010E94B512882381F18A81882331F1B1
:1018100001308CE5180751F00E3D8CE51807D9F022
:1018200001151C45D9F40E94CE0B1FC080913702D0
:10183000C82FC095C170C0FB80F980933702CC23BC
:1018400029F08EE299E00E944E0A0FC08CE199E0E7
:101850000E944E0A0BC00E94BD1F07C0CE01DF913F
:10186000CF911F910F910C94530BC0E08C2FDF91FF
:10187000CF911F910F91089580E090E00895089511
:1018800021E4829FC0011124FC012DE0729FE00D34
:10189000F11D1124E60FF11DEE0FFF1FE450FF4F65
:1018A000859194910895880F991FFC01E15CF64F92
:1018B000859194910895CF93DF930E94400C0E94EC
:1018C000730DEC018115904508F041C0C11580E40D
:1018D000D80708F0D1C0C83ED10510F5C03ED105EB
:1018E00008F0FDC0C83AD10578F4C53AD10508F032
:1018F000A2C0C130D10509F4F2C008F4EEC0C43072
:10190000D10508F0ECC0E9C0CF3BD10508F49BC07D
:10191000C03CD10508F4E1C0CE01805C91099EC0B5
:10192000C11590E2D90758F4C11521E0D20708F09B
:10193000D6C0C03FD10508F4D0C0D065D0C0C11515
:1019400080E3D80708F08EC0CE019F7087C0C11514
:1019500095E5D90708F043C0C11524E5D20708F082
:10196000A2C0C11582E5D80708F5C11591E5D907D0
:1019700008F085C0CE0174E0969587957A95E1F7D9
:1019800083709C2F937021E030E002C0220F331F40
:101990009A95E2F73C68382BCF70C695C69580E2E1
:1019A000C89FE0011124C22BD32B99C09E01237044
:1019B00033278C2F86958695C115D34508F064C0D2
:1019C000C1E0D0E002C0CC0FDD1F2A95E2F720E293
:1019D000829FC0011124C82BD92BDC6880C0C1159F
:1019E00029E5D207A0F4C11588E5D80708F060C042
:1019F000C11596E5D90708F070C08C2F0E94070E1C
:101A00008F71C82FD0E0DC2FCC27D06268C0C11501
:101A10002AE5D20708F451C0CE01905681159042B4
:101A200008F05BC08D2F8F710E94070EDD27D062FA
:101A30008F71D82B54C0C55AD0E0CD5BDE4FC88122
:101A4000D0E0D0644CC0C85AD0E0CC0FDD1FCB5ED4
:101A5000DE4F0990D881C02DD46441C00E94530C40
:101A6000EC013DC0CE019927D3FF03C0EC01D86C37
:101A700036C0EC01D06C33C0DF70D06A30C0DC2FD0
:101A8000CC27C16FD06A2BC0C1E0D0E002C0CC0F20
:101A9000DD1F2A95E2F720E2829FC0011124C82BA6
:101AA000D92BDA681CC0DC2FCC27C46FD06A17C0D2
:101AB000DC2FCC27C06FD06A12C08C2F8F700E9491
:101AC000070E94E0D695C7959A95E1F7CF70D0E0D0
:101AD000DC2FCC27D069C82B02C0C0E0D0E0CE01FB
:101AE000DF91CF9108958238910569F1B0F4813387
:101AF000910509F46DC048F48932910509F463C079
:101B00008A32910509F469C008958533910509F475
:101B100055C089339105B9F00895833E910569F167
:101B200038F4803E9105B1F0823E910509F10895A7
:101B3000863E9105A9F1873E9105B9F1843E910554
:101B400009F064C023C02091720220FD4FC021FD26
:101B50004DC008958091720280FD44C0809173024F
:101B600080FF44C08091720284FD42C083EE4DC06C
:101B70008091720282FF38C0F5CF8091720282FD9F
:101B800033C08091730280FD31C0ECCF809173022D
:101B900081FF32C08091720284FD2AC087EE35C079
:101BA0008091720283FF26C0F5CF8091720283FD7F
:101BB00021C08091730281FD1FC0ECCF8091720221
:101BC00085FD1CC01DC08091720285FD19C016C024
:101BD0008091720286FD16C017C08091720286FD48
:101BE00013C010C089E311C082EE0FC080EE0DC09B
:101BF00080E00BC086EE09C084EE07C089E205C014
:101C000085E303C08AE201C081E390E008959091EA
:101C1000720292FF0DC0282F2871283019F4877F97
:101C2000846006C0282F2471243011F48B7F8860D3
:101C300093FF0DC0282F2871283119F4877E846105
:101C400006C0282F2471243111F48B7E88612091E5
:101C5000730220FF0DC0382F3871383019F4877F98
:101C6000816006C0382F3171313011F48E7F886069
:101C700021FF0DC0282F2871283119F4877E81613A
:101C800006C0282F2171213111F48E7E886194FDC8
:101C9000877E0895E82FF0E0EE0FFF1FE15AFD4F19
:101CA000808191810895CF92DF92EF92FF920F93FE
:101CB0001F93CF93DF938FE499E00E944E0A8FE544
:101CC000E82E82E0F82EC0E0D0E09AE4C92E99E038
:101CD000D92E01E419E0DF93CF93DF92CF920E94D7
:101CE000E70A87E499E00E944E0AF70181919191F9
:101CF0007F010E940A1F9F938F931F930F930E944F
:101D0000E70A8FE399E00E944E0A21968DB79EB7AD
:101D100008960FB6F8949EBF0FBE8DBFC530D10593
:101D2000D1F6DF91CF911F910F91FF90EF90DF904F
:101D3000CF90089580EA8A95F1F7089508950C945C
:101D40009E0E0C949F0E0C949E0E0C94A30ECF939B
:101D5000DF93A6E4B1E043E551E061E070E08D91EE
:101D6000E82FE295EF70F0E021A18F70EB0102C047
:101D7000CC0FDD1F8A95E2F7CE019C2F9095922320
:101D800091A392A1892B82A34A175B0741F7A3E590
:101D9000B1E048E551E061E070E08D91E82FE29517
:101DA000EF70F0E021A18F70EB0102C0CC0FDD1FBE
:101DB0008A95E2F7CE019C2F9095922391A392A150
:101DC000892B82A34A175B0741F7E5E5F2E0AFE50F
:101DD000B2E08FE592E0119211921D921D928E1742
:101DE0009F07C9F785E00E94970FDF91CF910C9470
:101DF000A30B2F923F924F925F926F927F928F929E
:101E00009F92AF92BF92CF92DF92EF92FF920F9389
:101E10001F93CF93DF9396E4C92E91E0D92EE12C46
:101E2000F12C10E0AA24A394B12C3FE5632E32E0FC
:101E3000732ED6018D916D01C82FC295CF70D0E061
:101E400099A18F70450101C0880C8A95EAF7892F06
:101E5000882989A38AA1082D009580238AA30E943E
:101E60009A0EA5010E2C02C0440F551F0A94E2F7EA
:101E7000BA0160957095E5E5F2E083E5282E81E0F2
:101E8000382E512C20813181D1014D901D01842D9E
:101E900082958F7090E0DC0190968C9190E0B42D4B
:101EA000BF7002C095958795BA95E2F780FD04C092
:101EB000C901842B952B03C0C901862397232817BA
:101EC000390721F0918380835524539432966E16FE
:101ED0007F06C1F689A1082309A38AA1882A8AA2BC
:101EE0001529EFEFEE1AFE0AFDE0EF16F10409F0F6
:101EF000A0CF212F45E06FE572E085E592E00E94DA
:101F0000980F0E94AD0B812FDF91CF911F910F9100
:101F1000FF90EF90DF90CF90BF90AF909F908F9009
:101F20007F906F905F904F903F902F90089508950D
:101F3000FF920F931F93CF93DF93F82E092F162F45
:101F4000D72FC42F222349F081E08093A6010E945D
:101F50009B209093A5018093A4018091A6018823E2
:101F6000D9F08091A4019091A5010E94B320069719
:101F700098F0EF2DF02FA12FBD2F80E090E04C2F97
:101F800050E08417950734F4219131912D933D93BE
:101F90000196F7CF1092A601DF91CF911F910F917B
:101FA000FF900895CF93DF9397FF0DC0FB0122812F
:101FB000222349F0EC010E942610CE019F770E9457
:101FC00067100E94501081E0DF91CF9108958CE05E
:101FD00090E00E942E3190E0A0E0B0E08093690292
:101FE00090936A02A0936B02B0936C0280913702C7
:101FF00080FF0EC0809169021F928F9385E899E05F
:102000009F938F930E94E70A0F900F900F900F906D
:102010000895609169028CE090E00C943C318093CB
:1020200069020E9409108091370280FF0EC08091E2
:1020300069021F928F9386E699E09F938F930E9487
:10204000E70A0F900F900F900F9008950E943F1E87
:1020500080936D020E94521E80916902813071F05E
:1020600048F0823081F08430A1F486EE0E94BF15E2
:1020700088E10DC082EE0E94A8140BC088E193E0B5
:102080000E94490B06C082EE0E94A81487E50E94B8
:10209000BF158FE39CE90197F1F700C00000089598
:1020A00080916902813039F040F0823031F0843023
:1020B00051F488E206C08CE204C082EE0E945715FB
:1020C00002C00E94BF1580916D020C944F1E0F93A9
:1020D0001F93CF93DF938C01CCE0D0E0C8010C2E8E
:1020E00002C0969587950A94E2F78F700E94AF0B15
:1020F0000E94BF152497CC3F8FEFD80779F7DF9167
:10210000CF911F910F9108950F931F93CF93DF935A
:10211000EC018B01FB018281882351F00E943F1E5C
:10212000CE01815E9C458530910510F40E940F1010
:10213000B801CE01DF91CF911F910F910C94D20F76
:10214000AF92BF92CF92DF92EF92FF920F931F93C5
:10215000CF93DF937C015B01C42FD22FFC018281DE
:102160008823F9F04093A9010E949B209093A80135
:102170008093A70180E28C0F883008F06EC0C77092
:1021800081E001C0880FCA95EAF7DF91CF911F91D6
:102190000F91FF90EF90DF90CF90BF90AF900C9495
:1021A000D2158091A901481335C08091A701909163
:1021B000A8010E94B3206C01B701C5010E94291B30
:1021C000C816D90638F510E21D0FCD17B9F080E218
:1021D0008C0F883040F4C77081E001C0880FCA9529
:1021E000EAF70E94D915183058F581E09D2F9770B5
:1021F00001C0880F9A95EAF70E94D215802F0E949D
:10220000BF15183050F5D77081E001C0880FDA95FE
:10221000EAF70AC080E28C0F8830F8F4C77081E0DA
:1022200001C0880FCA95EAF7DF91CF911F910F91F6
:10223000FF90EF90DF90CF90BF90AF900C94D915A6
:10224000802FDF91CF911F910F91FF90EF90DF9042
:10225000CF90BF90AF900C94BF15DF91CF911F919D
:102260000F91FF90EF90DF90CF90BF90AF900895C7
:102270000F939C01CB01233F4CE5340731F188F4E7
:10228000283DFCE53F07D9F0293D4CE5340779F1BD
:10229000273D3C45A9F506E221EE41EE67ED7CE5E0
:1022A0002BC0253FFCE53F07E1F0A8F0263F3C4569
:1022B00039F507E225EE46EE66EF7CE51DC007E244
:1022C00025EE45EE68ED7CE517C006E221EE40EE16
:1022D00063EF7CE511C007E225EE44EE64EF7CE598
:1022E0000BC006E221EE42EE65EF7CE505C008E298
:1022F00021E045EE69ED7CE50E94A01080E008C079
:10230000FC018281882319F01092A90101C081E0AB
:102310000F910895CF93DF93EC01FB018281882315
:1023200009F41FC1C230FCE5DF0708F41BC1C63148
:102330009CE5D90738F09E012A5F3C4529303105DC
:1023400008F010C10E94301F9093730280937202B4
:10235000C031ECE5DE0709F4C3C008F041C0C83065
:102360008CE5D80709F49AC0F0F4C430ECE5DE0738
:1023700009F487C068F4C2308CE5D80709F477C047
:10238000C330DC4509F0E3C080917202826076C000
:10239000C630ECE5DE0709F46EC008F07BC0809122
:1023A000720288606BC0CC308CE5D80709F485C018
:1023B00068F4CA30ECE5DE0709F474C008F079C0AF
:1023C0000E94701880917202806858C0CE308CE5EF
:1023D000D80709F476C008F07FC0809172028BC0E4
:1023E000CB3FECE5DE0709F44FC018F5C3318CE5AF
:1023F000D80709F47DC078F4C131ECE5DE0709F4B3
:1024000073C0C231DC4509F0A2C00E9470188091EF
:1024100072028F7733C0C5318CE5D80709F472C0DA
:1024200008F486C0CA3FDC4509F091C08091730270
:102430003EC0CF3FFCE5DF0709F45FC058F4CD3F55
:102440009CE5D90709F444C008F43FC080917302A9
:1024500082602DC0C130FDE5DF0709F475C008F4C6
:102460005DC0C230DD4509F072C080E06EC0809171
:102470007202816003C08091720280618093720257
:1024800066C08091720211C0809173028260809355
:1024900073025DC0809172028062F0CF80917202FF
:1024A0008064ECCF8091720288608460E7CF8160A5
:1024B000EECF809172028E7FE1CF809172028D7F8C
:1024C000DDCF80917202877FD9CF8091730218C0CF
:1024D000809173028D7FDBCF809172028F7ECECF91
:1024E000809172028F7DCACF809172028F7BC6CF9E
:1024F00080917202877F8B7FC1CF809173028D7F25
:102500008E7FC5CF8091720282FB222720F991E055
:10251000922790FB82F990FB83F9B0CF80917302F0
:10252000982F909591708E7F892B90FB81F9AFCF7A
:102530000E9470188091720287FB222720F991E097
:10254000922790FB87F99ACF81E00E94BF1F80916C
:102550007202909173020E94411F0E94701880E0E5
:1025600001C081E0DF91CF910895CF93DF93863151
:102570009C4541F5EB010E943F1E982F8A812091D6
:10258000000130910101882379F09A7A81E009F401
:1025900080E08093AA01911102C069E201C065E365
:1025A000C9010E9406200AC08091AA01811102C0BF
:1025B00069E201C065E3C9010E9408200E94901EE3
:1025C00080E001C081E0DF91CF9108959093B00148
:1025D0008093AF010895E091AF01F091B001309781
:1025E00021F00190F081E02D099480E00895EF92B0
:1025F000FF920F931F93CF93DF93E091AF01F09180
:10260000B0013097B1F18C010280F381E02D099582
:102610008091370282FF2DC080FF04C08DEA99E0CF
:102620000E944E0AE80118E087EAE82E89E0F82EB9
:102630008091370280FF0BC088811F928F93FF9299
:10264000EF920E94E70A0F900F900F900F90115099
:1026500021961111EDCF8091370280FF0AC085EAE3
:1026600099E0DF91CF911F910F91FF90EF900C9423
:102670004E0ADF91CF911F910F91FF90EF90089537
:10268000E091AF01F091B001309739F022E0DC0128
:102690002C930480F581E02D099408952091AD01DB
:1026A0003091AE012817390771F09093AE018093F5
:1026B000AD01E091AF01F091B001309721F00680BB
:1026C000F781E02D099408952091AB013091AC0180
:1026D0002817390771F09093AC018093AB01E0911A
:1026E000AF01F091B001309721F00084F185E02D29
:1026F0000994089585B7806885BF85B7806885BFD0
:10270000089508950C9481130C9482130C948113F2
:102710000C9481130E947A130E9486130C948413E4
:1027200081E008950C9490130E9492200E94A70EBD
:102730000E94F9200C948813CF93C82F8091370200
:1027400082FF1EC080FF04C086EC99E00E944E0A02
:102750008091370280FF0CC01F92CF9381EC99E0EB
:102760009F938F930E94E70A0F900F900F900F9006
:102770008091370280FF04C08FEB99E00E944E0ADF
:102780008C2FCF910C94C40B7F928F929F92AF921B
:10279000BF92CF92DF92EF92FF920F931F93CF934E
:1027A000DF93CDB7DEB72A970FB6F894DEBF0FBE22
:1027B000CDBF0E94F90E0E949213811111C08FEFBC
:1027C00089838A831B820E949B208160782F9D834E
:1027D0008C8349815A816B818D810E9474144FC012
:1027E00042EBA42E41E0B42E00E010E0702E802FCA
:1027F0000E944A0E6C01F501819091905F0188263C
:1028000099268114910431F40F5F1F4F0530110593
:1028100069F7D5CF8091370281FD0E94530E80E089
:10282000EE24E394F12C94012E213F21232B09F176
:102830008E837F82CE20DF2081E0CD2809F480E0E6
:1028400088870E949B208160782F9A8789874E8194
:102850005F8168858A850E947414000F111FF8013A
:10286000EE54FE4F80819181E826F926F182E082C4
:1028700006C08F5FEE0CFF1C8D30A9F6C5CF0E94FD
:102880002A230E94EB129091B1018917C9F00E948E
:10289000EB128093B1012A960FB6F894DEBF0FBEFB
:1028A000CDBFDF91CF911F910F91FF90EF90DF90FF
:1028B000CF90BF90AF909F908F907F900C949C137F
:1028C0002A960FB6F894DEBF0FBECDBFDF91CF9131
:1028D0001F910F91FF90EF90DF90CF90BF90AF903E
:1028E0009F908F907F900895CF93DF93CDB7DEB701
:1028F0002B970FB6F894DEBF0FBECDBF4F8358871E
:1029000069877A878B87DE01119686E0FD01119237
:102910008A95E9F785E0FE01379601900D928A9538
:10292000E1F749815A816B817C818D819E810E9472
:102930002C1B2B960FB6F894DEBF0FBECDBFDF91D8
:10294000CF910895FC01808191810E94001E08951D
:10295000CF93882309F4A9C0C82F8238C1F40E94FC
:10296000EB1281FDA2C069E3809100019091010109
:102970000E9406200E94901E2FEF81EE94E02150CD
:1029800080409040E1F700C0000069E319C083383F
:1029900001F50E94EB1280FD88C063E58091000183
:1029A000909101010E9406200E94901E2FEF81EE5F
:1029B00094E0215080409040E1F700C0000063E5C2
:1029C00080910001909101010E940820CF910C9408
:1029D000901E8438C1F40E94EB1282FD66C067E449
:1029E00080910001909101010E9406200E94901E9A
:1029F0002FEF81EE94E0215080409040E1F700C03D
:102A0000000067E4DDCF8CEF8C0F813AF8F48C2F57
:102A10000E942C28811149C06C2F80910001909157
:102A200001010E94D01F882349F06C2F8091000182
:102A3000909101010E9408200E94901E6C2F8091AD
:102A40000001909101010E940620C0CF80E28C0F0E
:102A5000883048F4C77081E001C0880FCA95EAF752
:102A60000E94421EB3CFEBE5EC0FE33040F4F0E000
:102A7000EA57FE4F808190E0CF910C944E13E8E529
:102A8000EC0FE73150F4F0E0EE0FFF1FE85AFE4F75
:102A900080819181CF910C946413C03F30F08C2FD2
:102AA0000E949D21CF910C948A22CF910895882372
:102AB00009F464C0823879F40E94EB1281FF5EC091
:102AC00069E380910001909101010E9406200E941B
:102AD000901E69E310C08338B1F40E94EB1280FFAE
:102AE0004DC063E580910001909101010E94062094
:102AF0000E94901E63E580910001909101010E9467
:102B000008200C94901E843879F40E94EB1282FF06
:102B100035C067E480910001909101010E94062078
:102B20000E94901E67E4E7CF9CEF980F913A10F453
:102B3000682FE1CF90E2980F983050F4877091E0C1
:102B400001C0990F8A95EAF7892F0E94481ED9CFB4
:102B50009BE5980F933020F480E090E00C944E13A6
:102B600098E5980F973120F480E090E00C9464137E
:102B7000803F20F00E9405220C948A220895CF9372
:102B8000C82F0E94A814C93349F42FEF87EE93E0B1
:102B9000215080409040E1F700C000008C2FCF9181
:102BA0000C945715882321F00E94421E0C94901E0D
:102BB0000895882321F00E94481E0C94901E0895C9
:102BC000CF92DF92EF92FF920F931F93CF93DF93F9
:102BD0007C01062FC72FFC01158112951F70D28131
:102BE000D1110E94621E0E94381E882399F0DD23B5
:102BF00089F08C2F807F803421F080E2800F883034
:102C000048F082E00E94DA1E0E94381E91E0D82E21
:102C1000D92601C0D12CCC2EC2948FE0C8228C2D95
:102C200090E0FC01EA5AFF4F0C9414318C2F807F06
:102C3000CF70882311F0C295C07FDD2399F0CC239B
:102C400009F48DC180E2800F883010F0011104C0BA
:102C50008C2F0E94421E03C08C2F0E94551E0E9482
:102C6000901E7DC1802F0E945715CC2309F49CC172
:102C700080E2800F883010F0011104C08C2F0E9478
:102C8000481E03C08C2F0E945B1E0E94901E8CC1A8
:102C90008C2F807FCF70803211F0C295C07F0023CF
:102CA00019F00130C9F022C0DD2371F0112341F089
:102CB000113031F40E94751E8C2B0E947D1E74C150
:102CC0000E94751E8C2B1DC0112319F0113009F4C0
:102CD0006BC10E94861E25C0DD2321F0163008F04E
:102CE00063C10EC0153008F05FC11BC0DD2361F069
:102CF000112331F0F701858180FF31C18F70858309
:102D00008C2F0E94D21550C1112359F0093309F0BC
:102D100037C1FFEF27EE83E0F15020408040E1F71C
:102D20002DC18C2F0E94D9153FC18C2F8695869579
:102D3000837019F0813061F037C1DD2321F0802FDD
:102D40009C2F937002C080E090E00E944E1334C12B
:102D5000DD2321F0802F9C2F937002C080E090E053
:102D60000E94641329C1802FDD2319F00E949D2148
:102D700002C00E9405220E948A221EC18C2F8370ED
:102D800009F045C0D11114C1402F429546954770B6
:102D9000440F440F602F6F70862F90E0A0E0B0E0EA
:102DA000042E04C0880F991FAA1FBB1F0A94D2F7D4
:102DB00004FF10C00FE010E020E030E004C0000F7E
:102DC000111F221F331F4A95D2F7009510952095A9
:102DD000309503C000E010E09801C695C695C37019
:102DE000BC01CD01602B712B822B932BC23049F09B
:102DF00058F4C13019F00E947D1CDAC00E946B1C8F
:102E0000D7C00E948F1CD4C00E94691CD1C0DD2392
:102E100019F08C2F817001C08695882309F4C8C0F1
:102E2000402F429546954770440F440F602F6F70B6
:102E3000862F90E0A0E0B0E0042E04C0880F991F18
:102E4000AA1FBB1F0A94D2F704FF10C00FE010E0C6
:102E500020E030E004C0000F111F221F331F4A95ED
:102E6000D2F7009510952095309503C000E010E052
:102E70009801C695C695C370BC01CD01602B712B1E
:102E8000822B932BC23049F058F4C13019F00E94C4
:102E9000421D8EC00E94301D8BC00E94541D88C0F0
:102EA0000E94A31C85C0CF70DD2339F08C2F0E94B7
:102EB000C91C802F0E94D2157BC0802F0E94D9157B
:102EC0008C2F0E94EA1C74C0023F01F128F4003FDD
:102ED00041F0013FA1F03FC0033FF9F0043F39F159
:102EE0003AC0DD2341F0153008F05EC08C2F8F71A1
:102EF0000E940F1D59C0163008F056C0F7CFDD23D1
:102F000039F08C2F8F710E94C91C4EC0DD23C9F38C
:102F10008C2F8F710E94EA1C47C0DD2329F08C2F73
:102F20008F710E94B41C40C00E94AF1C3DC0DD23C5
:102F300049F0CF718C2F0E94C91C63E08C2F0E9436
:102F4000C51E32C081E00E94DA1E123068F182E0B4
:102F50000E94DA1E29C0DD2331F0112391F2802F67
:102F60000E94A81421C0112399F2093349F49FEF5C
:102F7000E7EEF3E09150E040F040E1F700C00000E0
:102F8000802F0E94571510C04C2F4F70602FC70123
:102F90000E943C0C0E94DA1B0FC04C2F4F70602F18
:102FA000C7010E943F0C08C088EF8C0D843020F4CC
:102FB0000E94EB120E94C40BDD20C9F00E94341E57
:102FC00080FD15C0F70112820E942E1E0E94C91CAE
:102FD000C7010E9418180E942E1EDF91CF911F91E9
:102FE0000F91FF90EF90DF90CF900C94EA1CDF914F
:102FF000CF911F910F91FF90EF90DF90CF900895A8
:103000000F931F93CF93DF93EC01688179818A81BD
:103010000E940B1E8C010E94661D0E94571CB80165
:10302000CE010E94E015DF91CF911F910F9108957D
:10303000CF93DF93EC01988189812B813C81232BF5
:1030400031F08F3F31F481E09F3F19F403C081E0FC
:1030500001C080E080FD19C0CE010E94DD0B81110E
:103060000CC00E94381E882381F08A81882369F071
:1030700082E0DF91CF910C94DA1ECE010E940018FD
:10308000CE01DF91CF910C94980BDF91CF910895F1
:10309000882321F00E94551E0C94901E08958823C9
:1030A00021F00E945B1E0C94901E08950E94621EE7
:1030B0000E94721E0E94901E0E943D240E948A223D
:1030C00080E090E00E944E1380E090E00C94641346
:1030D00080910001909101010E940A200C945618E1
:1030E0000E94521E0C946818E92FE295EF704E2F43
:1030F00050E0FA013297EE30F105B0F4EA59FF4F93
:103100000C941431803F91F018F4883E68F40EC09E
:10311000843F51F40BC0883E48F0813F29F406C03B
:1031200093FB882780F9089580E0089581E0089551
:103130000E94001E0E9474180895CF93DF9300D060
:1031400000D01F92CDB7DEB70F900F900F900F9069
:103150000F90DF91CF910895CF93DF9300D000D0EF
:1031600000D0CDB7DEB726960FB6F894DEBF0FBEFF
:10317000CDBFDF91CF9108951F93CF93DF93C0917F
:10318000BD0116E08091BE01C81799F0D0E01C9FE8
:10319000F0011D9FF00D1124E154FE4F408151813B
:1031A00062817381848195810E94AC182196C770D9
:1031B000E9CFDF91CF911F9108954091EF01509198
:1031C000F0016091F1017091F2018091F301909111
:1031D000F4010C94AC180F931F93CF93DF9380915D
:1031E000F40182958F7009F05DC08091F101882310
:1031F00009F458C08091BD011091BE016091EF01AA
:103200007091F001C091F201D091F30191E06F3F14
:1032100009F090E0292F06E0811709F443C02097B8
:1032200021F07F3F21F030E003C031E001C0322FB8
:1032300090E030FD34C0089FF001099FF00D11248B
:10324000DF01A154BE4F11963C911197371327C04F
:103250003C91361324C012963C91129731111FC035
:1032600013964D915C9114974C1B5D0B483C510596
:10327000B0F48091F4018F7080618093F401EC537D
:10328000FE4F80818F70806180838FEE91E00E947D
:103290001818DF91CF911F910F910C94BC180196D3
:1032A0008770BACFDF91CF911F910F9108959F92B0
:1032B000AF92BF92CF92DF92EF92FF920F931F9344
:1032C000CF93DF93CDB7DEB761970FB6F894DEBF2B
:1032D0000FBECDBF8C0185E0F801DE011D96019087
:1032E0000D928A95E1F7F80140815181E280909139
:1032F000EF016091F0012091F2013091F30121156D
:10330000310531F06F3F31F481E09F3F19F403C084
:1033100081E001C080E0F82FF1709F2E80FD46C152
:10332000F801A380B4808FEEC82E81E0D82EF090F3
:10333000F101F501E21BF30BFF2009F4DFC08091DE
:10334000F401E83CF10508F09BC0282F207F09F02C
:1033500052C0561313C0491311C0FE2CE1100EC009
:103360008F7080618093F4010E94DD18C6010E9475
:1033700018188091F401F801858358C1AB2831F009
:103380005F3F31F481E04F3F19F403C081E001C099
:1033900080E080FD03C081E08E2502C080E090E0E7
:1033A000F82FF170FF2E80FF1CC08091BD0120918D
:1033B000BE0136E0821709F417C190E0389FF00192
:1033C000399FF00D1124E154FE4F6181561306C060
:1033D0006081461303C06281E61203C001968770C4
:1033E000E9CFFE2CEE2009F421C18091F401816027
:1033F0008093F4015AC0561306C0491304C0E1106B
:1034000002C0F8019FC04D875E878D859E850E9412
:103410009818882379F1EE2069F12091F401822F28
:1034200082958F7090E0029774F08091EF019091F7
:10343000F00198878F831986BB86AA862C87CE01D8
:1034400007960E94181886E0F801AFEEB1E00190EF
:103450000D928A95E1F70E94EB180E94DD180DC0CD
:10346000561729F14D875E878D859E850E94981895
:1034700081112CC0C8010E941818FF24F394D6C0F3
:10348000282F207F69F77A2DB98AA88A6E2D89891D
:103490000E949D188FEE91E00E94181886E0F601B8
:1034A00011928A95E9F70E94DD18F12CBFC04913EB
:1034B000D9CFE110D7CFF8018583C8010E94181831
:1034C00086E0F60111928A95E9F7B0C0EE2091F2FC
:1034D0002091F401822F82958F7090E002970CF476
:1034E000B2CF8091EF019091F0019A8389831B8282
:1034F000BD82AC822E83CE010196A3CFE83CF105BC
:1035000008F047C0FE2CEE2009F4B4CF561330C0AB
:1035100049132EC02091F40120FD21C0822F8295F5
:103520008F70482F50E041155105C9F0F8012583EF
:103530004F30510541F08F5F982F9295907F822FE9
:103540008F70892B8583C8010E94181886E0F801C6
:10355000AFEEB1E001900D928A95E1F742C086E0AE
:10356000F801AFEEB1E001900D928A95E1F75EC0EF
:103570004D875E878D859E850E949818811163CF47
:103580008091F40181608093F401C8010E941818B1
:103590004DC07A2DB98AA88A6E2D89890E949D18FE
:1035A00086E0F60111928A95E9F71BC0EE2009F436
:1035B00061CF4D875E878D859E850E949818F82E75
:1035C000882309F457CF86E0F801AFEEB1E001900F
:1035D0000D928A95E1F78FEE91E00E94A2140E946D
:1035E000EB180E94DD1822C04D875E878D859E8571
:1035F0000E94001E292F22952F70223028F49F70E0
:1036000039F0811105C00BC0243028F49F7049F4B3
:10361000805E883020F0C8010E9418189F2CF92C79
:1036200005C0F8019581907F99F7F9CF8F2D6196AC
:103630000FB6F894DEBF0FBECDBFDF91CF911F91C3
:103640000F91FF90EF90DF90CF90BF90AF909F9041
:10365000089588EC90E008951F93CF93DF93CDB742
:10366000DEB72C970FB6F894DEBF0FBECDBF4F83E9
:10367000588769877A878B879C87CE0107960E9437
:1036800057198823D1F09F8188852A853B85232B74
:1036900031F08F3F31F481E09F3F19F403C081E0A6
:1036A00001C080E080FD47C04F81588569857A85DB
:1036B0008B859C850E94AC183EC086E0FE01379643
:1036C000DE01119601900D928A95E1F7FF81E88560
:1036D0006A857B856115710531F0EF3F31F481E03A
:1036E000FF3F19F403C081E001C080E080FD23C0EA
:1036F0002091BE0130E0C901019687709927409161
:10370000BD0150E084179507F1F1F983EA837D83C9
:103710006C8396E0929FD001939FB00D1124A15429
:10372000BE4FFE01319601900D929A95E1F780937C
:10373000BE010E94BC1816E08091BD019091BE01AF
:10374000891771F1189FC001112481549E4F0E9466
:103750005719882329F1E091BD011E9FF001112422
:10376000E154FE4F40815181628173818481958152
:103770000E94AC188091BD0190E001968770992756
:103780008093BD01D9CF0E9470181092BE01109293
:10379000BD01EFEEF1E086E0DF011D928A95E9F7C9
:1037A0002C960FB6F894DEBF0FBECDBFDF91CF9140
:1037B0001F910895EF92FF920F931F93CF93DF9382
:1037C0008C01892B09F46CC0F12CEE24E394E80100
:1037D0002196F8018491843740F4843008F051C078
:1037E000813081F0823019F15BC0853709F444C023
:1037F000A8F19CE7980F903708F052C08F770E948D
:10380000571541C00E5F1F4FFE01849190E2980F43
:10381000983050F48770FE2D01C0FF0F8A95EAF7AB
:103820008F2F0E94651E14C00E94A8142DC00E5F29
:103830001F4FFE01849190E2980F983060F48770DA
:10384000FE2D01C0FF0F8A95EAF78F2F0E946B1E95
:103850000E94901E19C00E94571516C00E5F1F4F80
:10386000FE01C491CC2381F08FE99FE00197F1F72D
:1038700000C00000C150F6CF0E5F1F4FFE01F49054
:1038800003C00E94A8148E018F2D882309F49FCFB6
:10389000EFE9FFE03197F1F700C000008150F5CF6C
:1038A000DF91CF911F910F91FF90EF9008950895B0
:1038B00008950C94581C0C94591C0E945B1C609336
:1038C00026027093270280932802909329020C9479
:1038D00056180C945D1C0F931F93009126021091B3
:1038E00027022091280230912902602B712B822B14
:1038F000932B1F910F910C945D1C0F931F930091BC
:10390000260210912702209128023091290260237B
:103910007123822393231F910F910C945D1C0F93AD
:103920001F930091260210912702209128023091C6
:10393000290260277127822793271F910F910C94EA
:103940005D1C0C94581C0E94A11C60932202709371
:10395000230280932402909325020C94561860E071
:1039600070E0CB010C94A31C0F931F9341E050E037
:1039700060E070E08A019B0104C0000F111F221F4C
:10398000331F8A95D2F7C901B8011F910F910C948A
:10399000A31C0F931F9341E050E060E070E004C06F
:1039A000440F551F661F771F8A95D2F78091220218
:1039B00090912302A0912402B09125028A019B01DB
:1039C000082B192B2A2B3B2BC901B8011F910F91F2
:1039D0000C94A31C0F931F9341E050E060E070E053
:1039E00004C0440F551F661F771F8A95D2F7409574
:1039F0005095609570958091220290912302A0913C
:103A00002402B09125028A019B01082319232A234D
:103A10003B23C901B8011F910F910C94A31C0F9374
:103A20001F9341E050E060E070E004C0440F551F78
:103A3000661F771F8A95D2F7809122029091230208
:103A4000A0912402B09125028A019B010827192721
:103A50002A273B27C901B8011F910F910C94A31C81
:103A60000F931F93009122021091230220912402B0
:103A700030912502602B712B822B932B1F910F917C
:103A80000C94A31C0F931F93009122021091230208
:103A900020912402309125026023712382239323F5
:103AA0001F910F910C94A31C0F931F93009122025E
:103AB0001091230220912402309125026027712762
:103AC000822793271F910F910C94A31C08952DE03A
:103AD000929F800D1124E82FE695E695E695877074
:103AE00051E001C0550F8A95EAF785E0E89FF001A3
:103AF0001124EB50FE4F20E030E070E04081CB011C
:103B0000022E02C0969587950A94E2F781708195FE
:103B100084278523842781932F5F3F4F25303105EC
:103B200069F708952DE0929F800D1124682F669506
:103B300066956695982F977085E0689FB00111246F
:103B400040E050E080E0FB01E40FF51FEB50FE4F3A
:103B5000208130E0092E02C0369527950A94E2F7BD
:103B600021703327042E01C0220F0A94EAF7822B1A
:103B70004F5F5F4F4530510531F70895BF92CF92A7
:103B8000DF92EF92FF920F931F93CF93DF938C01FD
:103B9000C0902202D0902302E0902402F0902502EF
:103BA0008091260290912702A0912802B0912902CB
:103BB000C82AD92AEA2AFB2ACFE1D0E0D701C601D8
:103BC0000C2E04C0B695A795979587950A94D2F7C1
:103BD00080FD04C0219790F7B12C07C0BC2EB8011E
:103BE0008C2F0E945B0C0197A9F38B2DDF91CF9155
:103BF0001F910F91FF90EF90DF90CF90BF900895AD
:103C0000CF93DF93EC010E94BE1DBE010E945B0CAE
:103C1000DF91CF9108951F93CF93DF93EB019091A4
:103C2000BC01992321F0CB010E94001E13C0882300
:103C300049F0CB010E94BE1D182F682FCE010E94B3
:103C4000671D04C0CB010E94921D182FBE01812F59
:103C50000E945B0CDF91CF911F91089580912A0201
:103C6000859585958595089580912A028770089598
:103C700090912A02977081E009F480E00895809184
:103C80003602089590913602892B8093360208956A
:103C9000809590913602892380933602089580930F
:103CA0003602089510923602089590913502892BBC
:103CB00080933502089580959091350289238093F1
:103CC0003502089510923502089590913402892B9F
:103CD00080933402089580959091340289238093D3
:103CE0003402089510923402089580912B020895B1
:103CF00008950C94781E0C94791E90912B029817BD
:103D000021F080932B020C947B1E089580912B024E
:103D1000882329F010922B0280E00C947B1E0895DA
:103D2000E0910001F0910101809136028083E091E1
:103D30000001F0910101908180913502892B8083EF
:103D4000E0910001F0910101908180913402892B72
:103D5000808380912B02882381F0E0910001F09113
:103D600001019081892B8083809100019091010154
:103D70000E94C41F81110E94861E809100019091B3
:103D800001010C94F7120C94781E98E0899F900121
:103D90001124262B20932A020E94C91C80912A02FA
:103DA0008595859585950C94C31E10922A0280E016
:103DB0000C94C31E20912A028095822380932A02AC
:103DC000982F977079F430E0482F082E000C550B8F
:103DD0002417350739F08595859585950E94EA1C4D
:103DE0000C94D51E08959093A3018093A201089589
:103DF0008295982F937344E0949F900111248C7CBA
:103E000086958695282B822F8575880F2A7A269588
:103E1000822B0895CF93DF93D92F0E94F81EC82FCD
:103E20008D2F0E94F81E2C2F30E0322F2227A9015F
:103E3000482BCA01DF91CF91089580E090E00E9465
:103E4000363121E08C3E9E4F09F020E0822F08950C
:103E500082E090E00C942E3183E090E00C942E31BF
:103E6000CF9384E090E00E942E31C82F81E290E051
:103E70000E942E312C2F30E0A901582BCA01CF917E
:103E80000895CF93C92F682F84E090E00E943C31C1
:103E90006C2F81E290E0CF910C943C31AB01BC01DE
:103EA0008FE090E00C944E31AB01BC0183E190E0D7
:103EB0000C944E3160E070E0CB010C94541F60E034
:103EC00070E0CB010E944E1F0C945A1F6CEE7EEFE7
:103ED00080E090E00E945A3160E082E090E00E9431
:103EE0003C3160E083E090E00E943C311092260279
:103EF00010922702109228021092290260E084E0BA
:103F000090E00E943C3160E081E290E00E943C3110
:103F100060E085E090E00E943C3160E086E090E067
:103F20000E943C316FEF87E090E00E943C3140E01E
:103F300050E0BA0188E090E00E944E3160E08DE0F0
:103F400090E00E943C3140E050E0BA0188E190E00E
:103F50000E944E3160E087E190E00E943C3140E0F9
:103F600050E0BA018CE190E00E944E3160E080E2C6
:103F700090E00E943C310C945F1F0C94661F682FE8
:103F80008EE090E00C943C31FC01329697E080E0AA
:103F9000915029F021912223D9F38F5FF9CF089511
:103FA000662349F0FC01329608962191621729F0A8
:103FB000E817F907D1F780E0089581E008959C01A2
:103FC000FC0132969FEF80E04191461789F09F3FB8
:103FD00019F4411101C0982F8F5F8630A9F79F3FD8
:103FE00039F0F901E90FF11D97FDFA956283089503
:103FF00008959C012A5F3F4FFC014281461301C096
:104000001282019682179307B9F708950C94DF1F67
:104010000C94F91F029626E0FC0111922A95E9F70B
:10402000089508950C9411200C941120CF930E94B0
:1040300014200E94F90E0E941220C0E08C2F0E94D2
:104040004A0E892B29F4CF5FC530C1F780E001C04B
:1040500081E0CF9108950C9411200C942B200E94A4
:104060002D2080917802843049F11092380220E4AA
:1040700088E190E00FB6F894A895809360000FBE99
:104080002093600080E00E94C40B0E942D2083B723
:10409000817F846083BF83B7816083BF7894889574
:1040A00083B78E7F83BF0FB6F894A8958091600088
:1040B000886180936000109260000FBE08950C9498
:1040C00011200E9470180E94EB120E94C40B0C94E5
:1040D0005F201F920F920FB60F9211248F939F9320
:1040E000AF93BF9380913802811113C080916E020B
:1040F00090916F02A0917002B09171024196A11D42
:10410000B11D80936E0290936F02A0937002B093E2
:104110007102BF91AF919F918F910F900FBE0F9041
:104120001F90189582E084BD93E095BD9AEF97BDEE
:1041300080936E0008952FB7F89480916E0290914D
:104140006F02A0917002B09171022FBF08952FB736
:10415000F89460916E0270916F028091700290915C
:1041600071022FBF08959C014FB7F89480916E02A1
:1041700090916F02A0917002B09171024FBF821BAB
:10418000930B089578941F920F920FB60F921124FB
:104190008F939F93AF93BF9380916E0290916F0224
:1041A000A0917002B09171020196A11DB11D809382
:1041B0006E0290936F02A0937002B0937102BF9150
:1041C000AF919F918F910F900FBE0F901F901895F8
:1041D00087E797E790930108809300089AE088E1C9
:1041E0000FB6F894A895809360000FBE909360007E
:1041F000FFCF0E941D1F811102C00E94BD1F0E949F
:10420000281F809337020E94301F9093730280937F
:1042100072020E942C1F682F70E080E090E00E94E4
:10422000691C609122027091230280912402909176
:1042300025020C94A11C80913F0280FF0BC060916D
:10424000070185E0689FB001112475956795759504
:1042500067952BC081FF09C06091070185E0689FC9
:10426000B00111247595679520C082FF07C0609149
:10427000070185E0689FB001112417C090913E02AC
:104280009923D1F060910601961788F720910701D4
:1042900085E0289F90011124929FA001939F500DCB
:1042A000112470E0CA010E9400316038710540F4A9
:1042B0006115710519F406C065E070E0862F089558
:1042C0008FE7089581E0089580913F0280FF08C044
:1042D0006091030170E0759567957595679521C0AC
:1042E00081FF06C06091030170E07595679519C064
:1042F00082FF04C06091030170E010C090913D0204
:10430000992399F0609102019617A0F7809103011B
:10431000899FC001112470E00E940031603871054E
:1043200040F46115710519F406C061E070E0862F54
:1043300008958FE7089581E00895803F21F40E9459
:104340001B21819504C0813F29F40E941B21809389
:1043500043020895823F21F40E941B21819504C0ED
:10436000833F29F40E941B21809342020895893FD4
:1043700019F40E94642105C08A3F31F40E9464212F
:1043800081958093440208958B3F21F40E9464211B
:10439000819504C08C3F29F40E94642180934502DA
:1043A0000895843F21F480914102816017C0853FC8
:1043B00021F480914102826011C0863F21F48091F6
:1043C000410284600BC0873F21F4809141028860E4
:1043D00005C0883F31F480914102806180934102A1
:1043E00008958D3F21F480913F0281600BC08E3F84
:1043F00021F480913F02826005C08F3F29F48091B3
:104400003F02846080933F020895803F39F4809199
:10441000430287FF6AC01092430267C0813F29F4BC
:10442000809143021816BCF360C090914202823F13
:1044300029F497FF5AC01092420257C0833F19F4E3
:104440001916CCF352C090914402893F31F41916E9
:104450000CF04BC01092440248C08A3F19F497FFF9
:1044600044C0F8CF8B3F39F48091450287FF3DC0AF
:10447000109245023AC08C3F29F4809145021816EB
:10448000BCF333C0843F21F4809141028E7F17C07A
:10449000853F21F4809141028D7F11C0863F21F438
:1044A000809141028B7F0BC0873F21F480914102B4
:1044B000877F05C0883F31F4809141028F7E8093D1
:1044C000410213C08D3F21F480913F028E7F0BC0CB
:1044D0008E3F21F480913F028D7F05C08F3F29F4EC
:1044E00080913F028B7F80933F0280914202811135
:1044F00006C080914302811102C010923E02809159
:104500004402811106C080914502811102C01092BF
:104510003D0208958091370283FF7EC080E09AE0DB
:104520000E944E0A809141021F928F938BEF99E077
:104530009F938F930E94E70A89EF99E00E944E0AA9
:1045400080914202282F082E000C330B3F938F934B
:1045500086EF99E09F938F930E94E70A84EF99E09A
:104560000E944E0A80914302282F082E000C330B24
:104570003F938F9381EF99E09F938F930E94E70A77
:104580008FEE99E00E944E0A80914402282F082E57
:10459000000C330B3F938F938CEE99E09F938F9396
:1045A0000E94E70A8AEE99E00E944E0A8091450235
:1045B000282F082E000C330B3F938F9387EE99E042
:1045C0009F938F930E94E70A84EE99E00E944E0A1F
:1045D00080913E021F928F9381EE99E09F938F937B
:1045E0000E94E70A8FED99E00E944E0A80913F02F7
:1045F0001F928F938CED99E09F938F930E94E70A0F
:1046000089ED99E00E944E0A8DB79EB74C960FB681
:10461000F8949EBF0FBE8DBF0E949B202091420246
:10462000211104C020914302222321F090933C02E7
:1046300080933B0220914402211104C02091450245
:10464000222321F090933A028093390280E492E091
:104650000C944013EF92FF920F931F93CF93DF932D
:1046600000D000D000D0CDB7DEB786E0E0E4F2E0C5
:10467000DE01119601900D928A95E1F7E0904202D9
:10468000F0904302009144021091450210924202C0
:10469000109243021092440210924502E11003C0AE
:1046A000FF2009F45DC080913B0290913C020E9482
:1046B000B320AC0190913E02992339F0209108017A
:1046C00030E02417350758F04BC0209109018AE0EB
:1046D000289F900111242417350718F041C09F3FEF
:1046E00019F09F5F90933E02EE2061F00E941B2123
:1046F0001E1414F09FEF01C091E0989F902D11249B
:1047000090934202FF2061F00E941B211F1414F0BD
:104710009FEF01C091E0989F902D11249093430248
:10472000309142023323E1F0209143022223C1F071
:1047300045EB3403C0011124992319F090934202F0
:1047400003C081E08093420235EB2303C0011124B2
:10475000992319F09093430203C081E080934302B0
:10476000011103C0112309F45DC0809139029091B9
:104770003A020E94B320AC0190913D02992339F096
:104780002091040130E02417350758F04BC02091E8
:1047900005018AE0289F900111242417350718F09D
:1047A00041C09F3F19F09F5F90933D02002361F04D
:1047B0000E946421101614F09FEF01C091E0989FB1
:1047C000902D112490934402112361F00E946421E2
:1047D000111614F09FEF01C091E0989F902D1124C5
:1047E00090934502309144023323E1F02091450239
:1047F0002223C1F045EB3403C0011124992319F0A1
:104800009093440203C081E08093440235EB23037C
:10481000C0011124992319F09093450203C081E04F
:10482000809345028091420281110BC08091430226
:10483000811107C080914402811103C0809145021B
:1048400081110E948A22EB82FC820D831E8386E006
:10485000FE013196A0E4B2E001900D928A95E1F755
:1048600026960FB6F894DEBF0FBECDBFDF91CF9175
:104870001F910F91FF90EF900895E0E4F2E086E041
:10488000DF011D928A95E9F710923E0210923D02D7
:1048900010923F02089583E29CE00E944E0A1F920C
:1048A00081E08F931F9285E08F9385ED9BE09F932E
:1048B0008F930E94E70A0F900F900F900F900F9028
:1048C0000F9008958330E9F128F4813061F082304F
:1048D00009F10895853009F462C008F449C08630B2
:1048E00009F474C0089580910901262F30E0280F43
:1048F000311D2F3F310524F4680F6093090103C077
:104900008FEF80930901809109011F928F938EE0B0
:104910009BE072C080910801262F30E0280F311DE6
:104920002F3F310524F4680F6093080103C08FEF17
:1049300080930801809108011F928F938CEF9AE079
:104940005BC080910701262F30E0280F311D2F3FDB
:10495000310524F4680F6093070103C08FEF809343
:104960000701809107011F928F9389EE9AE044C05E
:1049700080910601262F30E0280F311D2F3F310591
:1049800024F4680F6093060103C08FEF8093060143
:10499000809106011F928F9384ED9AE02DC0809143
:1049A0000301262F30E0280F311D2F3F310524F45D
:1049B000680F6093030103C08FEF80930301809120
:1049C00003011F928F938BEB9AE016C08091020136
:1049D000262F30E0280F311D2F3F310524F4680FBA
:1049E0006093020103C08FEF809302018091020166
:1049F0001F928F9380EA9AE09F938F930E94E70A19
:104A00000F900F900F900F900895833081F128F44C
:104A1000813059F08230D1F00895853009F449C0D1
:104A2000B8F1863009F456C00895809109016817DD
:104A300020F4861B8093090102C010920901809125
:104A400009011F928F9381E99AE054C08091080177
:104A5000681720F4861B8093080102C01092080199
:104A6000809108011F928F938FE79AE043C0809155
:104A70000701681720F4861B8093070102C010927B
:104A80000701809107011F928F938CE69AE032C054
:104A900080910601681720F4861B8093060102C0EE
:104AA00010920601809106011F928F9387E59AE08C
:104AB00021C080910301681720F4861B80930301B5
:104AC00002C010920301809103011F928F938EE325
:104AD0009AE010C080910201681720F4861B809331
:104AE000020102C010920201809102011F928F9375
:104AF00083E29AE09F938F930E94E70A0F900F90B2
:104B00000F900F900895CF93C82F1F928F9388E234
:104B10009DE09F938F930E94E70A81E090E0A0E0E0
:104B2000B0E0BC01CD0104C0660F771F881F991F3C
:104B3000CA95D2F70E94691C0F900F900F900F90AA
:104B4000CF910C947018CF93DF938B3109F4EAC1A5
:104B500008F08BC18B3009F4AEC108F065C1863016
:104B600009F4ACC120F4853009F4BAC15DC28730C4
:104B700009F4BDC1883009F057C28FE392E10E9469
:104B80004E0A80E991E10E944E0A0E942C1F1F925A
:104B90008F938DE891E19F938F930E94E70A8BE8B2
:104BA00091E10E944E0A0E94281FC82F88E791E1D8
:104BB0000E944E0A1F92CF9383E791E19F938F93B8
:104BC0000E94E70A81E791E10E944E0A87E691E19F
:104BD0000E944E0A8C2F81701F928F9384E691E180
:104BE0009F938F930E94E70A82E691E10E944E0A0A
:104BF00088E591E10E944E0AC1FB882780F91F9247
:104C00008F9385E591E19F938F930E94E70A83E557
:104C100091E10E944E0A87E491E10E944E0AC2FB94
:104C2000882780F91F928F9384E491E19F938F935B
:104C30000E94E70A82E491E10E944E0A89E391E131
:104C40000E944E0AC3FBCC27C0F91F92CF9386E384
:104C500091E19F938F930E94E70A84E391E10E9480
:104C60004E0A0E94301FEC0180E291E10E944E0A40
:104C7000DF93CF938BE191E19F938F930E94E70A9B
:104C800089E191E10E944E0A80E091E10E944E0A82
:104C90008C2F81701F928F938DEF90E19F938F9354
:104CA0000E94E70A8DB79EB780960FB6F8949EBF14
:104CB0000FBE8DBF8BEF90E10E944E0A84EE90E113
:104CC0000E944E0AC1FB882780F91F928F9381EEC4
:104CD00090E19F938F930E94E70A8FED90E10E94ED
:104CE0004E0A8DEC90E10E944E0A8D2F81701F922A
:104CF0008F938AEC90E19F938F930E94E70A88EC50
:104D000090E10E944E0A86EB90E10E944E0AD695F1
:104D1000D1701F92DF9383EB90E19F938F930E945A
:104D2000E70A81EB90E10E944E0A8FE990E10E9430
:104D30004E0AC2FB882780F91F928F938CE990E17D
:104D40009F938F930E94E70A8AE990E10E944E0A9E
:104D500088E890E10E944E0AC3FB882780F91F92E1
:104D60008F9385E890E19F938F930E94E70A83E8F1
:104D700090E10E944E0A89E790E10E944E0AC4FB2E
:104D8000882780F91F928F9386E790E19F938F93F6
:104D90000E94E70A84E790E10E944E0A82E690E1D1
:104DA0000E944E0AC5FB882780F91F928F938FE5DA
:104DB00090E19F938F930E94E70A8DE590E10E9416
:104DC0004E0A81E490E10E944E0AC6FB882780F9D2
:104DD0001F928F938EE390E19F938F930E94E70A37
:104DE0008DB79EB780960FB6F8949EBF0FBE8DBF4D
:104DF0008CE390E10E944E0A84E390E10E944E0A07
:104E0000C7FBCC27C0F91F92CF9381E390E19F931A
:104E10008F930E94E70A8FE290E10E944E0A0F9062
:104E20000F900F900F9045C0803109F4A5C020F479
:104E30008E3009F48BC0F8C0863109F4B8C08931CE
:104E400009F0F2C086E59EE00E944E0A8FE19EE0E6
:104E50000E944E0A87EF9DE00E944E0A81EC9DE081
:104E60000E944E0A86E99DE084C08A32E1F060F437
:104E7000873209F4D5C028F48E3108F4D5C08D519D
:104E8000D0C0893269F1D0C0833448F48A3308F045
:104E9000C5C0853309F4C4C0883369F0C5C0833404
:104EA00009F4BEC0C1C08EE292E10E944E0A0E9487
:104EB000BD1FC1E0BEC08CE89EE05BC080913702A0
:104EC000817F8E7F8093370285E69EE00E944E0AA6
:104ED0008AE292E10E944E0A81E080934702E9CF84
:104EE0008EE092E10E944E0A0E94CE0BE2CF8091AA
:104EF0003702C82FC095C170C0FB80F9809337027C
:104F0000CC2329F082E092E10E944E0A92C085EF04
:104F100091E10E944E0A80913702897F877F8093BA
:104F20003702C7CF9091370291FBCC27C0F981E0BF
:104F3000C827892FC0FB81F980933702CC2319F051
:104F400088EE91E129C08AED91E113C0909137027A
:104F500092FBCC27C0F981E0C827892FC0FB82F9DA
:104F600080933702CC2319F08BEC91E115C08BEBC9
:104F700091E10E944E0A9DCF9091370293FBCC277E
:104F8000C0F981E0C827892FC0FB83F980933702DD
:104F9000CC2351F08FEA91E10E944E0A80913702B2
:104FA00081608093370245C082EA91E1E2CF88E8D0
:104FB0009DE00E944E0A0E94EB121F928F938EE694
:104FC0009DE09F938F930E94E70A809114011F92A6
:104FD0008F9387E59DE09F938F930E94E70A8091CE
:104FE00054021F928F9384E49DE09F938F930E94BD
:104FF000E70A0E94A7209F938F937F936F938DE280
:105000009DE09F938F930E94E70A8DB79EB74296CB
:105010000FB6F8949EBF0FBE8DBF4BCF895301C012
:1050200080E00E94832545CF80EA91E10E944E0AEC
:10503000C0E08C2FDF91CF91089580E008950C940B
:105040001D288E518A3030F4E82FF0E0E757FE4FEC
:105050008081089580E00895CF93C82F8091470202
:10506000813059F020F0823009F445C039C10E94E6
:105070003F1E823209F036C104C00E943F1E8232B8
:1050800061F48C2F0E941F28811104C08C2F0E9474
:10509000A3252FC081E090E02CC08C2F0E941D28FA
:1050A000811126C0C431E1F070F4CB3081F0C03101
:1050B000D1F40E944B2480E29DE00E944E0A82E0DF
:1050C0008093470215C0C93259F0C83361F485E6B0
:1050D0009EE00E944E0A84E29DE00E944E0A08C0B3
:1050E0001092470201C18EE19DE00E944E0AFCC071
:1050F00081E08170FBC0C43228F5CE3108F0C1C018
:10510000CB30A1F1D0F4C73009F0D0C08EE180934C
:10511000090182E3809308018AE08093070184E11A
:105120008093060188E08093030188E28093020166
:1051300084EC9BE00E944E0ABCC0C33149F1C431EB
:10514000C1F0B4C0CB3409F4A6C028F4C93289F048
:10515000C83361F0ABC0C13509F49BC0C23509F456
:1051600096C0CE3409F0A2C06AE09BC00E944B24D6
:10517000A0C080914602882319F01092460299C07F
:1051800081ED9BE00E944E0A81E080934702AEC011
:105190008BEA9BE00E944E0A89E99BE00E944E0A3E
:1051A000809109011F928F9386E99BE09F938F93D3
:1051B0000E94E70A84E99BE00E944E0A82E89BE095
:1051C0000E944E0A809108011F928F938FE79BE007
:1051D0009F938F930E94E70A8DE79BE00E944E0AFF
:1051E0008EE69BE00E944E0A809107011F928F93EA
:1051F0008BE69BE09F938F930E94E70A89E69BE0F2
:105200000E944E0A88E59BE00E944E0A80910601AA
:105210001F928F9385E59BE09F938F930E94E70AEF
:1052200083E59BE00E944E0A8EE39BE00E944E0ABB
:10523000809103011F928F938BE39BE09F938F9349
:105240000E94E70A89E39BE00E944E0A82E29BE00B
:105250000E944E0A809102011F928F938FE19BE082
:105260009F938F930E94E70A8DE19BE00E944E0A74
:105270008DB79EB748960FB6F8949EBF0FBE8DBFF0
:1052800018C08C2F0E9421288093460212C061E032
:1052900003C061E006C06AE0809146020E94622479
:1052A00008C0809146020E94052503C082EC9BE065
:1052B00013C080914602882369F01F928F938CEB74
:1052C0009BE09F938F930E94E70A0F900F900F909F
:1052D0000F9004C089EB9BE00E944E0A81E006C05B
:1052E0001092470280E002C080E003CFCF91089582
:1052F0008091530208959FB7F89410924A029FBF7D
:1053000090917802943009F057C09091E9009F7015
:105310003091EC00232F217030FD20E8922B23E008
:105320002093E9002091EB0020FF43C02091EE0084
:1053300027FF3FC020914802222321F02091E8005E
:1053400025FF37C01092480226E03091E80035FD75
:1053500015C030917802343061F53091EB0035FDA5
:1053600028C0215021F481E08093480222C0EFE957
:10537000FFE03197F1F700C00000E7CF8093F10024
:105380008091E80085FD0AC08091E80080FFFCCF95
:105390008091E8008E778093E80006C08FB7F8947C
:1053A00021E020934A028FBF9F709093E90080E034
:1053B00008959F709093E9008FEF0895CF93DF9346
:1053C00000D01F92CDB7DEB790917802943019F5D6
:1053D00089837B836A8382E08093E9008FEF9091D9
:1053E000E800815095FD06C095ED9A95F1F7000013
:1053F0008111F5CF8091E80085FF0DC040E050E0BD
:1054000063E070E0CE0101960E94572C8091E80085
:105410008E778093E8000F900F900F90DF91CF91DF
:105420000895BC0184E00C94DE29BC0183E00C9457
:10543000DE2922E02093E9002FEF3091E80021508F
:1054400035FD06C035ED3A95F1F700002111F5CF95
:105450002091E80025FF0BC040E050E066E070E0DE
:105460000E94572C8091E8008E778093E800089581
:10547000CF93DF9321E02093E9002FEF3091E800F4
:10548000215035FD06C035ED3A95F1F700002111A8
:10549000F5CF2091E80025FF14C0EC0140E050E07A
:1054A00068E070E00E94572C8091E8008E7780932E
:1054B000E80088E0FE01ABE4B2E001900D928A952D
:1054C000E1F7DF91CF9108958FE692E10E944E0AB5
:1054D00080917702811109C00E94E82D0E94452E1B
:1054E0008091E20084608093E20008958BE692E16F
:1054F0000E944E0A10927702089587E692E10C947A
:105500004E0A83E692E10C944E0A8FE592E10E94E6
:105510004E0A0C946120209149022F5F822F62E392
:105520000E94F430992319F02093490208951092B3
:10553000490280914A02882371F180917802843077
:1055400041F58091E9008F702091EC00922F9170CD
:1055500020FD90E8892B93E09093E9009091EB0077
:1055600090FF14C09091EE0097FF10C09091E8005A
:1055700095FF03C01092F100F9CF9091E80090FFE1
:1055800005C09091E8009E779093E8008F7080931B
:10559000E90010924A02089542E061EC81E00E9425
:1055A000612D42E261EC82E00E94612D42E261ECF9
:1055B00083E00C94612D80917A02833009F460C0FD
:1055C00030F4813071F0823009F499C008958A3046
:1055D00009F485C08B3009F46BC0893009F0A7C08D
:1055E00020C080917902813A09F0A1C08091E80041
:1055F000877F8093E80080917D0290917E02892BC5
:1056000021F468E08BE492E003C060E080E090E089
:1056100070E00E94A22C8091E8008B778093E800D4
:10562000089580917902813209F081C080917D02D4
:1056300090917E02029708F07AC08091E800877FFF
:105640008093E8008091E80082FD05C08091780297
:105650008111F8CF6CC02091F3008091F20090E0AE
:10566000922B029729F48091F1008B7F813021F4F5
:105670008091F100809353028091E8008B7753C0B2
:1056800080917902813A09F052C080917D02909117
:105690007E02892B09F04BC08091E800877F8093C0
:1056A000E8008091E80080FFFCCF8091140136C0B3
:1056B000809179028132D9F580917D0290917E02AC
:1056C000892BA9F58091E800877F8093E8000E94EC
:1056D000962D80917B02809314010C947018809118
:1056E0007902813221F58091E800877F8093E8007C
:1056F0000E94962D80917C0280935402089580919F
:105700007902813AA1F48091E800877F8093E800D4
:105710008091E80080FFFCCF809154028093F100DB
:105720008091E8008E778093E8000C94962D089580
:1057300084B7877F84BF0FB6F894A89580916000E6
:10574000886180936000109260000FBE90E080E856
:105750000FB6F89480936100909361000FBE0E9491
:105760008A130E94E82D0E94452E8091E2008460F9
:105770008093E2008BE799E20E94F31E78940E94E6
:10578000D9300E9494138AE091E00E94E6128EE4E0
:1057900092E10E944E0A80917802853089F48AE471
:1057A00092E10E944E0A0E942F2080917602882367
:1057B00091F30E941620882371F30E94412CEBCFB5
:1057C0000E94C413E8CF0C94E52B292F33272330F4
:1057D0003105C9F060F42130310581F02230310506
:1057E00009F047C08BE590E021EA32E146C0213262
:1057F000310511F12232310561F13BC082E190E0C7
:105800002CEF32E13AC099278130910561F040F0E8
:105810008230910559F0039761F5E3E7F2E108C0A2
:10582000EDE9F2E105C0EDE8F2E102C0E9E7F2E1FD
:10583000849190E09F0121C063307105D0F4660F20
:10584000771FFB01E456FE4F2081318189E090E013
:1058500014C06330710568F4FB01EE0FFF1FEA56B8
:10586000FE4F20813181FB01ED56FE4F808190E09B
:1058700004C080E090E020E030E0FA013183208332
:10588000089580E189BD82E189BD09B400FEFDCFA4
:105890008091D8008F7D8093D8008091E000826055
:1058A0008093E0008091E00081FDFCCF0895CF92CD
:1058B000DF92EF92FF920F931F93CF93DF93EC0150
:1058C0008B017A010E94B52D811133C0E114F104DE
:1058D00039F0F70180819181081B190BC80FD91F7E
:1058E000C12CD12C0115110519F18091E80085FD1D
:1058F00016C08091E8008E778093E800E114F104EF
:1059000049F0F70180819181C80ED91ED182C082F1
:1059100085E00FC00E94B52D882321F30AC089912C
:105920008093F10001501109FFEFCF1ADF0ADACF9F
:1059300080E0DF91CF911F910F91FF90EF90DF906A
:10594000CF90089520917F0230918002261737076B
:1059500048F06115710539F42091E8002E77209305
:10596000E80001C0B901FC0120E06115710579F181
:10597000809178028823F1F18530F1F18091E8007F
:1059800083FD3CC08091E80082FD2EC08091E8003C
:1059900080FFEBCF2091F3008091F20090E0922BFA
:1059A0006115710551F08830910538F421912093EB
:1059B000F100615071090196F3CF21E0089709F0D9
:1059C00020E08091E8008E778093E800CECF21110F
:1059D000CFCF0AC080917802882361F0853061F0D2
:1059E0008091E80083FD0AC08091E80082FFF2CF39
:1059F00080E0089582E0089583E0089581E00895AD
:105A000020917F02309180022617370748F06115F8
:105A1000710539F42091E8002E772093E80001C049
:105A2000B901FC0120E06115710591F180917802C6
:105A3000882309F440C0853009F43FC08091E80014
:105A400083FD3DC08091E80082FD2FC08091E80079
:105A500080FFE9CF2091F3008091F20090E0922B3B
:105A60006115710559F08830910540F42491209317
:105A7000F1003196615071090196F2CF21E008974B
:105A800009F020E08091E8008E778093E800CBCF8A
:105A90002111CCCF0AC080917802882361F0853033
:105AA00061F08091E80083FD0AC08091E80082FFE8
:105AB000F2CF80E0089582E0089583E0089581E0C8
:105AC0000895982F973068F59093E900981739F06A
:105AD0007091EC002091ED005091F00003C0242F54
