:100000000C9427020C94392F0C945F020C945F021D
:100010000C945F020C945F020C945F020C945F02DC
:100020000C945F020C945F020C94092A0C94C5296D
:100030000C94062B0C945F020C945F020C945F02EC
:100040000C945F020C945F020C945F020C945F02AC
:100050000C945F020C94E22A0C945F020C945F02F1
:100060000C945F020C945F020C945F020C945F028C
:100070000C945F020C945F020C945F020C945F027C
:100080000C945F020C945F020C945F020C945F026C
:100090000C945F020C945F020C945F020C945F025C
:1000A0000C945F020C945F020C945F022B0014000E
:1000B0001A00080015001700E000040016000700F1
:1000C00009000A00E1001D001B00060019000500E0
:1000D0000000E3000000E100E00000002A0013003F
:1000E00012000C0018001C00340033000F000E003A
:1000F0000D000B00280038003700360010001100FA
:10010000000001510000E1002C00000029001E0247
:100110001F0220022102220200000000000026022D
:10012000270235020000000000002F003000000010
:10013000000000000000E1000000000031002E007F
:100140002D00250224022302350000004F0052003A
:100150005100500012500000000000002D002E0041
:100160000000010000000000000000003A00000054
:10017000000000000000000000000000000000007F
:10018000000000000000000000000000000000006F
:100190000000000000000000000000002A00000035
:1001A000610060005F000000000000005E005D0074
:1001B0005C000000280063005B005A00590000004A
:1001C00000001050000062002C000000000101013E
:1001D0000101010101010202020202020202020304
:1001E00003030303030303040404040404040505D4
:1001F0000505050606060606070707070708080897
:1002000008090909090A0A0A0B0B0B0C0C0C0D0D45
:100210000D0E0E0E0F0F0F101011111112121313DD
:100220001414151516161717181819191A1A1B1B56
:100230001C1D1D1E1E1F20202122222324242526B2
:1002400026272829292A2B2C2D2D2E2F30313232EA
:10025000333435363738393A3B3C3D3E3F404142F6
:10026000434445464748494A4C4D4E4F50515354DC
:10027000555658595A5B5D5E5F6162646566686990
:100280006B6C6D6F7072737577787A7B7D7E808210
:10029000838587888A8C8E8F91939596989A9C9E59
:1002A000A0A2A3A5A7A9ABADAFB1B3B5B7BABCBE69
:1002B000C0C2C4C6C9CBCDCFD1D4D6D8DBDDDFE236
:1002C000E4E7E9EBEEF0F3F5F8FAFDFF05010902CA
:1002D000A10185020901A1000509190129081500DC
:1002E0002501950875018102050109300931158143
:1002F000257F95027508810609381581257F9501AE
:1003000075088106050C0A38021581257F9501754F
:10031000088106C0C005010980A101850319012AD1
:10032000B700150126B700950175108100C0050CB6
:100330000901A101850419012AA002150126A002C4
:10034000950175108100C005010906A1018506050A
:100350000719E029E71500250195087501810205B7
:1003600007190029EF1500250195F0750181020597
:1003700008190129059505750191029501750391EB
:1003800001C005010906A101050719E029E71500CB
:100390002501950875018102950175088101050700
:1003A000190029FF150026FF009506750881000534
:1003B00008190129059505750191029501750391AB
:1003C00001C009023B00020100A0FA09040000017B
:1003D00003010100092111010001224000070581EC
:1003E00003080001090401000103000000092111B4
:1003F00001000122B600070582032000011201005E
:100400000200000008F8A8281801000102000112EB
:1004100003540042004B0020004D0069006E00694B
:100420000000002403420061007300740061007248
:1004300000640020004B006500790062006F0061DD
:10044000007200640073000000040309040011241A
:100450001FBECFEFDAE0DEBFCDBF04B603FE18C08B
:1004600080911A0590911B05A0911C05B0911D0566
:100470008730904BA740B04B59F410921A05109258
:100480001B0510921C0510921D05E0E0F8E309958C
:1004900025E0A8E3B2E001C01D92AA31B207E1F75E
:1004A00012E0A0E0B1E0E8E4F4E602C005900D92AD
:1004B000A833B107D9F70E942D2B0C94E1310C948D
:1004C000000090911405937061F081110BC094604D
:1004D00090931405109241018091130581608093DF
:1004E000130508958B3210F0986AF2CF880F880FA9
:1004F000982BEECFFC01AC014C5F5F4F8FEF91E387
:100500002191822728E030E087FF09C0880F8927E2
:1005100021503109C9F7E417F50791F70895880FBD
:10052000F7CF90911405937071F080931505609347
:100530001605433308F042E34093170580911305F5
:100540008160809313050895E8EDF0E080818E7F4F
:1005500080831092E2001092DA001092E100A0EE87
:10056000B0E08C9181608C9380818F77808319BCFF
:10057000A7EDB0E08C918E7F8C9380818F7E8083FD
:100580001092B40408952091E4003091E50095E6BE
:10059000A9012091EC00822F817020FF06C080917C
:1005A000E80080FF06C080E008952091E80022FD69
:1005B0001AC08091D904882389F0853089F0809110
:1005C000EB0085FD0FC02091E4003091E50042175B
:1005D0005307F9F29150E1F684E0089582E008951E
:1005E00083E0089581E00895EF92FF920F931F93A7
:1005F000CF937C018B010E94C302C82F811117C0C9
:100600008091E80085FD0BC08091E8008E77809393
:10061000E8000E94C302882399F3C82F08C0F7019D
:1006200081917F018093F1000150110949F78C2FCE
:10063000CF911F910F91FF90EF9008958091DB046F
:1006400087FF13C08091E80082FF06C08091E80018
:100650008B778093E80004C08091D9048111F2CF98
:1006600008958091D9048823D9F38091E80080FF10
:10067000F8CF8091E8008E77ECCF982F9093E90027
:10068000242F762F50E0891731F07091EC002091E3
:10069000ED005091F00021FD07C09F5F973071F78A
:1006A0008093E90081E008953091EB003E7F309324
:1006B000EB003091ED003D7F3093ED003091EB0089
:1006C00031603093EB007093EC002093ED00509379
:1006D000F0002091EE0027FDE0CF80E00895B0E02B
:1006E000A0E0E5E7F3E00C945F30C8EDD0E088814E
:1006F0008F7E8883E7EDF0E080818160808384E0F5
:1007000082BF81E08093B40488818E7F888302EE6B
:1007100010E0F80110821092DA0081EEC82ED12C80
:10072000F601108288818F7788838881806888832A
:1007300088818F7D888319BC1092D9041092DA04C5
:100740001092D8041092D70490EEE92EF12CF70104
:1007500080818B7F808388818160888342E060E034
:1007600080E00E943D03F60180818E7F8083F80146
:10077000808181608083808188608083F7018081AF
:100780008E7F8083888180618883CDB7DEB7E8E083
:100790000C947B30FC018091E1049091E204861777
:1007A0009707A0F06115710529F49091E8009E77F4
:1007B0009093E80090E06115710551F4911108C023
:1007C0008091E80082FF34C080E00895BC01F2CF40
:1007D0008091D9048823C1F18530C1F18091E8006E
:1007E00083FD30C08091E80082FDEACF8091E8006F
:1007F00080FFE1CF8091F3002091F200382F611546
:10080000710519F02830310558F091E02830310594
:1008100009F090E02091E8002E772093E800CBCFFC
:1008200081918093F100615071092F5F3F4FE7CFB5
:100830008091D904882341F0853041F08091E8000F
:1008400083FFBECF81E0089582E0089583E008959C
:1008500008958091B60408959C014FB7F894809153
:10086000AB049091AC04A091AD04B091AE044FBF25
:10087000821B930B08952FB7F8946091AB0470918D
:10088000AC048091AD049091AE042FBF08952FB7B2
:10089000F8948091AB049091AC04A091AD04B09118
:1008A000AE042FBF08952091A8043091A904281701
:1008B000390771F09093A9048093A804E091A604ED
:1008C000F091A704309721F00084F185E02D09957F
:1008D00008952091A4043091A5042817390771F0D8
:1008E0009093A5048093A404E091A604F091A7043A
:1008F000309721F00680F781E02D09950895FA01DF
:10090000811101C0FB0109950895E4E1F5E024811E
:1009100030E1231B08F420E02483809113058160DB
:10092000809313050895E4E1F5E0248130E1230F7D
:1009300008F42FEF248380911305816080931305C1
:100940000895E4E1F5E0438120E1421B08F440E032
:100950008181628190E00E9491020895E4E1F5E0D6
:10096000438120E1420F08F44FEF8181628190E0E2
:100970000E9491020895E4E1F5E0628120E1621BAA
:1009800008F460E08181438190E00E949102089523
:10099000E4E1F5E0628120E1620F08F46FEF81810C
:1009A000438190E00E9491020895E4E1F5E08181A5
:1009B000438162818850990B0E9491020895E4E17D
:1009C000F5E0818190E04381628108960E94910266
:1009D00008958091140586958695815009F48AE2E0
:1009E0000E946102089580911405869586958F5F17
:1009F0008B3208F081E00E946102089580933C01EF
:100A000080911405837080933B010E94860E83E0E1
:100A1000809341010895EF92FF920F939701201B5D
:100A200031092F3F310519F010F02FEF30E02095FC
:100A3000382F320F08F43FEF832F0F91FF90EF9084
:100A40000895EF92FF920F939701201B31092F3FDA
:100A5000310519F010F02FEF30E0322F3095482F8C
:100A6000430F08F44FEF842F620F0F91FF90EF9028
:100A70000895EF92FF920F93972F093438F4B7013E
:100A8000601B71096F3F710519F010F06FEF70E096
:100A9000485F5F4F4131510540F0A901485F5F4F0A
:100AA0004131510510F06FEF70E06095482F460F0F
:100AB00008F44FEF842F37FF02C02D5F3F4F35956D
:100AC00027953595279560911505620F792F0F9120
:100AD000FF90EF900895EF92FF920F931F930E0DEA
:100AE0001F2D111DF90137FF03C0F195E195F109A3
:100AF00024E0EE0FFF1F2A95E1F7EF3FF10519F013
:100B000014F0EFEFF0E09A0157FF03C03195219503
:100B1000310994E0220F331F9A95E1F72E173F0712
:100B20000CF4F901E00FF11FEF3FF10519F010F09F
:100B3000EFEFF0E0E095282F3E2F230F08F42FEF82
:100B4000822F1F910F91FF90EF900895EF92FF92E7
:100B50000F93970195E0099F200D311D11242F3F20
:100B6000310519F010F02FEF30E02095382F320FBB
:100B700008F43FEF832F0F91FF90EF90089522E844
:100B8000241B08F420E0620F08954095282F429F0F
:100B9000412D1124842F0895E42FF0E0EE0FFF1F64
:100BA000E654FE4F9081921B97FD9195292F38E1D5
:100BB000239F212D1124620F08950F931F9310E09E
:100BC000F801EE0FFF1FE654FE4F9081905797FDFE
:100BD0009195000F111FF801E657FE4F01A9005231
:100BE000110B2003F001219FF00D112408E310E008
:100BF000091B110997FD139540039001419F300D8A
:100C00001124E20FF31F9F01220F331F2E0F3F1FEE
:100C100037FF02C021583F4F220F232F221F330BD3
:100C2000620F1F910F9108950F931F93522F10E0A1
:100C3000F801EE0FFF1FE657FE4FA1A9A052BB0B14
:100C40009D015203F001539FF00D1124000F111F5D
:100C5000D801A654BE4F0C910057110B40039001D0
:100C6000419F300D11242E0F3F1F37FF02C0215C22
:100C70003F4F96E0359527959A95E1F7620F1F91C2
:100C80000F9108950F931F93522F10E0F801EE0F6C
:100C9000FF1FE657FE4FA1A9A052BB0B9D015203B7
:100CA000F001539FF00D1124000F111FD801A6541D
:100CB000BE4F0C910057110B40039001419F300D26
:100CC00011242E0F3F1F37FF02C021583F4F220F24
:100CD000232F221F330B620F1F910F910895EF9264
:100CE0000F93972F23E0029FB0011124759567950C
:100CF0006E0D792F0F91EF900895322F50E0FA0189
:100D0000EE0FFF1FE657FE4F91A9905297FD919568
:100D1000440F551FFA01E654FE4F2081231B330B6D
:100D2000290F311D97FD3A95620F0895E42FF0E0E9
:100D3000EE0FFF1FE657FE4F61A9621B0895E42FD7
:100D4000F0E0EE0FFF1FE654FE4F6081621B089536
:100D5000622F0895E42FF0E0EE0FFF1FE654FE4FE0
:100D6000408134EE439F412D1124E82FF0E050E004
:100D7000445E5F4FDA01A21BB1099D01B7FF03C0BA
:100D800031952195310993E0220F331F9A95E1F7B0
:100D9000AF01421B530B9A0157FD20E0582F259FAE
:100DA000212D1124822F0895E42FF0E0EE0FFF1F74
:100DB000E654FE4F408134EE439F412D1124E72F2E
:100DC000F0E050E0445E5F4FDA01A21BB1099D01E3
:100DD000B7FF03C031952195310993E0220F331FEE
:100DE0009A95E1F7AF01421B530B9A0157FD20E0A2
:100DF000279F212D1124722F08950E94190F089505
:100E0000FF920F931F93CF93DF93182F062FF42E8B
:100E1000D0E0C0E02F2D402F612FCE010E94FD06B3
:100E20002196CA32D105B1F7CDB7DEB7E5E00C9413
:100E30007E30FC019B01009729F480E077FF2BC0F6
:100E400080E80895AC0197FF04C044275527481B4C
:100E5000590BB901640F751F37FD10C0241B350BEA
:100E6000C901A5E0880F991FAA95E1F70E94A0305B
:100E700080E2861BF7FF0FC081950895CB0165E0E6
:100E8000880F991F6A95E1F7BA01621B730B0E94E4
:100E9000A03080E6EECF0895EF920F93CF93DF93CB
:100EA000D72FC82FC9010E19BA010E941907602F48
:100EB000681B7D2F8C2FDF91CF910F91EF900895BC
:100EC0000F93CF93DF93D72FC82FC901BA010E9488
:100ED0001907682F600F7D2F8C2FDF91CF910F9115
:100EE0000895EF920F931F93CF93DF93D62FC72FC1
:100EF000182FC9010E19010FBA010E941907081B0A
:100F0000202F219F212D1124822F6D2F7C2FDF91E7
:100F1000CF911F910F91EF900895EF920F931F9330
:100F2000CF93DF93D62F172FC82FC9010E19070FA4
:100F3000BA010E941907702F781B719F712D11241F
:100F40006D2F8C2FDF91CF911F910F91EF9008950E
:100F50000F931F93CF93DF93D62FC72F182FC9015D
:100F6000212F201B022FBA010E941907982F990FD9
:100F7000990F891B800F282F219F212D1124822F4B
:100F80006D2F7C2FDF91CF911F910F9108950F93BB
:100F90001F93CF93DF93D62F172FC82FC901272F69
:100FA000201B022FBA010E941907982F990F990F41
:100FB000782F791B700F719F712D11246D2F8C2F3D
:100FC000DF91CF911F910F910895E82F86FDE09555
:100FD0002E2F2F7086FD2F5FE695E695E695E6703D
:100FE000F0E0EE57FE4F9181929F902D212D11241C
:100FF00092959F702295207F922B2081920F87FDE2
:10100000919580E8890F08950F931F93CF93DF93F5
:101010008B01D82FC42F822F0E94E507EC2FF0E020
:10102000EE0FFF1FE654FE4F90819058890F87FD09
:101030008195880F682F2CE0629F612D1124600F2D
:10104000712F8D2FDF91CF911F910F9108954091B6
:10105000390150913A0125E038E0429FC001439F99
:10106000900D529F900D1124875E994C90933A01F8
:1010700080933901890F0895AC018230910508F4FD
:1010800008959FEF413E8EE1580740F49A0195E0A4
:10109000369527959A95E1F798E0920F61E0E62F53
:1010A000E90FFF27FF1F9F0135952795822F229F6C
:1010B000F001239FF00DF00D11244E175F0738F457
:1010C0009FEF920F961758F78FEF860F08952F3FD7
:1010D000E9F361E0620FF6CF0F93CF93DF93D72F41
:1010E000C82F47FD419588E390E0841B910947FD97
:1010F0009395889FB001899F700D700D1124229FD8
:10110000C001239F900D900D1124860F971F0E9400
:101110003C08982F990F890F682F600F7D2F8C2F17
:10112000DF91CF910F91089530E020E0869F212D2F
:10113000969F200D311D1124C90108952091180595
:1011400030E1230F08F42FEF60E1822F90E00E943E
:101150009408BC0188EB9BE00E948C3090E080E01A
:101160000895AF92BF92CF92DF92FF920F931F9399
:10117000CF93DF93362F472FE82FF0E0E453FE4F55
:1011800071110FC0E4918E2F2E2F6E2F722FDF91D1
:10119000CF911F910F91FF90DF90CF90BF90AF90B4
:1011A0000895C72FD0E02491F22E022F10E056E0D0
:1011B000659FC0011124EFEFF0E0BF010E948C3069
:1011C000832F90E0880F991F35E5369FD001379F18
:1011D000B00D11248A1B9B0B982F990F980F6F014C
:1011E000CC1ADD0AC09ED001C19EB00DD09EB00DBC
:1011F00011248B2F499FA0011124452F55276F01E2
:10120000C41AD50AC09EA001C19E500DD09E500D9B
:1012100011245F01A91AB108AC9E6001AD9ED00CEB
:10122000BC9ED00C1124CD2CDD24EC19FD09E09FCF
:10123000E001E19FD00DF09FD00D1124ED2F623021
:101240007105A1F050F46115710509F49ECF61306C
:10125000710581F0EB2F852F98CF6430710569F00F
:1012600080F06630710509F490CFF4CFE22F2B2F78
:101270008D2F8BCFE22F252F88CFEB2F822F2D2F75
:1012800084CF2B2F8F2DE52F80CF0E9447049C0108
:1012900090913A0380913B03982B21F030933703D0
:1012A0002093360390913C0380913D03982B21F0CD
:1012B0003093350320933403E091A604F091A70402
:1012C000309749F082E0809338030480F581E02D67
:1012D00088E393E00995089540913A038D3E59F4CF
:1012E00080913B0387FF0DC010923B0341110BC05F
:1012F0001092320308C08E3E81F480913B03181691
:101300009CF3442381F080913C0390913D03892B11
:1013100009F05AC01092310308958F3E49F447FFF7
:10132000F0CF10923A0380913B038111ECCFE0CFD4
:10133000803F19F41416ACF3E4CF90913C03893F3D
:1013400029F41916F4F610923C03DBCF8A3F19F406
:1013500097FFD7CFF8CF90913D038B3F29F497FFAC
:10136000D0CF10923D03CDCF8C3F19F41916CCF39A
:10137000C8CF9FE0980F983090F4815F990B21E0DF
:1013800030E0B90102C0660F771F8A95E2F7CB0102
:10139000809590913903892380933903B2CF8D3F93
:1013A00031F4809133038E7F80933303AACF8E3F35
:1013B00021F4809133038D7FF7CF8F3F09F0A1CFC8
:1013C000809133038B7FF0CF08958091330380FDAC
:1013D00016C081FD16C082FD16C08091310388239E
:1013E000A1F0883280F428E0829FC001112468E2D5
:1013F00070E00E94A030862F672B39F0089582E0BC
:10140000089584E0089588E0089581E0089580912A
:10141000330380FD14C081FD14C082FD16C080918D
:101420003203882381F08E3180F420E5829FC00151
:1014300011246EE170E00E94A030862F089584E1AF
:10144000089588E2089588E0089580E508958D3E26
:1014500031F40E94070A819580933B0308958E3EE4
:1014600019F40E94070AF8CF8F3E31F40E94070A50
:10147000819580933A030895803F19F40E94070AEA
:10148000F8CF893F29F40E94E50980933C03089531
:101490008A3F21F40E94E5098195F7CF8B3F31F413
:1014A0000E94E509819580933D0308958C3F19F4CE
:1014B0000E94E509F8CF9FE0980F983070F4815FA3
:1014C000990B21E030E001C0220F8A95EAF7809164
:1014D0003903822B8093390308958D3F31F4809135
:1014E000330381608093330308958E3F21F480910C
:1014F00033038260F7CF8F3FB9F780913303846065
:10150000F1CF80E00895F894E82FE295EF70F0E0D5
:1015100031A1282F2F7081E090E001C0880F2A951B
:10152000EAF7982F9095932391A392A1892B82A3F8
:10153000789408959091AF0492FF06C0282F2871E7
:101540002830F9F4877F846093FF06C0282F287124
:101550002831F1F4877E84612091B00420FF06C019
:10156000382F38713830D9F4877F816021FF06C069
:10157000282F28712831D1F4877E816194FD877EE0
:101580000895282F24712430F9F68B7F8860DCCFF2
:10159000282F2471243101F78B7E8861DDCF382F0D
:1015A0003171313019F78E7F8860E0CF282F21719B
:1015B000213121F78E7E8861E1CF972F7830A8F412
:1015C000663098F470E026E0929F600D711D112442
:1015D000FB0190E3899FE00DF11D1124EE0FFF1F29
:1015E000E455FF4F85919491089580E090E008952F
:1015F000CF93DF93EC0182389105A9F1D8F58133BF
:10160000910509F496C048F58932910509F48AC01C
:101610008A9709F495C0C11521E5D20708F0BCC02E
:10162000C11530E5D30708F014C1C83ED10508F054
:101630009CC0C03ED10560F5C83AD10508F087C00E
:10164000C53AD10508F0FDC0C130D10509F1209798
:10165000F9F0C430D105E0F440C08533910509F4B8
:101660005AC0C997C1F68091AF04837089F0C0EE6B
:10167000D0E00EC0833E910599F170F4803E910553
:1016800001F1823E910539F68091AF0482FD21C0BF
:10169000CE01DF91CF910895863E910561F1873E9D
:1016A000910571F1843E910509F0B5CF8091B004A8
:1016B00081FFEECF8091AF04C7EED0E084FD0DC076
:1016C000E7CF8091AF0480FD12C19091B00490FFEC
:1016D000DFCFC3EED0E084FFDBCFD0E0C0E0D8CFD7
:1016E0008091AF0482FD06C19091B00490FDBFCF00
:1016F00084FFCECFF2CF8091AF0483FDDDCFC8CF82
:101700008091AF0483FDF9C09091B00491FFF0CFB8
:10171000C4EED0E0BDCF8091AF0485FFB9CFC9E260
:10172000D0E0B6CF8091AF0485FFB2CFC5E3D0E063
:10173000AFCF8091AF0486FFABCFCAE2D0E0A8CF95
:101740008091AF0486FFA4CFC1E3D0E0A1CFCF3B0F
:10175000D10518F6C85AD0E0CC0FDD1FC85BDE4FAC
:101760000990D881C02DD46493CFC11540E2D4072D
:1017700058F4C11581E0D80708F08ACFCD3ED105D5
:1017800008F4ABCFD06584CFC11590E4D90708F435
:10179000A4CFDF70D06A7CCFC11525E5D20700F554
:1017A000C11534E5D30708F08AC0C11543E5D40755
:1017B00008F071C0C11582E5D80708F467C0CE01F2
:1017C0008370992721E030E002C0220F331F8A95F1
:1017D000E2F7C695C69580E2C89FE001112452C089
:1017E000C11599E5D907A8F4C11528E5D20708F075
:1017F0006BC0C11536E5D30708F06FCF8C2F0E9460
:101800009A0AC82FD0E0DC2FCC27CC27DF71D0621A
:101810003FCFC1154AE5D40708F45BC0CE0190560E
:101820008115904208F059CF8D2F8F710E949A0A2E
:1018300090E0982F882788279F719C012C2BE90125
:10184000E6CFC55AD0E0CB5BDE4FC881D0E0D06494
:101850001FCFCE01E4E096958795EA95E1F7837076
:101860002C2F26952695237040E2249F9001112469
:10187000382B8C2F8370C1E0D0E002C0CC0FDD1F6D
:101880008A95E2F7C22BD32BDC6802CFDC2FCC2762
:10189000C16FD06AFDCECE018370992721E030E080
:1018A00002C0220F331F8A95E2F7C695C69590E2D3
:1018B000C99FE0011124C22BD32BDA68E9CEDC2FBB
:1018C000CC27C46FD06AE4CEDC2FCC27C06FD06A9F
:1018D000DFCE8C2F8F700E949A0A34E0D695C79580
:1018E0003A95E1F7CF709C2FEC01D069D1CEC9E3D6
:1018F000D0E0CECEC2EED0E0CBCEC6EED0E0C8CEA9
:101900008091D40281111092D40208958095909113
:10191000D30298239093D302089590913D01992387
:10192000D1F09091AF0497FF16C0E82FE695E695A9
:10193000E695EE31E0F4F0E0E65CFD4F282F2770ED
:1019400081E090E001C0880F2A95EAF780959281A6
:10195000892382830895ECE3F2E09191891303C017
:10196000DF0111971C9292E0E234F907B1F7089574
:1019700090913D019923C1F09091AF0497FF14C05D
:10198000E82FE695E695E695EE31F8F4F0E0E65CB2
:10199000FD4F877021E030E001C0220F8A95EAF701
:1019A0008281822B82830895ACE3B2E0EFEF90E076
:1019B0002D91821751F0EF3F19F4211101C0E92F49
:1019C0009F5F9630A9F7EF3F09F408950E2E000CA3
:1019D000FF0BE65CFD4FE6CF8091B00290917F0255
:1019E000981301C008958F5F8770FACFB0E0A0E030
:1019F000ECEFFCE00C945E308C01C0901B03D090A7
:101A00001C03E0901D03F0901E038091D50290917D
:101A1000D602A091D702B091D802C82AD92AEA2AC0
:101A2000FB2ACFE1D0E0BC2ED701C6010C2E04C0AA
:101A3000B695A795979587950A94D2F780FD09C02A
:101A4000219788F7B12C8B2DCDB7DEB7E9E00C9448
:101A50007A30B8018C2F0E94DD0A0E94F80A0197A3
:101A600079F3F1CFCF93DF93EC010E94F60CBE0126
:101A70000E94DD0A0E94F80ADF91CF910895292F74
:101A8000983080F5863070F590E036E0239F800D29
:101A9000911D1124682F677023E0969587952A95EC
:101AA000E1F725E0289FF001299FF00D1124E55A68
:101AB000FD4F50E040E080E0219130E0062E02C072
:101AC000369527950A94E2F721703327042E01C03A
:101AD000220F0A94EAF7822B4F5F5F4F4530510582
:101AE00059F7089580E00895292F9830A0F58630A1
:101AF00090F590E036E0239F800D911D1124282F52
:101B0000277041E001C0440F2A95EAF723E096953B
:101B100087952A95E1F725E0289FF001299FF00D90
:101B20001124E55AFD4F30E020E070E05191DF01D3
:101B30001197CB01022E02C0969587950A94E2F781
:101B4000817081958527842385278C932F5F3F4F54
:101B50002530310559F70895FC01808191810E945B
:101B6000320D92959F70963091F058F4925F9F706D
:101B7000923058F4803F19F030F4883E30F481E020
:101B800008959A5FF4CF843FD1F380E00895883EB2
:101B9000B0F3813FD1F7F3CF8093B1047093B304D6
:101BA0006093B2048091D904843001F582E080937F
:101BB000E9008FEF9091E800815095FD06C095ED0A
:101BC0009A95F1F700008111F5CF8091E80085FF2B
:101BD0000DC050E040E063E070E081EB94E00E94D3
:101BE000F4028091E8008E778093E8000895BC01AC
:101BF00084E00E94CC0D0895BC0183E00E94CC0DCE
:101C000008959C0182E08093E9009FEF8091E800B5
:101C1000915085FD06C085ED8A95F1F70000911180
:101C2000F5CF8091E80085FF0CC050E040E066E011
:101C300070E0C9010E94F4028091E8008E778093E1
:101C4000E8000895CF93DF93EC0180913D01882354
:101C5000B1F18091AF0487FF32C060E282E08093EF
:101C6000E9008FEF9091E800815095FD06C095ED59
:101C70009A95F1F700008111F5CF8091E80085FF7A
:101C80001BC080913D0170E050E040E0811104C034
:101C900050E040E068E070E0CE010E94F4028091E4
:101CA000E8008E778093E80080E2FE01A7EBB4E0C5
:101CB00001900D928A95E1F7DF91CF91089568E048
:101CC00081E0CDCF81E08093E00080E28093D80076
:101CD0001092C9008FE19EE40197F1F700C0000067
:101CE00087E090EBDC0180931A0590931B05A0938D
:101CF0001C05B0931D0588E19CE00FB6F894A895EB
:101D0000809360000FBE90936000FFCF529A3BB16A
:101D10003B7F2BB124604FB7F89486E294E0FC013E
:101D20005191CF0168E02BB9000000C057FF3BB9CB
:101D3000550F000000C000C000C03BB900C06A954C
:101D400091F7F4E0843A9F0751F74FBF8FE594E095
:101D50000197F1F700C000000895B0E0A0E0E3EBC8
:101D6000FEE00C945D307C015B016A0180910C0304
:101D700001E010E08A3010F40AE010E0C1E0D0E0A9
:101D8000B501C701F6010995811104C021960C1710
:101D90001D072CF4CDB7DEB7EAE00C947930CC9F68
:101DA0009001CD9F300D300D112490E080E045E38F
:101DB0004A95F1F70000019682179307C1F7E0CF2B
:101DC0008091E302811110C08091D80080618093DE
:101DD000D8008AE18A95F1F700C08091D90080FF90
:101DE0000AC081E08093E30281E09091E3029130A8
:101DF00009F080E0089582E08093E3020E94A4024B
:101E00001092D904F1CF0E94E00E882359F0E0919E
:101E1000A604F091A704309729F00190F081E02DFD
:101E20000995089580E008950E94E00E91E08927C9
:101E30000895FF920F931F93CF93DF93EC01F62E3B
:101E4000042F122F0E94140F81110FC0C531D1052C
:101E50007CF06597FE01EE0FFF1FEC0FFD1FEA5DA2
:101E6000FB4FF1820083128303C0C531D10594F387
:101E7000CDB7DEB7E5E00C947E30CF93C82F0E943B
:101E8000140F882329F081E0C53128F080E003C0D9
:101E900081E0CA32D8F7CF910895A8E0B0E0E3E539
:101EA000FFE00C945530282E7C836B8320913E01FB
:101EB00089E0289F802D11248D83875F89838B3251
:101EC00010F03AE239830E94140F882329F08981A7
:101ED000863110F095E199830E94140F811105C09D
:101EE000ED81E53110F4F5E1FD832091E7042A83CB
:101EF0009D81892F90E098878F83880F991FFC011F
:101F0000E657FE4F6F01822D90E09C012F5F3F4FFF
:101F10003E832D8389819F81981730F00E943D0F69
:101F20002896E2E10C947130EF81F885E25FFD4F75
:101F3000808190913F018923F9F030901505409000
:101F400016058D819E8189519B4F3C01522C10E0DA
:101F5000FA815F16D8F020911705129F112D1124D8
:101F6000632D742D812F0E94B108462F282F672FD3
:101F70008F8198850E94FD062F8138852F5F3F4F06
:101F800038872F8332E0C30ED11CC4CFF301819177
:101F90003F01F601A0A8A81ABB0881A8F301878118
:101FA000881A9908AA9C9001AB9C300D300D112421
:101FB000889CC001899C900D900D1124820F931F65
:101FC0000E943C08082F6091180521E0620F08F478
:101FD0006FEFF301EE0FFF1FE75EF44085899689EE
:101FE0000E9494087C019401A501632D742D812F1A
:101FF000EB81FC810995362E472E5394182FA8CFDC
:10200000B0E0A0E0E6E0F0E10C945F307C01C0912C
:102010003E0189E0C89FC02D112419E01C0F1B321E
:1020200008F01AE20E94140F882319F0163108F004
:1020300015E10E94140F811103C0C53108F4C5E1F8
:102040002091180531E0230F08F42FEF30E050E025
:1020500040E06FEF7FEF80E090E00E947E31690109
:10206000D0E001E02C2FC11740F0812F0E943D0FDE
:10207000CDB7DEB7E8E00C947B30FE01E25FFD4FA8
:10208000808190913F01892309F14091E7044150FB
:10209000042E000C550B47FF1BC0C60160911805AC
:1020A000600F08F46FEF0E949408AC016091150571
:1020B0007091160580911705F70109950E94B108E6
:1020C000462F282F672FCE010E94FD062196CACFEA
:1020D000FA01E951FB4F818982130AC0FA01EE0F20
:1020E000FF1FE951FB4F818D928D8C159D05B0F23C
:1020F00041505109D0CFEF92FF920F931F93CF938E
:10210000DF937C01C0913E0189E0C89FC02D11245E
:1021100019E01C0F1B3208F01AE20E94140F8823EA
:1021200019F0163108F015E10E94140F811103C057
:10213000C53108F4C5E1609118056695669521E002
:10214000620F08F46FEF8091E3049091E4040E9421
:102150009408082FD0E0C11740F0812F0E943D0F56
:10216000CDB7DEB7E6E00C947D30FE01E25FFD4FB7
:10217000808190913F01892391F0609115057091C4
:10218000160580911705202F4C2FF70109950E9405
:10219000B108462F282F672FCE010E94FD062196F9
:1021A000DACFB0E0A0E0E7EDF0E10C945D306C0137
:1021B000C0913E0189E0C89FC02D112419E01C0F79
:1021C0001B3208F01AE20E94140F882319F016310E
:1021D00008F015E10E94140F811103C0C53108F405
:1021E000C5E160911805669566958091E30490912C
:1021F000E4040E949408F82E80E48F0D0E94E50705
:1022000090E8B92EB80E8F2D0E94E50720E8A22E87
:10221000A80ED0E0C11740F0812F0E943D0FCDB72E
:10222000DEB7EAE00C947930FE01E25FFD4F808179
:1022300090913F018923A1F06091150570911605D9
:1022400080911705EF2C0C2F2A2D4B2DF6010995A7
:102250000E94B108462F282F672FCE010E94FD064D
:102260002196D8CFB0E0A0E0E8E3F1E10C9459303A
:102270005C01C0913E0189E0C89FC02D112419E086
:102280001C0F1B3208F01AE20E94140F882319F069
:10229000163108F015E10E94140F811103C0C531F9
:1022A00008F4C5E16091180566958091E30490916A
:1022B000E4040E949408F82ED0E0CE01880F991F04
:1022C0009C0126573E4F6901C11740F0812F0E94A3
:1022D0003D0FCDB7DEB7EEE00C947530FE01E25F46
:1022E000FD4F808190913F01892379F1F60180A90A
:1022F000282F2057330B490181A9E82FE052FF0B0B
:102300003F01889C9001899C300D300D1124EE9F77
:10231000C001EF9F900D900D1124820F931F0E941A
:102320003C08082F609115057091160580911705DE
:10233000EF2C9301A401F50109950E94B108462FE5
:10234000282F672FCE010E94FD06F2E0CF0ED11C90
:102350002196BACFB0E0A0E0E0EBF1E10C945E3062
:102360006C01C0913E0189E0C89FC02D112419E085
:102370001C0F1B3208F01AE20E94140F882319F078
:10238000163108F015E10E94140F811103C0C53108
:1023900008F4C5E16091180566958091E304909179
:1023A000E4040E949408B82ED0E0CE01880F991F53
:1023B0009C0126573E4F7901C11740F0812F0E94A2
:1023C0003D0FCDB7DEB7E9E00C947A30FE01E25F55
:1023D000FD4F808190913F018923C1F0F70121A930
:1023E0002052330B40A94057550B60911505709151
:1023F0001605809117050B2DF60109950E94B1086D
:10240000462F282F672FCE010E94FD06F2E0EF0E27
:10241000F11C2196D1CF0F931F930E94E00E8823C9
:1024200029F00E943B041F910F9108950E943B04E4
:1024300000910D0310910E0320910F0330911003B2
:10244000600F711F821F931FEECFCF92DF92EF922A
:10245000FF926B017C010E94E00E8823A1F02FB750
:10246000F8946091AB047091AC048091AD049091AC
:10247000AE042FBF6C197D098E099F09FF90EF9064
:10248000DF90CF9008950E940B12F4CF1F93CF934B
:10249000DF93EC01FC01E25FFD4F80816823B1F026
:1024A0000E940631182F0E9406318F77782F20E87E
:1024B000720F08F47FEF612F809117050E94B10819
:1024C000462F282F672FCE010E94FD06DF91CF9166
:1024D0001F910895B0E0A0E0E0E7F2E10C946030D5
:1024E0008C01FC01E25FFD4F8081682349F1D090AF
:1024F0001605D0911705C0911505EC2EF12C0E9400
:102500000631282FC7018C549F4F68E671E00E9466
:10251000A0308E199F0997FD0396959587959595FF
:10252000879523706C2F289F600D11247D2D8D2F92
:102530000E94B108462F282F672FC8010E94FD0670
:10254000CDB7DEB7E7E00C947C30B0E0A0E0EBEA7A
:10255000F2E10C945D30182F80913C01811323C06F
:1025600090911405937020913B0130E081E0921727
:10257000130609F480E08170809340018091190571
:1025800090913F01981739F080933F0140E060E05F
:1025900080E00E9400071B3260F4E12FF0E0ED5173
:1025A000FE4C0C94B43081E0E6CF80914001811163
:1025B00019C0C0E080913E018F5F80933E01C11140
:1025C0000CC082E08093410180914001811105C0DF
:1025D000111103C083E080934101CDB7DEB7EAE07B
:1025E0000C94793040E060E080E00E940007E1CF89
:1025F000C0913E0189E0C89FC02D112409E00C0F55
:102600000B3208F00AE20E94140F882319F00631F9
:1026100008F005E10E94140F811103C0C53108F4D0
:10262000C5E16091150570911605809117050E940E
:10263000B108F62EE72ED82ED0E0C01720F0802F5C
:102640000E943D0F51C1FE01E25FFD4F80819091DC
:102650003F01892331F02D2D4F2D6E2DCE010E948B
:10266000FD062196EACFC0913E0189E0C89FC02DAA
:10267000112409E00C0F0B3208F00AE20E94140F3B
:10268000882319F0063108F005E10E94140F81112A
:1026900003C0C53108F4C5E1E0901605F0901705B8
:1026A000D09115056D2F7E2D8F2D0E94B108D62E4D
:1026B000C72EB82E609118056D0F7E2D8F2D0E94AC
:1026C000B108F62EE72EA82ED0E0C01708F0B7CF3D
:1026D000FE01E25FFD4F908180913F01892359F017
:1026E0002A2D4F2D6E2D90FD03C02B2D4D2D6C2DC1
:1026F000CE010E94FD062196E8CFC0913E0189E0FF
:10270000C89FC02D112409E00C0F0B3208F00AE21B
:102710000E94140F882319F0063108F005E10E9489
:10272000140F811103C0C53108F4C5E1E09016050E
:10273000D09017052091180590E4F92E3F2D329F77
:10274000312D1124F32ED0E0C01708F078CFFE0110
:10275000E25FFD4F808190913F018923B9F0FE0136
:10276000EE0FFF1FE657FE4F81A982958F70609193
:1027700015058F9D600D11247E2D8D2D0E94B108B1
:10278000462F282F672FCE010E94FD062196DCCF11
:10279000C0913E0189E0C89FC02D112409E00C0FB3
:1027A0000B3208F00AE20E94140F882319F0063158
:1027B00008F005E10E94140F811103C0C53108F42F
:1027C000C5E1E0901605D090170520911805D0E4DA
:1027D000FD2E3F2D329F312D1124F32ED0E0C01756
:1027E00008F02DCFFE01E25FFD4F808190913F0107
:1027F0008923D9F0FE01EE0FFF1FE657FE4F60A9B7
:10280000F69EB0011124B5E075956795BA95E1F78C
:1028100080911505680F7E2D8D2D0E94B108462FE1
:10282000282F672FCE010E94FD062196D8CFC09198
:102830003E0189E0C89FC02D112409E00C0F0B3226
:1028400008F00AE20E94140F882319F0063108F0FC
:1028500005E10E94140F811103C0C53108F4C5E1E0
:10286000F0901505D0911605E090170560911805B8
:102870006695669566958091E3049091E4040E94C4
:1028800094080E94E507805887FD8195880F282FBE
:102890003E2D239F212D1124822F6F2D7D2F0E94ED
:1028A000B108F62EE72ED82ED0E0C01708F0C7CE1C
:1028B000FE01E25FFD4F808190913F01892331F05D
:1028C0002D2D4F2D6E2DCE010E94FD062196EDCFB0
:1028D00084ED96E00E947B1007C08AEA96E0FACF6A
:1028E00087EC97E00E94AA11C82F64CE88EA97E08F
:1028F000F9CF8DE897E00E943211F6CF81E797E09B
:10290000FACF88EA96E0E6CF8FE996E0E3CF86E952
:1029100096E0E0CF8DE796E0DDCF8FE696E0EBCF57
:102920008CE698E0DFCF80E697E0DCCF8CE497E0A0
:10293000E2CF82E496E00E94D110D6CF84E196E007
:10294000FACF8DED95E0F7CFC0914001C1111EC0C7
:102950006091180520E1620F08F46FEF8091E304A5
:102960009091E4040E9494086AE070E00E948C3028
:10297000892B09F01ECE0E9406316AE270E00E94A7
:10298000A03060913F010E946A1214CEC0913E01B6
:1029900089E0C89FC02D112409E00C0F0B3208F00C
:1029A0000AE20E94140F882319F0063108F005E1AD
:1029B0000E94140F811103C0C53108F4C5E1D0E0B5
:1029C000E02EF12CCE15DF050CF039CE60913F01E1
:1029D000CE010E946A122196F5CFC0914001C1112B
:1029E0001EC06091180520E1620F08F46FEF80911E
:1029F000E3049091E4040E94940865E070E00E9472
:102A00008C30892B09F0D5CD0E9406316AE270E046
:102A10000E94A03060913F010E944612CBCDC09130
:102A20003E0189E0C89FC02D112409E00C0F0B3234
:102A300008F00AE20E94140F882319F0063108F00A
:102A400005E10E94140F811103C0C53108F4C5E1EE
:102A5000D0E0E02EF12CCE15DF050CF0F0CD60912A
:102A60003F01CE010E9446122196F5CFC0913E0152
:102A700089E0C89FC02D112409E00C0F0B3208F02B
:102A80000AE20E94140F882319F0063108F005E1CC
:102A90000E94140F811103C0C53108F4C5E1E09014
:102AA0001605F0901705D0911505609118056695EB
:102AB000669566958091E3049091E4040E949408E1
:102AC0000E94E507805887FD8195880F682F2CE0CC
:102AD000629F612D11246D0F7E2D8F2D0E94B108F4
:102AE000F62EE72ED82ED0E0C01708F0A8CDFE01B4
:102AF000E25FFD4F808190913F01892331F02D2DC0
:102B00004F2D6E2DCE010E94FD062196EDCF84E063
:102B100098E0E0CE8CEC95E0DDCE40913E03509104
:102B20003F0360914003709141038091E3049091D1
:102B3000E404A091E504B091E60484179507A60784
:102B4000B70708F436CD0E942708082F0E942708EF
:102B50009AE2891BF0F7890FC82FD0E0FE01E25FEF
:102B6000FD4F80913F019081892309F43BC220E011
:102B700040E060E001FD13C00E942708082F0E947A
:102B800027088695782F2FE7720F08F47FEF602FC4
:102B9000809117050E94B108462F282F672FCE017C
:102BA0000E94FD062091180530E1230F08F42FEF55
:102BB00060E1822F90E00E949408BC0184EF91E0D4
:102BC0000E948C308091E3049091E404A091E5048C
:102BD000B091E604860F971FA11DB11D80933E039F
:102BE00090933F03A0934003B0934103E2CC409104
:102BF000C0035091C1036091C2037091C3038091DF
:102C0000E3049091E404A091E504B091E6048417F4
:102C10009507A607B70708F4CCCC80914001811135
:102C20001FC0C0913E0189E0C89FC02D112409E05A
:102C30000C0F0B3208F00AE20E94140F811149C0F8
:102C40000E94140F811103C0C53108F4C5E1EC2EB8
:102C5000F12C33E0C39FE0011124CE5BDC4F50C068
:102C600040E060E080E00E940007F2E4EF2EF3E035
:102C7000FF2ED0E0C0E00FE70E94270881FF0CC0C4
:102C8000F7011082118212822196F3E0EF0EF11CFF
:102C9000CA32D10589F7C5CF0E942708B82E0E94F5
:102CA00027088695782F700F08F47FEFCE01880FE4
:102CB000991F8C0F9D1F9C012E5B3C4F69016B2D52
:102CC000809117050E94B108F601608371838283A9
:102CD000DBCF063108F4B4CF05E1B2CFF701E25FF4
:102CE000FD4F808190913F01892331F02A814881F5
:102CF0006981C7010E94FD0623962FEFE21AF20AAE
:102D0000E01660F3802F0E943D0F811198CC20E0E7
:102D1000802F8150990B7C01822F90E08E159F05AA
:102D20003CF10E942708E701CC0FDD1F81FF38C06E
:102D3000CE0DDF1DCE5BDC4F188219821A820E94F5
:102D40009E08C090E304D090E404E090E504F09085
:102D5000E604DC01CB018C0D9D1DAE1DBF1D8093D3
:102D6000C0039093C103A093C203B093C30367CC85
:102D7000AC01440F551F480F591F4E5B5C4F019625
:102D8000FC01EE0FFF1FE80FF91FEE5BFC4F808187
:102D90009181A281FA0180839183A2832F5FBCCFAE
:102DA0000E942708D82E0E9427088695782F2FE7A3
:102DB000720F08F47FEFCE0DDF1DCE5BDC4F6D2D63
:102DC000809117050E94B108688379838A83B7CF01
:102DD0004091F4035091F5036091F6037091F7036D
:102DE0008091E3049091E404A091E504B091E6049D
:102DF00084179507A607B70708F4DBCB809140013D
:102E0000882329F040E060E080E00E9400076091A4
:102E1000150570911605809117050E94B108062FBF
:102E2000D72EC82EC4ECD3E08AE8E82E81E0F82E35
:102E300094EFA92E93E0B92EF701808190E02881CC
:102E400040E060E0222319F02C2D402F6D2D0E94D0
:102E5000FD0629812883F701818190E0211104C0BA
:102E600020E040E060E003C02C2D402F6D2D0E943B
:102E7000FD068A818983F701858190E02D8140E0FC
:102E800060E0222319F02C2D402F6D2D0E94FD06AD
:102E90002C812D83F701848190E0222309F445C021
:102EA0002C2D402F6D2D0E94FD062B812C83F701C8
:102EB000838190E02223E9F12C2D402F6D2D0E947B
:102EC000FD06F701828190E02A812223B1F12C2DA9
:102ED000402F6D2D0E94FD060E942708837091E00F
:102EE00009F090E09A839B832696F6E0EF0EF11CA2
:102EF000AC16BD0609F0A0CF0E949E08C090E30466
:102F0000D090E404E090E504F090E604DC01CB010D
:102F10008C0D9D1DAE1DBF1D8093F4039093F50392
:102F2000A093F603B093F70344CB20E040E060E0C9
:102F3000BACF20E040E060E0C2CF20E040E060E0B7
:102F4000C9CF85EC95E00E940010CECC8FEB95E0C8
:102F5000FACF8091E70421E0382F321B08F430E0EB
:102F6000832F66EA75E00E944D0FBECC66EA75E0DD
:102F700080E0F9CF8091E70421E0382F321B08F47C
:102F800030E0832F6BE675E0EECF6BE675E0F0CFB7
:102F90008091E70421E0382F321B08F430E0832FC2
:102FA00069E375E0E0CF69E375E0E2CF8091E70483
:102FB00021E0382F321B08F430E0832F61E275E006
:102FC000D2CF61E275E0D4CF8091E70421E0382FC1
:102FD000321B08F430E0832F6BE075E0C4CF6BE068
:102FE00075E0C6CFC1E0E6CA4F925F926F927F92C2
:102FF0008F929F92AF92BF92CF92DF92EF92FF9209
:103000006091210470912204809123049091240402
:103010000E9425126B017C010E940B124B015C0186
:103020008092210490922204A0922304B09224045E
:10303000A091F803E8EFF3E08A2F90E04FEF5FEF05
:1030400060E070E04C195D096E097F09A91328C082
:103050008093F80380912504811135C09091140567
:10306000892F837019F0892F86958695909141015B
:10307000913009F441C0992341F1923009F43FC0E5
:10308000933009F43FC0FF90EF90DF90CF90BF9056
:10309000AF909F908F907F906F905F904F9008952A
:1030A000218D328D2901712C612C44155505660541
:1030B000770520F481509F5F3296C8CF2C0D3D1DBF
:1030C000328F218FF8CF80E0D1CF10923E018092D5
:1030D000E3049092E404A092E504B092E60489E24D
:1030E000E8EFF3E0A7EEB4E001900D928A95E1F7E6
:1030F00081E080934101C7CF0E94A512C4CF0E94F6
:10310000FE04C1CF80911305882351F046E050E0C2
:103110006CE170E084E195E00E944A311092130561
:103120006091E3047091E4048091E5049091E604D9
:103130000E942512603171058105910508F4A3CF25
:1031400010924101A0CFE4E1F5E085E38083809116
:10315000420190914301A091440181839283A38312
:103160008FE784838FEF858346E050E06CE170E069
:10317000CF010E944A311092130508958091D30225
:103180009091D202892B80933A029091D402992394
:10319000A1F0892B80933A0280913D018823E1F1CF
:1031A0008091AF0487FF38C08EE1ECE3F2E090E05D
:1031B0008150A0F591110E94800C40E250E062EB3A
:1031C00072E08AE392E00E941631892B21F180E2BD
:1031D000EAE3F2E0A2EBB2E001900D928A95E1F70A
:1031E000E091A604F091A7043097A9F080913D01E9
:1031F000882359F08091AF0487FF07C080913A027D
:1032000080933B0286E080933A020280F381E02DB6
:103210008AE392E00995089586E0C7CF21912223A1
:1032200039F29F5FC5CF90E080E00E94690490E092
:1032300080E00E9453041092D2020E94BE1886E0E1
:10324000E8E3F3E0DF011D928A95E9F7109232037B
:1032500010923103109233030E9445090895609340
:103260001B0370931C0380931D0390931E030E9405
:10327000131908950F931F9341E050E060E070E050
:1032800004C0440F551F661F771F8A95D2F7CB01E4
:10329000BA01609570958095909500911B031091EF
:1032A0001C0320911D0330911E0360237123822390
:1032B00093230E942F191F910F9108959091B102AD
:1032C000809589238093B102282F277091F4282FAD
:1032D000082E000C330B9217130659F09091B0048E
:1032E00092FF07C08595859585950E943A191092A1
:1032F000B10208950F931F9341E050E060E070E049
:1033000004C0440F551F661F771F8A95D2F780911E
:103310001B0390911C03A0911D03B0911E038A0111
:103320009B01082B192B2A2B3B2BC901B8010E94AA
:103330002F191F910F9108956093D5027093D602B3
:103340008093D7029093D8020E941319089588237E
:1033500021F00E94860C0E94BE180895882339F03F
:103360009091D302982B9093D3020E94BE18089597
:10337000882309F455C0823879F40E94030F81FF35
:103380004FC089E30E94B80C0E94BE1889E30E94D6
:103390008D0C0E94BE180895833859F40E94030FC3
:1033A00080FF3EC083E50E94B80C0E94BE1883E5F2
:1033B000EECF843859F40E94030F82FF31C087E4B6
:1033C0000E94B80C0E94BE1887E4E1CF9CEF980FD2
:1033D000913AE8F290E2980F983050F4877091E0BB
:1033E00001C0990F8A95EAF7892F0E94860CD1CFE8
:1033F0009BE5980F933028F490E080E00E946904E8
:10340000089598E5980F973128F490E080E00E94A5
:10341000530408958D3E20F00E946C090E944509D6
:103420000895CF93C82F8823C9F08238C9F40E9429
:10343000030F81FD13C089E30E94B80C0E94BE18DF
:103440002FEF81EE94E0215080409040E1F700C0E2
:10345000000089E30E948D0C0E94BE18CF91089550
:103460008338A1F40E94030F80FDF8CF83E50E940A
:10347000B80C0E94BE182FEF81EE94E021508040DE
:103480009040E1F700C0000083E5E4CF8438A1F468
:103490000E94030F82FDE2CF87E40E94B80C0E94D5
:1034A000BE182FEF81EE94E0215080409040E1F76C
:1034B00000C0000087E4CECF8CEF8C0F813A90F5EE
:1034C00080913D01882301F18091AF0487FF1CC0EA
:1034D000EC2FE695E695E695F0E0E65CFD4F8281FF
:1034E00090E04C2F477021E030E002C0220F331FE4
:1034F0004A95E2F782239323892B81F08C2F0E9437
:103500008D0C0E94BE180AC0ECE3F2E082E492E067
:103510002191C21799F38E179F07D1F78C2F0E9424
:10352000B80C9ACF80E28C0F883068F4C77021E025
:1035300030E001C0220FCA95EAF78091D302822BB6
:103540008093D30289CFEBE5EC0FE33040F4F0E059
:10355000EB5BFE4F808190E00E9469047FCFE8E53D
:10356000EC0FE73150F4F0E0EE0FFF1FE85BFE4F89
:10357000808191810E94530471CFCD3E08F46ECFBB
:103580008C2F0E94270A0E94450968CF0F931F9332
:10359000CF93DF93C62FD42F022FFC018281882383
:1035A000A9F0609312050E9447049093110580933F
:1035B0001005C77081E001C0880FCA95EAF70E9424
:1035C000AE19DF91CF911F910F910895809112054F
:1035D000681335C080911005909111050E942C044C
:1035E000883C910560F510E21D0FCD17B9F080E21F
:1035F0008C0F883040F4C77081E001C0880FCA95F5
:10360000EAF70E94A719183048F481E09D2F9770BF
:1036100001C0880F9A95EAF70E94AE19802F0E9488
:10362000111A802F0E94B819183058F6D77081E00F
:1036300001C0880FDA95EAF70E94A719C2CFC770B8
:1036400081E001C0880FCA95EAF7F6CFCF9384E0F6
:1036500090E00E943C31C82F82E290E00E943C3111
:10366000982F8C2FCF9108954F925F927F928F92D7
:103670009F92AF92BF92CF92DF92EF92FF920F9301
:103680001F93CF93DF93CDB7DEB72C970FB6F89487
:10369000DEBF0FBECDBF8E010F5F1F4F88E0D80188
:1036A0001D928A95E9F798E7E92E91E0F92E2EE729
:1036B000C22E21E0D22E77247394AA24A394B12C95
:1036C00042E8842E41E0942EF70181917F018F3FE3
:1036D00009F447C0F894E82FE295EF70F0E021A1DB
:1036E0008F70A50102C0440F551F8A95E2F7CA01E9
:1036F000922F982B91A392A18095892382A37894ED
:1037000000C08EE7482E81E0582ED801672D6095C5
:10371000F20151912F014D919D01215031095F3FDF
:1037200009F479C0852F82958F7090E0FC0180A10B
:1037300090E05F7002C0959587955A95E2F780FDFD
:103740006AC04729F90140838414950409F7F701F9
:10375000319780818F3F11F00E94830AF0EAFA9539
:10376000F1F7770CCE14DF0409F0AECF48E050E05B
:10377000B80181E193E00E9416317C01892B41F070
:1037800088E0F801A1E1B3E001900D928A95E1F79C
:1037900010911A03E114F10409F43FC081E0809311
:1037A000DB020E9447049093DA028093D902809151
:1037B000D9029091DA020E942C04059790F0E12F33
:1037C000F0E0E15EFC4F8091110380838091120351
:1037D00081838091130382838091140383831092E9
:1037E000DB0281E090E0EF28E1F02C960FB6F89430
:1037F000DEBF0FBECDBFDF91CF911F910F91FF9024
:10380000EF90DF90CF90BF90AF909F908F907F9080
:103810005F904F900895462395CF8091DB028111F0
:10382000C6CF0E94E00EF82EE0911A03882309F417
:1038300083C019861A861B861C860E2F10E0015E37
:103840001C4F80910C038A3008F03FC044E350E2E3
:10385000BE01675F7F4FC8010E94AD0E882309F447
:1038600044C04AE651E2BE01675F7F4FC8010E9433
:10387000AD0E8823D1F14EED5FE1BE01675F7F4F52
:10388000C8010E94AD0E882381F14EE351E2BE01D2
:10389000675F7F4FC8010E94AD0E882331F11092FF
:1038A0000C038091190390E044E050E0BE01675F93
:1038B0007F4F815E9C4F0E94163121E02093E202EF
:1038C000892B61F5F12C8F2D90CF8091DC029091A6
:1038D000DD020E942C04843F914008F0B7CF809114
:1038E000E202811112C080E080CF80910C038F3FF3
:1038F00029F08F5F80930C038A3098F20E9447046E
:103900009093DD028093DC02EACFFE01399684E0D9
:10391000DF011D928A95E9F71092E202E091190306
:10392000F0E0E15EFC4F89859A85AB85BC8580839C
:103930009183A283B383C7CF0091190310E0015E86
:103940001C4FF0E0E15EFC4F84E0A1EFB2E001909B
:103950000D928A95E1F781EF92E00E947A028093BE
:10396000F00284E0E5EFF2E0D80101900D928A9533
:10397000E1F7C090F902D090FA02E090FB02F090DB
:10398000FC028091DE029091DF02A091E002B091F2
:10399000E102C816D906EA06FB06D1F0C092DE02A3
:1039A000D092DF02E092E002F092E1020E94E00E8B
:1039B00081110EC00E943B04C61AD70AE80AF90A10
:1039C000C0920D03D0920E03E0920F03F092100309
:1039D00086E0EDEFF2E0A4E1B5E001900D928A956A
:1039E000E1F710910303112349F08091250481111F
:1039F00005C00E94A51280E00E94FE0410932504D9
:103A000072CF1092D30280913D01ECE3F2E0882363
:103A100061F08091AF0487FF08C08EE1DF011D9245
:103A20008A95E9F70E941319089586E0F7CFAAE274
:103A3000B0E0EDE1FDE10C9464308BED94E0209179
:103A4000F100FC012193CF01F4E0833E9F07B9F719
:103A50008091DC04833009F470C0B8F4813009F43B
:103A600047C0823009F4B1C08091E80083FF7EC274
:103A70008091DB049091DC049A3008F077C2E92F42
:103A8000F0E0E25FFD4C0C94B4308A3009F48CC055
:103A90008B3009F46FC0893039F78091DB048132B3
:103AA00019F78091DF049091E0040297E8F6809185
:103AB000E800877F8093E8008091E80082FF38C0AB
:103AC0009091F3008091F200029731F48091F1001F
:103AD000813011F0863021F48091F1008093B6049A
:103AE0008091E8008B778093E8000E941E03BCCF92
:103AF0008091DB04813A09F0B7CF8091E800877F9D
:103B00008093E8008091DF049091E004892B61F4B8
:103B100060E287EB94E070E00E94CA038091E800C5
:103B20008B778093E800A0CF60E090E080E0F3CF57
:103B30008091D9048111C0CF97CF8091DB04813A65
:103B400009F092CF8091DF049091E004892B09F075
:103B50008BCF8091E800877F8093E8008091E80018
:103B600080FFFCCF80913D018093F1008091E800BF
:103B70008E77B9CF8091DB04813209F075CF8091C7
:103B8000DF049091E004892B09F06ECF8091E8006A
:103B9000877F8093E8000E941E038091DD0480935C
:103BA0003D010E94011D60CF8091DB04813209F04C
:103BB0005BCF8091E800877F8093E8000E941E031E
:103BC0008091DE048093B5044FCF8091DB04813A6D
:103BD00009F04ACF8091E800877F8093E8008091C8
:103BE000E80080FFFCCF8091B504BECF803899F00B
:103BF000823809F0BBC18091DF048F70873008F0F4
:103C0000B5C18093E9008091EB0085FB882780F99E
:103C10001092E90006C08091D7049091D8049111C8
:103C200082609091E800977F9093E8008093F10084
:103C30001092F1008091E8008E7794C1882309F4F6
:103C400082C1823009F092C18091DD04811185C169
:103C50008091DF048F702FEF280F263008F086C187
:103C60008093E9002091EB0020FF77C1933031F47D
:103C70008091EB0080628093EB006FC19091EB002C
:103C800090619093EB0021E030E001C0220F8A9513
:103C9000EAF72093EA001092EA008091EB00886036
:103CA000EACF811163C11091DD041F778091E30099
:103CB0008078812B8093E3008091E800877F809358
:103CC000E8000E941E038091E80080FFFCCF8091F5
:103CD000E30080688093E30082E0111183E0809329
:103CE000D90444C18058823008F040C18091DD047D
:103CF0009091DE048C3D23E09207A1F583E08A8356
:103D00008AE289834FB7F894DE01139620E03EE003
:103D100051E2E32FF0E050935700E49120FF03C0FD
:103D2000E295EF703F5FEF708E2F90E0EA30C0F0C9
:103D3000C7968D939D932F5F243159F74FBF809184
:103D4000E800877F8093E8006AE270E0CE01019688
:103D50000E94CA038091E8008B778093E80006C137
:103D6000C096E7CF4091DF045091E004292F33271C
:103D70002330310509F444C078F52130310509F4C8
:103D80006FC08BE390E0E2ECF3E02230310509F004
:103D9000EDC02091E800277F2093E8002091E10406
:103DA0003091E2048217930708F49C0140E021154A
:103DB000310509F064C0411162C08091E80082FDC4
:103DC000C9CF8091D904882329F2853019F28091D6
:103DD000E80083FFF2CFBECF21323105A9F12232B4
:103DE000310509F0C3C04115510509F443C0413004
:103DF000510509F0BBC086EB90E0ECECF2E0C9CFD6
:103E0000992781309105C1F0009759F0029709F088
:103E1000ADC0EFE0F4E0E4918E2F90E0EFE0F4E04D
:103E200007C0E9E4F4E0E4918E2F90E0E9E4F4E0E7
:103E3000009709F49BC0ADCFE3E2F4E0E4918E2F4C
:103E400090E0E3E2F4E0F4CF4115510571F0413028
:103E5000510509F08BC089E090E0EDEEF3E099CFD9
:103E600082E190E0EDEFF3E094CF89E090E0E4EDC3
:103E7000F3E08FCF80E490E0E2E8F3E08ACF809136
:103E8000D904882309F466CF853009F463CF809183
:103E9000E80083FD5FCF8091E80082FD8ECF8091A6
:103EA000E80080FF84CF9091F3008091F20021150B
:103EB000310519F08830910550F041E0089709F07C
:103EC00040E08091E8008E778093E80070CF4491C5
:103ED0004093F1003196215031090196E8CF8038A6
:103EE00009F044C08091E800877F8093E8008091CA
:103EF000DA048093F1009ECE811138C01091DD0468
:103F00001230A0F58091E800877F8093E80010933D
:103F1000DA040E941E03112311F084E005C0809191
:103F2000E30087FDFACF81E08093D90442E061ECA1
:103F300081E00E943D0342E261EC82E00E943D0389
:103F40008091D90413C08091DD04813079F481E03F
:103F5000933009F080E08093D8041092E9008091BA
:103F6000E800877F8093E8000E941E038091E800AC
:103F700083FF0AC08091E800877F8093E8008091EA
:103F8000EB0080628093EB00AA96E3E00C94803013
:103F90000E94011D2FEF84E39CE02150804090405F
:103FA000E1F700C0000088E19CE00FB6F894A89506
:103FB000809360000FBE90936000FFCFA4E0B0E05C
:103FC000E4EEFFE10C94643040910403509105034A
:103FD00060910603709107032FB7F8948091AB04AA
:103FE0009091AC04A091AD04B091AE042FBF841B9E
:103FF000950BA60BB70B11E084369105A105B10511
:1040000070F10E940B126E5F7F4F8F4F9F4F69833D
:104010007A838B839C8380911D0190911E01805136
:104020009D4F40911C0150E04530510510F044E097
:1040300050E0BE016F5F7F4F0E94233183E090E02C
:104040000E94DF2F182F882351F00E943B046093B9
:104050000403709305038093060390930703812F55
:104060002496E3E00C948030EF92FF921F93CF935D
:10407000DF9300D000D00F92CDB7DEB77B0190E088
:1040800080E00E94DF2F182F882309F46DC0409133
:10409000070150E04115510511F041E050E06091F9
:1040A00008017091090160517D4FCE0105960E9473
:1040B00023314091E8025091E9026091EA02709147
:1040C000EB022FB7F8948091AB049091AC04A091CF
:1040D000AD04B091AE042FBF841B950BA60BB70B9C
:1040E00084369105A105B10538F481EF92E00E9474
:1040F0007A029D818917C1F181E090E00E94DF2F53
:10410000882309F458C040910F0150E04530510513
:1041100010F044E050E06091100170911101605185
:104120007D4FCE0101960E94233181EF92E00E94E3
:104130007A029D8189133FC00E943B046093E8028C
:104140007093E9028093EA029093EB0289819A814D
:10415000AB81BC818093E4029093E502A093E602D8
:10416000B093E70211E00EC08091F1029091F2024B
:10417000A091F302B091F40289839A83AB83BC834C
:104180001111E4CF8091E4029091E502A091E60242
:10419000B091E702F70180839183A283B383812FDB
:1041A0000F900F900F900F900F90DF91CF911F9174
:1041B000FF90EF90089510E0E5CF4F925F926F92DD
:1041C0007F928F929F92AF92BF92EF92FF920F9346
:1041D0001F93CF93DF937B01FB014080518062806E
:1041E00073809FB7F8948090AB049090AC04A0903B
:1041F000AD04B090AE049FBF84189508A608B70818
:10420000F4E68F169104A104B10418F4C1E044232C
:1042100029F1C82F880FDD0BFE0183E0EE0FFF1F91
:104220008A95E1F7EC5FFE4F8181928180519D4F2D
:10423000408150E00417150708F4A801B9010E9455
:104240002331CE010E94DF2FC82F882339F00E942E
:104250003B04F70160837183828393838C2FDF910A
:10426000CF911F910F91FF90EF90BF90AF909F90D3
:104270008F907F906F905F904F900895A7E0B0E08F
:10428000E4E4F1E20C94633086E0E4E1F5E0DE0181
:10429000119601900D928A95E1F7809125048F8304
:1042A00047E050E06DEF72E0CE0101960E941631BA
:1042B00041E0892B09F440E007E010E09E012F5F08
:1042C0003F4F68E073E084E00E94DD202796E4E041
:1042D0000C947F300F931F93CF93DF93EC0144E056
:1042E00050E065EF72E00E94163141E0892B09F43D
:1042F00040E004E010E09E016CEE72E082E00E947B
:10430000DD20DF91CF911F910F91089568EE7EEF30
:1043100090E080E00E94783160E082E090E00E94CE
:104320005A3160E083E090E00E945A311092D50249
:104330001092D6021092D7021092D80260E084E068
:1043400090E00E945A3164E082E290E00E945A318B
:1043500060E085E090E00E945A3160E086E090E005
:104360000E945A316FEF87E090E00E945A3140E09E
:1043700050E0BA0188E090E00E946C3160E08DE08E
:1043800090E00E945A3140E050E0BA0188E190E0AC
:104390000E946C3160E087E190E00E945A3140E079
:1043A00050E0BA018CE190E00E946C3170E060E076
:1043B00080E290E00E94783140E050E0BA0188E16C
:1043C00090E00E946C3140E050E0BA018FE090E054
:1043D0000E946C3140E050E0BA0183E190E00E941D
:1043E0006C310895CF93C091B004C2FB992790F926
:1043F000981791F080FBC2F9C093B0046091AF04AC
:1044000084E090E00E945A316C2F82E290E00E949A
:104410005A3182E00E945E19CF910895A5E0B0E084
:10442000E4E1F2E20C9457307C01FC018381948139
:10443000892B31F08081918189238F3F09F0C7C496
:104440002596E0E10C9473300E94F60C182F682F2B
:1044500089819A810E94740D69817A81812F0E94DD
:10446000DD0A8C01843FFCE59F0709F483C018F541
:10447000893D9C4509F47AC00A3D8CE5180709F48A
:1044800089C0083D9CE5190709F526E241EE61EE79
:10449000C7010E94C61A8091B102877089F2F701A4
:1044A0008281882369F28091B00482FFC9CF82E0C3
:1044B0000E945E19C5CF863FECE59E0709F462C0F5
:1044C00008F45CC0873F9C4509F460C0F701828115
:1044D000882309F48DC4109212050430FDE51F07EE
:1044E00008F05BC00B3F2CE5120730F4C801825086
:1044F0009C45449708F05BC00E94261B9093B00433
:104500008093AF0401319CE5190709F429C108F033
:10451000A5C00930FCE51F0709F40CC108F070C004
:1045200005303CE5130709F4FDC008F055C0033021
:104530009CE5190709F4ECC008F0F0C08091AF04C5
:1045400081600230FCE51F0709F4E5C06091AF040B
:104550001091B00484E090E00E945A31612F82E211
:1045600090E00E945A310E94011D95CF27E245EE4E
:1045700065EE8ECF26E241EE60EE8ACF27E245EE71
:1045800064EE86CF26E241EE62EE82CF27E245EE70
:1045900066EE7ECF28E241E0EBCF02363DE5130721
:1045A00009F4AACF063A8DE5180709F4A5CF06311C
:1045B0002CE5120709F028C48091D3028A7A91E091
:1045C00009F490E090935A028111F4C089E20E94AC
:1045D000B80C0E94BE185FCF8091AF048062073094
:1045E0002CE5120709F497C08091AF048061083070
:1045F0003CE5130708F48FC08091AF0480648BC042
:104600000D308CE5180709F49FC0A0F48091AF0429
:104610008E7F0B30ECE51E0709F47DC08091AF045E
:104620008C600C30FCE51F0708F475C08091AF0466
:104630008D7F71C08091AF048F7E0F302CE5120703
:1046400009F469C08091AF04877F00313CE513070E
:1046500008F461C08091AF048F7D5DC00E3F8CE592
:10466000180709F479C058F50531ECE51E0709F47F
:1046700081C098F48091AF04837F03312CE5120749
:1046800009F449C008F470C00E94011D9091AF0464
:10469000892F97FB87F980583EC00C3F8CE518079F
:1046A00009F444C008F054C08091B00481600B3F0D
:1046B000ECE51E0709F04ACF8093B00447CF0230E3
:1046C000FDE51F0709F462C090F48091B0048C7F6F
:1046D00001153DE5130781F398F18091B004982FFF
:1046E000909591708E7F892B90FB81F9E5CF0236F2
:1046F0009DE5190709F450C0063AEDE51E0709F4D7
:1047000052C00330FDE51F0709F020CF60E03FC035
:104710008091AF0482608093AF0418CF8091AF0482
:104720008460F9CF8091AF048860F5CF8091B004A8
:104730008260C2CF0E94011D8091AF048068EBCFE0
:104740008091B0048360B8CF8091AF048B7FE3CFBA
:104750008091B0048E7FB0CF8091B0048D7FACCFBC
:104760008091AF048F7BD7CF0E94011D8091AF0451
:104770008F77D1CF8091AF0482FB992790F921E008
:10478000922790FB82F990FB83F9C5CF61E08EE020
:1047900090E00E945A31DACE9091AF04892F8F7E3B
:1047A00094FF8061B8CF9091AF04892F8E7F90FFE6
:1047B0008160B1CF85E30BCF85E323C349EE54E09D
:1047C00063EF74E00E947F0466CE43EF54E069EE2D
:1047D00074E0F8CF45ED54E06FED74E0F3CF4FEDAA
:1047E00054E065ED74E0EECF4BEB54E068EC74E020
:1047F000E9CF48EC54E06BEB74E0E4CF4EEA54E0D0
:1048000061EA74E0DFCF45E854E063E974E0DACFB1
:1048100043E954E065E874E0D5CF81E00E9461028D
:104820003ACE8DE0FBCF0E94011D3FEF84E39CE078
:10483000315080409040E1F700C000000E94620EBD
:104840008091B00482FB882780F991E089270E943B
:10485000F221F701828100811181882309F445C08A
:10486000C8010E94F60CD82E682FC8010E94740D52
:10487000B8018D2D0E94DD0A0E94F80A8C01882E55
:10488000F701D280958092943FE093228091B1020B
:104890008770C1F0BD2CDD20B1F0812F807F803486
:1048A00021F080E2800F883068F08091B00482FFB0
:1048B00009C082E00E945E198091B1028770BB241A
:1048C000B3948111B12CA12EA2942FE0A222FBE07F
:1048D000FA1508F476C0EA2DF0E0E85EFD4C0C9481
:1048E000B43081E0B4CF80E0B2CFC8010E943F0D68
:1048F000D82EBECF212F2F70C22E107F19F0C29458
:1049000090EFC922DD20B9F0CC2069F080E2800F61
:10491000883010F0811009C08091D302C82AC0925B
:10492000D3020E94BE18802F4AC08091D202C82AAA
:10493000C092D202F6CF802F0E94B819CC2009F481
:1049400040C0005E083010F0811004C08C2D0E9421
:10495000860C06C0C0948091D202C822C092D202B6
:104960000E94BE182EC0312F3F70C32E107F103210
:1049700019F0C29480EFC822882089F081E088165F
:1049800009F477C0DD2009F481C0992009F477C0CB
:10499000F701858180FFC7CF8F70858370C020911C
:1049A000B00422FD43C0DD20D9F1CC2039F0809144
:1049B000D302C82AC092D3020E94BE1880E00E948F
:1049C000111AEA2DE850FF0B349710F40E94030FE0
:1049D000BB20A9F08091B10280FD11C0F7011282C5
:1049E0008595859585950E947A19C7010E940E22AA
:1049F0008091B1028595859585950E943A1985E04B
:104A0000F701DE01119601900D928A95E1F7098177
:104A10001A81C8010E943F0DB8010E94DD0A10CD25
:104A200080E00E94B819CC2061F290CFDD20A1F087
:104A30009091D4028C2D892B911003C00E94AE1945
:104A4000C0CFE1E09E12FACF22FFBBCF891709F455
:104A5000B8CF8093D402B5CF911006C00E94800CCD
:104A60008C2D0E94A719ADCFF1E09F1609F4A9CFB4
:104A7000F5CFDD2031F025E0291508F4A2CF8C2DEB
:104A8000DDCF34E0391508F49CCFEACF992041F30B
:104A9000F9E38F1295C12FEF37EE83E021503040BC
:104AA0008040E1F700C000008BC1812F869586957C
:104AB000837061F0813009F084CFC8019370D11008
:104AC00002C090E080E00E9453047BCFC801937045
:104AD000D11002C090E080E00E94690472CF802F64
:104AE000DD2029F00E94270A0E9445096ACF0E9412
:104AF0006C09FACF812F837009F066C0D11061CFA5
:104B0000802F829586958770880F880F602F6F7031
:104B1000462E512C712C612C082E04C0440C551CBF
:104B2000661C771C0A94D2F740E050E0BA0104FFFB
:104B30000FC04FE050E060E070E004C0440F551F2C
:104B4000661F771F8A95D2F74095509560957095AE
:104B5000812F869586958370823019F1D8F4009163
:104B6000D5021091D6022091D7023091D80281301F
:104B700069F04429552966297729CB01BA016023B8
:104B80007123822393230E949C191BCF402A512A10
:104B9000622A732ACB01BA016429752986299729CB
:104BA000F2CF44295529662977290091D502109121
:104BB000D6022091D7023091D802CB01BA016027EA
:104BC000712782279327DFCF8695DD2011F0812F73
:104BD0008170882309F4F5CE802F829586958770A1
:104BE000880F880F602F6F70462E512C712C612C0E
:104BF000082E04C0440C551C661C771C0A94D2F77E
:104C000040E050E0BA0104FF0FC04FE050E060E028
:104C100070E004C0440F551F661F771F8A95D2F7B6
:104C20004095509560957095812F869586958370F7
:104C3000823019F1D8F400911B0310911C032091CC
:104C40001D0330911E03813069F0442955296629DE
:104C50007729CB01BA0160237123822393230E9419
:104C60002F19AFCE402A512A622A732ACB01BA01EA
:104C70006429752986299729F2CF4429552966295F
:104C8000772900911B0310911C0320911D03309183
:104C90001E03CB01BA016027712782279327DFCF3C
:104CA0001F70DD2029F0812F0E947A19802FC6CE37
:104CB000802F0E94A719812F0E943A1982CE802F3F
:104CC00092EF891609F43FC0981570F0E0EF8E1648
:104CD000D1F0F1EF8F1691F0DD2009F46CC0911046
:104CE00022CE812F8F7133C023EF821699F134EFDA
:104CF0008312F2CF8091B00482FD3FC0812F8F716B
:104D0000DD20D1F224C0DD20C9F084E0891508F44B
:104D100058CE1F7161E070E080E090E004C0660F43
:104D2000771F881F991F1A95D2F700911B031091C6
:104D30001C0320911D0330911E03ADCF95E0991502
:104D400008F43FCEE6CF812F8F71D110B5CF0E94EE
:104D50007A1937CE60E070E0CB01DD2009F47FCF17
:104D60001F7161E070E080E090E004C0660F771F83
:104D7000881F991F1A95D2F772CFDD2089F01F7115
:104D8000812F0E947A198091B00482FF07C0E8E069
:104D90001E9FC001112483608093B102812FD7CF61
:104DA00081E00E945E19F1E0F91508F00ACE82E078
:104DB0000E945E1906CE992039F0893309F46BCE32
:104DC000802F0E94B819FDCD812F8F7175CF85E09E
:104DD000DE01119601900D928A95E1F7F70122818B
:104DE00089819A81211130CB0E943F0D182F34CB3D
:104DF0000631FCE51F0731F580915A028111DCCCA8
:104E000089E20E948D0CE5CB0B352DE5120709F4E4
:104E100068CD68F401158CE5180709F404CD0F3D41
:104E20001C4509F016CD0E9486210E94C81F0D3531
:104E3000EDE51E0709F404CD08F455CD083A1D45EB
:104E4000A1F307CD8091D30282720B3C3CE513079E
:104E500009F4D4CCB0F5063CECE51E0709F4BACC55
:104E6000D0F4043C2CE5120709F4A8CC08F0ADCC32
:104E7000033C8CE5180709F0ECCC8091140591E017
:104E80008927809314051092410180911305816058
:104E90008093130500CB083C9CE5190709F4A4CCCA
:104EA00008F49DCC093CFCE51F0709F4A2CC41EABB
:104EB00054E06EEA74E00A3C2CE5120709F482CC57
:104EC000C8CC003D3CE5130709F4ABCC98F40D3C8D
:104ED000ECE51E0709F49CCC08F495CC0E3C2CE5BF
:104EE000120709F49ACC85E00F3C3CE5130709F45E
:104EF00095CCAFCC073D8CE5180738F482E1023D34
:104F00009CE5190708F48ACCC6CA0E35EDE51E07E4
:104F100009F4C1CA9ECC1F93CF93DF9380917E0288
:104F2000807F09F049C080917B02882309F444C046
:104F30008091B002D0917F026091790270917A02E3
:104F4000A0917C02B0917D02C62FC72316E0D8172E
:104F500099F190E0109711F0CF3F19F40196877006
:104F6000F6CF189F9001199F300D1124F901E058D8
:104F7000FD4F41814713F2CF40814613EFCF42816D
:104F80004111ECCF438154814A1B5B0B483C5105D6
:104F900028F780917E028F70806180937E02F901F4
:104FA000EB57FD4F80818F708061808389E792E0AD
:104FB0000E940E220E94EC0CDF91CF911F91089568
:104FC000A1E1B0E0E6EEF7E20C945D308C0185E003
:104FD000F801DE011D9601900D928A95E1F7F80126
:104FE000E28089E7A82E82E0B82E60917C02709161
:104FF0007D026115710509F426C1909179024091F5
:105000007A02892F84238F3F09F41DC120813181C9
:10501000C380D480F0907B02F601E61BF70BFF20E3
:1050200009F4DCC080917E02582F507FE83CF105E6
:1050300008F09FC051116BC0FE2C431314C0921393
:1050400012C0E11010C08F70806180937E02C50194
:105050000E940E2280917E02F80185838F2D619639
:10506000EAE00C947930C114D10429F0822F832313
:105070008F3F09F003C180E0F82FF170DF2E80FF31
:105080003CC08091B00240917F0256E0841315C06D
:105090002D873E878D859E850E94320D292F229572
:1050A0002F702230F0F0243018F59F70F1F0F801E5
:1050B0009581907FD1F4D12C1EC090E0589FF001D3
:1050C000599FF00D1124E058FD4F6181361306C041
:1050D0006081261303C06281E6120FC001968770BB
:1050E000D5CF9F7011F0882331F3805E883018F39C
:1050F000C8010E940E22FD2CB1CFEE2009F4AECFE4
:1051000080917E02816080937E02F12CA7CF4313B1
:1051100006C0921304C0F801EE2009F479C0C8015A
:105120000E94AC0D882309F1EE20F9F080917E02F7
:10513000803270F02091790230917A0238872F8383
:105140001986DB86CA868C87CE0107960E940E22BE
:1051500086E0F801A9E7B2E001900D928A95E1F7A7
:105160000E948B27FF24F39479CFC8010E940E225E
:10517000F9CF51110AC089E792E00E940E2286E021
:10518000F50111928A95E9F7C0CF43130FC092132E
:105190000DC0E1100BC0F8018583C8010E940E22EA
:1051A00086E0F50111928A95E9F758CFC8010E946F
:1051B000AC0D8823D1F2EE20C1F280917E028032C4
:1051C00038F22091790230917A023A8329831B8246
:1051D000DD82CC828E83CE010196B8CFE83CF1050A
:1051E000F8F6FE2CEE2009F243131FC092131DC0E7
:1051F00080917E0280FD10C0982F907F69F0F801A9
:105200008583903F31F0982F907F905F8F70892B2E
:105210008583C8010E940E2286E0F801A9E7B2E06A
:1052200001900D928A95E1F719CFC8010E94AC0D4B
:1052300081118ECF80917E02816080937E02C801B1
:105240000E940E220BCFEE2009F48FCFC8010E94DE
:10525000AC0DF82E882309F488CF86E0F801A9E781
:10526000B2E001900D928A95E1F7809179029091D8
:105270007A020E94320D0E948B27F0CE81E08E25AB
:10528000FBCEA7E1B0E0E7E4F9E20C9464304B8B8D
:105290005C8B6D8B7E8B8F8B61111092D2021A8A80
:1052A000198A85E0FE017396DE011D9601900D922C
:1052B0008A95E1F786E0FE013D96DE0117960190A2
:1052C0000D928A95E1F7CE0107960E94E0278111A1
:1052D00012C086E0FE013796DE01119601900D9214
:1052E0008A95E1F78A859B85892B29F088859F819E
:1052F00089238F3F81F516E08091B00290917F0263
:10530000891317C06796E3E00C94803096E0929F73
:10531000D001939FB00D1124A058BD4FFE013196CE
:1053200001900D929A95E1F780937F020E94EC0C18
:10533000E2CF819FC001112480589D4F0E94E02739
:10534000882301F38091B00290E00196877099273D
:105350008093B002D1CF20917F0230E0C901019645
:10536000877099274091B0024817190679F60E9474
:10537000011D10927F021092B00286E0E9E7F2E090
:10538000DF011D928A95E9F7B6CF1F920F920FB6F3
:105390000F9211242F933F934F935F936F937F93BB
:1053A0008F939F93AF93BF93CF93DF93EF93FF932D
:1053B000D091E900DF708091EC00C82FC17080FDB2
:1053C000C0E81092E9008091F000877F8093F000A0
:1053D00078940E94171D1092E9008091F000886077
:1053E0008093F000CD2BCF70C093E900FF91EF9137
:1053F000DF91CF91BF91AF919F918F917F916F91ED
:105400005F914F913F912F910F900FBE0F901F9082
:1054100018951F920F920FB60F9211242F933F935E
:105420004F935F936F937F938F939F93AF93BF93AC
:10543000EF93FF938091E10082FF09C08091E20029
:1054400082FF05C08091E1008B7F8093E100809115
:10545000DA0080FF24C08091D80080FF20C08091B6
:10546000DA008E7F8093DA008091D90080FF9DC0A2
:1054700080E189BD82E189BD09B400FEFDCF81E0F4
:105480008093D9048091B404811109C00E94A402C0
:105490000E946F038091E20084608093E20080911B
:1054A000E10080FF17C08091E20080FF13C080916F
:1054B000E2008E7F8093E2008091E2008061809321
:1054C000E2008091D80080628093D80019BC85E00A
:1054D0008093D9048091E10084FF2BC08091E20089
:1054E00084FF27C080E189BD82E189BD89B5982FFD
:1054F000917080FFFBCF8091D8008F7D8093D80082
:105500008091E1008F7E8093E1008091E2008F7EA8
:105510008093E2008091E20081608093E2008091BC
:10552000DA04882309F447C084E08093D904809189
:10553000D9048091E10083FF27C08091E20083FFBE
:1055400023C08091E100877F8093E10082E0809317
:10555000D9041092DA048091E1008E7F8093E100FB
:105560008091E2008E7F8093E2008091E200806172
:105570008093E20042E060E080E00E943D03809181
:10558000F00088608093F000FF91EF91BF91AF91A0
:105590009F918F917F916F915F914F913F912F914B
:1055A0000F900FBE0F901F90189519BC1092D90440
:1055B0001092B40474CF8091E30087FD93E0909340
:1055C000D904B5CF78941F921FB61F9211248F93E0
:1055D0009F93AF93BF938091AB049091AC04A09143
:1055E000AD04B091AE040196A11DB11D8093AB0432
:1055F0009093AC04A093AD04B093AE04BF91AF916F
:105600009F918F911F901FBE1F9018951F921FB6DC
:105610001F9211248F939F93AF93BF938091AA04FD
:10562000811113C08091AB049091AC04A091AD04A2
:10563000B091AE044196A11DB11D8093AB0490932F
:10564000AC04A093AD04B093AE04BF91AF919F9111
:105650008F911F901FBE1F901895CDB7DEB7609732
:105660000FB6F894DEBF0FBECDBF85B7806885BF8B
:1056700085B7806885BF84B7877F84BF0FB6F894ED
:10568000A89580916000886180936000109260000E
:105690000FBE80E890E00FB6F8948093610090937D
:1056A00061000FBE81E89AE090933902809338023E
:1056B0000E94A4020E946F038091E20084608093A4
:1056C000E20078948091D9048823A1F01091E90038
:1056D0001F709091EC00892F817090FD80E8182B4D
:1056E0001092E9008091E80083FD0E94171D1F7051
:1056F0001093E90082E084BD93E095BD9AEF97BDD9
:1057000080936E0010920D0310920E0310920F03FF
:10571000109210030E94140F80932C010E94E00E3F
:1057200081110E94F32E80912C0180912C0194E034
:10573000811190E090931A0384E0891B80931903F0
:1057400008E711E0D8018D918D018F3F11F00E9483
:10575000830AB1E00E371B07A9F785E30E94830A8D
:1057600087EF0E94830A86EF0E94830A86E30E94E5
:10577000830A88E0EFE1F3E0DF01282F1D922A95EC
:10578000E9F7E1E1F3E0DF011D928A95E9F790E0A6
:1057900080E00E944431883E9E4F11F00E94862195
:1057A00082E090E00E943C31809327030E94261BF8
:1057B0009093B0048093AF040E94341BEFE3FCE9A4
:1057C0003197F1F700C000000E94341B80911F0345
:1057D00080FF08C06FEF7FEF90E080E00E9478319B
:1057E0000E94620E83E090E00E943C31682F70E0DE
:1057F00090E080E00E949C191092E7048FEF9FEFE9
:105800009093010580930005909303058093020512
:1058100090930505809304059093070580930605F2
:10582000909309058093080590930B0580930A05D2
:1058300090930D0580930C0590930F0580930E05B2
:105840001092F8039093120480931104909314041F
:105850008093130490931604809315049093180476
:105860008093170490931A048093190490931C0456
:1058700080931B0490931E0480931D049093200436
:1058800080931F0490E080E00E944431883E9E4F48
:1058900021F00E9486210E94A31846E050E06CE1AE
:1058A00070E084E195E00E942C3110921305809104
:1058B00014058C7F11F40E94A3180E94E00E811140
:1058C00002C00E94F62E8DE291E09093A70480938F
:1058D000A60418E1C12ED12C07E2A02E03E0B02EC1
:1058E0005524539444244394B8E08B2E912C8091FA
:1058F000D904A0E4FA2E00E112E1853009F4B2C126
:105900000E94341B81110E943B04AFE1B3E0E8E246
:10591000F3E010E000E0302E7D908191871509F4CE
:10592000C7C1F12CEE24E3948725982F9E2109F41A
:10593000BAC10E94E00E7E20882399F0FF8238864B
:1059400081E0711001C080E089870E944704816076
:10595000782F9B878A874F81588569858B850E9420
:105960004129F801E85DFC4F8081E826E08277203C
:1059700089F086E0809FF001819FF00D1124E657A9
:10598000FE4FEF0DF11D8081712C8F3F19F0682EB5
:1059900077247394072D10E08091F803800F912FE6
:1059A000911D09975CF17401E01AF10AB801675082
:1059B0007C4FA70189EF93E00E942331B8016F5F0C
:1059C0007B4FA70181E094E00E942331A701440F9F
:1059D000551FB801660F771F6F5E7B4F81E194E022
:1059E0000E942331B801675F7B4FA70189E094E0F3
:1059F0000E94233188E087198093F8038091F8038F
:105A000090E0A62DB0E09D01220F331F26543E4F9B
:105A1000AA0FBB1FBD0165547E4F41E0480F97158B
:105A200008F42CC18093F8030E94E00E0E94F41742
:105A300086E0E8E3F3E0DE01119601900D928A958D
:105A4000E1F710923A0310923B0310923C0310923C
:105A50003D031B810C81812F802B09F448C080916C
:105A60003603909137030E942C049C0190913203DD
:105A7000992309F45BC125313105C8F19F3F19F025
:105A80009F5F90933203112359F00E94070A9FEF02
:105A900011160CF491E0899F802D112480933A0314
:105AA000002359F00E94070A9FEF10160CF491E0B2
:105AB000899F802D112480933B0330913A03332337
:105AC000B1F020913B03222391F045EB3403C00158
:105AD0001124992309F403C190933A0345EB24035D
