:100000000C9474070C94BB070C94BB070C94BB07AF
:100010000C94BB070C94BB070C94BB070C94BB0758
:100020000C94BB070C94BB070C94A02C0C94722D61
:100030000C94901E0C94BB070C94BB070C94BB074C
:100040000C94BB070C94BB070C94BB070C94BB0728
:100050000C94BB070C94E91E0C94BB070C94BB07D3
:100060000C94BB070C94BB070C94BB070C94BB0708
:100070000C94BB070C94BB070C94BB070C94BB07F8
:100080000C94BB070C94BB070C94BB070C94BB07E8
:100090000C94BB070C94BB070C94BB070C94BB07D8
:1000A0000C94BB070C94BB070C94BB079D139D13CA
:1000B000CF13CF131C143A145B155B154514DA14D7
:1000C000EB14EB144B155B155B155415091609164B
:1000D0001B161B1612161B161B161B1609160916C5
:1000E00017161B161B161716622550256925EE23B9
:1000F0003E263E264D253E263E2696253E26AA2510
:100100001E263E263E263E263E26DA253E263E2654
:10011000C7253E2682253E263E2638263826382606
:100120003826382638263826382638263A263E26D7
:10013000622545253E263E263E263E263E263E2676
:100140003E263E263E263E263A263E263E264D2585
:100150003E263626362636263626362636263626B7
:10016000362636263A26DF2D062EFE2E062EFE2EAB
:10017000522E752EFE2ECC2EDB2E14001A000900F6
:1001800013000A00000000000D000F0018001C0002
:1001900033000400150016001700070000000000DF
:1001A0000B00110008000C0012001D001B000600CF
:1001B000190005002B412A000E0010003600370000
:1001C0003800290039642B01E100E000E30002510E
:1001D0002C00E1002D002E0028003A000000000055
:1001E0000000A900000000002D00240025002600CA
:1001F0002E000000000000000000AA000000000027
:100200002E02210022002300250200000000000031
:10021000AE00A80001002A0023021E001F002000DB
:100220003800105000001350E100E000E30000002F
:100230002C0036002700370028001E021F02200273
:1002400021022202000000002302240225023102C2
:1002500031002F02300226022702000000000000B9
:100260005000510052004F003400000000002F00E9
:10027000300000002B004C000000000000003502A0
:100280003402105000000000E100E000E300010033
:100290002C00E10000003500280014001A000800BE
:1002A00015001700000000001E001F0020002100A4
:1002B000220004001600070009000A0000000000E8
:1002C000230024005200250026001D001B0006000C
:1002D000190005002B002A000000500051004F00BB
:1002E000E0001050E2000453E100E0002C0029007F
:1002F0002C00E10000000000280014001A00080093
:1003000015001700000000001C0018000C0012006F
:10031000130004001600070009000A000000000096
:100320000B000D000E000F0033001D001B00060027
:10033000190005002B002A001100100036003700BC
:1003400038001050E2000100E100E000390029000F
:100350002C00E1002D003400280044454255473A66
:100360002064697361626C65642E0A0044454255DD
:10037000473A20656E61626C65642E0A000A0025AA
:1003800030313662003A200025303258000A722F90
:1003900063203031323334353637383941424344C3
:1003A00045460A00556E69636F646520696E707515
:1003B00074206D6F64652073657420746F3A202516
:1003C000750A00556E69636F646520696E70757497
:1003D000206D6F646520696E697420746F3A202502
:1003E000750A000A002530325820006B6579626F6B
:1003F0006172645F7265706F72743A20000A002542
:10040000303258006B6579626F6172645F73657436
:100410005F6C65643A200064656C5F6B65795F6250
:1004200069743A2063616E27742064656C3A2025F4
:100430003032580A006164645F6B65795F62697489
:100440003A2063616E2774206164643A202530325B
:10045000580A00290A002575002F002575005D281F
:100460000025640020002564002000256400200091
:100470002564007C0025303258006D6F7573656B04
:100480006579205B62746E7C782079207620685DC7
:10049000287265702F61636C293A205B006D6B5F79
:1004A000776865656C5F74696D655F746F5F6D61BA
:1004B00078203D2025640A006D6B5F776865656C68
:1004C0005F6D61785F7370656564203D2025640A07
:1004D000006D6B5F74696D655F746F5F6D6178202F
:1004E0003D2025640A006D6B5F6D61785F737065F8
:1004F0006564203D2025640A006D6B5F696E74653C
:100500007276616C203D2025640A006D6B5F646526
:100510006C6179203D2025640A006D6B5F7768650A
:10052000656C5F74696D655F746F5F6D6178203DA8
:100530002025640A006D6B5F776865656C5F6D618F
:10054000785F7370656564203D2025640A006D6BDB
:100550005F74696D655F746F5F6D6178203D202504
:10056000640A006D6B5F6D61785F73706565642010
:100570003D2025640A006D6B5F696E74657276615B
:100580006C203D2025640A006D6B5F64656C6179A9
:10059000203D2025640A000A00257500363A2077A0
:1005A0006865656C5F74696D655F746F5F6D6178B8
:1005B0003A20000A00257500353A20776865656C99
:1005C0005F6D61785F73706565643A20000A00258D
:1005D0007500343A2074696D655F746F5F6D617882
:1005E0003A20000A00257500333A206D61785F7368
:1005F000706565643A20000A00257500323A20696A
:100600006E74657276616C286D73293A20000A0059
:10061000257500313A2064656C6179282A31306D86
:1006200073293A20000A092D2056616C75657320E4
:100630002D0A004D3E004D25643E20003F007365AD
:10064000742064656661756C740A00433E2000770F
:10065000686572652064656C74613A2063757273B5
:100660006F723D25642C20776865656C3D25640AB2
:1006700053656520687474703A2F2F656E2E776904
:100680006B6970656469612E6F72672F77696B693A
:100690002F4D6F7573655F6B6579730A000A092DBD
:1006A000204D6F7573656B6579202D0A4553432F77
:1006B000713A09717569740A313A0964656C617936
:1006C000282A31306D73290A323A09696E746572CD
:1006D00076616C286D73290A333A096D61785F730E
:1006E000706565640A343A0974696D655F746F5F9B
:1006F0006D61780A353A09776865656C5F6D617878
:100700005F73706565640A363A09776865656C5F82
:1007100074696D655F746F5F6D61780A0A703A097C
:100720007072696E742076616C7565730A643A093B
:100730007365742064656661756C74730A75703ACC
:10074000092B310A646F776E3A092D310A7067758B
:10075000703A092B31300A7067646F776E3A092D51
:1007600031300A0A7370656564203D2064656C74DD
:1007700061202A206D61785F7370656564202A208E
:1007800028726570656174202F2074696D655F74CF
:100790006F5F6D6178290A003F004D3E2000433EA7
:1007A00020004C25640A0074696D65725F72656192
:1007B00064333228293A202530346C580A006B659E
:1007C000796D61705F636F6E6669672E6E6B726FB5
:1007D0003A2025580A006B6579626F6172645F691F
:1007E000646C653A2025580A006B6579626F617206
:1007F000645F70726F746F636F6C3A2025580A00E3
:10080000686F73745F6B6579626F6172645F6C654A
:10081000647328293A2025580A000A092D205374A8
:1008200061747573202D0A004743433A20352E34F6
:100830002E30204156522D4C4942433A20322E3020
:100840002E30204156525F415243483A2061767221
:10085000350A004F5054494F4E533A204C554641AB
:10086000204D4F5553454B45592045585452414B07
:10087000455920434F4E534F4C4520434F4D4D411A
:100880004E44204E4B524F20343039360A004255E8
:10089000494C443A20223130323339302220283139
:1008A000373A34363A3437204465632020372032D3
:1008B000303230290A005649443A203078313230FB
:1008C00039284B6579626F617264696F29205049DC
:1008D000443A20307832333033284174726575736E
:1008E00029205645523A203078303030300A000AFC
:1008F000092D2056657273696F6E202D0A000A0952
:100900002D20436F6E736F6C65202D0A4553432F66
:10091000713A09717569740A6D3A096D6F7573657D
:100920006B65790A000A092D204D61676963202DE6
:100930000A443A094465627567204D6573736167BF
:100940006520546F67676C650A583A094D61747287
:100950006978204465627567204D6F646520546F27
:1009600067676C65202D2053686F77206B65797001
:1009700072657373657320696E206D617472697836
:1009800020677269640A4B3A094B6579626F61723C
:100990006420446562756720546F67676C65202D1D
:1009A0002053686F77206B6579707265737320725E
:1009B00065706F72740A4D3A094465627567204D1F
:1009C0006F75736520546F67676C650A563A0956F0
:1009D000657273696F6E0A533A0953746174757363
:1009E0000A433A09416374697661746520436F6E06
:1009F000736F6C65204D6F64650A46312D4631304A
:100A00003A0953776974636820746F204C61796583
:100A10007220302D392028463130203D204C30299D
:100A20000A302D393A0953776974636820746F204E
:100A30004C6179657220302D390A47524156453A4A
:100A40000953776974636820746F204C617965720B
:100A500020302028616C7465726E617465290A42C9
:100A60003A094A756D7020746F20426F6F746C6F15
:100A7000616465720A4553433A094A756D70207482
:100A80006F20426F6F746C6F616465722028616CB7
:100A90007465726E617465290A453A095072696E0F
:100AA0007420454550524F4D2053657474696E67EC
:100AB000730A4253504143453A09436C65617220C1
:100AC000454550524F4D0A4E3A094E4B524F205415
:100AD0006F67676C650A000A002575002E6E6B72E1
:100AE0006F3A20000A002575002E737761705F62EF
:100AF00061636B736C6173685F6261636B73706178
:100B000063653A20000A002575002E737761705FD7
:100B100067726176655F6573633A20000A00257528
:100B2000002E6E6F5F6775693A20000A0025750018
:100B30002E737761705F72616C745F726775693A6A
:100B400020000A002575002E737761705F6C616C60
:100B5000745F6C6775693A20000A002575002E7372
:100B60007761705F7263746C5F726775693A2000B9
:100B70000A002575002E737761705F6C63746C5F7B
:100B80006C6775693A20000A002575002E63617054
:100B9000736C6F636B5F746F5F636F6E74726F6C97
:100BA0003A20000A002575002E737761705F636F2D
:100BB0006E74726F6C5F636170736C6F636B3A20FD
:100BC000000A0025303258006B65796D61705F63F3
:100BD0006F6E6669672E7261773A20000A0025758C
:100BE000002E6D6F7573653A20000A002575002E82
:100BF0006B6579626F6172643A20000A00257500A6
:100C00002E6D61747269783A20000A002575002EF5
:100C1000656E61626C653A20000A0025303258002A
:100C200064656275675F636F6E6669672E72617770
:100C30003A20000A0025750064656661756C745F72
:100C40006C617965723A20003F004E4B524F3A205A
:100C50006F66660A004E4B524F3A206F6E0A000ACA
:100C60006D6F7573653A206F66660A000A6D6F7561
:100C700073653A206F6E0A000A6B6579626F617264
:100C8000643A206F66660A000A6B6579626F61726A
:100C9000643A206F6E0A000A6D61747269783A20B6
:100CA0006F66660A000A6D61747269783A206F6E29
:100CB0000A000A64656275673A206F66660A000A70
:100CC00064656275673A206F6E0A000A0A4A756D9C
:100CD00070696E6720746F20626F6F746C6F6164EF
:100CE00065722E2E2E2000433E2000436C656172FB
:100CF000696E6720454550524F4D0A006565636F28
:100D00006E6669673A0A005B735D004B6579626FD6
:100D10006172642073746172742E0A005B575D0007
:100D20005B535D005B525D005B445D005B435D00B7
:100D30000E0341007400720065007500730000002E
:100D400016034B006500790062006F0061007200BD
:100D5000640069006F0000000403090409025B00DD
:100D6000030100A0FA0904000001030101000921A8
:100D7000110100012240000705810308000A09044F
:100D80000100010300000009211101000122BC0043
:100D90000705820320000A09040200020300000084
:100DA000092111010001222200070583032000010F
:100DB00007050303200001120110010000000809CB
:100DC0001203230000010200010631FF0974A10192
:100DD0000975150026FF0095207508810209761512
:100DE0000026FF00952075089102C005010902A1A7
:100DF0000185020901A10005091901290515002530
:100E000001950575018102950175038101050109AF
:100E10003009311581257F9502750881060938153D
:100E200081257F950175088106050C0A3802158118
:100E3000257F950175088106C0C005010980A101C3
:100E4000850319012AB700150126B7009501751011
:100E50008100C0050C0901A101850419012AA00225
:100E6000150126A002950175108100C00501090633
:100E7000A1018505050719E029E715002501950859
:100E8000750181020507190029EF1500250195F06C
:100E90007501810205081901290595057501910261
:100EA000950175039101C005010906A10105071906
:100EB000E029E71500250195087501810295017566
:100EC0000881010507190029FF150026FF00950676
:100ED000750881000508190129059505750191021C
:100EE000950175039101C00011241FBECFEFDAE018
:100EF000DEBFCDBF04B603FE27C080919A02909159
:100F00009B02A0919C02B0919D028730904BA7401C
:100F1000B04BD1F410929A0210929B0210929C0254
:100F200010929D0214BE84B7877F84BF0FB6F894D9
:100F3000A8958091600088618093600010926000A5
:100F40000FBEE0E0F8E3099511E0A0E0B1E0EEE5C6
:100F5000FFE502C005900D92A03AB107D9F722E053
:100F6000A0EAB1E001C01D92AA39B207E1F70E94E0
:100F7000D7290C94AD2F0C940000FF93EF93E091D0
:100F8000A001F091A101309709F00995EF91FF912F
:100F90000895FC018591803011F0EFDFFBCF0895BB
:100FA000FF27E0E230E247FF0CC0419597FF09C000
:100FB000EDE26095709580959095611D711D811D84
:100FC000911D27FF02C0219530E350E2AA27660F4A
:100FD000771F881F991FAA1FA41710F0A41B6395E1
:100FE0005A95A9F7AA3008F0A95FA05DAF93F395D1
:100FF000611571058105910541F7ED3211F4EF930B
:10100000F395F21718F43F93F395FBCF8F91B5DF6B
:10101000FA95E1F70895E991F9918591803021F0F1
:10102000853219F0AADFF9CF089520E0E8945591B0
:101030005532C1F3503311F4689455915A3348F442
:10104000505390F3220F022E220F220F200D250F56
:10105000F4CF0EF4219589919991533619F35337B2
:1010600029F1533559F1BC0188279927E8945C365A
:1010700021F48991999168945591543639F446EF49
:101080007EF077FF0DC08FEF9FEF0AC055374AE023
:1010900039F0583540E121F0523642E009F0089528
:1010A000FF93EF937DDFEF91FF91B7CFFF93EF9326
:1010B000FC0181918030B9F360DFFBCFFF93EF93A8
:1010C00068DFF1CFDF93CF93CDB7DEB72596A3DFEF
:1010D000CF91DF9108959C013A9521153F4138F554
:1010E000DC01AA27B270AC01442754709C0122276E
:1010F000387094FF0FC090FF02C080E101C080E013
:10110000AB2B09F08062452B09F08064232B69F03A
:1011100080680BC0892F8170AB2B09F08260452B52
:1011200009F08460232B09F08860FB01099408957D
:10113000CF93DF93EC01805E9109089710F0209720
:1011400019F469E573E102C06FEC75E1CE010E940C
:101150006B088C2FDF91CF910C942F12CF93DF93DC
:10116000EC010E94DE12CE01805E9109089710F01A
:10117000209719F460E673E102C066ED75E1CE01D7
:10118000DF91CF910C946B08CF93DF93EC010E9419
:101190009808CE01DF91CF910C94AE0881E00895BC
:1011A00081E008950C94D00808950C94D4081F93FE
:1011B000CF93DF9300D000D01F92CDB7DEB7498325
:1011C0005A836B833091B80189819A81311114C09F
:1011D000662359F0222349F00E94451B182F682FDF
:1011E00089819A810E94EE1A03C00E94191B182F50
:1011F00069817A81812F04C00E94451B69817A81AF
:101200000F900F900F900F900F90DF91CF911F9143
:101210000C94BD09FC01262F4081518162817381AC
:1012200084810C94D708CF93DF93EC0160E00E9497
:101230000A09BE01DF91CF910C94D5080E94221FAC
:101240000E94AA1C811102C00E94511D0E945A0DC9
:101250000C94220C0C941E0C282F2F7041F0822F1E
:1012600090E02A3010F44D9608950697089587E28D
:1012700090E0089508950E94F7150E943A092FEF13
:1012800084E39CE0215080409040E1F700C00000E2
:101290000C940F1F0F931F93CF93DF93EC0161E02A
:1012A0000E940A098C01BE010E94D208882309F419
:1012B00049C0BE01C8010E94F70D882309F442C04D
:1012C000BE01C8010E94AB0E8823E1F1BE01C80136
:1012D0000E94FD0E8823B1F1BE01C8010E942810B2
:1012E000882381F18A81882331F101308CE5180748
:1012F00051F00F3D8CE51807D9F001151C45D9F4C4
:101300000E943B091FC080913C02C82FC095C1704C
:10131000C0FB80F980933C02CC2329F08CE693E05B
:101320000E94C9070FC08AE593E00E94C9070BC05D
:101330000E94511D07C0CE01DF91CF911F910F91E7
:101340000C94CE08C0E08C2FDF91CF911F910F91AC
:10135000089508950C94A90981E008950C94AC09AE
:10136000CF93C82F0E94AA098C2F0E94AE09CF915B
:10137000089580E090E00895089520E3829FC001E1
:101380001124FC012CE0729FE00DF11D1124E60FE9
:10139000F11DEE0FFF1FE658FE4F859194910895C1
:1013A000880F991FFC01E358FC4F85919491089593
:1013B000CF93DF930E94BD090E94F00AEC018115D2
:1013C000904508F041C0C11580E4D80708F0D1C0AD
:1013D000C83ED10510F5C03ED10508F0FDC0C83AA1
:1013E000D10578F4C53AD10508F0A2C0C130D105C5
:1013F00009F4F2C008F4EEC0C430D10508F0ECC026
:10140000E9C0CF3BD10508F49BC0C03CD10508F42E
:10141000E1C0CE01805C91099EC0C11590E2D90760
:1014200058F4C11521E0D20708F0D6C0C03FD1055D
:1014300008F4D0C0D065D0C0C11580E3D80708F04B
:101440008EC0CE019F7087C0C11595E5D90708F001
:1014500043C0C11524E5D20708F0A2C0C11582E53A
:10146000D80708F5C11591E5D90708F085C0CE0168
:1014700074E0969587957A95E1F783709C2F937029
:1014800021E030E002C0220F331F9A95E2F73C685A
:10149000382BCF70C695C69580E2C89FE001112415
:1014A000C22BD32B99C09E01237033278C2F869596
:1014B0008695C115D34508F064C0C1E0D0E002C0F4
:1014C000CC0FDD1F2A95E2F720E2829FC001112494
:1014D000C82BD92BDC6880C0C11529E5D207A0F440
:1014E000C11588E5D80708F060C0C11596E5D90791
:1014F00008F070C08C2F0E94840B8F71C82FD0E031
:10150000DC2FCC27D06268C0C1152AE5D20708F4C9
:1015100051C0CE0190568115904208F05BC08D2FCE
:101520008F710E94840BDD27D0628F71D82B54C03D
:10153000C55AD0E0CD5BDE4FC881D0E0D0644CC04E
:10154000C85AD0E0CC0FDD1FCB5EDE4F0990D881AA
:10155000C02DD46441C00E94D009EC013DC0CE0131
:101560009927D3FF03C0EC01D86C36C0EC01D06CD6
:1015700033C0DF70D06A30C0DC2FCC27C16FD06A97
:101580002BC0C1E0D0E002C0CC0FDD1F2A95E2F7EE
:1015900020E2829FC0011124C82BD92BDA681CC01D
:1015A000DC2FCC27C46FD06A17C0DC2FCC27C06FCC
:1015B000D06A12C08C2F8F700E94840B94E0D69555
:1015C000C7959A95E1F7CF70D0E0DC2FCC27D06992
:1015D000C82B02C0C0E0D0E0CE01DF91CF910895CA
:1015E0008238910569F1B0F48133910509F46DC039
:1015F00048F48932910509F463C08A32910509F4EF
:1016000069C008958533910509F455C08933910562
:10161000B9F00895833E910569F138F4803E910553
:10162000B1F0823E910509F10895863E9105A9F138
:10163000873E9105B9F1843E910509F064C023C04D
:1016400020918B0220FD4FC021FD4DC00895809157
:101650008B0280FD44C080918C0280FF44C0809149
:101660008B0284FD42C083EE4DC080918B0282FFCD
:1016700038C0F5CF80918B0282FD33C080918C02FF
:1016800080FD31C0ECCF80918C0281FF32C080910F
:101690008B0284FD2AC087EE35C080918B0283FFC8
:1016A00026C0F5CF80918B0283FD21C080918C02F2
:1016B00081FD1FC0ECCF80918B0285FD1CC01DC039
:1016C00080918B0285FD19C016C080918B0286FD2A
:1016D00016C017C080918B0286FD13C010C089E32D
:1016E00011C082EE0FC080EE0DC080E00BC086EE10
:1016F00009C084EE07C089E205C085E303C08AE221
:1017000001C081E390E0089590918B0292FF0DC09B
:10171000282F2871283019F4877F846006C0282F6D
:101720002471243011F48B7F886093FF0DC0282F23
:101730002871283119F4877E846106C0282F24710E
:10174000243111F48B7E886120918C0220FF0DC022
:10175000382F3871383019F4877F816006C0382FF0
:101760003171313011F48E7F886021FF0DC0282F38
:101770002871283119F4877E816106C0282F2171D4
:10178000213111F48E7E886194FD877E0895E82FC3
:10179000F0E0EE0FFF1FE658FD4F80819181089524
:1017A000CF92DF92EF92FF920F931F93CF93DF932D
:1017B0008DE893E00E94C9078AE7E82E82E0F82EC0
:1017C000C0E0D0E098E8C92E93E0D92E0FE713E0EF
:1017D000DF93CF93DF92CF920E94620885E893E077
:1017E0000E94C907F701819191917F010E94911C8C
:1017F0009F938F931F930F930E9462088DE793E04E
:101800000E94C90721968DB79EB708960FB6F89427
:101810009EBF0FBE8DBFC430D105D1F6DF91CF91F1
:101820001F910F91FF90EF90DF90CF90089580EA85
:101830008A95F1F7089508950C941B0C0C941C0CD8
:101840000C941B0C0C94200CF894E82FE295EF708C
:10185000F0E031A1282F2F7081E090E001C0880FC7
:101860002A95EAF7982F9095932391A392A1892B1B
:1018700082A3789408950F931F93CF93DF9386EFFD
:101880000E94240C85EF0E94240C84EF0E94240CFB
:1018900081EF0E94240CC6E4D1E002E511E08991B9
:1018A0000E94240C0C171D07D1F71092730210929E
:1018B000720210927B0210927A02109275021092BC
:1018C000740210927D0210927C02109277021092A4
:1018D000760210927F0210927E021092790210928C
:1018E0007802109281021092800284E00E940A0D18
:1018F000DF91CF911F910F910C941E097F928F92CF
:101900009F92AF92BF92CF92DF92EF92FF920F938E
:101910001F93CF93DF93C2E5D1E082E7A82E82E048
:10192000B82E9AE7E92E92E0F92E712C01E010E032
:101930006E018881F894E82FE295EF70F0E021A124
:101940008F70A80102C0440F551F8A95E2F7CA01A3
:10195000922F982B91A392A18095892382A37894AA
:101960000E94170CE6E4F1E020E030E0812C912C9D
:101970004191A42FA295AF70B0E090968C9190E029
:101980004F7002C0959587954A95E2F780FD08C093
:10199000C801022E02C0880F991F0A94E2F702C004
:1019A00080E090E0882A992A2F5F3F4F2C30310544
:1019B000F9F62196F60180810E94240CF5018081C0
:1019C00091818816990621F09182808281E001C080
:1019D00080E0782AF2E0AF0EB11CEA14FB0409F0B3
:1019E000A7CF272D44E06AE772E082E792E00E94E9
:1019F0000B0D0E942A09872DDF91CF911F910F9126
:101A0000FF90EF90DF90CF90BF90AF909F908F901E
:101A10007F9008950895FF920F931F93CF93DF93C4
:101A2000F82E092F162FD72FC42F222349F081E03B
:101A30008093A4010E94C21E9093A3018093A201EF
:101A40008091A4018823D9F08091A2019091A301F3
:101A50000E94DA1E069798F0EF2DF02FA12FBD2FD0
:101A600080E090E04C2F50E08417950734F42191EA
:101A700031912D933D930196F7CF1092A401DF9100
:101A8000CF911F910F91FF900895CF93DF9397FF10
:101A90000DC0FB012281222349F0EC010E94990D27
:101AA000CE019F770E94DA0D0E94C30D81E0DF9185
:101AB000CF9108958CE090E00E946B2F90E0A0E021
:101AC000B0E08093820290938302A0938402B0934B
:101AD000850280913C0280FF0EC0809182021F929D
:101AE0008F9383EC93E09F938F930E9462080F90F3
:101AF0000F900F900F900895609182028CE090E01B
:101B00000C94792F809382020E947C0D80913C027C
:101B100080FF0EC0809182021F928F9384EA93E02F
:101B20009F938F930E9462080F900F900F900F90D9
:101B300008950E94C61B809386020E94D91B809143
:101B40008202813071F048F0823081F08430A1F45B
:101B500086EE0E94461388E10DC082EE0E942F128D
:101B60000BC088E193E00E94C40806C082EE0E9488
:101B70002F1287E50E9446138FE39CE90197F1F746
:101B800000C00000089580918202813039F040F059
:101B9000823031F0843051F488E206C08CE204C017
:101BA00082EE0E94DE1202C00E94461380918602DD
:101BB0000C94D61B0F931F93CF93DF938C01CCE033
:101BC000D0E0C8010C2E02C0969587950A94E2F7E2
:101BD0008F700E942C090E94C4082497CC3F8FEF7D
:101BE000D80779F7DF91CF911F910F9108950F9347
:101BF0001F93CF93DF93EC018B01FB01828188233C
:101C000051F00E94C61BCE01825E9C458530910535
:101C100010F40E94820DB801CE01DF91CF911F9187
:101C20000F910C94450DAF92BF92CF92DF92EF923D
:101C3000FF920F931F93CF93DF937C015B01C42F1F
:101C4000D22FFC0182818823F9F04093A7010E94E2
:101C5000C21E9093A6018093A50180E28C0F88306C
:101C600008F06EC0C77081E001C0880FCA95EAF71E
:101C7000DF91CF911F910F91FF90EF90DF90CF9068
:101C8000BF90AF900C9459138091A701481335C0B1
:101C90008091A5019091A6010E94DA1E6C01B70106
:101CA000C5010E94B018C816D90638F510E21D0FFC
:101CB000CD17B9F080E28C0F883040F4C77081E016
:101CC00001C0880FCA95EAF70E946013183058F5D2
:101CD00081E09D2F977001C0880F9A95EAF70E94C6
:101CE0005913802F0E944613183050F5D77081E0A9
:101CF00001C0880FDA95EAF70AC080E28C0F8830BD
:101D0000F8F4C77081E001C0880FCA95EAF7DF9147
:101D1000CF911F910F91FF90EF90DF90CF90BF90E8
:101D2000AF900C946013802FDF91CF911F910F9192
:101D3000FF90EF90DF90CF90BF90AF900C94461340
:101D4000DF91CF911F910F91FF90EF90DF90CF9097
:101D5000BF90AF9008950F939C01CB01243F4CE5B9
:101D6000340731F188F4293DFCE53F07D9F02A3DDD
:101D70004CE5340779F1283D3C45A9F506E221EE12
:101D800041EE68ED7CE52BC0263FFCE53F07E1F026
:101D9000A8F0273F3C4539F507E225EE46EE67EF10
:101DA0007CE51DC007E225EE45EE69ED7CE517C038
:101DB00006E221EE40EE64EF7CE511C007E225EE7D
:101DC00044EE65EF7CE50BC006E221EE42EE66EFE5
:101DD0007CE505C008E221E045EE6AED7CE50E9465
:101DE000130E80E008C0FC018281882319F0109254
:101DF000A70101C081E00F910895CF93DF93EC011B
:101E0000FB018281882309F41FC1C230FCE5DF0792
:101E100008F41BC1C6319CE5D90738F09E012B5F41
:101E20003C452930310508F010C10E94BD1C90933B
:101E30008C0280938B02C031ECE5DE0709F4C3C04D
:101E400008F041C0C8308CE5D80709F49AC0F0F416
:101E5000C430ECE5DE0709F487C068F4C2308CE5D5
:101E6000D80709F477C0C330DC4509F0E3C080919E
:101E70008B02826076C0C630ECE5DE0709F46EC0E6
:101E800008F07BC080918B0288606BC0CC308CE501
:101E9000D80709F485C068F4CA30ECE5DE0709F418
:101EA00074C008F079C00E94F71580918B02806899
:101EB00058C0CE308CE5D80709F476C008F07FC052
:101EC00080918B028BC0CC3FECE5DE0709F44FC05C
:101ED00018F5C3318CE5D80709F47DC078F4C13119
:101EE000ECE5DE0709F473C0C231DC4509F0A2C09D
:101EF0000E94F71580918B028F7733C0C5318CE536
:101F0000D80709F472C008F486C0CB3FDC4509F05D
:101F100091C080918C023EC0C115FDE5DF0709F438
:101F20005FC058F4CE3F9CE5D90709F444C008F4DB
:101F30003FC080918C0282602DC0C230FDE5DF077A
:101F400009F475C008F45DC0C330DD4509F072C006
:101F500080E06EC080918B02816003C080918B0213
:101F6000806180938B0266C080918B0211C080914A
:101F70008C02826080938C025DC080918B028062B3
:101F8000F0CF80918B028064ECCF80918B028860CF
:101F90008460E7CF8160EECF80918B028E7FE1CFAE
:101FA00080918B028D7FDDCF80918B02877FD9CF8F
:101FB00080918C0218C080918C028D7FDBCF809144
:101FC0008B028F7ECECF80918B028F7DCACF809186
:101FD0008B028F7BC6CF80918B02877F8B7FC1CF97
:101FE00080918C028D7F8E7FC5CF80918B0282FB8A
:101FF000222720F991E0922790FB82F990FB83F948
:10200000B0CF80918C02982F909591708E7F892B04
:1020100090FB81F9AFCF0E94F71580918B0287FB6F
:10202000222720F991E0922790FB87F99ACF81E04F
:102030000E94531D80918B0290918C020E94CE1CB5
:102040000E94F71580E001C081E0DF91CF910895F3
:10205000CF93DF9386319C4541F5EB010E94C61B6F
:10206000982F8A812091000130910101882379F015
:102070009A7A81E009F480E08093A801911102C06E
:1020800069E201C065E3C9010E94101E0AC0809187
:10209000A801811102C069E201C065E3C9010E9483
:1020A0001B1E0E94171C80E001C081E0DF91CF91D0
:1020B00008959093AE018093AD010895E091AD0134
:1020C000F091AE01309721F00190F081E02D09945C
:1020D00080E00895EF92FF921F93CF93DF93FC016E
:1020E000A091AD01B091AE01109709F442C080916A
:1020F0001401882341F080918B0287FF04C0808106
:10210000818385E08083EF011296ED91FC91139716
:10211000CE01099580913C0282FF2BC080FF04C054
:102120008BEE93E00E94C90718E085EEE82E83E06D
:10213000F82E80913C0280FF0BC088811F928F9304
:10214000FF92EF920E9462080F900F900F900F90F5
:10215000115021961111EDCF80913C0280FF09C0F2
:1021600083EE93E0DF91CF911F91FF90EF900C945D
:10217000C907DF91CF911F91FF90EF900895E091F3
:10218000AD01F091AE01309739F022E0DC012C93E3
:102190000480F581E02D099408952091AB013091E0
:1021A000AC012817390771F09093AC018093AB0113
:1021B000E091AD01F091AE01309721F00680F781FA
:1021C000E02D099408952091A9013091AA012817C2
:1021D000390771F09093AA018093A901E091AD01B4
:1021E000F091AE01309721F00084F185E02D099443
:1021F000089585B7806885BF85B7806885BF0895D5
:1022000081E008950C94001108950C9404110C942D
:1022100004110C9407110C9404110C940B110C94E0
:1022200004110E94F9100E940F110C940D110E94CC
:10223000B91E0E943B0C0E94361F0C940911CF93CB
:10224000C82F80913C0282FF1EC080FF04C084E042
:1022500094E00E94C90780913C0280FF0CC01F924D
:10226000CF938FEF93E09F938F930E9462080F901C
:102270000F900F900F9080913C0280FF04C08DEF73
:1022800093E00E94C9078C2FCF910C94B0097F92E4
:102290008F929F92AF92BF92CF92DF92EF92FF9276
:1022A0000F931F93CF93DF93CDB7DEB72A970FB667
:1022B000F894DEBF0FBECDBF0E9405110E9404112D
:1022C0000E947E0C0E940211811111C08FEF898340
:1022D0008A831B820E94C21E8160782F9D838C831B
:1022E00049815A816B818D810E94FB114FC040EB67
:1022F000A42E41E0B42E00E010E0702E802F0E944A
:10230000C70B6C01F501819091905F018826992699
:102310008114910431F40F5F1F4F0430110569F7E8
:10232000D5CF80913C0281FD0E94D00B80E0EE244D
:10233000E394F12C94012E213F21232B09F18E836C
:102340007F82CE20DF2081E0CD2809F480E08887DD
:102350000E94C21E8160782F9A8789874E815F8193
:1023600068858A850E94FB11000F111FF801E05556
:10237000FE4F80819181E826F926F182E08206C035
:102380008F5FEE0CFF1C8C30A9F6C5CF0E94672131
:102390000E945E109091AF018917C9F00E945E10F3
:1023A0008093AF012A960FB6F894DEBF0FBECDBF63
:1023B000DF91CF911F910F91FF90EF90DF90CF9021
:1023C000BF90AF909F908F907F900C941F112A9692
:1023D0000FB6F894DEBF0FBECDBFDF91CF911F9136
:1023E0000F91FF90EF90DF90CF90BF90AF909F90B4
:1023F0008F907F900895CF93DF93CDB7DEB72B9763
:102400000FB6F894DEBF0FBECDBF4F8358876987E4
:102410007A878B87DE01119686E0FD0111928A95FD
:10242000E9F785E0FE01379601900D928A95E1F774
:1024300049815A816B817C818D819E810E94B31874
:102440002B960FB6F894DEBF0FBECDBFDF91CF91B4
:102450000895FC01808191810E94871B0895CF938C
:10246000882309F4A9C0C82F8238C1F40E945E10E5
:1024700081FDA2C069E380910001909101010E9459
:10248000101E0E94171C2FEF81EE94E02150804017
:102490009040E1F700C0000069E319C0833801F5FE
:1024A0000E945E1080FD88C063E5809100019091DC
:1024B00001010E94101E0E94171C2FEF81EE94E074
:1024C000215080409040E1F700C0000063E580911A
:1024D0000001909101010E941B1ECF910C94171CCA
:1024E0008438C1F40E945E1082FD66C067E480916A
:1024F0000001909101010E94101E0E94171C2FEFF5
:1025000081EE94E0215080409040E1F700C000004F
:1025100067E4DDCF8CEF8C0F813AF8F48C2F0E94AA
:102520005626811149C06C2F8091000190910101C4
:102530000E946E1D882349F06C2F809100019091BC
:1025400001010E941B1E0E94171C6C2F809100012C
:10255000909101010E94101EC0CF80E28C0F883044
:1025600048F4C77081E001C0880FCA95EAF70E945D
:10257000C91BB3CFEBE5EC0FE33040F4F0E0EC57D0
:10258000FE4F808190E0CF910C94CD10E8E5EC0FE8
:10259000E73150F4F0E0EE0FFF1FEA5AFE4F808162
:1025A0009181CF910C94E310C03F30F08C2F0E94AA
:1025B000DA1FCF910C94C720CF910895882309F496
:1025C00064C0823879F40E945E1081FF5EC069E3C6
:1025D00080910001909101010E94101E0E94171C21
:1025E00069E310C08338B1F40E945E1080FF4DC0D3
:1025F00063E580910001909101010E94101E0E94EC
:10260000171C63E580910001909101010E941B1E3F
:102610000C94171C843879F40E945E1082FF35C038
:1026200067E480910001909101010E94101E0E94B8
:10263000171C67E4E7CF9CEF980F913A10F4682FCE
:10264000E1CF90E2980F983050F4877091E001C08C
:10265000990F8A95EAF7892F0E94CF1BD9CF9BE566
:10266000980F933020F480E090E00C94CD1098E522
:10267000980F973120F480E090E00C94E310803FB5
:1026800020F00E9442200C94C7200895CF93C82FB9
:102690000E942F12C93349F42FEF87EE93E02150A7
:1026A00080409040E1F700C000008C2FCF910C9447
:1026B000DE12882321F00E94C91B0C94171C089578
:1026C000882321F00E94CF1B0C94171C0895CF92F1
:1026D000DF92EF92FF920F931F93CF93DF937C01D2
:1026E000062FC72FFC01158112951F70D281D111C1
:1026F0000E94E91B0E94BF1B882399F0DD2389F00B
:102700008C2F807F803421F080E2800F883048F069
:1027100082E00E94611C0E94BF1B91E0D82ED92646
:1027200001C0D12CCC2EC2948FE0C8228C2D90E019
:10273000FC01EA5AFF4F0C94512F8C2F807FCF70F1
:10274000882311F0C295C07FDD2399F0CC2309F4D2
:102750008DC180E2800F883010F0011104C08C2FF1
:102760000E94C91B03C08C2F0E94DC1B0E94171CF7
:102770007DC1802F0E94DE12CC2309F49CC180E22F
:10278000800F883010F0011104C08C2F0E94CF1BE5
:1027900003C08C2F0E94E21B0E94171C8CC18C2F3F
:1027A000807FCF70803211F0C295C07F002319F076
:1027B0000130C9F022C0DD2371F0112341F0113046
:1027C00031F40E94FC1B8C2B0E94041C74C10E94DB
:1027D000FC1B8C2B1DC0112319F0113009F46BC1A7
:1027E0000E940D1C25C0DD2321F0163008F063C1C6
:1027F0000EC0153008F05FC11BC0DD2361F011234E
:1028000031F0F701858180FF31C18F7085838C2F76
:102810000E94591350C1112359F0093309F037C1EF
:10282000FFEF27EE83E0F15020408040E1F72DC11B
:102830008C2F0E9460133FC18C2F869586958370E4
:1028400019F0813061F037C1DD2321F0802F9C2FFA
:10285000937002C080E090E00E94CD1034C1DD236F
:1028600021F0802F9C2F937002C080E090E00E94A6
:10287000E31029C1802FDD2319F00E94DA1F02C066
:102880000E9442200E94C7201EC18C2F837009F035
:1028900045C0D11114C1402F429546954770440F51
:1028A000440F602F6F70862F90E0A0E0B0E0042E00
:1028B00004C0880F991FAA1FBB1F0A94D2F704FFF8
:1028C00010C00FE010E020E030E004C0000F111F46
:1028D000221F331F4A95D2F7009510952095309509
:1028E00003C000E010E09801C695C695C370BC0116
:1028F000CD01602B712B822B932BC23049F058F401
:10290000C13019F00E94041ADAC00E94F219D7C02F
:102910000E94161AD4C00E94F019D1C0DD2319F00C
:102920008C2F817001C08695882309F4C8C0402F80
:10293000429546954770440F440F602F6F70862F65
:1029400090E0A0E0B0E0042E04C0880F991FAA1FF9
:10295000BB1F0A94D2F704FF10C00FE010E020E084
:1029600030E004C0000F111F221F331F4A95D2F719
:10297000009510952095309503C000E010E0980177
:10298000C695C695C370BC01CD01602B712B822BFF
:10299000932BC23049F058F4C13019F00E94C91A83
:1029A0008EC00E94B71A8BC00E94DB1A88C00E949A
:1029B0002A1A85C0CF70DD2339F08C2F0E94501A5F
:1029C000802F0E9459137BC0802F0E9460138C2F90
:1029D0000E94711A74C0023F01F128F4003F41F0D7
:1029E000013FA1F03FC0033FF9F0043F39F13AC085
:1029F000DD2341F0153008F05EC08C2F8F710E94EE
:102A0000961A59C0163008F056C0F7CFDD2339F0BA
:102A10008C2F8F710E94501A4EC0DD23C9F38C2F6A
:102A20008F710E94711A47C0DD2329F08C2F8F719E
:102A30000E943B1A40C00E94361A3DC0DD2349F077
:102A4000CF718C2F0E94501A63E08C2F0E944C1C77
:102A500032C081E00E94611C123068F182E00E9465
:102A6000611C29C0DD2331F0112391F2802F0E94D7
:102A70002F1221C0112399F2093349F49FEFE7EE99
:102A8000F3E09150E040F040E1F700C00000802FFB
:102A90000E94DE1210C04C2F4F70602FC7010E94A1
:102AA000B9090E9461190FC04C2F4F70602FC701E8
:102AB0000E94BC0908C088EF8C0D843020F40E946D
:102AC0005E100E94B009DD20C9F00E94BB1B80FD92
:102AD00015C0F70112820E94B51B0E94501AC7014F
:102AE0000E949F150E94B51BDF91CF911F910F91FE
:102AF000FF90EF90DF90CF900C94711ADF91CF91FF
:102B00001F910F91FF90EF90DF90CF9008950F935A
:102B10001F93CF93DF93EC01688179818A810E94B2
:102B2000921B8C010E94ED1A0E94DE19B801CE01A1
:102B30000E946713DF91CF911F910F910895CF935A
:102B4000DF93EC01988189812B813C81232B31F02B
:102B50008F3F31F481E09F3F19F403C081E001C051
:102B600080E080FD19C0CE010E944A0981110CC08D
:102B70000E94BF1B882381F08A81882369F082E04C
:102B8000DF91CF910C94611CCE010E948715CE017C
:102B9000DF91CF910C941309DF91CF910895882391
:102BA00021F00E94DC1B0C94171C0895882321F04F
:102BB0000E94E21B0C94171C08950E94E91B0E94BE
:102BC000F91B0E94171C0E947A220E94C72080E0F5
:102BD00090E00E94CD1080E090E00C94E310809192
:102BE0000001909101010E94261E0C94DD150E94A7
:102BF000D91B0C94EF15E92FE295EF704E2F50E0A2
:102C0000FA013297EE30F105B0F4EA59FF4F0C9417
:102C1000512F803F91F018F4883E68F40EC0843F35
:102C200051F40BC0883E48F0813F29F406C093FB65
:102C3000882780F9089580E0089581E008950E9432
:102C4000871B0E94FB150895CF93DF9300D000D01F
:102C50001F92CDB7DEB70F900F900F900F900F908F
:102C6000DF91CF910895CF93DF9300D000D000D0B3
:102C7000CDB7DEB726960FB6F894DEBF0FBECDBF38
:102C8000DF91CF9108951F93CF93DF93C091B90146
:102C900016E08091BA01C81799F0D0E01C9FF001AE
:102CA0001D9FF00D1124E554FE4F4081518162813A
:102CB0007381848195810E9433162196C770E9CF74
:102CC000DF91CF911F9108954091EB015091EC015C
:102CD0006091ED017091EE018091EF019091F00112
:102CE0000C9433160F931F93CF93DF938091F001D1
:102CF00082958F7009F05DC08091ED01882309F401
:102D000058C08091B9011091BA016091EB017091A6
:102D1000EC01C091EE01D091EF0191E06F3F09F01D
:102D200090E0292F06E0811709F443C0209721F095
:102D30007F3F21F030E003C031E001C0322F90E04E
:102D400030FD34C0089FF001099FF00D1124DF0110
:102D5000A554BE4F11963C911197371327C03C9153
:102D6000361324C012963C91129731111FC013964E
:102D70004D915C9114974C1B5D0B483C5105B0F490
:102D80008091F0018F7080618093F001E054FE4FDC
:102D900080818F70806180838BEE91E00E949F150F
:102DA000DF91CF911F910F910C944316019687707C
:102DB000BACFDF91CF911F910F9108959F92AF925B
:102DC000BF92CF92DF92EF92FF920F931F93CF9318
:102DD000DF93CDB7DEB761970FB6F894DEBF0FBEB5
:102DE000CDBF8C0185E0F801DE011D9601900D92AA
:102DF0008A95E1F7F80140815181E2809091EB01E1
:102E00006091EC012091EE013091EF012115310527
:102E100031F06F3F31F481E09F3F19F403C081E04E
:102E200001C080E0F82FF1709F2E80FD46C1F801AF
:102E3000A380B4808BEEC82E81E0D82EF090ED01F7
:102E4000F501E21BF30BFF2009F4DFC08091F001D4
:102E5000E83CF10508F09BC0282F207F09F052C004
:102E6000561313C0491311C0FE2CE1100EC08F7011
:102E700080618093F0010E946416C6010E949F1534
:102E80008091F001F801858358C1AB2831F05F3F94
:102E900031F481E04F3F19F403C081E001C080E0CC
:102EA00080FD03C081E08E2502C080E090E0F82F15
:102EB000F170FF2E80FF1CC08091B9012091BA01F2
:102EC00036E0821709F417C190E0389FF001399F6E
:102ED000F00D1124E554FE4F6181561306C0608148
:102EE000461303C06281E61203C001968770E9CFE2
:102EF000FE2CEE2009F421C18091F00181608093C5
:102F0000F0015AC0561306C0491304C0E11002C0B4
:102F1000F8019FC04D875E878D859E850E941F1694
:102F2000882379F1EE2069F12091F001822F8295BA
:102F30008F7090E0029774F08091EB019091EC011A
:102F400098878F831986BB86AA862C87CE01079621
:102F50000E949F1586E0F801ABEEB1E001900D9262
:102F60008A95E1F70E9472160E9464160DC05617EA
:102F700029F14D875E878D859E850E941F168111E0
:102F80002CC0C8010E949F15FF24F394D6C0282F9F
:102F9000207F69F77A2DB98AA88A6E2D89890E94C7
:102FA00024168BEE91E00E949F1586E0F6011192A7
:102FB0008A95E9F70E946416F12CBFC04913D9CF56
:102FC000E110D7CFF8018583C8010E949F1586E0E4
:102FD000F60111928A95E9F7B0C0EE2091F22091A6
:102FE000F001822F82958F7090E002970CF4B2CF9F
:102FF0008091EB019091EC019A8389831B82BD82C1
:10300000AC822E83CE010196A3CFE83CF10508F0F7
:1030100047C0FE2CEE2009F4B4CF561330C049133C
:103020002EC02091F00120FD21C0822F82958F704B
:10303000482F50E041155105C9F0F80125834F3064
:10304000510541F08F5F982F9295907F822F8F705E
:10305000892B8583C8010E949F1586E0F801ABEE9D
:10306000B1E001900D928A95E1F742C086E0F80147
:10307000ABEEB1E001900D928A95E1F75EC04D870D
:103080005E878D859E850E941F16811163CF80917A
:10309000F00181608093F001C8010E949F154DC02E
:1030A0007A2DB98AA88A6E2D89890E94241686E015
:1030B000F60111928A95E9F71BC0EE2009F461CF61
:1030C0004D875E878D859E850E941F16F82E88236A
:1030D00009F457CF86E0F801ABEEB1E001900D9214
:1030E0008A95E1F78BEE91E00E9429120E947216F8
:1030F0000E94641622C04D875E878D859E850E9442
:10310000871B292F22952F70223028F49F7039F0C9
:10311000811105C00BC0243028F49F7049F4805EF3
:10312000883020F0C8010E949F159F2CF92C05C003
:10313000F8019581907F99F7F9CF8F2D61960FB6A1
:10314000F894DEBF0FBECDBFDF91CF911F910F91DD
:10315000FF90EF90DF90CF90BF90AF909F90089539
:1031600088EC90E008951F93CF93DF93CDB7DEB73F
:103170002C970FB6F894DEBF0FBECDBF4F83588794
:1031800069877A878B879C87CE0107960E94DE1617
:103190008823D1F09F8188852A853B85232B31F0B8
:1031A0008F3F31F481E09F3F19F403C081E001C0FB
:1031B00080E080FD47C04F81588569857A858B8581
:1031C0009C850E9433163EC086E0FE013796DE01E4
:1031D000119601900D928A95E1F7FF81E8856A8545
:1031E0007B856115710531F0EF3F31F481E0FF3FE0
:1031F00019F403C081E001C080E080FD23C020916C
:10320000BA0130E0C9010196877099274091B90150
:1032100050E084179507F1F1F983EA837D836C838D
:1032200096E0929FD001939FB00D1124A554BE4FFC
:10323000FE01319601900D929A95E1F78093BA01C3
:103240000E94431616E08091B9019091BA01891746
:1032500071F1189FC001112485549E4F0E94DE1603
:10326000882329F1E091B9011E9FF0011124E55452
:10327000FE4F4081518162817381848195810E94DA
:1032800033168091B90190E0019687709927809359
:10329000B901D9CF0E94F7151092BA011092B90165
:1032A000EBEEF1E086E0DF011D928A95E9F72C96BE
:1032B0000FB6F894DEBF0FBECDBFDF91CF911F9147
:1032C0000895EF92FF920F931F93CF93DF938C019A
:1032D000892B09F46CC0F12CEE24E394E8012196CB
:1032E000F8018491843740F4843008F051C0813073
:1032F00081F0823019F15BC0853709F444C0A8F130
:103300009CE7980F903708F052C08F770E94DE122A
:1033100041C00E5F1F4FFE01849190E2980F9830DC
:1033200050F48770FE2D01C0FF0F8A95EAF78F2FAA
:103330000E94EC1B14C00E942F122DC00E5F1F4F65
:10334000FE01849190E2980F983060F48770FE2D12
:1033500001C0FF0F8A95EAF78F2F0E94F21B0E948F
:10336000171C19C00E94DE1216C00E5F1F4FFE010F
:10337000C491CC2381F08FE99FE00197F1F700C061
:103380000000C150F6CF0E5F1F4FFE01F49003C046
:103390000E942F128E018F2D882309F49FCFEFE911
:1033A000FFE03197F1F700C000008150F5CFDF91C9
:1033B000CF911F910F91FF90EF9008950895089578
:1033C0000C94DF190C94E0190E94E2196093130227
:1033D0007093140280931502909316020C94DD15DD
:1033E0000C94E4190F931F9300911302109114028F
:1033F0002091150230911602602B712B822B932B9A
:103400001F910F910C94E4190F931F9300911302D5
:10341000109114022091150230911602602371233D
:10342000822393231F910F910C94E4190F931F9300
:10343000009113021091140220911502309116028E
:1034400060277127822793271F910F910C94E4190D
:103450000C94DF190E94281A60930F0270931002D7
:1034600080931102909312020C94DD1560E070E0DD
:10347000CB010C942A1A0F931F9341E050E060E0B7
:1034800070E08A019B0104C0000F111F221F331F2F
:103490008A95D2F7C901B8011F910F910C942A1A8D
:1034A0000F931F9341E050E060E070E004C0440FD0
:1034B000551F661F771F8A95D2F780910F02909152
:1034C0001002A0911102B09112028A019B01082BF7
:1034D000192B2A2B3B2BC901B8011F910F910C947A
:1034E0002A1A0F931F9341E050E060E070E004C09F
:1034F000440F551F661F771F8A95D2F74095509548
:103500006095709580910F0290911002A091110228
:10351000B09112028A019B01082319232A233B231D
:10352000C901B8011F910F910C942A1A0F931F9390
:1035300041E050E060E070E004C0440F551F661F9A
:10354000771F8A95D2F780910F0290911002A09177
:103550001102B09112028A019B01082719272A271C
:103560003B27C901B8011F910F910C942A1A0F93A0
:103570001F9300910F0210911002209111023091BF
:103580001202602B712B822B932B1F910F910C94A5
:103590002A1A0F931F9300910F021091100220918D
:1035A00011023091120260237123822393231F9111
:1035B0000F910C942A1A0F931F9300910F021091F0
:1035C0001002209111023091120260277127822788
:1035D00093271F910F910C942A1A08952CE0929F23
:1035E000800D1124E82FE695E695E695877051E069
:1035F00001C0550F8A95EAF785E0E89FF001112494
:10360000EF50FE4F20E030E070E04081CB01022E11
:1036100002C0969587950A94E2F781708195842778
:103620008523842781932F5F3F4F2530310569F72C
:1036300008952CE0929F800D1124682F6695669561
:103640006695982F977085E0689FB001112440E03F
:1036500050E080E0FB01E40FF51FEF50FE4F2081AA
:1036600030E0092E02C0369527950A94E2F72170C2
:103670003327042E01C0220F0A94EAF7822B4F5FF2
:103680005F4F4530510531F70895BF92CF92DF92D9
:10369000EF92FF920F931F93CF93DF938C01C09013
:1036A0000F02D0901002E0901102F090120280916F
:1036B000130290911402A0911502B0911602C82A2B
:1036C000D92AEA2AFB2ACFE1D0E0D701C6010C2E85
:1036D00004C0B695A795979587950A94D2F780FD73
:1036E00004C0219790F7B12C07C0BC2EB8018C2FD5
:1036F0000E94D8090197A9F38B2DDF91CF911F91DB
:103700000F91FF90EF90DF90CF90BF900895CF93EF
:10371000DF93EC010E94451BBE010E94D809DF9196
:10372000CF9108951F93CF93DF93EB019091B80150
:10373000992321F0CB010E94871B13C0882349F0F5
:10374000CB010E94451B182F682FCE010E94EE1A54
:1037500004C0CB010E94191B182FBE01812F0E94AB
:10376000D809DF91CF911F91089580911702859517
:103770008595859508958091170287700895909199
:103780001702977081E009F480E0089580913B0270
:10379000089590913B02892B80933B020895809578
:1037A00090913B02892380933B02089580933B02D2
:1037B000089510923B02089590913A02892B8093CC
:1037C0003A020895809590913A02892380933A02B3
:1037D000089510923A02089590913902892B8093AE
:1037E0003902089580959091390289238093390296
:1037F000089510923902089580911802089508954D
:103800000C94FF1B0C94001C90911802981721F047
:10381000809318020C94021C08958091180288234A
:1038200029F01092180280E00C94021C0895E09197
:103830000001F091010180913B028083E091000141
:10384000F0910101908180913A02892B8083E0916F
:103850000001F0910101908180913902892B8083D0
:1038600080911802882381F0E0910001F09101011C
:103870009081892B808380910001909101010E94A9
:10388000581D81110E940D1C809100019091010131
:103890000C946A100C94FF1B98E0899F90011124EE
:1038A000262B209317020E94501A809117028595AB
:1038B000859585950C944A1C1092170280E00C9413
:1038C0004A1C209117028095822380931702982F1B
:1038D000977079F430E0482F082E000C550B241710
:1038E000350739F08595859585950E94711A0C9458
:1038F0005C1C08959093A1018093A0010895829586
:10390000982F937344E0949F900111248C7C8695AA
:103910008695282B822F8575880F2A7A2695822BEB
:103920000895CF93DF93D92F0E947F1CC82F8D2F2E
:103930000E947F1C2C2F30E0322F2227A901482B18
:10394000CA01DF91CF9108956FEF7FEF80E090E0A3
:103950000C94972F80E090E00E94732F21E08C3E22
:103960009E4F09F020E0822F089582E090E00C94B1
:103970006B2F83E090E00C946B2FCF9384E090E06A
:103980000E946B2FC82F81E290E00E946B2F2C2F9A
:1039900030E0A901582BCA01CF910895CF93C92FC8
:1039A000682F84E090E00E94792F6C2F81E290E0F4
:1039B000CF910C94792FAB01BC018FE090E00C9477
:1039C0008B2FAB01BC0183E190E00C948B2F60E066
:1039D00070E0CB010C94E11C60E070E0CB010E9430
:1039E000DB1C0C94E71C6CEE7EEF80E090E00E9404
:1039F000972F60E082E090E00E94792F60E083E002
:103A000090E00E94792F10921302109214021092EB
:103A100015021092160260E084E090E00E94792F77
:103A200060E081E290E00E94792F60E085E090E024
:103A30000E94792F60E086E090E00E94792F6FEF7E
:103A400087E090E00E94792F40E050E0BA0188E0E2
:103A500090E00E948B2F60E08DE090E00E94792F33
:103A600040E050E0BA0188E190E00E948B2F60E0D6
:103A700087E190E00E94792F40E050E0BA018CE1AC
:103A800090E00E948B2F60E080E290E00E94792F0E
:103A900040E050E0BA0188E190E00E948B2F0C9446
:103AA000EC1C0C94F31C682F8EE090E00C94792FA2
:103AB000FC01329680911401882331F080918B02B1
:103AC00087FF02C09EE101C096E080E0915028F09F
:103AD00021912223D9F38F5FF9CF0895662351F105
:103AE000209114012223E9F020918B0227FF19C0B5
:103AF000462F4695469546954E31E0F4677021E095
:103B000030E002C0220F331F6A95E2F7FC01E40F98
:103B1000F11D828190E02823392381E0232B69F471
:103B200009C0FC01329608962191621729F0E81726
:103B3000F907D1F780E0089581E008959C01FC0128
:103B400032969FEF80E04191461789F09F3F19F42C
:103B5000411101C0982F8F5F8630A9F79F3F39F040
:103B6000F901E90FF11D97FDFA9562830895089513
:103B70009C012A5F3F4FFC014281461301C0128223
:103B8000019682179307B9F70895262F2695269553
:103B900026952E3170F4FC01E20FF11D677021E0D3
:103BA00030E001C0220F6A95EAF78281282B228338
:103BB000089580913C0280FF0CC01F926F9385E3B3
:103BC00094E09F938F930E9462080F900F900F9044
:103BD0000F900895262F2695269526952E3178F458
:103BE000FC01E20FF11D677021E030E001C0220FFF
:103BF0006A95EAF72095828128232283089580918F
:103C00003C0280FF0CC01F926F9387E194E09F936A
:103C10008F930E9462080F900F900F900F9008955D
:103C200020911401222329F020918B0227FD0C946E
:103C3000C51D0C949E1D20911401222329F0209172
:103C40008B0227FD0C94EA1D0C94B81D20911401E1
:103C5000FC013296222331F080918B0287FF02C053
:103C60008EE101C086E0DF011D928A95E9F7089593
:103C700008950C94381E0C94381ECF930E943B1E5E
:103C80000E947E0C0E94391EC0E08C2F0E94C70B40
:103C9000892B29F4CF5FC430C1F780E001C081E0F7
:103CA000CF9108950C94381E0C94521E0E94541EFD
:103CB00080919102843049F110923D0220E488E124
:103CC00090E00FB6F894A895809360000FBE209303
:103CD000600080E00E94B0090E94541E83B7817F7B
:103CE000846083BF83B7816083BF7894889583B7EE
:103CF0008E7F83BF0FB6F894A8958091600088618D
:103D000080936000109260000FBE08950C94381EDE
:103D10000E94F7150E945E100E94B0090C94861E46
:103D20001F920F920FB60F9211248F939F93AF9310
:103D3000BF9380913D02811113C0809187029091C1
:103D40008802A0918902B0918A024196A11DB11DFD
:103D50008093870290938802A0938902B0938A028D
:103D6000BF91AF919F918F910F900FBE0F901F90B9
:103D7000189582E084BD93E095BD9AEF97BD80933E
:103D80006E0008952FB7F894809187029091880271
:103D9000A0918902B0918A022FBF08952FB7F8949D
:103DA00060918702709188028091890290918A02C5
:103DB0002FBF08959C014FB7F8948091870290918E
:103DC0008802A0918902B0918A024FBF821B930B97
:103DD000089578941F920F920FB60F9211248F932B
:103DE0009F93AF93BF938091870290918802A09197
:103DF0008902B0918A020196A11DB11D80938702AC
:103E000090938802A0938902B0938A02BF91AF91E8
:103E10009F918F910F900FBE0F901F90189587E77D
:103E200097E790930108809300089AE088E10FB625
:103E3000F894A895809360000FBE90936000FFCF28
:103E40000C94A41C0E947E0C8FE39CE90197F1F76F
:103E500000C000000E947E0C80E00E94C70B80FF23
:103E600004C00E94201F0C940F1F08950E94AA1CDA
:103E7000811102C00E94511D0E94B51C80933C021A
:103E80000E94BD1C90938C0280938B020E94B91CEF
:103E9000682F70E080E090E00E94F01960910F02BE
:103EA0007091100280911102909112020C94281AC4
:103EB0008091440280FF0BC06091070185E0689FFC
:103EC000B001112475956795759567952BC081FF95
:103ED00009C06091070185E0689FB00111247595C4
:103EE000679520C082FF07C06091070185E0689F49
:103EF000B001112417C0909143029923D1F0609131
:103F00000601961788F72091070185E0289F900108
:103F10001124929FA001939F500D112470E0CA01BB
:103F20000E943D2F6038710540F46115710519F448
:103F300006C065E070E0862F08958FE7089581E060
:103F400008958091440280FF08C06091030170E0F1
:103F5000759567957595679521C081FF06C060913D
:103F6000030170E07595679519C082FF04C06091E8
:103F7000030170E010C090914202992399F0609182
:103F800002019617A0F780910301899FC0011124B7
:103F900070E00E943D2F6038710540F46115710595
:103FA00019F406C061E070E0862F08958FE7089548
:103FB00081E00895803F21F40E94581F819504C03C
:103FC000813F29F40E94581F809348020895823F40
:103FD00021F40E94581F819504C0833F29F40E9458
:103FE000581F809347020895893F19F40E94A11F2A
:103FF00005C08A3F31F40E94A11F81958093490238
:1040000008958B3F21F40E94A11F819504C08C3F2D
:1040100029F40E94A11F80934A020895843F21F44D
:1040200080914602816017C0853F21F4809146024D
:10403000826011C0863F21F48091460284600BC0EB
:10404000873F21F480914602886005C0883F31F4A3
:104050008091460280618093460208958D3F21F44D
:104060008091440281600BC08E3F21F48091440214
:10407000826005C08F3F29F4809144028460809360
:1040800044020895803F39F48091480287FF6AC056
:104090001092480267C0813F29F4809148021816A7
:1040A000BCF360C090914702823F29F497FF5AC049
:1040B0001092470257C0833F19F41916CCF352C02F
:1040C00090914902893F31F419160CF04BC01092BF
:1040D000490248C08A3F19F497FF44C0F8CF8B3F8C
:1040E00039F480914A0287FF3DC010924A023AC0DB
:1040F0008C3F29F480914A021816BCF333C0843FE8
:1041000021F4809146028E7F17C0853F21F4809173
:1041100046028D7F11C0863F21F4809146028B7F3D
:104120000BC0873F21F480914602877F05C0883FFE
:1041300031F4809146028F7E8093460213C08D3FFA
:1041400021F4809144028E7F0BC08E3F21F4809138
:1041500044028D7F05C08F3F29F4809144028B7FFC
:104160008093440280914702811106C080914802E9
:10417000811102C01092430280914902811106C050
:1041800080914A02811102C01092420208958091EA
:104190003C0283FF7EC08AE794E00E94C9078091B9
:1041A00046021F928F9385E794E09F938F930E941E
:1041B000620883E794E00E94C90780914702282F94
:1041C000082E000C330B3F938F9380E794E09F936E
:1041D0008F930E9462088EE694E00E94C907809146
:1041E0004802282F082E000C330B3F938F938BE649
:1041F00094E09F938F930E94620889E694E00E9466
:10420000C90780914902282F082E000C330B3F93D9
:104210008F9386E694E09F938F930E94620884E6D2
:1042200094E00E94C90780914A02282F082E000CB2
:10423000330B3F938F9381E694E09F938F930E947B
:1042400062088EE594E00E94C907809143021F92A4
:104250008F938BE594E09F938F930E94620889E58A
:1042600094E00E94C907809144021F928F9386E5D3
:1042700094E09F938F930E94620883E594E00E94EC
:10428000C9078DB79EB74C960FB6F8949EBF0FBE68
:104290008DBF0E94C21E20914702211104C02091AF
:1042A0004802222321F09093410280934002209102
:1042B0004902211104C020914A02222321F0909347
:1042C0003F0280933E0285E492E00C94BF10EF928F
:1042D000FF920F931F93CF93DF9300D000D000D0B5
:1042E000CDB7DEB786E0E5E4F2E0DE01119601909D
:1042F0000D928A95E1F7E0904702F0904802009114
:10430000490210914A0210924702109248021092FC
:10431000490210924A02E11003C0FF2009F45DC077
:1043200080914002909141020E94DA1EAC0190916E
:104330004302992339F02091080130E02417350712
:1043400058F04BC0209109018AE0289F9001112468
:104350002417350718F041C09F3F19F09F5F9093D5
:104360004302EE2061F00E94581F1E1414F09FEFCC
:1043700001C091E0989F902D112490934702FF2057
:1043800061F00E94581F1F1414F09FEF01C091E0CC
:10439000989F902D11249093480230914702332327
:1043A000E1F0209148022223C1F045EB3403C00123
:1043B0001124992319F09093470203C081E0809360
:1043C000470235EB2303C0011124992319F0909380
:1043D000480203C081E080934802011103C0112309
:1043E00009F45DC080913E0290913F020E94DA1E66
:1043F000AC0190914202992339F02091040130E000
:104400002417350758F04BC0209105018AE0289FFA
:10441000900111242417350718F041C09F3F19F06F
:104420009F5F90934202002361F00E94A11F10162B
:1044300014F09FEF01C091E0989F902D112490936C
:104440004902112361F00E94A11F111614F09FEF81
:1044500001C091E0989F902D112490934A023091D1
:1044600049023323E1F020914A022223C1F045EBB7
:104470003403C0011124992319F09093490203C019
:1044800081E08093490235EB2303C0011124992375
:1044900019F090934A0203C081E080934A02809110
:1044A000470281110BC080914802811107C08091A1
:1044B0004902811103C080914A0281110E94C720E4
:1044C000EB82FC820D831E8386E0FE013196A5E41B
:1044D000B2E001900D928A95E1F726960FB6F89416
:1044E000DEBF0FBECDBFDF91CF911F910F91FF9027
:1044F000EF900895E5E4F2E086E0DF011D928A95F1
:10450000E9F7109243021092420210924402089579
:104510008DE996E00E94C9071F9281E08F931F9258
:1045200085E08F938FE496E09F938F930E946208BB
:104530000F900F900F900F900F900F900895833071
:10454000E9F128F4813061F0823009F10895853075
:1045500009F462C008F449C0863009F474C00895B3
:1045600080910901262F30E0280F311D2F3F3105A2
:1045700024F4680F6093090103C08FEF8093090151
:10458000809109011F928F9388E895E072C0809115
:104590000801262F30E0280F311D2F3F310524F46C
:1045A000680F6093080103C08FEF8093080180912A
:1045B00008011F928F9386E795E05BC08091070109
:1045C000262F30E0280F311D2F3F310524F4680FCE
:1045D0006093070103C08FEF80930701809107016B
:1045E0001F928F9383E695E044C080910601262FA9
:1045F00030E0280F311D2F3F310524F4680F609300
:10460000060103C08FEF80930601809106011F927F
:104610008F938EE495E02DC080910301262F30E02A
:10462000280F311D2F3F310524F4680F60930301DB
:1046300003C08FEF80930301809103011F928F933A
:1046400085E395E016C080910201262F30E0280F07
:10465000311D2F3F310524F4680F6093020103C020
:104660008FEF80930201809102011F928F938AE164
:1046700095E09F938F930E9462080F900F900F9088
:104680000F900895833081F128F4813059F0823001
:10469000D1F00895853009F449C0B8F1863009F4A5
:1046A00056C0089580910901681720F4861B8093F5
:1046B000090102C010920901809109011F928F9394
:1046C0008BE095E054C080910801681720F4861BA8
:1046D0008093080102C010920801809108011F9286
:1046E0008F9389EF94E043C080910701681720F40D
:1046F000861B8093070102C0109207018091070179
:104700001F928F9386EE94E032C080910601681765
:1047100020F4861B8093060102C01092060180914E
:1047200006011F928F9381ED94E021C080910301D7
:10473000681720F4861B8093030102C010920301C6
:10474000809103011F928F9388EB94E010C08091B9
:104750000201681720F4861B8093020102C01092A8
:104760000201809102011F928F938DE994E09F9343
:104770008F930E9462080F900F900F900F900895F2
:10478000CF93C82F1F928F9382EA97E09F938F93C6
:104790000E94620881E090E0A0E0B0E0BC01CD01A1
:1047A00004C0660F771F881F991FCA95D2F70E9411
:1047B000F0190F900F900F900F90CF910C94F71568
:1047C000CF93DF93482F50E0FA013597EF33F1058F
:1047D00008F054C2EC58FF4F0C94512F8CEF9CE022
:1047E0000E94C90788E39CE00E94C9070E94B91C87
:1047F0001F928F9385E39CE09F938F930E946208A2
:1048000083E39CE00E94C9070E94B51CC82F80E288
:104810009CE00E94C9071F92CF938BE19CE09F937D
:104820008F930E94620889E19CE00E94C9078FE093
:104830009CE00E94C9078C2F81701F928F938CE09F
:104840009CE09F938F930E9462088AE09CE00E9404
:10485000C90780E09CE00E94C907C1FB882780F956
:104860001F928F938DEF9BE09F938F930E9462081E
:104870008BEF9BE00E94C9078FEE9BE00E94C90767
:10488000C2FB882780F91F928F938CEE9BE09F9349
:104890008F930E9462088AEE9BE00E94C90781EE16
:1048A0009BE00E94C907C3FBCC27C0F91F92CF939E
:1048B0008EED9BE09F938F930E9462088CED9BE0AE
:1048C0000E94C9070E94BD1CEC0188EC9BE00E947D
:1048D000C907DF93CF9383EC9BE09F938F930E9454
:1048E000620881EC9BE00E94C90788EA9BE00E9475
:1048F000C9078C2F81701F928F9385EA9BE09F934D
:104900008F930E9462088DB79EB780960FB6F89479
:104910009EBF0FBE8DBF83EA9BE00E94C9078CE853
:104920009BE00E94C907C1FB882780F91F928F93E3
:1049300089E89BE09F938F930E94620887E89BE041
:104940000E94C90785E79BE00E94C9078D2F8170EF
:104950001F928F9382E79BE09F938F930E94620840
:1049600080E79BE00E94C9078EE59BE00E94C90793
:10497000D695D1701F92DF938BE59BE09F938F9329
:104980000E94620889E59BE00E94C90787E49BE0DA
:104990000E94C907C2FB882780F91F928F9384E485
:1049A0009BE09F938F930E94620882E49BE00E94A9
:1049B000C90780E39BE00E94C907C3FB882780F9F1
:1049C0001F928F938DE29BE09F938F930E946208CA
:1049D0008BE29BE00E94C90781E29BE00E94C9072D
:1049E000C4FB882780F91F928F938EE19BE09F93F1
:1049F0008F930E9462088CE19BE00E94C9078AE0C5
:104A00009BE00E94C907C5FB882780F91F928F93FE
:104A100087E09BE09F938F930E94620885E09BE074
:104A20000E94C90789EE9AE00E94C907C6FB882741
:104A300080F91F928F9386EE9AE09F938F930E9446
:104A400062088DB79EB780960FB6F8949EBF0FBED2
:104A50008DBF84EE9AE00E94C9078CED9AE00E9417
:104A6000C907C7FBCC27C0F91F92CF9389ED9AE005
:104A70009F938F930E94620887ED9AE00E94C90776
:104A80000F900F900F900F9006C08BEE9CE00E944D
:104A9000C9070E94511DC1E0F6C085E299E074C0CB
:104AA00080913C02817F8E7F80933C028EEF98E064
:104AB0000E94C90787EE9CE00E94C90781E08093AD
:104AC0004C02E9CF8BEC9CE00E94C9070E943B0995
:104AD000E2CF80913C02C82FC095C170C0FB80F925
:104AE00080933C02CC2319F08FEB9CE0B9C082EBA1
:104AF0009CE00E94C90780913C02897F877F809358
:104B00003C02C9CF90913C0291FBCC27C0F981E0D7
:104B1000C827892FC0FB81F980933C02CC2319F070
:104B200085EA9CE027C087E99CE02EC090913C027A
:104B300092FBCC27C0F981E0C827892FC0FB82F9FE
:104B400080933C02CC2319F088E89CE013C088E7EE
:104B50009CE01AC090913C0293FBCC27C0F981E005
:104B6000C827892FC0FB83F980933C02CC2351F0E6
:104B70008CE69CE00E94C90780913C028160809392
:104B80003C0281C08FE59CE00E94C90784CF8FEE74
:104B900098E00E94C90786EB98E00E94C9078EE85A
:104BA00098E00E94C90783E598E00E94C90788E25F
:104BB00098E0EACF8AE198E00E94C9070E945E105F
:104BC0001F928F9380E098E09F938F930E946208DA
:104BD000809114011F928F9389EE97E09F938F939A
:104BE0000E946208809171021F928F9386ED97E078
:104BF0009F938F930E94620880918B0287FB882786
:104C000080F91F928F938EEB97E09F938F930E9472
:104C100062080E94CE1E9F938F937F936F9387EAC3
:104C200097E09F938F930E9462088DB79EB7469638
:104C30000FB6F8949EBF0FBE8DBF2DCF0E94F71503
:104C400090918B0297FBCC27C0F981E0C827892F70
:104C5000C0FB87F980938B02CC2329F085E59CE08B
:104C60000E94C90710C08AE49CE08ECF895303C01C
:104C70008D5101C080E00E94C0230DCF88E49CE0EC
:104C80000E94C907C0E08C2FDF91CF91089580E08A
:104C900008950C9447268E518A3030F4E82FF0E0C6
:104CA000E957FE4F8081089580E00895CF93C82F83
:104CB00080914C02813059F020F0823009F445C0D7
:104CC00039C10E94C61B823209F036C104C00E945D
:104CD000C61B823261F48C2F0E944926811104C0C8
:104CE0008C2F0E94E0232FC081E090E02CC08C2FFD
:104CF0000E944726811126C0C431E1F070F4CB3008
:104D000081F0C031D1F40E9488228AE997E00E94A4
:104D1000C90782E080934C0215C0C93259F0C833EC
:104D200061F48EEF98E00E94C9078EE997E00E9437
:104D3000C90708C010924C0201C188E997E00E949F
:104D4000C907FCC081E08170FBC0C43228F5CE31B8
:104D500008F0C1C0CB30A1F1D0F4C73009F0D0C009
:104D60008EE18093090182E3809308018AE08093B9
:104D7000070184E18093060188E08093030188E2C3
:104D8000809302018EE396E00E94C907BCC0C33144
:104D900049F1C431C1F0B4C0CB3409F4A6C028F441
:104DA000C93289F0C83361F0ABC0C13509F49BC08A
:104DB000C23509F496C0CE3409F0A2C06AE09BC0A7
:104DC0000E948822A0C080914B02882319F0109283
:104DD0004B0299C08BE496E00E94C90781E0809362
:104DE0004C02AEC085E296E00E94C90783E196E0DE
:104DF0000E94C907809109011F928F9380E196E07C
:104E00009F938F930E9462088EE096E00E94C907EC
:104E10008CEF95E00E94C907809108011F928F9343
:104E200089EF95E09F938F930E94620887EF95E04A
:104E30000E94C90788EE95E00E94C907809107018A
:104E40001F928F9385EE95E09F938F930E94620847
:104E500083EE95E00E94C90782ED95E00E94C907A4
:104E6000809106011F928F938FEC95E09F938F9313
:104E70000E9462088DEC95E00E94C90788EB95E0DE
:104E80000E94C907809103011F928F9385EB95E0E3
:104E90009F938F930E94620883EB95E00E94C9075D
:104EA0008CE995E00E94C907809102011F928F93BF
:104EB00089E995E09F938F930E94620887E995E0C6
:104EC0000E94C9078DB79EB748960FB6F8949EBF4B
:104ED0000FBE8DBF18C08C2F0E944B2680934B02B3
:104EE00012C061E003C061E006C06AE080914B023D
:104EF0000E949F2208C080914B020E94422303C05F
:104F00008CE396E013C080914B02882369F01F92D6
:104F10008F9386E396E09F938F930E9462080F9091
:104F20000F900F900F9004C083E396E00E94C90792
:104F300081E006C010924C0280E002C080E003CF06
:104F4000CF9108958091700208959FB7F8941092C0
:104F50004F029FBF90919102943009F057C09091F9
:104F6000E9009F703091EC00232F217030FD20E884
:104F7000922B23E02093E9002091EB0020FF43C017
:104F80002091EE0027FF3FC020914D02222321F007
:104F90002091E80025FF37C010924D0226E03091A5
:104FA000E80035FD15C030919102343061F5309143
:104FB000EB0035FD28C0215021F481E080934D02A3
:104FC00022C0EFE9FFE03197F1F700C00000E7CF22
:104FD0008093F1008091E80085FD0AC08091E8008F
:104FE00080FFFCCF8091E8008E778093E80006C0B8
:104FF0008FB7F89421E020934F028FBF9F7090935A
:10500000E90080E008959F709093E9008FEF089584
:10501000CF93DF9300D01F92CDB7DEB7909191026E
:10502000943019F589837B836A8382E08093E90059
:105030008FEF9091E800815095FD06C095ED9A950F
:10504000F1F700008111F5CF8091E80085FF0DC0D8
:1050500040E050E063E070E0CE0101960E94942AA7
:105060008091E8008E778093E8000F900F900F906A
:10507000DF91CF910895BC0184E00C940828BC0115
:1050800083E00C94082822E02093E9002FEF309170
:10509000E800215035FD06C035ED3A95F1F70000E6
:1050A0002111F5CF2091E80025FF0BC040E050E032
:1050B00066E070E00E94942A8091E8008E778093E9
:1050C000E8000895CF93DF9320911401222339F053
:1050D00020918B0227FF03C060E222E002C068E05B
:1050E00021E02093E9002FEF3091E800215035FDB9
:1050F00006C035ED3A95F1F700002111F5CF20916A
:10510000E80025FF1DC0EC0180911401811105C04C
:1051100040E050E068E070E003C070E040E050E044
:10512000CE010E94942A8091E8008E778093E80057
:1051300080E2FE01A0E5B2E001900D928A95E1F7D0
:10514000DF91CF9108958CE29DE00E94C907809184
:105150009002811109C00E94252C0E94822C80910E
:10516000E20084608093E200089588E29DE00E945E
:10517000C90710929002089584E29DE00C94C9073B
:1051800080E29DE00C94C9078CE19DE00E94C90774
:105190000C94881E20914E022F5F822F62E30E94A2
:1051A000312F992319F020934E02089510924E0248
:1051B00080914F02882371F180919102843041F5F2
:1051C0008091E9008F702091EC00922F917020FD6A
:1051D00090E8892B93E09093E9009091EB0090FF89
:1051E00014C09091EE0097FF10C09091E80095FFD9
:1051F00003C01092F100F9CF9091E80090FF05C034
:105200009091E8009E779093E8008F708093E9007A
:1052100010924F02089542E061EC81E00E949E2BC3
:1052200042E261EC82E00E949E2B42E261EC83E06C
:105230000C949E2B80919302833009F460C030F46B
:10524000813071F0823009F499C008958A3009F4F0
:1052500085C08B3009F46BC0893009F0A7C020C02D
:1052600080919202813A09F0A1C08091E800877F85
:105270008093E8008091960290919702892B21F407
:1052800060E280E592E003C060E080E090E070E0E2
:105290000E94DF2A8091E8008B778093E8000895D0
:1052A00080919202813209F081C0809196029091A2
:1052B0009702029708F07AC08091E800877F809378
:1052C000E8008091E80082FD05C080919102811183
:1052D000F8CF6CC02091F3008091F20090E0922B07
:1052E000029729F48091F1008B7F813021F4809125
:1052F000F100809370028091E8008B7753C0809119
:105300009202813A09F052C08091960290919702E0
:10531000892B09F04BC08091E800877F8093E800DB
:105320008091E80080FFFCCF8091140136C080910D
:1053300092028132D9F58091960290919702892B41
:10534000A9F58091E800877F8093E8000E94D32B25
:1053500080919402809314010C94F715809192022D
:10536000813221F58091E800877F8093E8000E94D8
:10537000D32B8091950280937102089580919202BF
:10538000813AA1F48091E800877F8093E8008091C2
:10539000E80080FFFCCF809171028093F100809142
:1053A000E8008E778093E8000C94D32B089584B79F
:1053B000877F84BF0FB6F894A895809160008861BC
:1053C00080936000109260000FBE90E080E80FB6FE
:1053D000F89480936100909361000FBE0E941111B8
:1053E0000E94252C0E94822C8091E2008460809390
:1053F000E20085EA97E20E947A1C78940E94162FB8
:105400000E9417118AE091E00E9459108BE09DE004
:105410000E94C90780919102853089F487E09DE060
:105420000E94C9070E94561E80918F02882391F323
:105430000E943D1E882371F30E947E2AEBCF0E94BA
:1054400047110E9405110E940411E4CF0C94282AF0
:10545000292F332723303105C9F060F4213031057D
:1054600081F02230310509F041C08BE590E02CE558
:105470003DE040C021323105E1F02232310531F109
:1054800035C082E190E027EB3DE034C099278130C0
:10549000910549F028F0029749F5E0E3FDE005C0E9
:1054A000E8E5FDE002C0E0E4FDE0849190E09F01CA
:1054B00021C063307105D0F4660F771FFB01E656FB
:1054C000FE4F2081318189E090E014C06330710586
:1054D00068F4FB01EE0FFF1FEC56FE4F2081318177
:1054E000FB01EF56FE4F808190E004C080E090E029
:1054F00020E030E0FA0131832083089580E189BD06
:1055000082E189BD09B400FEFDCF8091D8008F7D76
:105510008093D8008091E00082608093E0008091C9
:10552000E00081FDFCCF0895CF92DF92EF92FF92D1
:105530000F931F93CF93DF93EC018B017A010E94AD
:10554000F22B811133C0E114F10439F0F7018081AD
:105550009181081B190BC80FD91FC12CD12C011523
:10556000110519F18091E80085FD16C08091E800D1
:105570008E778093E800E114F10449F0F70180810F
:105580009181C80ED91ED182C08285E00FC00E94D1
:10559000F22B882321F30AC089918093F1000150F6
:1055A0001109FFEFCF1ADF0ADACF80E0DF91CF9148
:1055B0001F910F91FF90EF90DF90CF900895209171
:1055C0009802309199022617370748F06115710546
:1055D00039F42091E8002E772093E80001C0B9014A
:1055E000FC0120E06115710579F180919102882319
:1055F000F1F18530F1F18091E80083FD3CC08091AC
:10560000E80082FD2EC08091E80080FFEBCF209162
:10561000F3008091F20090E0922B6115710551F03A
:105620008830910538F421912093F100615071097F
:105630000196F3CF21E0089709F020E08091E8007F
:105640008E778093E800CECF2111CFCF0AC0809112
:105650009102882361F0853061F08091E80083FD3C
:105660000AC08091E80082FFF2CF80E0089582E0D6
:10567000089583E0089581E0089520919802309183
:1056800099022617370748F06115710539F4209102
:10569000E8002E772093E80001C0B901FC0120E06A
:1056A0006115710591F180919102882309F440C040
:1056B000853009F43FC08091E80083FD3DC08091B2
:1056C000E80082FD2FC08091E80080FFE9CF2091A3
:1056D000F3008091F20090E0922B6115710559F072
:1056E0008830910540F424912093F1003196615067
:1056F00071090196F2CF21E0089709F020E080912E
:10570000E8008E778093E800CBCF2111CCCF0AC080
:1057100080919102882361F0853061F08091E800EA
:1057200083FD0AC08091E80082FFF2CF80E00895F7
:1057300082E0089583E0089581E00895982F9730DE
:1057400068F59093E900981739F07091EC0020917A
:10575000ED005091F00003C0242F762F50E021FD82
:1057600002C09F5FECCF3091EB003E7F3093EB00A7
:105770003091ED003D7F3093ED003091EB003160D2
:105780003093EB007093EC002093ED005093F00009
:105790002091EE0027FDE5CF80E008958F70809383
:1057A000E90081E008958091920287FF11C0809105
:1057B000E80082FD05C0809191028111F8CF11C0EF
:1057C0008091E8008B770BC080919102882349F08B
:1057D0008091E80080FFF8CF8091E8008E77809379
:1057E000E80008952091E4003091E50095E64091AD
:1057F000EC00842F817040FF23C08091E80080FD81
:105800001DC080919102882399F0853099F0809194
:10581000EB0085FD11C04091E4005091E500241794
:10582000350729F3915011F09A01E1CF84E00895F2
:1058300082E0089583E0089581E0089580E008956E
:105840004091E80042FFDDCF08950E94932C0E9412
:105850009B2CE0EEF0E0808181608083E8EDF0E059
:1058600080818F77808319BCA7EDB0E08C918E7F0B
:105870008C9380818F7E80831092900208950F9385
:105880001F93CF93DF930E94932C0E949B2CC8ED13
:10589000D0E088818F778883888180688883888139
:1058A0008F7D888319BC1092910210928D02109204
:1058B0008F0210928E0200EE10E0F80180818B7F43
:1058C000808388818160888342E060E080E00E947C
:1058D0009E2BE1EEF0E080818E7F8083E2EEF0E0AF
:1058E000808181608083808188608083F8018081ED
:1058F0008E7F8083888180618883DF91CF911F9123
:105900000F910895E8EDF0E080818F7E8083E7EDD0
:10591000F0E080818160808384E082BF81E08093B9
:1059200090020C943F2CE8EDF0E080818E7F808324
:105930001092E20008951092DA001092E1000895AA
:105940001F920F920FB60F9211242F933F934F93F4
:105950005F936F937F938F939F93AF93BF93EF93D7
:10596000FF938091E10082FF0BC08091E20082FFF3
:1059700007C08091E1008B7F8093E1000E94CA28DC
:105980008091DA0080FF1FC08091D80080FF1BC08B
:105990008091DA008E7F8093DA008091D90080FFB9
:1059A0000DC080E189BD82E189BD09B400FEFDCF53
:1059B00081E0809391020E94A32805C019BC109237
:1059C00091020E94B5288091E10080FF19C080916A
:1059D000E20080FF15C08091E2008E7F8093E2009C
:1059E0008091E20080618093E2008091D800806223
:1059F0008093D80019BC85E0809391020E94C02852
:105A00008091E10084FF30C08091E20084FF2CC0CF
:105A100080E189BD82E189BD09B400FEFDCF80919E
:105A2000D8008F7D8093D8008091E1008F7E809395
:105A3000E1008091E2008F7E8093E2008091E2009D
:105A400081608093E20080918D02882311F084E0D0
:105A500007C08091E30087FD02C081E001C083E0C0
:105A6000809391020E94C4288091E10083FF29C0A5
:105A70008091E20083FF25C08091E100877F8093C1
:105A8000E10082E08093910210928D028091E1000A
:105A90008E7F8093E1008091E2008E7F8093E20010
:105AA0008091E20080618093E20042E060E080E06B
:105AB0000E949E2B8091F00088608093F0000E94ED
:105AC000BC28FF91EF91BF91AF919F918F917F91F2
:105AD0006F915F914F913F912F910F900FBE0F905B
